:020000040800F2
:1000000000500020715D0008215F0008255F000896
:10001000295F00082D5F0008315F00080000000024
:10002000000000000000000000000000355F000834
:10003000395F0008000000003D5F0008415F0008D4
:10004000B95D0008B95D0008B95D0008B95D000838
:10005000B95D0008B95D0008653E0008B95D00089B
:10006000F53E0008B95D0008B95D0008B95D0008FB
:10007000B95D0008B95D0008B95D0008B95D000808
:10008000B95D0008B95D0008B95D0008B95D0008F8
:10009000B95D0008B95D0008B95D0008993E000827
:1000A000B95D0008AD270008B95D0008B95D00081A
:1000B000B95D00089D460008A5280008B95D000844
:1000C000B95D0008B95D0008B95D0008B95D0008B8
:1000D000B95D00085D5C0008B95D0008752A00087C
:1000E000B95D0008B95D0008B95D000800000000B6
:1000F0000000000000000000000000000000000000
:0C01000000000000000000005FF808F1A3
:1001100010B5054C237833B9044B13B10448AFF341
:1001200000800123237010BD500200200000000059
:1001300018970008084B10B51BB108490848AFF3E1
:1001400000800848036803B910BD074B002BFBD0A3
:10015000BDE81040184700BF000000005402002016
:1001600018970008500200200000000081F00041B4
:1001700002E000BF83F0004330B54FEA41044FEA8C
:10018000430594EA050F08BF90EA020F1FBF54EA27
:10019000000C55EA020C7FEA645C7FEA655C00F0C3
:1001A000E2804FEA5454D4EB5555B8BF6D420CDD94
:1001B0002C4480EA020281EA030382EA000083EA17
:1001C000010180EA020281EA0303362D88BF30BDB7
:1001D00011F0004F4FEA01314FF4801C4CEA11310D
:1001E00002D0404261EB410113F0004F4FEA03336C
:1001F0004CEA133302D0524263EB430394EA050FF7
:1002000000F0A780A4F10104D5F1200E0DDB02FA65
:100210000EFC22FA05F2801841F1000103FA0EF2F9
:10022000801843FA05F359410EE0A5F120050EF1BF
:10023000200E012A03FA0EFC28BF4CF0020C43FAF0
:1002400005F3C01851EBE37101F0004507D54FF0FD
:10025000000EDCF1000C7EEB00006EEB0101B1F54D
:10026000801F1BD3B1F5001F0CD349085FEA300093
:100270004FEA3C0C04F101044FEA445212F5800F9E
:1002800080F09A80BCF1004F08BF5FEA500C50F13B
:10029000000041EB045141EA050130BD5FEA4C0C1E
:1002A000404141EB010111F4801FA4F10104E9D1A7
:1002B00091F0000F04BF01460020B1FA81F308BF9E
:1002C0002033A3F10B03B3F120020CDA0C3208DD6A
:1002D00002F1140CC2F10C0201FA0CF021FA02F145
:1002E0000CE002F11402D8BFC2F1200C01FA02F1B5
:1002F00020FA0CFCDCBF41EA0C019040E41AA2BFDA
:1003000001EB0451294330BD6FEA04041F3C1CDAA1
:100310000C340EDC04F11404C4F1200220FA04F0C1
:1003200001FA02F340EA030021FA04F345EA03016B
:1003300030BDC4F10C04C4F1200220FA02F001FA2D
:1003400004F340EA0300294630BD21FA04F02946AF
:1003500030BD94F0000F83F4801306BF81F4801148
:100360000134013D4EE77FEA645C18BF7FEA655CBB
:1003700029D094EA050F08BF90EA020F05D054EA8D
:10038000000C04BF1946104630BD91EA030F1EBF92
:100390000021002030BD5FEA545C05D14000494196
:1003A00028BF41F0004130BD14F580043CBF01F589
:1003B000801130BD01F0004545F0FE4141F470016F
:1003C0004FF0000030BD7FEA645C1ABF194610464A
:1003D0007FEA655C1CBF0B46024650EA013406BF4B
:1003E00052EA033591EA030F41F4002130BD00BF0A
:1003F00090F0000F04BF0021704730B54FF48064C7
:1004000004F132044FF000054FF0000150E700BF47
:1004100090F0000F04BF0021704730B54FF48064A6
:1004200004F1320410F0004548BF40424FF0000193
:100430003EE700BF42004FEAE2014FEA31014FEAD6
:1004400002701FBF12F07F4393F07F4F81F0605125
:10045000704792F0000F14BF93F07F4F704730B594
:100460004FF4607401F0004521F0004120E700BF27
:1004700050EA010208BF704730B54FF000050AE0AE
:1004800050EA010208BF704730B511F0004502D5AF
:10049000404261EB41014FF4806404F132045FEAB1
:1004A000915C3FF4DCAE4FF003025FEADC0C18BF56
:1004B00003325FEADC0C18BF033202EBDC02C2F14C
:1004C000200300FA03FC20FA02F001FA03FE40EADE
:1004D0000E0021FA02F11444C1E600BF70B54FF0DE
:1004E000FF0C4CF4E06C1CEA11541DBF1CEA1355C0
:1004F00094EA0C0F95EA0C0F00F0DEF82C4481EA28
:10050000030621EA4C5123EA4C5350EA013518BF47
:1005100052EA033541F4801143F4801338D0A0FB34
:1005200002CE4FF00005E1FB02E506F00042E0FBE1
:1005300003E54FF00006E1FB03569CF0000F18BFE7
:100540004EF0010EA4F1FF04B6F5007F64F540748F
:1005500004D25FEA4E0E6D4146EB060642EAC62122
:1005600041EA55514FEAC52040EA5E504FEACE2E8F
:10057000B4F1FD0C88BFBCF5E06F1ED8BEF1004F92
:1005800008BF5FEA500E50F1000041EB045170BD0E
:1005900006F0004646EA010140EA020081EA030152
:1005A000B4EB5C04C2BFD4EB0C0541EA045170BD4E
:1005B00041F480114FF0000E013C00F3AB8014F1C8
:1005C000360FDEBF002001F0004170BDC4F1000411
:1005D000203C35DA0C341BDC04F11404C4F1200592
:1005E00000FA05F320FA04F001FA05F240EA0200ED
:1005F00001F0004221F0004110EBD37021FA04F623
:1006000042EB06015EEA430E08BF20EAD37070BDDC
:10061000C4F10C04C4F1200500FA04F320FA05F03B
:1006200001FA04F240EA020001F0004110EBD3703D
:1006300041F100015EEA430E08BF20EAD37070BDAD
:10064000C4F1200500FA05F24EEA020E20FA04F386
:1006500001FA05F243EA020321FA04F001F0004135
:1006600021FA04F220EA020000EBD3705EEA430EA6
:1006700008BF20EAD37070BD94F0000F0FD101F0D5
:100680000046400041EB010111F4801F08BF013C0E
:10069000F7D041EA060195F0000F18BF704703F04C
:1006A0000046520043EB030313F4801F08BF013DD3
:1006B000F7D043EA0603704794EA0C0F0CEA13558F
:1006C00018BF95EA0C0F0CD050EA410618BF52EA49
:1006D0004306D1D181EA030101F000414FF000004F
:1006E00070BD50EA410606BF1046194652EA43065D
:1006F00019D094EA0C0F02D150EA013613D195EAD1
:100700000C0F05D152EA03361CBF104619460AD118
:1007100081EA030101F0004141F0FE4141F4700122
:100720004FF0000070BD41F0FE4141F4780170BD12
:1007300070B54FF0FF0C4CF4E06C1CEA11541DBF77
:100740001CEA135594EA0C0F95EA0C0F00F0A7F879
:10075000A4EB050481EA030E52EA03354FEA0131A6
:1007600000F088804FEA03334FF0805545EA1313B9
:1007700043EA12634FEA022245EA111545EA106581
:100780004FEA00260EF000419D4208BF964244F118
:10079000FD0404F5407402D25B084FEA3202B61A37
:1007A00065EB03055B084FEA32024FF480104FF40B
:1007B000002CB6EB020E75EB030E22BFB61A75467F
:1007C00040EA0C005B084FEA3202B6EB020E75EB12
:1007D000030E22BFB61A754640EA5C005B084FEA7A
:1007E0003202B6EB020E75EB030E22BFB61A754647
:1007F00040EA9C005B084FEA3202B6EB020E75EB52
:10080000030E22BFB61A754640EADC0055EA060E12
:1008100018D04FEA051545EA16754FEA06164FEA55
:10082000C30343EA52734FEAC2025FEA1C1CC0D101
:1008300011F4801F0BD141EA00014FF000004FF08E
:10084000004CB6E711F4801F04BF01430020B4F14F
:10085000FD0C88BFBCF5E06F3FF6AFAEB5EB030C07
:1008600004BFB6EB020C5FEA500C50F1000041EB04
:10087000045170BD0EF0004E4EEA113114EB5C04D1
:10088000C2BFD4EB0C0541EA045170BD41F48011A4
:100890004FF0000E013C90E645EA060E8DE60CEAAC
:1008A000135594EA0C0F08BF95EA0C0F3FF43BAFC9
:1008B00094EA0C0F0AD150EA01347FF434AF95EA80
:1008C0000C0F7FF425AF104619462CE795EA0C0F64
:1008D00006D152EA03353FF4FDAE1046194622E731
:1008E00050EA410618BF52EA43067FF4C5AE50EA0B
:1008F00041047FF40DAF52EA43057FF4EBAE12E7FB
:100900004FEA410212F5001215D211D56FF4787337
:10091000B3EB625212D94FEAC12343F0004343EADA
:10092000505311F0004F23FA02F018BF40427047B5
:100930004FF00000704750EA013005D111F000403F
:1009400008BF6FF0004070474FF00000704700BFD5
:10095000034613F8012B002AFBD1181A01387047FF
:100960004FF0FF3C06E000BF4FF0010C02E000BF7B
:100970004FF0010C4DF804CD4FEA410C7FEA6C5C5E
:100980004FEA430C18BF7FEA6C5C1BD001B050EA01
:10099000410C0CBF52EA430C91EA030F02BF90EAEC
:1009A000020F0020704710F1000F91EA030F58BFAB
:1009B000994208BF90422CBFD8176FEAE37040F00D
:1009C000010070474FEA410C7FEA6C5C02D150EAAB
:1009D000013C07D14FEA430C7FEA6C5CD6D152EA66
:1009E000033CD3D05DF8040B704700BF844610462B
:1009F00062468C461946634600E000BF01B5FFF72A
:100A0000B7FF002848BF10F1000F01BD4DF808EDF9
:100A1000FFF7F4FF0CBF012000205DF808FB00BFCA
:100A20004DF808EDFFF7EAFF34BF012000205DF824
:100A300008FB00BF4DF808EDFFF7E0FF94BF012071
:100A400000205DF808FB00BF4DF808EDFFF7CEFF72
:100A500094BF012000205DF808FB00BF4DF808EDB1
:100A6000FFF7C4FF34BF012000205DF808FB00BF82
:100A70004FEA410C7FEA6C5C02D150EA013C0AD19A
:100A80004FEA430C7FEA6C5C02D152EA033C02D18C
:100A90004FF0000070474FF001007047002875D0FC
:100AA0002DE9F041BCB00746002A6CD0002B6AD07B
:100AB0004298402867DC1C461646884640252A4650
:100AC000002115A805F0FDFA2A46002105A805F029
:100AD000F8FA429A214615A805F0E8FA429A21460A
:100AE00005A805F0E3FA00240EE03CAB234413F81C
:100AF0009C5C85F0360503F89C5C13F8DC5C85F0A3
:100B00005C0503F8DC5C01343F2CEEDD25A800F029
:100B100049F825A800F04CF8402215A925A801F0B5
:100B200081F84246394625A801F07CF8694625A897
:100B300001F0B2F825A800F035F825A800F038F843
:100B4000402205A925A801F06DF81422694625A8C0
:100B500001F068F8694625A801F09EF8002410E02D
:100B600065003CAB1F1917F8F00C000900F010F8F5
:100B700006F81400013517F8F00C00F009F870556C
:100B80000134132CECDD3CB0BDE8F081704700BFB0
:100B900000F00F00092801D830307047573040B2BC
:100BA000704700BF08B55C22002105F08AFA08BD35
:100BB000002303604360094B836003F18833C36003
:100BC00003F12943A3F59613A3F68B630361A3F105
:100BD00088334361024B8361704700BF012345673F
:100BE000F0E1D2C32DE9F04F9BB015900B78487817
:100BF000000440EA03608A7840EA0220CA7802438F
:100C000008920B794879000440EA036091F806B035
:100C100040EA0B2091F807B040EA0B0409940D7AE2
:100C20004B7A1B0443EA05658B7A45EA0323CD7AA8
:100C30001D430B7B91F80DA04FEA0A4A4AEA036A6A
:100C40008B7B4AEA032ACB7B4AEA030A0B7C91F8A6
:100C500011904FEA094949EA03698B7C49EA032963
:100C6000CB7C49EA03060D960B7D91F815804FEA7F
:100C7000084848EA03688B7D48EA0328CB7D48EAA8
:100C800003040A940B7E91F819C04FEA0C4C4CEA0D
:100C9000036C8B7E4CEA032CCB7E4CEA03060B964E
:100CA0000B7F91F81DE04FEA0E4E4EEA036E8B7FEC
:100CB0004EEA032ECB7F4EEA030ECDF830E091F8DA
:100CC000203091F821703F0447EA036791F8223001
:100CD00047EA032791F8233047EA030ECDF80CE0EA
:100CE00091F8243091F82500000440EA036091F85F
:100CF000263040EA032091F8273040EA030ECDF871
:100D000010E091F8282091F829301B0443EA02638F
:100D100091F82A2043EA022391F82B2043EA020E9D
:100D2000CDF814E091F82C3091F82D00000440EA41
:100D3000036091F82E3040EA032091F82F3040EA0A
:100D4000030ECDF818E091F8303091F8310000042E
:100D500040EA036091F8323040EA032091F83330E2
:100D600040EA030ECDF81CE091F8343091F83500DC
:100D7000000440EA036091F8363040EA032091F81D
:100D8000373040EA030ECDF800E091F8383091F8A2
:100D90003900000440EA036091F83A3040EA032049
:100DA00091F83B3040EA030ECDF804E091F83C2086
:100DB00091F83D301B0443EA026391F83E2043EA78
:100DC000022391F83F1019430291159A93681F4628
:100DD000D0680E90136918465369916916911A46A6
:100DE00080EA03040E9E34405440394604EBF76415
:100DF000089B1C44169B1C44E64B1C444FEAB60659
:100E0000074680EA060E01EA0E0E87EA0E0E0EEB8A
:100E1000F46E09988644199296449E4417914FEABD
:100E2000B10286EA02012140714001EBFE612944D2
:100E30001897394419444FEAB40482EA04000EEAD0
:100E40000000504000EBF160504406441E444FEA5D
:100E5000BE0E84EA0E0801EA080884EA080808EBD6
:100E6000F6680D9FB844904498444FEAB1018EEA69
:100E7000010C06EA0C0C8EEA0C0C0CEBF86C0A9FC9
:100E8000BC44A4449C444FEAB60681EA060208EA40
:100E900002024A4002EBFC620B9C224472441A4458
:100EA0004FEAB80886EA080B0CEA0B0B86EA0B0B34
:100EB0000BEBF26B0C9CA3448B449B444FEABC0CA1
:100EC00088EA0C07174088EA070707EBFB67039CD3
:100ED000274437441F444FEAB2028CEA02000BEA6F
:100EE00000008CEA000000EBF760049E30444044B0
:100EF00018444FEABB0B82EA0B043C40544004EB1D
:100F0000F064059E344464441C444FEAB7078BEAFE
:100F1000070E00EA0E0E8BEA0E0E0EEBF46E06992B
:100F20008E4496449E444FEAB00087EA0001214077
:100F3000794001EBFE61079E3144594419444FEA60
:100F4000B40480EA04060EEA0606464006EBF166A3
:100F5000009A16443E441E444FEABE0E84EA0E0830
:100F600001EA080884EA080808EBF668019FB8441B
:100F7000804498444FEAB1018EEA010C06EA0C0C59
:100F80008EEA0C0C0CEBF86C029FBC4464441C44CD
:100F90004FEAB609039E86EA02006840089A50406C
:100FA00081EA090208EA02024A4002EBF4624FEACF
:100FB000F076089632441A4472444FEAB80804980E
:100FC000019E70408AEA0000099E704089EA080B81
:100FD00004EA0B0B89EA0B0B0BEBF26B4FEAF07692
:100FE0000996B3449B448B444FEAB40C059CA64637
:100FF0008EEA07010D9F79404D4088EA0C061640A5
:1010000088EA060606EBFB664FEAF57528462E448D
:101010001E444E444FEAB20E069DA946089D89EA39
:1010200005020A9D6A408AEA020A8CEA0E050BEA6A
:1010300005058CEA050505EBF6654FEAFA7A554495
:101040001D4445444FEABB01079B9846099B88EA2B
:1010500003090B9C84EA090987EA090986EA010465
:101060008EEA040404EBF5644FEAF9794C4404F188
:10107000DD4404F5B30404F5D744213464444FEA55
:10108000B607009E034686EA00080C9A82EA080822
:101090000A9A82EA080885EA07024A4002EBF462EB
:1010A0004FEAF878424402F1DD4202F5B30202F55C
:1010B000D742213272444FEAB500019D85EA0A0CFD
:1010C000039D85EA0C0C0B9E86EA0C0C84EA000B4F
:1010D00087EA0B0B0BEBF26B4FEAFC7CE3440BF162
:1010E000DD4B0BF5B30B0BF5D74B0BF1210B8B4401
:1010F0004FEAB404029981EA090E049981EA0E0EBE
:101100000C9E86EA0E0E82EA0406464006EBFB665B
:101110004FEAFE7E764406F1DD4606F5B30606F597
:10112000D74621363E444FEAB202089F87EA0807B5
:10113000059D6F40039D6F408BEA0205654005EBFE
:10114000F6654FEAF7773D4405F1DD4505F5B30552
:1011500005F5D745213505444FEABB0B099981EACE
:101160000C00069948400499484086EA0B0151401A
:1011700001EBF5614FEAF0700390014401F1DD41AC
:1011800001F5B30101F5D74121310C444FEAB60610
:1011900002E000BF9979825A83EA0E010798414024
:1011A0000598414085EA06008BEA000000EBF460F8
:1011B0004FEAF1710491084400F1DD4000F5B300FD
:1011C00000F5D740213002444FEAB5058AEA07000E
:1011D000009948400699484084EA0501714001EBB6
:1011E000F2614FEAF0700590014401F1DD4101F533
:1011F000B30101F5D74121318B444FEAB404039880
:1012000089EA0000019948400799484082EA0401B0
:10121000694001EBFB614FEAF0700690014401F177
:10122000DD4101F5B30101F5D74121310E444FEA0B
:10123000B202049888EA00000299484000994840A8
:101240008BEA0201614001EBF6614FEAF070009019
:10125000014401F1DD4101F5B30101F5D74121312F
:101260000D444FEABB0B05998CEA010008994840F0
:101270000199484086EA0B01514001EBF5614FEAC4
:10128000F0700190014401F1DD4101F5B30101F578
:10129000D74121310C444FEAB6000A9006998EEAF4
:1012A000010109984140029841400A9868408BEA40
:1012B000000000EBF4604FEAF1710291084400F184
:1012C000DD4000F5B30000F5D740213010444FEA6F
:1012D000B505009A7A405A4008994A4084EA0501C7
:1012E0000A9E714001EBF0614FEAF27207921144DD
:1012F00001F1DD4101F5B30101F5D7412131594437
:101300004FEAB404039A9346019A8BEA020B8AEAE5
:101310000B0B099A82EA0B0B80EA04026A4002EB8B
:10132000F1624FEAFB7BCDF834B05A4402F1DD4262
:1013300002F5B30202F5D74221320A9E16444FEA63
:10134000B000049A9346029A8BEA020289EA0202EA
:101350005A4081EA000B84EA0B0B0BEBF66B4FEA69
:10136000F27308939B440BF1DD4B0BF5B30B0BF5BC
:10137000D74B0BF1210B5D444FEAB101059B9B4616
:10138000079B8BEA030288EA02028AEA020A86EADB
:101390000102424002EBF5624FEAFA7B5A4402F145
:1013A000DD4202F5B30202F5D742213214444FEA7E
:1013B000B606069B9A460D9B8AEA03028CEA020255
:1013C00089EA020985EA060A81EA0A0A0AEBF46A4E
:1013D0004FEAF979CDF83C90CA440AF1DD4A0AF5A2
:1013E000B30A0AF5D74A0AF1210A50444FEAB50573
:1013F000009B9946089B9A4689EA03028EEA0202FC
:1014000088EA020884EA0502724002EBF0624FEAC1
:10141000F878CDF82480424402F1DD4202F5B302AF
:1014200002F5D742213211444FEAB404019B83EA0A
:101430000B0887EA08088CEA080C80EA040985EAA8
:10144000090909EBF1694FEAFC7CCDF828C0E144B9
:1014500009F1DD4909F5B30909F5D74909F1210970
:101460004E444FEAB000029B0F9A83EA020C039BA2
:10147000984683EA0C0C8EEA0C0E81EA0002624068
:1014800002EBF6624FEAFE7ECDF82CE0724402F1E8
:10149000DD4202F5B30202F5D742213215444FEA8C
:1014A000B101079A9646099A8EEA0203049A5340BC
:1014B0005F4006EA010246EA010303401A4302EBD9
:1014C000F5624FEAF7770C973A44DA4B1A44144422
:1014D0004FEAB6060D9FBE460A9F8EEA0702059F99
:1014E0007A4047467A4005EA060E45EA06070F406D
:1014F0004EEA070707EBF4674FEAF27210921744BF
:101500001F4438444FEAB5050B9F8AEA0702069F3D
:101510007A40049F7A4004EA050E44EA0507374002
:101520004EEA070707EBF0674FEAF272039217449F
:101530001F4439444FEAB4040C9F8BEA0702009F12
:101540007A40059F7A4000EA040E40EA04072F40E3
:101550004EEA070707EBF1674FEAF272049217446D
:101560001F443E444FEAB00E0F98844610988CEA10
:10157000000701984740069A574001EA0E0041EAE9
:101580000E022240024302EBF6624FEAF77011901E
:10159000024402EB030845444FEAB101099884462E
:1015A00003988CEA0000029A5040009F784006EAB7
:1015B000010246EA01070EEA0707174307EBF56742
:1015C0004FEAF0701290074407EB030C64444FEAB3
:1015D000B6060A9F04987840079F7840019F78409C
:1015E00005EA060745EA06020A403A4302EBF462BE
:1015F0004FEAF0771397D019184470444FEAB508B2
:101600000B9DAE46119D8EEA050C0D9F87EA0C0CD2
:10161000029D85EA0C0C04EA080944EA08023240FB
:1016200049EA020909EBF0694FEAFC7ECDF800E0D7
:10163000F144994489444FEAB40C0C99129C81EA14
:10164000040255466A40079C624000EA0C0440EAE6
:101650000C0108EA01010C4304EBF9644FEAF27152
:10166000019165181D4435444FEAB000109C139E4B
:1016700084EA06018BEA0101794009EA000749EA98
:1016800000020CEA0202174307EBF5674FEAF17616
:10169000029607EB060E9E44C6444FEAB901039E2C
:1016A000009A72400F9E7240089C624005EA010851
:1016B00045EA0104044048EA040808EBFE684FEAE2
:1016C000F2740594A0449844E0444FEAB504049DA4
:1016D000019A85EA020A099D85EA0A0A8BEA0A0A42
:1016E0000EEA040B4EEA04020A404BEA020202EB45
:1016F000F8624FEAFA7CCDF83CC002EB0C0B9B443D
:1017000083444FEABE07119A029882EA00090A9DB3
:1017100085EA090986EA090908EA070648EA07028C
:101720002240164306EBFB664FEAF97ECDF850E007
:1017300076441E440E444FEAB8021299059841407F
:101740000B9D6940099D69400BEA02054BEA0200C6
:101750003840054305EBF6654FEAF17106910D44FB
:101760001D4425444FEABB0A13990F9881EA0008EB
:101770000C9981EA08080A9C84EA080806EA0A0E1D
:1017800046EA0A0111404EEA010E0EEBF56E4FEAF1
:10179000F87CCDF81CC0E6449E44BE444FEAB6092E
:1017A000009F149E87EA060C109F87EA0C0C0B9C86
:1017B00084EA0C0C05EA090845EA09010AEA010174
:1017C00048EA010808EBFE684FEAFC7CCDF820C02F
:1017D000E044984490444FEAB504019D069985EA97
:1017E0000100039E70400C9D68400EEA040C4EEA16
:1017F000040209EA02024CEA020C0CEBF86C4FEA14
:10180000F07509950CEB050B9B44D3444FEABE0ED3
:101810000299079D6940049D6940794008EA0E06D7
:1018200048EA0E0525402E4306EBFB664FEAF177AA
:101830000A9701E0DCBC1B8F3E441E444E444FEA35
:10184000B808059F089887EA0002119F7A40039D17
:101850006A400BEA08054BEA08000EEA000005435F
:1018600005EBF6654FEAF272039215441D442544D8
:101870004FEABB0C0F9B9946099B89EA0300129C17
:101880006040049B584006EA0C0246EA0C0308EA52
:101890000303134303EBF5634FEAF0700490034432
:1018A000D74919448E444FEAB600149B0A9A83EA3A
:1018B0000201139E7140794085EA00078CEA070710
:1018C00007EBFE674FEAF1730B931F44CD4B1F44A8
:1018D00047444FEAB505069A03994A4000994A40A1
:1018E00062408EEA050B80EA0B0B0BEBF76B4FEABD
:1018F000F2740C94A3449B44E3444FEABE01079C5A
:10190000A646049C8EEA0408019C84EA080886EA3C
:10191000080887EA01066E4006EBFB664FEAF87E90
:10192000CDF834E076441E4406444FEAB702089FDF
:101930000B9C87EA040C029F87EA0C0C009C84EA4B
:101940000C0C8BEA02044C4004EBF6644FEAFC7E7C
:10195000CDF800E074441C442C444FEABB0A099DB6
:101960000C986840059F7840019D684086EA0A0E01
:1019700082EA0E0E0EEBF46E4FEAF0752846AE4486
:101980009E448E444FEAB6090A9EB4460D9E8CEAE8
:1019900006010F9E7140029D694084EA09078AEAA8
:1019A000070707EBFE674FEAF17501952F441F44C7
:1019B00017444FEAB405039C009984EA0102149984
:1019C0004A40059C62408EEA050B89EA0B0B0BEB43
:1019D000F76B4FEAF27293449B44D3444FEABE083C
:1019E000049CA64605908EEA000A069C84EA0A0A30
:1019F00086EA0A0A87EA08066E4006EBFB664FEAAB
:101A0000FA7A56441E444E444FEAB70C0B9FBE462A
:101A1000019F8EEA0709079F87EA090981EA0909F8
:101A20008BEA0C0488EA040404EBF6644FEAF979C3
:101A30004C441C442C444FEABB000C995140089F75
:101A40007940069D694086EA000E8CEA0E0E0EEB88
:101A5000F46E4FEAF17106918E449E44C6444FEAFB
:101A6000B6010D9E86EA0A08099E86EA0808079DC7
:101A700085EA080884EA0107474007EBFE674FEA5A
:101A8000F87847441F4467444FEAB404009D85EA50
:101A9000090C0A9D85EA0C0C089D85EA0C0C8EEA5F
:101AA000040B81EA0B0B0BEBF76B4FEAFC7CE34476
:101AB0009B4483444FEABE0E059D069E85EA0600C0
:101AC000039E7040099E704087EA0E06664006EB52
:101AD000FB664FEAF07006441E440E444FEAB70717
:101AE000019981EA0801049D69400A9D69408BEAD9
:101AF00007058EEA050505EBF6654FEAF1710D4421
:101B00001D442C444FEABB0B82EA0C020B9D6A4039
:101B1000039D6A4086EA0B057D4005EBF4654FEABC
:101B2000F27215441D4475444FEAB60602968AEADD
:101B300000000C9E7040049E7040029E84EA060ED7
:101B40008BEA0E0E0EEBF56E4FEAF07086449E4463
:101B500077444FEAB40489EA01010D9E71400B9E5F
:101B6000714085EA040E029E86EA0E0E0EEBF76EB9
:101B70004FEAF1718E449E44F3444FEAB505069E48
:101B80007240009E72400C9E724087EA050E84EA05
:101B90000E0E0EEBFB6E0EEBF27E9E44029A72442A
:101BA00016464FEAB70788EA0000059A50400D9A9A
:101BB00050408BEA07026A4002EBF66202EBF072D9
:101BC0001A4414444FEABB0B8CEA010C019981EAD8
:101BD0000C0C009981EA0C0186EA0B0C87EA0C0CCC
:101BE0000CEBF46202EBF17C63441D44179B9E46B0
:101BF0001D44159A95600E9B1C44D460189803E010
:101C0000DCBC1B8FD6C162CA00EBB6061661199800
:101C100000EB0B035361169B1F4497611BB0BDE89B
:101C2000F08F00BFB2B32DE9F84306460D461446C7
:101C3000036803F03F07C7F14008134403609A426A
:101C400002D9436801334360C7B1444516D306F156
:101C50001C094246294609EB070004F027FA4946C9
:101C60003046FEF7BFFF4544C8EB0404002705E0FB
:101C700029463046FEF7B6FF4035403C3F2CF7D8AA
:101C800034B106F11C0022462946384404F00EFA0D
:101C9000BDE8F883704700BF30B583B004460D46F9
:101CA00002684368DB0043EA5273D100180E8DF8D6
:101CB0000000C3F307408DF80100C3F307208DF83F
:101CC00002008DF803300B0E8DF80430C1F307438A
:101CD0008DF80530C1F307238DF806308DF8071015
:101CE00002F03F02372A02D8C2F1380201E0C2F105
:101CF000780219492046FFF795FF082269462046D9
:101D0000FFF790FFE37A2B70A37A6B70637AAB7066
:101D1000237AEB70E37B2B71A37B6B71637BAB71DD
:101D2000237BEB71E37C2B72A37C6B72637CAB72C5
:101D3000237CEB72E37D2B73A37D6B73637DAB73AD
:101D4000237DEB73E37E2B74A37E6B74637EAB7495
:101D5000237EEB7403B030BD3C97000810B5814B77
:101D60001B78012B40F0D4807F4B1B687F4A1268A0
:101D7000934229D09978102915D0822903D17C4B20
:101D80001B78012B0FD0302903D1794B1B78012B05
:101D900009D0C02903D1764B1B78012B03D0754B9A
:101DA0001B78012B10D1744804F004FE6E4C20689F
:101DB00000F042FE236803F5007323606F4A126847
:101DC000934201D16E4A22606E4B1A686E4B1B68BB
:101DD0009A4200F088806D4804F0ECFD694B1A6867
:101DE0009378202B3DD15379052B33D8DFE803F0CE
:101DF000030F161D242B664804F04EFE01225C4B97
:101E00001A700022634B1A7000F010FC5FE0624809
:101E100004F042FE0022534B1A7058E05F4804F071
:101E20003BFE00224F4B1A7051E05D4804F034FE37
:101E300000224C4B1A704AE05A4804F02DFE002252
:101E4000484B1A7043E0584804F026FE0022454BE8
:101E50001A703CE0554804F01FFE0022414B1A70F6
:101E600035E0902B15D19379012B0BD8504804F015
:101E700013FE01223F4B1A700022464B1A7000F0ED
:101E8000D5FB24E04B4804F007FE0022354B1A70C6
:101E90001DE0D02B12D1484804F0FEFD3D4B1B78CD
:101EA000012B03D100223B4B1A7010E0012B0ED9FD
:101EB0000022384B1A7000F0B9FB08E0302B06D135
:101EC0003E4804F0E9FD2F4B186800F055FB2D4A01
:101ED000136803F500731360394A1268934202D104
:101EE000384A284B1A60384B1A68384B1B689A429C
:101EF00036D001F069FD344A136803F500731360AE
:101F0000334A126893422BD1324A2F4B1A6010BDCC
:101F1000314804F0C1FD0021304803F01BFC0021D2
:101F20002F4803F017FC00212E4B19604FF48062FC
:101F30002D4804F0C6F800F02FFF88B92B4804F0B4
:101F4000ABFD0122074B1A700021264B19604FF49C
:101F50008062254804F0B5F800F024FA00F0A6FBF2
:101F600010BD00BF18230020142300206C12002095
:101F700074120020082300207C97000870120020B3
:101F8000AC2600209C250020B83600208C97000845
:101F900098970008A4260020AC970008D497000862
:101FA00000980008249800085098000870980008CD
:101FB000909800089C980008B0980008D0980008F5
:101FC000001300206C020020A8260020B436002058
:101FD0000C23002008130020E498000800080040AB
:101FE000002C0140BC360020C0360020F4980008C8
:101FF00008B54FF4E13000F091FC00F071FD41F6BE
:102000001F4140F22B1000F015FC00F003F800F027
:1020100047F808BD124B134A1360134A136003F5C7
:102020006063124A1360124B124A1360124A136023
:1020300003F56063114A1360114B124A1360124A90
:10204000136003F56063114A13600023104A137094
:10205000104A1370104A1370104A1370704700BF73
:102060006C020020B83600209C25002000130020C0
:10207000AC2600206C1200201423002070120020D7
:1020800008130020B4360020A82600200C230020CE
:10209000A42600200823002074120020182300200A
:1020A0002DE9F041A2B0274C274E22462749304661
:1020B00004F0A4FD3046FEF74BFC254B1860254F7D
:1020C000254D3B4622462549284604F097FD2846E3
:1020D000FEF73EFC224B186000972346224621491A
:1020E00002A804F08BFD02A8FEF732FC1E4C202350
:1020F00000931E4B2246014602A8FEF7CFFC204665
:10210000FEF726FC1A4B1860DFF880803A46194922
:10211000404604F073FD40F25B72174B1A60414673
:10212000164804F047FC3146154804F043FC2946A4
:10213000144804F03FFC2146134804F03BFC22B055
:10214000BDE8F081089900087C1200201099000871
:1021500078120020389900081C23002044990008B8
:10216000041300204C990008A02500207099000855
:102170001023002094990008FC120020BC9900084C
:10218000D0990008E0990008F09900082426002062
:1021900038B50C46134D2B680A460146981C03F0CF
:1021A00085FF2A682346002C01DA04F1FF031B1285
:1021B00013700C4B1A680C4B2340002B03DA013BC5
:1021C00063F0FF0301335370064A136803F500738D
:1021D0001360064A1268934202D1054A014B1A6005
:1021E00038BD00BF6C120020FF000080701200207C
:1021F000AC2600202DE9F04701225E4B1A600A222E
:102200005D4B1A605D4B1D682E1D5D4BD3F8008041
:10221000464402365B4B1F683E445B4B1E60B2185F
:1022200010215A4B19705A4B1340002B03DA013B13
:1022300063F07F0301331146002A01DA02F17F01C6
:10224000CA11002A01DD43F080034A490C684F4857
:10225000035501340C60002AE5DC034600210155DA
:10226000621C04209854A21C4FF04D0E03F802E0AB
:10227000E21C4FF0510E03F802E022184FF0540E0A
:1022800003F802E0621D03F802E0A21D9854E21D6B
:10229000C220985404F10802995404F109026421FF
:1022A000995404F10A0A2B46002D01DA05F1FF03C7
:1022B0001B12364A02F80A3004F10B02354B2B4050
:1022C000002B03DA013B63F0FF0301332F488354F3
:1022D00004F10C092A463049484403F0E7FEA944BA
:1022E0004346B8F1000F01DA08F1FF031B12274A39
:1022F00002F8093004F10D022A44264B08EA0303D0
:10230000002B03DA013B63F0FF0301331F488354C2
:1023100004F10E09A94442462049484403F0C6FE90
:10232000C1443B46002F01DA07F1FF031B12174A95
:1023300002F8093004F10F022A444244154B3B4095
:10234000002B03DA013B63F0FF030133DFF83C901D
:1023500009F8023004F11000284440443A4610497C
:10236000484403F0A3FE06EB0A014846FFF710FFBE
:10237000BDE8F087AC36002020260020781200202F
:102380000413002010230020B03600209C230020DE
:102390007F000080FF0000807C1200201C230020B2
:1023A000A025002038B51A4B1B681A4A1468A342AE
:1023B00023D0194B9C4204D103F50062144B1A60E0
:1023C00013E0164B9C4204D103F50062104B1A60D7
:1023D0000BE0134B9C4204D103F500620C4B1A60D6
:1023E00003E0A4F5C0630A4A13600A4D084B1B685A
:1023F0002B60FFF7FFFE2C6001E0FFF7FBFE0023E0
:10240000084A1370084A1370084A137038BD00BF99
:10241000142300206C120020AC260020AC280020E1
:10242000AC2A00200823002074120020A4260020DB
:1024300008B50448C0230370002343700221FFF74E
:10244000A7FE08BD9C2300202DE9F04704468846DE
:1024500015460122284B1A60FEF77AFA861C274B94
:102460001E60274B1D6072193021264B1970264BB8
:102470001340002B03DA013B63F07F030133114665
:10248000002A01DA02F17F01CA11002A01DD43F0BE
:102490008003194801681B4F7B544F1C0760002ABA
:1024A000E5DC2046FEF754FA000ADFF8589009F8F8
:1024B000070007F1010A2046FEF74AFA09F80A0068
:1024C00007F1020ACA442046FEF742FA02462146B4
:1024D000504603F0EBFD2046FEF73AFA384402304E
:1024E0002A464146484403F0E1FDF1192944484693
:1024F000FFF74EFEBDE8F087AC3600202026002016
:10250000B03600209C2300207F00008038B50C46A8
:10251000154D2B680A460146981C03F0C7FD2A6832
:102520002346002C01DA04F1FF031B1213700E4B3B
:102530001A680E4B2340002B03DA013B63F0FF03C4
:1025400001335370084A0234136800211955136887
:1025500003F500731360064A1268934202D1054ADC
:10256000014B1A6038BD00BFB4360020FF00008068
:102570000C230020081300202DE9F047ADF5007D65
:1025800090F800E0437803EB0E2E841C00273E46B3
:102590000136012213460020F918615C01F07F0525
:1025A00005FB0200D201013311F0800FF4D1034486
:1025B0001F44BEEB030EEBD131461B4804F0FAF981
:1025C0004FF00009C84629E03B4602E001221346CD
:1025D000002508EB0301615C01F07F0000FB025560
:1025E000D2015F1C11F0800FEED108EB0701605C97
:1025F00002334344E25C02EB0022931CC3EB050A66
:10260000194452462144684603F050FD514668463D
:10261000FFF77CFF3D44A84409F10109B145D5DB32
:102620000DF5007DBDE8F087009A000810B584B074
:102630004FF4A06002F0FAFA01214FF4006002F0BA
:102640004BFD194C204602F0B5FE47F22F53ADF872
:10265000083043F63F03ADF804300023ADF80630F0
:10266000ADF80A3001A9204602F0A4FF012120465E
:1026700003F01AF901221146204603F079F80121EE
:10268000204603F067F819238DF8003002238DF8F7
:10269000013001238DF802308DF80330684602F0D6
:1026A000CFFA04B010BD00BF002C014010B584B0BB
:1026B0004FF4A06002F0BAFA01214FF4006002F07A
:1026C0000BFD194C204602F075FE41F28733ADF840
:1026D000083043F63F03ADF804300023ADF8063070
:1026E000ADF80A3001A9204602F064FF012120461E
:1026F00003F0DAF801221146204603F039F80121EF
:10270000204603F027F819238DF8003002238DF8B6
:10271000013001238DF802308DF80330684602F055
:102720008FFA04B010BD00BF002C014010B584B07A
:102730004FF4A06002F07AFA01214FF4006002F039
:10274000CBFC194C204602F035FE40F2CF73ADF8B9
:10275000083043F63F03ADF804300023ADF80630EF
:10276000ADF80A3001A9204602F024FF01212046DD
:1027700003F09AF801221146204602F0F9FF0121E8
:10278000204602F0E7FF19238DF8003002238DF870
:10279000013001238DF802308DF80330684602F0D5
:1027A0004FFA04B010BD00BF002C014008B5012154
:1027B0001C4803F06DF8002833D01B4B197805290D
:1027C00027D8DFE801F0030B1515151DFFF730FEC4
:1027D000154B1978154804F0EDF81AE0FFF7A6FF3D
:1027E000FFF726FE104B1978104804F0E3F810E0CC
:1027F000FFF71EFE0C4B19780C4804F0DBF808E0DC
:102800000A4804F0D7F80021094B1970054802F076
:10281000A1FF054A1378013313700121014803F029
:1028200043F808BD002C0140A42600201C9A000893
:102830001823002030B585B005460C464FF4A06043
:1028400002F0F4F90121042002F054FCADF8085024
:10285000ADF804400024ADF80640ADF80A40104D34
:1028600001A9284602F0A6FE0121284603F01CF823
:1028700001221146284602F07BFF2146284602F03D
:1028800069FF1E238DF8003001238DF801308DF88B
:1028900002408DF80330684602F0D2F905B030BD31
:1028A0000008004038B50121164802F0F1FF40B39E
:1028B000154C2068154D2A681549023003F0F6FBC7
:1028C00022682B681B0A137023682A685A702368D1
:1028D00003F5007323600F4A1268934201D10E4A38
:1028E00022600025094B1D60064C2946204602F057
:1028F00031FF2946204602F05BFF0121204602F00D
:10290000D3FF38BD00080040B8360020BC36002098
:10291000C0360020001300206C02002070B586B085
:1029200006464FF4A06002F081F901214FF48020A7
:1029300002F0E0FB0121082002F0CEFB254D2846E5
:1029400002F0B6FF4FF48063ADF8143003238DF826
:10295000163018238DF817301F4C05A9204602F0B9
:10296000DBFA4FF40063ADF8143004238DF8173010
:1029700005A9204602F0D0FA01960024ADF80840DF
:10298000ADF80A40ADF80C40ADF810400C23ADF89E
:102990000E3001A9284602F0DDFF2021284603F071
:1029A00077F8012240F22551284603F045F8272305
:1029B0008DF800308DF801408DF8024001248DF82B
:1029C0000340684602F03CF92146284603F026F809
:1029D00006B070BD00480040000C01400FB410B5B7
:1029E00082B004AA52F8041B0192114C204604F054
:1029F000CBF92046FDF7ACFF0E4B1B8803F04003DC
:102A00009BB2002BF8D000220BE0094B995C094BDC
:102A10009980084B1B8803F040039BB2002BF8D031
:102A200001328242F1D302B0BDE8104004B07047D9
:102A3000C03A0020004800400D4B1B8803F04003C3
:102A40009BB2002BF8D001220BE083185978084B79
:102A50009980074B1B8803F040039BB2002BF8D0F2
:102A600001320178437803EB01239A42EDDD704790
:102A70000048004008B540F22551144803F00CF816
:102A800018B3134B1B7863B9104B9B889BB2E3B10F
:102A9000104A13680D4988880F49C85401331360E0
:102AA00008BD0C4B1B68094A91880B4AD15423B9C5
:102AB00001210A4802F04EFE03E00021074802F01F
:102AC00077FE044A13680133136008BD00480040D4
:102AD00018230020BC360020C0360020000800402B
:102AE00030B583B00121042002F0F6FA4025ADF89C
:102AF000045003238DF8063010238DF80730064C60
:102B000001A9204602F008FA01222946204602F0D7
:102B10005BFA03B030BD00BF0008014038B5054680
:102B20000C460021124B19604FF48062114803F0EB
:102B3000C8FA29461048FFF751FF0CE0642003F063
:102B40000DF80E490B4804F0ECF838B929460C484A
:102B500003F030FF2C46651E002CEFD1094803F02E
:102B60009BFF002D01DC012038BD002038BD00BFD7
:102B7000BC360020C03600202C9A0008349A000889
:102B8000389A0008149B000838B50446144D0022FA
:102B90004021284602F018FA4FF4FA7002F0DEFFE6
:102BA00001224021284602F00FFA0CE0642002F0D6
:102BB000D5FF0C490C4804F0B4F838B929460B4845
:102BC00003F0F8FE2C46651E002CEFD1084803F0F8
:102BD00063FF002D01DC012038BD002038BD00BF9F
:102BE000000801403C9A0008C0360020389A0008CE
:102BF000149B000838B504460021134B19604FF4AC
:102C00008062124803F05DFA114A12491248FFF738
:102C1000E5FE0DE04FF47A7002F0A0FF0F490B487B
:102C200004F07FF838B929460D4803F0C3FE2C465E
:102C3000651E002CEED10B4803F02EFF002D01DCA9
:102C4000012038BD002038BDBC360020C036002031
:102C5000449A0008509A0008609A0008789A000880
:102C6000389A0008149B000838B505460021394BF6
:102C700019604FF48062384803F023FA374B1A6822
:102C800037493848FFF7AAFE18E0642002F066FFD3
:102C90003549314804F045F898B934492E4804F0D4
:102CA00040F800284DD132492B4804F03AF800286A
:102CB00049D121462F4803F07DFE25466C1E002D8C
:102CC000E3D12D4803F0E8FE002C3EDD2B4803F055
:102CD000E3FE00211F4B19604FF480621E4803F091
:102CE000F0F92748FFF77AFE0CE0642002F036FF87
:102CF0002449194804F015F838B929461D4803F04D
:102D000059FE2C46651E002CEFD11F4A1378013363
:102D1000DBB21370022B10D11C48FFF75FFE64205A
:102D200002F01CFF1A490C4803F0FBFF10B11948D0
:102D300003F0B2FE0022144B1A70002D07DC0420B1
:102D400038BD012038BD022038BD032038BD002029
:102D500038BD00BFBC360020C0360020FC12002069
:102D600024260020849A0008A09A0008A89A000847
:102D7000B09A0008389A0008149B0008C49A00080A
:102D8000E49A0008F49A0008C03E0020009B000866
:102D9000349A0008109B000810B5384803F07CFEF8
:102DA0003220FFF7F1FE20B1354803F075FE012413
:102DB00061E0344803F070FE334803F06DFE3221C9
:102DC0003248FFF7ABFE20B1314803F065FE022424
:102DD00051E0304803F060FE2F4803F05DFE3221E1
:102DE0002E48FFF79BFE20B12D4803F055FE03242B
:102DF00041E02C4803F050FE2B4803F04DFE0A2022
:102E0000FFF7F8FE20B1294803F046FE042432E023
:102E1000274803F041FE274803F03EFE32212648B2
:102E2000FFF77CFE20B1254803F036FE082422E09F
:102E3000234803F031FE234803F02EFE32212248BE
:102E4000FFF76CFE20B1214803F026FE092412E0B2
:102E50001F4803F021FE1F4803F01EFE6420FFF709
:102E600003FF044620B11C4803F016FE0A2402E0CA
:102E70001A4803F011FE204610BD00BF189B000841
:102E8000289B00083C9B0008489B00085C9B0008AE
:102E9000689B0008849B0008989B0008AC9B000876
:102EA000BC9B0008D89B0008EC9B0008FC9B00081A
:102EB000189C0008289C0008389C0008489C0008C2
:102EC000609C0008709C0008849C0008909C00088E
:102ED000AC9C0008C09C0008D09C0008EC9C00083A
:102EE00030B587B001214FF4027002F0F5F84FF4CD
:102EF000004002F089F80223ADF8003000248DF87C
:102F0000034069461B4802F007F80121042002F043
:102F1000E3F81023ADF800306946174801F0FCFFD4
:102F2000164D284601F0CEFE01948DF808408DF82C
:102F300009404FF460230393049401248DF8144056
:102F400001A9284601F0F0FE2146284601F010FFB5
:102F5000284601F019FF094801F01CFF0028FAD1AA
:102F6000064801F01FFF054801F022FF0028FAD1B2
:102F700007B030BD000C01400008014000240140B2
:102F800010B50A4C072301220146204601F024FF18
:102F90000121204601F014FF0221044801F066FFE0
:102FA0000028F9D0014801F05DFF10BD0024014068
:102FB000F8B507460E460024254608E03846FFF7D8
:102FC000DFFF0544052002F0C9FD0134E4B2B4423C
:102FD000F4D3B5FBF6F080B2F8BD00BF00B583B006
:102FE0000121082002F078F84FF48073ADF8043026
:102FF00010238DF8073003238DF806300122044B8F
:103000001A6001A9034801F087FF03B05DF804FBD3
:10301000A0812142000C014008B500221146042085
:1030200001F032FA01220021242001F02DFA0222BF
:103030000021442001F028FA03220021642001F03D
:1030400023FA06220321102001F01EFA0722032191
:10305000282001F019FA08220321402001F014FA77
:1030600009220321582001F00FFA0A4A06210C20F8
:1030700001F0C8F9202206212C2001F0DBF92122E1
:1030800006213C2001F0D6F9222206214C2001F035
:10309000D1F908BDFC9C000808B501F015F92D4ACE
:1030A0000021202001F0AEF92B4A0221202001F05E
:1030B000A9F92A4A0421202001F0A4F9284A06216E
:1030C000202001F09FF900221146104601F0B2F9CC
:1030D00001220021102001F0ADF902220021402040
:1030E00001F0A8F903220021502001F0A3F90622E3
:1030F0000221002001F09EF907220221102001F098
:1031000099F904220221402001F094F905220221BC
:10311000502001F08FF908220421002001F08AF9E3
:1031200009220421102001F085F90A2204214020FF
:1031300001F080F90B220421502001F07BF90C22D0
:103140000621002001F076F90D220621102001F061
:1031500071F908BD0C9D00081C9D00082C9D0008FD
:10316000349D00080000000010B51D4C611C204675
:1031700000F0AAFD0A210920FFF71AFFFDF738F930
:103180000022184BFDF7AAF913A3D3E90023FDF79A
:10319000CFFA02460B4600201249FCF7EBFFFDF781
:1031A000AFFBE0700A210420FFF702FFFDF720F9D2
:1031B00000220C4BFDF792F907A3D3E90023FDF79A
:1031C000B7FA02460B4600200649FCF7D3FFFDF78D
:1031D00097FBA07010BD00BF0000000000FEAF40D4
:1031E000743F00200000594070B582B0AE4B1B7890
:1031F00033BBAE4B1B78012B0AD1232206214C2076
:1032000001F018F9242206215C2001F013F909E0ED
:10321000252206214C2001F00DF9262206215C20F2
:1032200001F008F940F6B83002F098FC01F04CF8D3
:10323000642002F093FCFFF72FFF01229A4B1A70D3
:103240009B4B5B7983B99B4D2A7810240094022311
:103250000021282001F098F8AA780094022319464A
:10326000282001F091F847E0914B9B790BBB924CE1
:1032700022460021282001F0C5F8962002F06EFCBD
:103280008B4E102500950223B2680021282001F002
:103290007BF8F268009502231946282001F074F8A3
:1032A000962002F05BFC22460021282001F0AAF8BB
:1032B00022E0012B20D1804C22460221282001F05F
:1032C000A1F8962002F04AFC794E102500950223C1
:1032D000B2680021282001F057F8F2680095022317
:1032E0001946282001F050F8962002F037FC2246BB
:1032F0000221282001F086F86E4D6A78102400948F
:1033000002230021682001F03FF8EA7800940223AC
:103310001946682001F038F8654B1B782BB90F224D
:103320000421282001F086F804E00E220421282040
:1033300001F080F85E4B5B78032B1AD8DFE803F0CE
:1033400002080E140F220421682001F073F810E027
:1033500016220421682001F06DF80AE017220421EA
:10336000682001F067F804E018220421682001F0C9
:1033700061F84F4B9B78032B1AD8DFE803F0020863
:103380000E140F220621282001F054F810E0162216
:103390000621282001F04EF80AE0172206212820F5
:1033A00001F048F804E018220621282001F042F834
:1033B0003F4B1B7953B11B2206213C2001F03AF808
:1033C0001C2206214C2001F035F817E0384B5B79C0
:1033D00053B11E2206213C2001F02CF81F220621A9
:1033E0004C2001F027F809E01D2206213C2001F0C5
:1033F00021F81C2206214C2001F01CF82C4BDB7814
:103400004BB919220621602001F014F81A22062176
:10341000702001F00FF8264B1B6823F47F0323F480
:103420007F43264A93421AD1254C2246062160202A
:1034300000F0E8FF962002F091FB142206216020A4
:1034400000F0F8FF15220621702000F0F3FF96200F
:1034500002F084FB22460621602000F0D3FF144BCB
:10346000DB78012B1DD1124B9B78D3B1144C224633
:103470000621602000F0C6FF962002F06FFB1222AA
:103480000621602000F0D6FF13220621702000F0F4
:10349000D1FF962002F062FB22460621602000F058
:1034A000B1FF02B070BD00BF5E3F002018230020B6
:1034B000603F0020743F0020389D0008010000019B
:1034C0003C9D000838B53B4B1A783B4B9B689A42B1
:1034D00003DC00203849887018E09A4206DD991C08
:1034E0008A4203DC0120344988700FE0991C8A422B
:1034F00006DD191D8A4203DC02202F49887005E091
:10350000191D8A4202DD03202B49887029498C78D5
:103510002949C868844202DB00250D7002E00125BC
:1035200025490D702349C978272903D90025224947
:103530004D7016E0A1F11E05EDB2092D03D801254D
:103540001D494D700DE0A1F11405EDB2092D03D810
:10355000022519494D7004E0132902D803251649A4
:103560004D709A4205DC844203DB0022124BDA7074
:1035700002E00122104BDA700F4C2378B3FA83F388
:103580005B090E4A136022780D4B1A606378B3FA18
:1035900083F35B090B4A1360607800F097FDA37812
:1035A000B3FA83F35B09084A1360A07800F06CFD5E
:1035B00038BD00BF743F0020603F002088012242D8
:1035C000940121428C012242900122420C4BDB7873
:1035D00073B10C4A1368B3FA83F35B09136002F505
:1035E000FF4264321368B3FA83F35B0913607047D8
:1035F0000123044A136002F5FF42643213607047EE
:10360000603F0020A081214210B5044C00232360BC
:10361000282002F0A3FA0123236010BDA0812142DB
:1036200010B50D4C03220D49204601F019FA2378FC
:10363000662B05D161780A4B9960A278DA6004E0C4
:10364000074B1C229A602822DA60054BDA689968D9
:10365000044803F0AFF910BDC43E0020ECFF1F008A
:10366000603F0020449D000810B50A48662303709F
:10367000094CA3684370E36883700322074901F093
:1036800083FAE268A168064803F094F9FFF7BCFFEB
:1036900010BD00BFC43E0020603F0020ECFF1F00B3
:1036A000789D000808B5084A1378B3FA83F35B09DC
:1036B000137083F0010305490B601278044B1A6004
:1036C000FFF7A2FF08BD00BF603F00208801224233
:1036D0009401214208B50D4A53780133DBB253708F
:1036E000042B14BF0023012309490B6050780428E0
:1036F00000D1002000F0EAFC044B5B78042B02D1DF
:103700000022024B5A70FFF77FFF08BD603F002088
:103710008C01224208B50D4A93780133DBB29370D5
:10372000042B14BF0023012309490B60907804285F
:1037300000D1002000F0A8FC044B9B78042B02D1A0
:103740000022024B9A70FFF75FFF08BD603F002028
:1037500090012242034AD378B3FA83F35B09D37012
:10376000704700BF603F002010B5114B1A79B2FAC4
:1037700082F252091A710F490A68B2FA82F25209AA
:103780000A60012214390A6004310A6004310A60B7
:103790000024094A14601C705C709C70DC70204628
:1037A00000F094FC204600F06FFCFFF72DFF10BDE9
:1037B000603F00209C0122429401214208B501F0A3
:1037C00009F848B1594B1B7833B901F003F8584B4D
:1037D00018700122554B1A7000F0FCFF30B9534BA2
:1037E0001B78012B02D10022504B1A70504B1B78D2
:1037F000A22B01D1FFF7B8FF4D4B1B78E22B0DD167
:103800004C4A5379B3FA83F35B0953714A4A1368FC
:10381000B3FA83F35B091360FFF7F6FE454B9B8811
:10382000BBB9434B1B78682B08D002D8422B0ED073
:103830000FE0982B05D0B02B06D00AE0FFF732FF3F
:1038400007E0FFF747FF04E0FFF764FF01E0FFF741
:1038500081FF384B5A79002A64D0354B1B78622B94
:103860000AD004D8022B50D0222B29D05AE0A82B02
:103870002FD0C22B1BD055E02E4B9B794BB92D4A34
:10388000936801339360322B0EDD0A22294B9A6034
:103890000AE0012B08D1274AD3680133D3605A2BA1
:1038A00002DD0A22234BDA60FFF7AEFE3AE0214A3E
:1038B0009379B3FA83F35B099371FFF7A5FE31E0C7
:1038C0001C4A9379B3FA83F35B099371FFF79CFE6B
:1038D00028E0184B9B7953B9164B9A68013A9A60C5
:1038E000DB68092B0EDC3222124BDA600AE0012B76
:1038F00008D1104AD368013BD360092B02DC5A225D
:103900000C4BDA60FFF780FE0CE0B2FA82F252094B
:10391000084B5A71084A1368B3FA83F35B091360C2
:10392000FFF7A2FE0022024B1A7008BD62000020C1
:10393000703F0020603F0020980122422DE9F043B3
:103940008BB01A490A784B7891F802E0CC78184984
:103950000E784F7891F802C091F8038091F80490A6
:10396000144DC868089089680791CDF81890CDF873
:103970001480CDF810C0039702960194CDF800E0B2
:103980000D49284603F03AF90C4C2A460C492046CA
:1039900003F034F92046FCF7DBFF024621460948D4
:1039A000FEF752FD0BB0BDE8F08300BF743F00206E
:1039B000603F0020C83E0020B09D0008783F0020F6
:1039C000000000203C9E000810B5674B196867484E
:1039D00002F0F0FF664B1B79002B40F08880624BB1
:1039E0001C6802346349204603F09BF928B1012288
:1039F0005F4B1A70FFF756FE09E05F49204603F05F
:103A000090F920B100225A4B1A70FFF74BFE564B2B
:103A10001C6802345949204603F083F928B1032277
:103A2000534B5A70FFF756FE1FE05549204603F0EE
:103A300078F928B100224E4B5A70FFF74BFE14E084
:103A40005049204603F06DF928B10122484B5A70C5
:103A5000FFF740FE09E04C49204603F062F920B12F
:103A60000222434B5A70FFF735FE3F4B1C6802346D
:103A70004649204603F055F928B103223C4B9A7081
:103A8000FFF748FE1FE04249204603F04AF928B1FB
:103A90000022374B9A70FFF73DFE14E03D49204667
:103AA00003F03FF928B10122314B9A70FFF732FE43
:103AB00009E03949204603F034F920B102222C4BA9
:103AC0009A70FFF727FE284B1C68023433492046C2
:103AD00003F027F918B10022254BDA7007E03049CE
:103AE000204603F01EF910B10122214BDA701E4B63
:103AF0001C6802342B49204603F013F940B101221F
:103B00001B4B1A710022284B1A60FFF72DFE0CE0A8
:103B10002649204603F005F938B10022144B1A71EA
:103B20000122214B1A60FFF71FFE0F4B1868204936
:103B3000023003F0F6F838B130B11E4A1E490A309F
:103B400003F080F8FFF790FD074B18681B4902301F
:103B500003F0E7F838B130B1194A17490A3003F0D9
:103B600071F8FFF781FD10BDA82600206C990008B0
:103B7000603F0020709E00087C9E0008889E000820
:103B8000989E0008A89E0008B89E0008C89E0008DD
:103B9000D89E0008E89E0008F89E0008089F0008CC
:103BA000149F0008209F00089C012242309F0008BB
:103BB000409F0008683F00204C9F0008509F00086D
:103BC0006C3F002010B50A4B5A6822F0F0025A6090
:103BD0005A6842F030025A60064C002323601420D9
:103BE00001F0BCFF012323601E2001F099FF10BDEE
:103BF000000C0140A481214210B5154B5A6822F0F7
:103C0000F0025A605A6842F080025A60002404E0D0
:103C10000134E4B2012001F083FF0E4B1B680BB1AD
:103C2000632CF5D9632C0FD8002404E00134E4B2EE
:103C3000012001F075FF074B1B680BB9632CF5D908
:103C4000632C03D9012010BD012010BD002010BD40
:103C5000000C01402481214210B5002404E001340D
:103C6000E4B2012001F05CFF0E4B1B684BB1632CEA
:103C7000F5D9002406E00134E4B2012001F050FF40
:103C800000E00024074B1B680BB9632CF3D92820F4
:103C900001F046FF034B1B680BB1012010BD002053
:103CA00010BD00BF2481214238B50020054607E041
:103CB0004000C4B2FFF7D0FF2043C0B20135EDB2DF
:103CC000072DF5D938BD00BFF0B583B006460F46C5
:103CD000FFF778FFFFF790FF50B101251DE0FFF7D8
:103CE000E3FF02AB234403F8080C0134E4B201E023
:103CF00005460024042CF2D99DF800109DF80130EF
:103D00000B449DF8022013449DF8030003449DF8E2
:103D10000400834201D139703270284603B0F0BDEF
:103D200030B583B00121082001F0D6F94FF40075B9
:103D3000ADF8045010238DF8073003238DF80630BA
:103D4000074C01A9204601F0E7F82946204601F07A
:103D500039F9FFF737FFFFF74FFF03B030BD00BF62
:103D6000000C014008B50CE00A4A0221182000F0BE
:103D700049FBC82001F0F2FE00F0A6FA064802F066
:103D80008BFEFFF7CDFF0028EED1044802F084FE41
:103D900008BD00BF5C9F00086C9F00087C9F000866
:103DA00070B584B000F0C0F80121084601F094F924
:103DB0000821022001F00EF94FF4807302930025D0
:103DC0008DF80C500C238DF80D3001248DF80E4029
:103DD00002A801F053F80921022001F0FBF84FF48A
:103DE0000073029302A801F049F80221032001F0B8
:103DF000F1F80423029302A801F040F8294628466E
:103E000001F0E8F8029408268DF80D600DEB06002D
:103E100001F034F806238DF8043002258DF80550A2
:103E200003238DF806308DF8074001A800F008FF45
:103E30008DF804608DF805508DF806508DF8074018
:103E400001A800F0FDFE17238DF804308DF8055011
:103E50008DF806408DF8074001A800F0F1FE04B08F
:103E600070BD00BF08B50A2001F078FE074B1B6843
:103E7000012B07D1064B1B7923B9064802F09AFDA6
:103E8000FFF768FC012001F041F808BD0001214264
:103E9000603F0020889F000808B50A2001F05EFE00
:103EA0000F4B1B683BB90F4B1B7923B90E4802F02F
:103EB00081FDFFF7F7FB0D4B1B683BB9094B1B79E5
:103EC00023B90B4802F076FDFFF704FC4FF4807035
:103ED00001F01CF84FF4007001F018F808BD00BFA5
:103EE00020012242603F0020909F000824012242CE
:103EF000989F000808B50A2001F030FE074B1B68A8
:103F00003BB9074B1B7923B9064802F053FDFFF775
:103F100001FC042000F0FAFF08BD00BF0881224226
:103F2000603F0020A09F000810B582B00121302022
:103F300001F0D2F84FF44073ADF8043048248DF806
:103F4000074001A90C4800F0E7FF0423ADF8043056
:103F50008DF807400DEB0301084800F0DDFF012359
:103F6000ADF8043028238DF8073001A9044800F08B
:103F7000D3FF02B010BD00BF00100140001401408B
:103F80000008014000B583B00121102001F0A4F821
:103F9000FF23ADF8043010238DF8073003238DF88C
:103FA000063001230B4A136004321360043213609D
:103FB000043213600432136004321360043213605D
:103FC0000432136001A9044800F0A6FF03B05DF8B5
:103FD00004FB00BF800122420010014030B589B0CF
:103FE00005460C460121084601F084F80121052010
:103FF00001F072F80623ADF81C3018238DF81F303D
:1040000003238DF81E3007A91E4800F085FFADF888
:104010001450ADF810400024ADF81640ADF8124031
:1040200004A94FF0804001F0C5FA6023ADF80030DC
:104030000125ADF80250ADF8084069464FF08040C8
:1040400001F002FB69464FF0804001F041FB08217E
:104050004FF0804001F098FB08214FF0804001F0C4
:104060009DFB29464FF0804001F074FB21464FF044
:10407000804001F09FFB21464FF0804001F09CFB07
:1040800009B030BD0008014008B503281DD8DFE89D
:1040900000F002080F1600214FF0804001F08AFB6B
:1040A00008BD4FF4FA714FF0804001F083FB08BD6A
:1040B0004FF42F714FF0804001F07CFB08BD4FF4AE
:1040C00061714FF0804001F075FB08BD08B5032811
:1040D0001DD8DFE800F002080F1600214FF08040E5
:1040E00001F06AFB08BD4FF496714FF0804001F07B
:1040F00063FB08BD4FF416714FF0804001F05CFB8C
:1041000008BD4FF461714FF0804001F055FB08BDD0
:1041100000B583B00121042000F0DEFF2023ADF8BC
:10412000043010238DF8073003238DF8063001A9E1
:10413000024800F0F1FE03B05DF804FB0008014006
:10414000044B01221A6004490A6000220A601A60C6
:10415000704700BFA0012142B4012242034B00225C
:104160001A60012202490A601A607047B4012242B3
:10417000A001214208B5094B00221A60012208491A
:104180000A601A604FF40051064800F013FF01283E
:1041900000D000200022014B1A6008BDA00121427E
:1041A000B40122420010014008B5002315E00021AF
:1041B0000F4A116010F0800F05D0012102F5803206
:1041C0001432116002E000210A4A11604000C0B2BE
:1041D0000121074A11600B44DBB2072BE7D900220B
:1041E000034B1A60FFF7C6FF0028FBD108BD00BFD4
:1041F000A0012142B401224210B50446FFF7A0FFFE
:104200007820FFF7D1FF4020FFF7CEFF2046FFF7D1
:10421000CBFFFFF7A3FF10BD10B50446FFF790FFDB
:104220007820FFF7C1FF0020FFF7BEFF2046FFF711
:10423000BBFFFFF793FF10BD00B583B00121102035
:1042400000F04AFF4FF48073ADF8043014238DF86A
:10425000073003238DF8063001A90A4800F05CFE00
:104260004FF40053ADF8043001A9074800F054FEA4
:104270000123064A136002F580321432136003B042
:104280005DF804FB0008014000100140A00121423C
:1042900008B511B1FFF7B0FF08BDFFF7BDFF08BDBE
:1042A00010B50446A1F150000021C0B2FFF7F0FFA5
:1042B000002104F00F00FFF7EBFF2009002140F080
:1042C0001000FFF7E5FF10BD38B500251AE0A5F195
:1042D00050000021C0B2FFF7DBFF00210846FFF7C6
:1042E000D7FF00211020FFF7D3FF002405E00121B4
:1042F0000020FFF7CDFF0134E4B214F0800FF6D0B8
:104300000135EDB2072DE2D938BD00BFF8B507463B
:104310000E46203AD5B210F0800F02D00236F6B227
:10432000002731463846FFF7BBFF002408E004EBC6
:10433000051301210D4AD05CFFF7AAFF0134E4B256
:10434000072CF4D9711CC9B23846FFF7A9FF002425
:1043500009E004EB051308330121044AD05CFFF7A0
:1043600097FF0134E4B2072CF3D9F8BD78A2000816
:10437000012202E000FB02F219464B1EDBB20029CB
:10438000F8D11046704700BF2DE9F04782468946B4
:1043900017461D469DF82080002634462CE0291B38
:1043A0000139C9B20A20FFF7E3FFB7FBF0F0144A66
:1043B000A2FB0032D20802EB82025300C21AD2B230
:1043C00076B96B1E9C420BDA4AB94FEA580000FBE3
:1043D00004A020224946C0B2FFF798FF0AE0012658
:1043E00030324FEA580000FB04A0D2B24946C0B2B6
:1043F000FFF78CFF0134E4B2AC42D0D3BDE8F087C4
:10440000CDCCCCCCF8B504460E46174600250DE0C1
:1044100031462046FFF77AFF0834E4B214F0800FEB
:1044200002D00236F6B200240135EDB27A5D002AE0
:10443000EED1F8BDF8B507460E461546FFF730FF3A
:10444000002408E00F4B03EB85130121185DFFF7F3
:104450001FFF0134E4B20F2CF4D9711CC9B23846E5
:10446000FFF71EFF00240AE06B005A1C054B03EB0C
:1044700042130121185DFFF70BFF0134E4B20F2C4A
:10448000F2D9F8BD68A80008F8B507460E461546EB
:10449000FFF706FF00240AE005EBC502D3001B4A24
:1044A00013440121185DFFF7F3FE0134E4B2172C29
:1044B000F2D9711CC9B23846FFF7F2FE00240CE0B5
:1044C00004F1180005EBC502D300104A1344012182
:1044D000185CFFF7DDFE0134E4B2172CF0D9B11CF3
:1044E000C9B23846FFF7DCFE00240CE004F13000CE
:1044F00005EBC502D300054A13440121185CFFF700
:10450000C7FE0134E4B2172CF0D9F8BDA89F00080B
:1045100008B5FFF791FE0021AE20FFF7B9FE00219C
:104520000846FFF7B5FE00211020FFF7B1FE00217D
:104530004020FFF7ADFE0021B020FFF7A9FE0021CB
:104540008120FFF7A5FE0021FF20FFF7A1FE00213B
:10455000A120FFF79DFE0021A620FFF799FE002174
:10456000A820FFF795FE00213F20FFF791FE0021D4
:10457000C820FFF78DFE0021D320FFF789FE002120
:104580000846FFF785FE0021D520FFF781FE0021B8
:104590008020FFF77DFE0021D920FFF779FE002162
:1045A000F120FFF775FE0021DA20FFF771FE0021F0
:1045B0001220FFF76DFE0021DB20FFF769FE0021CE
:1045C0004020FFF765FE00218D20FFF761FE0021EE
:1045D0001420FFF75DFE0021AF20FFF759FEFFF723
:1045E00073FE00210846FFF75BFE08BDF0B589B0F9
:1045F0000121082000F070FD0121022000F07AFD69
:104600000124ADF81C4028238DF81F3003278DF8B6
:104610001E70204D07A9284600F07EFC2146284642
:1046200000F0D0FC42F21073ADF810304723ADF823
:104630000C300025ADF81250ADF80E50164E03A9FF
:10464000304600F0B7FF0823ADF80030ADF8025057
:10465000ADF80440ADF80650ADF808706946304634
:1046600001F0E0F82146304601F074F81D238DF882
:1046700018308DF819508DF81A708DF81B4006A867
:1046800000F0DEFA22460921304601F071F809B047
:10469000F0BD00BF000C01400004004010B5012136
:1046A000464801F0F5F8E0B1454B1B7813F0800F58
:1046B00017D003F0EF03424A137013F00F0F02D12B
:1046C00043F0400313703E4B1B7803F00F020D2A9A
:1046D00003DC01333A4A137003E003F07003384AF5
:1046E00013700821354801F0D3F8002861D0354B0C
:1046F0001B6873B1314C0221204601F04FF80021B4
:10470000204601F055F82E4A137843F01003137039
:104710004FE02A4C204601F0B7F82B4B18800021BF
:10472000204601F03BF8264B1B7813F0100F3BD0CE
:1047300013F0800F28D0244A1188A1F22D1292B2D2
:10474000B2F5F97F04D8214A13685B0013602BE0AF
:10475000A1F2795292B2B2F5C77F06D81B4A13680C
:104760005B0043F0010313601EE0A1F6990292B2D0
:10477000B2F5C77F18D816490A7801320A7023F0BB
:104780000F030F4A13700FE00F4A1288A2F58352ED
:10479000093A92B2B2F5F97F06D863F07F03084A6E
:1047A000137000220A4B1A70054A137823F0100385
:1047B00013700921014801F077F810BD0004004092
:1047C0008245002000812142804500207C45002058
:1047D00078450020144B1B7813F0400F21D0134A6A
:1047E0001168080EC1F30742D243D2B2904209D1F8
:1047F00050B9C1F30720C9B2C943C9B2884204D035
:10480000002002E0002000E0002010B113F0800F33
:1048100008D123F04003044A13700022044B1A709D
:1048200070470020704700BF824500207C45002073
:104830007845002038B50546002403E00134E4B291
:10484000C82C1AD802210F4800F0B8FC0028F5D077
:1048500029460C4800F0ACFC002403E00134E4B22B
:10486000C82C0CD80121074800F0A8FC0028F5D07E
:10487000044800F09FFCC0B238BD002038BD0020C5
:1048800038BD00BF0038004030B587B00121082096
:1048900000F022FC01214FF4804000F02BFC4FF48B
:1048A0006045ADF8145018238DF8173003238DF8A8
:1048B0001630194C05A9204600F02EFB294620464B
:1048C00000F080FB0023ADF800304FF48272ADF8A9
:1048D0000220ADF804300222ADF806200125ADF823
:1048E00008504FF40072ADF80A203822ADF80C20C1
:1048F000ADF80E300723ADF81030A4F554446946E6
:10490000204600F021FC2946204600F043FCFF2011
:10491000FFF790FF07B030BD000C014008B5084A12
:1049200013889BB223F038039BB2138013889BB289
:10493000184310800121104600F02CFC08BD00BF78
:104940000038004010B5064C002323600520FFF717
:1049500071FFFF20FFF76EFF0123236010BD00BF32
:10496000B081214210B5044C002323600620FFF7DC
:1049700061FF0123236010BDB081214238B50E4D87
:1049800000242C609020FFF755FF2046FFF752FFD0
:104990002046FFF74FFF2046FFF74CFFFF20FFF7B1
:1049A00049FF000284B2FF20FFF744FF20430123A8
:1049B0002B6080B238BD00BFB081214230B583B0DA
:1049C0000121082000F088FB4FF48055ADF8045019
:1049D00010238DF8073003238DF806300B4C01A906
:1049E000204600F099FA2946204600F0EBFA012211
:1049F000074B1A60FFF748FF0020FFF78FFFFFF714
:104A0000BDFF044B188003B030BD00BF000C014057
:104A1000B08121426400002008B5FFF7CFFF0CE011
:104A20000C4802F039F80C4A02211820FFF7EAFC82
:104A3000C82001F093F8FFF747FCFFF79FFF46F609
:104A400014039842ECD1054802F026F8FEF7E8FD81
:104A500008BD00BF28B2000840B2000850B20008EC
:104A6000F8B506460F46154600240E4B1C60032081
:104A7000FFF7E0FEC7F30740FFF7DCFEC7F30720B0
:104A8000FFF7D8FEF8B2FFF7D5FE05E0FF20FFF7ED
:104A9000D1FE30550134A4B2AC42F7D30122014B10
:104AA0001A60F8BDB081214208B5FFF74BFF10F046
:104AB000010FFAD108BD00BFF8B506460F461546EE
:104AC000FFF750FF00240F4B1C600220FFF7B2FEDF
:104AD000C7F30740FFF7AEFEC7F30720FFF7AAFEB4
:104AE000F8B2FFF7A7FE04E0305DFFF7A3FE013444
:104AF000A4B2AC42F8D30122024B1A60FFF7D4FFF4
:104B0000F8BD00BFB0812142F8B507460E461446F5
:104B1000CDB2C5F58075ADB2954203D3154601E01F
:104B20004FF480752A4631463846FFF7C5FFAC4240
:104B300008D02F442E44641BA4B2B4F5807FEFD874
:104B40002546EFE7F8BD00BF70B50403FFF70AFF85
:104B5000FFF7AAFF0B4D00262E602020FFF76AFE0C
:104B6000C4F30740FFF766FE200A00F0F000FFF7ED
:104B700061FE3046FFF75EFE01232B60FFF794FFD6
:104B800070BD00BFB08121422DE9F047064689463D
:104B900017464FEA1128CDB2C5F58074A4B29442ED
:104BA00004D3144602E04FF4807400254FEA082A2B
:104BB0004FF4807251461C48FFF752FF002306E075
:104BC000EA1819498A5CFF2A03D101339BB29C423F
:104BD000F6D89C4213D94046FFF7B6FF002305E004
:104BE0005A19F05C1049885401339BB29C42F7D8A3
:104BF0004FF4807251460C48FFF786FF04E02246CE
:104C000049463046FFF780FFA7420AD008F1010865
:104C10002644A1443F1BBFB2B7F5807FC3D83C46B2
:104C2000C3E7BDE8F08700BF8445002040F0BF60C7
:104C300040F40030014BD860704700BF00ED00E049
:104C4000C378FBB1154BDB68DB43C3F30223C3F12D
:104C500004010F22DA40437803FA01F1837813400C
:104C60000B431B010278DBB20D490A4482F8003382
:104C70000378580903F01F03012202FA03F341F8F5
:104C80002030704703785A0903F01F03012101FA0D
:104C900003F32032024941F82230704700ED00E072
:104CA00000E100E0042805D1054A136843F004033D
:104CB00013607047024A136823F0040313607047BF
:104CC00010E000E008B5154B98420AD101214FF4DD
:104CD000007000F01DFA00214FF4007000F018FA87
:104CE00008BD0F4B98420AD101214FF4806000F0BB
:104CF0000FFA00214FF4806000F00AFA08BD094B5A
:104D0000984209D101214FF4004000F001FA00213E
:104D10004FF4004000F0FCF908BD00BF0024014042
:104D200000280140003C014010B4436823F4702285
:104D300022F480720B680C7943EA04231343436026
:104D400083680A4C1C40CA688B681A434B7942EA54
:104D5000430323438360C36A23F470020B7C013B4B
:104D6000DBB242EA0353C36210BC7047FDF7F1FFA8
:104D700021B1836843F0010383607047836823F0A7
:104D800001038360704700BF836843F008038360BA
:104D9000704700BF836813F0080F01D001207047EF
:104DA00000207047836843F004038360704700BFAE
:104DB000836813F0040F01D0012070470020704772
:104DC00021B1836843F4A00383607047836823F4B0
:104DD000A0038360704700BF70B409290DD9C6686D
:104DE000A1F10A0404EB44040725A54026EA0505C1
:104DF00003FA04F42C43C4600AE0066901EB4104A1
:104E00000725A54026EA050503FA04F42C430461AE
:104E1000062A0BD8446B013A02EB82021F2393400F
:104E200024EA030391401943416318E00C2A0BD88C
:104E3000046B073A02EB82021F23934024EA030328
:104E40009140194301630AE0C46A0D3A02EB820201
:104E50001F23934024EA030391401943C16270BCAD
:104E6000704700BFC06C80B2704700BF0368194232
:104E700001D0012070470020704700BF8379002BCC
:104E800034D010B4204B1A68016822EA01021A607B
:104E90005A68016822EA01025A60027902F18042EE
:104EA00002F5823214680168214311609A68016832
:104EB00022EA01029A60DA68016822EA0102DA60F5
:104EC0004379102B09D1104B996802680A439A6004
:104ED000D96802680A43DA6013E003F1804303F5FE
:104EE0008233196802680A431A600AE0037903F101
:104EF000804303F582331A68016822EA01021A60CE
:104F0000704710BC704700BF00040140014B58615E
:104F1000704700BF00040140F0B4CB7803F00F02EB
:104F2000154613F0100F01D08D7815430B78E3B1BF
:104F30000668002316E001229A400C8832EA040435
:104F40000FD19C000F27A74026EA070605FA04F4B4
:104F50002643CC78282C01D1426102E0482C00D1B4
:104F600002610133072BE6D906600B88FF2B1ED99F
:104F70004668002318E003F108040122A2400C88CF
:104F800032EA04040FD19C000F27A74026EA070647
:104F900005FA04F42643CC78282C00D14261CC7861
:104FA000482C00D102610133072BE4D94660F0BCE4
:104FB000704700BF8368194201D00120704700206C
:104FC000704700BF016170470AB1016170474161DC
:104FD000704700BF30B401F003039B000F2404FAB4
:104FE00003F58908074A023152F8214024EA0504F2
:104FF00042F8214052F821409840204342F82100D5
:1050000030BC704700000140034A536823F440431A
:1050100018435060704700BF0010024010B4294B85
:105020005B6803F00C03042B05D0082B06D013BBE0
:10503000254B036021E0244B03601EE0214A5368A6
:105040005268C3F38343023312F4803F04D11F4AF2
:1050500002FB03F3036010E01A4A526812F4003FA7
:1050600004D01A4A02FB03F3036006E0164A02FB6F
:1050700003F3036001E0144B036012494B68C3F370
:105080000313134CE35CDAB20368D34043604A680D
:10509000C2F30222A25CD2B223FA02F282604A6810
:1050A000C2F3C222A25CD2B2D340C3604A68C2F348
:1050B000813208498A5CD2B2B3FBF2F3036110BCBF
:1050C000704700BF0010024000127A0000093D0046
:1050D0006C0000206800002021B1054B9A69104344
:1050E00098617047024A936923EA00009061704713
:1050F0000010024021B1054BDA691043D8617047B6
:10510000024AD36923EA0000D061704700100240D0
:1051100021B1054BDA681043D8607047024AD36862
:1051200023EA0000D06070470010024021B1054B17
:105130001A69104318617047024A136923EA000094
:1051400010617047001002402DE9F041038803F41C
:1051500041570D884E888C88B1F806800A89B1F8CD
:105160000AC08B89B1F80EE03543254348EA0504AF
:1051700014434CEA04021A434EEA02033B43038001
:10518000838B9BB223F400639BB283830B8A0382DD
:10519000BDE8F08129B103889BB243F0400303804E
:1051A000704703889BB223F040039BB20380704793
:1051B00081817047808980B2704700BF038919429E
:1051C00001D0012070470020704700BF30B4048C2C
:1051D000A4B224F00104A4B20484048BA4B2058C0C
:1051E000ADB224F0F3041B019BB21A4344EA02035C
:1051F000124A904212D002F5006290420ED0B0F1F5
:10520000804F0BD0A2F59832904207D002F5806211
:10521000904203D002F58062904205D125F002054C
:10522000294341F0010104E025F00A02114341F055
:1052300001010383018430BC704700BF002C014092
:1052400070B4048CA4B224F01004A4B20484058BBE
:10525000048CA4B20E01B6B225F440752D052D0DB7
:105260001B039BB22B43120292B21A43124B984279
:1052700012D003F5006398420ED0B0F1804F0BD0EE
:10528000A3F59833984207D003F58063984203D082
:1052900003F58063984205D124F02001314341F0A9
:1052A000100104E024F0A004214341F01001028326
:1052B000018470BC704700BF002C014070B4048CA6
:1052C000A4B224F48074A4B20484848BA4B2058CA8
:1052D000AEB20D02ADB224F0F3041B019BB21A432F
:1052E00044EA0203124A904212D002F50062904250
:1052F0000ED0B0F1804F0BD0A2F59832904207D07B
:1053000002F58062904203D002F58062904205D19E
:1053100026F40071294341F4807104E026F42062F0
:10532000114341F480718383018470BC704700BFD6
:10533000002C014070B4058CADB225F48055ADB29F
:105340000584868B048CA4B20D03ADB226F440769E
:105350003605360D120292B232431B039BB2134341
:10536000134A904212D002F5006290420ED0B0F182
:10537000804F0BD0A2F59832904207D002F58062A0
:10538000904203D002F58062904205D124F400548B
:105390002C4344F4805406E024F400746404640C48
:1053A0000C4344F480548383048470BC704700BF72
:1053B000002C014008B56F4B98420AD101214FF4EF
:1053C0000060FFF7A5FE00214FF40060FFF7A0FE8C
:1053D00008BDB0F1804F08D101210846FFF7A6FEB5
:1053E00000210120FFF7A2FE08BD634B984208D1BF
:1053F00001210220FFF79AFE00210220FFF796FE0E
:1054000008BD5E4B984208D101210420FFF78EFEB3
:1054100000210420FFF78AFE08BD594B984208D1AD
:1054200001210820FFF782FE00210820FFF77EFE01
:1054300008BD544B984208D101211020FFF776FE99
:1054400000211020FFF772FE08BD4F4B984208D193
:1054500001212020FFF76AFE00212020FFF766FED1
:1054600008BD4A4B98420AD101214FF40050FFF782
:105470004FFE00214FF40050FFF74AFE08BD444B99
:1054800098420AD101214FF40020FFF741FE00218C
:105490004FF40020FFF73CFE08BD3E4B98420AD176
:1054A00001214FF48010FFF733FE00214FF48010EC
:1054B000FFF72EFE08BD384B98420AD101214FF468
:1054C0000010FFF725FE00214FF40010FFF720FE2B
:1054D00008BD324B984208D101214020FFF726FE3B
:1054E00000214020FFF722FE08BD2D4B984208D135
:1054F00001218020FFF71AFE00218020FFF716FE11
:1055000008BD284B98420AD101214FF48070FFF763
:105510000DFE00214FF48070FFF708FE08BD224BFE
:1055200098420AD101214FF48030FFF7F1FD0021AC
:105530004FF48030FFF7ECFD08BD1C4B98420AD1B8
:1055400001214FF40030FFF7E3FD00214FF400305C
:10555000FFF7DEFD08BD164B984209D101214FF43B
:105560008020FFF7D5FD00214FF48020FFF7D0FD0C
:1055700008BD00BF002C01400004004000080040AE
:10558000000C0040001000400014004000340140B6
:10559000004C014000500140005401400018004000
:1055A000001C004000200040004001400044014039
:1055B0000048014003889BB2214A904212D002F574
:1055C000006290420ED0B0F1804F0BD0A2F598321D
:1055D000904207D002F58062904203D002F58062CB
:1055E000904203D123F070034A881343154A904236
:1055F00008D002F58062904204D023F440739BB23D
:10560000CA88134303808B8883850B8803850C4BE2
:1056100098420FD003F5006398420BD003F5406326
:10562000984207D003F58063984203D003F5806366
:10563000984201D10B7A038601238382704700BF11
:10564000002C01400010004030B4038C9BB223F0CA
:1056500010039BB20384028C92B28588ADB2048B96
:10566000A4B224F4E6440B881B029BB21C4322F034
:1056700020020B891B019BB21A434B881B019BB272
:105680001343124A904203D002F50062904215D1B2
:1056900023F080034A89120192B2134323F040029F
:1056A0008B881B019BB2134325F440658A899200C5
:1056B00092B22A43CD89AD00ADB2154385800483F3
:1056C000CA880287038430BC704700BF002C0140A9
:1056D00030B4038C9BB223F480739BB20384028C9E
:1056E00092B28488A4B2838B9BB223F073030D889B
:1056F0001D4322F400720B891B029BB21A434B8894
:105700001B029BB21343124A904203D002F500627F
:10571000904215D123F400634A89120292B21343D6
:1057200023F480628B881B029BB2134324F4405401
:105730008A89120192B22243CC892401A4B2144373
:1057400084808583CA888287038430BC704700BF09
:10575000002C014029B103889BB243F00103038070
:10576000704703889BB223F001039BB2038070470C
:1057700022B183899BB21943818170478389C943D0
:1057800089B2194081817047038C9BB223F02003BA
:10579000090189B219430184704700BF038C9BB291
:1057A00023F40073090289B219430184704700BFD2
:1057B000818470470187704781877047038B9BB254
:1057C00023F00C039BB20383038B9BB21943018329
:1057D000704700BF038B9BB223F440639BB20383EB
:1057E000038B9BB2090289B219430183704700BF42
:1057F000838B9BB223F00C039BB28383838B9BB27E
:1058000019438183704700BF838B9BB223F44063AD
:105810009BB28383838B9BB2090289B21943818334
:10582000704700BF38B505460C460B884BB90B894D
:105830008A884988FFF7CAFCE1882846FFF7BEFF3F
:1058400038BD042B09D10B898A884988FFF7F8FCF9
:10585000E1882846FFF7BEFF38BD082B09D10B8928
:105860008A884988FFF72AFDE1882846FFF7C0FFAC
:1058700038BD0B898A884988FFF75CFDE188284696
:10588000FFF7C2FF38BD00BF808F80B2704700BFF6
:10589000028A83890B40114202D01BB90020704755
:1058A0000020704701207047C94389B201827047C8
:1058B00008B5234B98420AD101214FF48040FFF7ED
:1058C00027FC00214FF48040FFF722FC08BD1D4B50
:1058D00098420AD101214FF40030FFF727FC002144
:1058E0004FF40030FFF722FC08BD174B98420AD155
:1058F00001214FF48020FFF719FC00214FF4802094
:10590000FFF714FC08BD114B98420AD101214FF456
:105910000020FFF70BFC00214FF40020FFF706FCEE
:1059200008BD0B4B984209D101214FF48010FFF7BD
:10593000FDFB00214FF48010FFF7F8FB08BD00BF0E
:10594000003801400044004000480040004C004046
:105950000050004030B587B004460D46038A9BB224
:10596000CA8823F440531343038283899BB28A88F5
:10597000098968890A43024323F4B05323F00C03D6
:105980001343A381A38A9BB2AA8923F440731343D0
:10599000A38201A8FFF742FB1E4B9C4201D1049A4F
:1059A00000E0039AA38913F4004F08D002EB8202AF
:1059B00002EB820229684900B2FBF1F107E002EB39
:1059C000820202EB820229688900B2FBF1F1124BDC
:1059D000A3FB01235B091B011A09642000FB1212BF
:1059E000A18911F4004F08D0D20032320A49A1FB3C
:1059F0000212C2F342121A4307E012013232064980
:105A0000A1FB0212C2F343121A4392B2228107B0E1
:105A100030BD00BF003801401F85EB5129B183899B
:105A20009BB243F400538381704783899BB223F474
:105A300000539BB28381704710B4C1F3421401F04C
:105A40001F01012303FA01F19C4201D10C3004E053
:105A5000022C01D1103000E014301AB10368194350
:105A6000016003E0036823EA0101016010BC704794
:105A7000C1F30801818070478088C0F30800704737
:105A80000388194201D0012070470020704700BFF1
:105A9000C94389B20180704710B4C1F3421201F0CA
:105AA0001F040123A340012A03D1828992B213402B
:105AB00008E0022A03D1028A92B2134002E0828AED
:105AC00092B21340090A012202FA01F1028892B24D
:105AD000114013B119B9002002E0002000E00120BC
