:020000040800F2
:1000000000500020CD540008795600087D560008A5
:100010008156000885560008895600080000000037
:100020000000000000000000000000008D560008E5
:1000300091560008000000009556000899560008E7
:1000400015550008155500081555000815550008E8
:100050001555000815550008C53A00081555000843
:10006000553B0008155500081555000815550008A2
:1000700015550008155500081555000815550008B8
:1000800015550008155500081555000815550008A8
:10009000155500081555000815550008F93A0008CF
:1000A00015550008AD27000815550008155500081E
:1000B0001555000875420008A528000815550008C8
:1000C0001555000815550008155500081555000868
:1000D00015550008B953000815550008752A000881
:1000E00015550008155500081555000800000000BA
:1000F0000000000000000000000000000000000000
:0C01000000000000000000005FF808F1A3
:1001100010B5054C237833B9044B13B10448AFF341
:1001200000800123237010BD4C020020000000005D
:100130009C840008084B10B51BB108490848AFF370
:1001400000800848036803B910BD074B002BFBD0A3
:10015000BDE81040184700BF00000000500200201A
:100160009C8400084C0200200000000081F0004147
:1001700002E000BF83F0004330B54FEA41044FEA8C
:10018000430594EA050F08BF90EA020F1FBF54EA27
:10019000000C55EA020C7FEA645C7FEA655C00F0C3
:1001A000E2804FEA5454D4EB5555B8BF6D420CDD94
:1001B0002C4480EA020281EA030382EA000083EA17
:1001C000010180EA020281EA0303362D88BF30BDB7
:1001D00011F0004F4FEA01314FF4801C4CEA11310D
:1001E00002D0404261EB410113F0004F4FEA03336C
:1001F0004CEA133302D0524263EB430394EA050FF7
:1002000000F0A780A4F10104D5F1200E0DDB02FA65
:100210000EFC22FA05F2801841F1000103FA0EF2F9
:10022000801843FA05F359410EE0A5F120050EF1BF
:10023000200E012A03FA0EFC28BF4CF0020C43FAF0
:1002400005F3C01851EBE37101F0004507D54FF0FD
:10025000000EDCF1000C7EEB00006EEB0101B1F54D
:10026000801F1BD3B1F5001F0CD349085FEA300093
:100270004FEA3C0C04F101044FEA445212F5800F9E
:1002800080F09A80BCF1004F08BF5FEA500C50F13B
:10029000000041EB045141EA050130BD5FEA4C0C1E
:1002A000404141EB010111F4801FA4F10104E9D1A7
:1002B00091F0000F04BF01460020B1FA81F308BF9E
:1002C0002033A3F10B03B3F120020CDA0C3208DD6A
:1002D00002F1140CC2F10C0201FA0CF021FA02F145
:1002E0000CE002F11402D8BFC2F1200C01FA02F1B5
:1002F00020FA0CFCDCBF41EA0C019040E41AA2BFDA
:1003000001EB0451294330BD6FEA04041F3C1CDAA1
:100310000C340EDC04F11404C4F1200220FA04F0C1
:1003200001FA02F340EA030021FA04F345EA03016B
:1003300030BDC4F10C04C4F1200220FA02F001FA2D
:1003400004F340EA0300294630BD21FA04F02946AF
:1003500030BD94F0000F83F4801306BF81F4801148
:100360000134013D4EE77FEA645C18BF7FEA655CBB
:1003700029D094EA050F08BF90EA020F05D054EA8D
:10038000000C04BF1946104630BD91EA030F1EBF92
:100390000021002030BD5FEA545C05D14000494196
:1003A00028BF41F0004130BD14F580043CBF01F589
:1003B000801130BD01F0004545F0FE4141F470016F
:1003C0004FF0000030BD7FEA645C1ABF194610464A
:1003D0007FEA655C1CBF0B46024650EA013406BF4B
:1003E00052EA033591EA030F41F4002130BD00BF0A
:1003F00090F0000F04BF0021704730B54FF48064C7
:1004000004F132044FF000054FF0000150E700BF47
:1004100090F0000F04BF0021704730B54FF48064A6
:1004200004F1320410F0004548BF40424FF0000193
:100430003EE700BF42004FEAE2014FEA31014FEAD6
:1004400002701FBF12F07F4393F07F4F81F0605125
:10045000704792F0000F14BF93F07F4F704730B594
:100460004FF4607401F0004521F0004120E700BF27
:1004700050EA010208BF704730B54FF000050AE0AE
:1004800050EA010208BF704730B511F0004502D5AF
:10049000404261EB41014FF4806404F132045FEAB1
:1004A000915C3FF4DCAE4FF003025FEADC0C18BF56
:1004B00003325FEADC0C18BF033202EBDC02C2F14C
:1004C000200300FA03FC20FA02F001FA03FE40EADE
:1004D0000E0021FA02F11444C1E600BF70B54FF0DE
:1004E000FF0C4CF4E06C1CEA11541DBF1CEA1355C0
:1004F00094EA0C0F95EA0C0F00F0DEF82C4481EA28
:10050000030621EA4C5123EA4C5350EA013518BF47
:1005100052EA033541F4801143F4801338D0A0FB34
:1005200002CE4FF00005E1FB02E506F00042E0FBE1
:1005300003E54FF00006E1FB03569CF0000F18BFE7
:100540004EF0010EA4F1FF04B6F5007F64F540748F
:1005500004D25FEA4E0E6D4146EB060642EAC62122
:1005600041EA55514FEAC52040EA5E504FEACE2E8F
:10057000B4F1FD0C88BFBCF5E06F1ED8BEF1004F92
:1005800008BF5FEA500E50F1000041EB045170BD0E
:1005900006F0004646EA010140EA020081EA030152
:1005A000B4EB5C04C2BFD4EB0C0541EA045170BD4E
:1005B00041F480114FF0000E013C00F3AB8014F1C8
:1005C000360FDEBF002001F0004170BDC4F1000411
:1005D000203C35DA0C341BDC04F11404C4F1200592
:1005E00000FA05F320FA04F001FA05F240EA0200ED
:1005F00001F0004221F0004110EBD37021FA04F623
:1006000042EB06015EEA430E08BF20EAD37070BDDC
:10061000C4F10C04C4F1200500FA04F320FA05F03B
:1006200001FA04F240EA020001F0004110EBD3703D
:1006300041F100015EEA430E08BF20EAD37070BDAD
:10064000C4F1200500FA05F24EEA020E20FA04F386
:1006500001FA05F243EA020321FA04F001F0004135
:1006600021FA04F220EA020000EBD3705EEA430EA6
:1006700008BF20EAD37070BD94F0000F0FD101F0D5
:100680000046400041EB010111F4801F08BF013C0E
:10069000F7D041EA060195F0000F18BF704703F04C
:1006A0000046520043EB030313F4801F08BF013DD3
:1006B000F7D043EA0603704794EA0C0F0CEA13558F
:1006C00018BF95EA0C0F0CD050EA410618BF52EA49
:1006D0004306D1D181EA030101F000414FF000004F
:1006E00070BD50EA410606BF1046194652EA43065D
:1006F00019D094EA0C0F02D150EA013613D195EAD1
:100700000C0F05D152EA03361CBF104619460AD118
:1007100081EA030101F0004141F0FE4141F4700122
:100720004FF0000070BD41F0FE4141F4780170BD12
:1007300070B54FF0FF0C4CF4E06C1CEA11541DBF77
:100740001CEA135594EA0C0F95EA0C0F00F0A7F879
:10075000A4EB050481EA030E52EA03354FEA0131A6
:1007600000F088804FEA03334FF0805545EA1313B9
:1007700043EA12634FEA022245EA111545EA106581
:100780004FEA00260EF000419D4208BF964244F118
:10079000FD0404F5407402D25B084FEA3202B61A37
:1007A00065EB03055B084FEA32024FF480104FF40B
:1007B000002CB6EB020E75EB030E22BFB61A75467F
:1007C00040EA0C005B084FEA3202B6EB020E75EB12
:1007D000030E22BFB61A754640EA5C005B084FEA7A
:1007E0003202B6EB020E75EB030E22BFB61A754647
:1007F00040EA9C005B084FEA3202B6EB020E75EB52
:10080000030E22BFB61A754640EADC0055EA060E12
:1008100018D04FEA051545EA16754FEA06164FEA55
:10082000C30343EA52734FEAC2025FEA1C1CC0D101
:1008300011F4801F0BD141EA00014FF000004FF08E
:10084000004CB6E711F4801F04BF01430020B4F14F
:10085000FD0C88BFBCF5E06F3FF6AFAEB5EB030C07
:1008600004BFB6EB020C5FEA500C50F1000041EB04
:10087000045170BD0EF0004E4EEA113114EB5C04D1
:10088000C2BFD4EB0C0541EA045170BD41F48011A4
:100890004FF0000E013C90E645EA060E8DE60CEAAC
:1008A000135594EA0C0F08BF95EA0C0F3FF43BAFC9
:1008B00094EA0C0F0AD150EA01347FF434AF95EA80
:1008C0000C0F7FF425AF104619462CE795EA0C0F64
:1008D00006D152EA03353FF4FDAE1046194622E731
:1008E00050EA410618BF52EA43067FF4C5AE50EA0B
:1008F00041047FF40DAF52EA43057FF4EBAE12E7FB
:100900004FEA410212F5001215D211D56FF4787337
:10091000B3EB625212D94FEAC12343F0004343EADA
:10092000505311F0004F23FA02F018BF40427047B5
:100930004FF00000704750EA013005D111F000403F
:1009400008BF6FF0004070474FF00000704700BFD5
:10095000034613F8012B002AFBD1181A01387047FF
:100960004FF0FF3C06E000BF4FF0010C02E000BF7B
:100970004FF0010C4DF804CD4FEA410C7FEA6C5C5E
:100980004FEA430C18BF7FEA6C5C1BD001B050EA01
:10099000410C0CBF52EA430C91EA030F02BF90EAEC
:1009A000020F0020704710F1000F91EA030F58BFAB
:1009B000994208BF90422CBFD8176FEAE37040F00D
:1009C000010070474FEA410C7FEA6C5C02D150EAAB
:1009D000013C07D14FEA430C7FEA6C5CD6D152EA66
:1009E000033CD3D05DF8040B704700BF844610462B
:1009F00062468C461946634600E000BF01B5FFF72A
:100A0000B7FF002848BF10F1000F01BD4DF808EDF9
:100A1000FFF7F4FF0CBF012000205DF808FB00BFCA
:100A20004DF808EDFFF7EAFF34BF012000205DF824
:100A300008FB00BF4DF808EDFFF7E0FF94BF012071
:100A400000205DF808FB00BF4DF808EDFFF7CEFF72
:100A500094BF012000205DF808FB00BF4DF808EDB1
:100A6000FFF7C4FF34BF012000205DF808FB00BF82
:100A70004FEA410C7FEA6C5C02D150EA013C0AD19A
:100A80004FEA430C7FEA6C5C02D152EA033C02D18C
:100A90004FF0000070474FF001007047002875D0FC
:100AA0002DE9F041BCB00746002A6CD0002B6AD07B
:100AB0004298402867DC1C461646884640252A4650
:100AC000002115A804F0A9FE2A46002105A804F07B
:100AD000A4FE429A214615A804F094FE429A2146AB
:100AE00005A804F08FFE00240EE03CAB234413F86D
:100AF0009C5C85F0360503F89C5C13F8DC5C85F0A3
:100B00005C0503F8DC5C01343F2CEEDD25A800F029
:100B100049F825A800F04CF8402215A925A801F0B5
:100B200081F84246394625A801F07CF8694625A897
:100B300001F0B2F825A800F035F825A800F038F843
:100B4000402205A925A801F06DF81422694625A8C0
:100B500001F068F8694625A801F09EF8002410E02D
:100B600065003CAB1F1917F8F00C000900F010F8F5
:100B700006F81400013517F8F00C00F009F870556C
:100B80000134132CECDD3CB0BDE8F081704700BFB0
:100B900000F00F00092801D830307047573040B2BC
:100BA000704700BF08B55C22002104F036FE08BD86
:100BB000002303604360094B836003F18833C36003
:100BC00003F12943A3F59613A3F68B630361A3F105
:100BD00088334361024B8361704700BF012345673F
:100BE000F0E1D2C32DE9F04F9BB015900B78487817
:100BF000000440EA03608A7840EA0220CA7802438F
:100C000008920B794879000440EA036091F806B035
:100C100040EA0B2091F807B040EA0B0409940D7AE2
:100C20004B7A1B0443EA05658B7A45EA0323CD7AA8
:100C30001D430B7B91F80DA04FEA0A4A4AEA036A6A
:100C40008B7B4AEA032ACB7B4AEA030A0B7C91F8A6
:100C500011904FEA094949EA03698B7C49EA032963
:100C6000CB7C49EA03060D960B7D91F815804FEA7F
:100C7000084848EA03688B7D48EA0328CB7D48EAA8
:100C800003040A940B7E91F819C04FEA0C4C4CEA0D
:100C9000036C8B7E4CEA032CCB7E4CEA03060B964E
:100CA0000B7F91F81DE04FEA0E4E4EEA036E8B7FEC
:100CB0004EEA032ECB7F4EEA030ECDF830E091F8DA
:100CC000203091F821703F0447EA036791F8223001
:100CD00047EA032791F8233047EA030ECDF80CE0EA
:100CE00091F8243091F82500000440EA036091F85F
:100CF000263040EA032091F8273040EA030ECDF871
:100D000010E091F8282091F829301B0443EA02638F
:100D100091F82A2043EA022391F82B2043EA020E9D
:100D2000CDF814E091F82C3091F82D00000440EA41
:100D3000036091F82E3040EA032091F82F3040EA0A
:100D4000030ECDF818E091F8303091F8310000042E
:100D500040EA036091F8323040EA032091F83330E2
:100D600040EA030ECDF81CE091F8343091F83500DC
:100D7000000440EA036091F8363040EA032091F81D
:100D8000373040EA030ECDF800E091F8383091F8A2
:100D90003900000440EA036091F83A3040EA032049
:100DA00091F83B3040EA030ECDF804E091F83C2086
:100DB00091F83D301B0443EA026391F83E2043EA78
:100DC000022391F83F1019430291159A93681F4628
:100DD000D0680E90136918465369916916911A46A6
:100DE00080EA03040E9E34405440394604EBF76415
:100DF000089B1C44169B1C44E64B1C444FEAB60659
:100E0000074680EA060E01EA0E0E87EA0E0E0EEB8A
:100E1000F46E09988644199296449E4417914FEABD
:100E2000B10286EA02012140714001EBFE612944D2
:100E30001897394419444FEAB40482EA04000EEAD0
:100E40000000504000EBF160504406441E444FEA5D
:100E5000BE0E84EA0E0801EA080884EA080808EBD6
:100E6000F6680D9FB844904498444FEAB1018EEA69
:100E7000010C06EA0C0C8EEA0C0C0CEBF86C0A9FC9
:100E8000BC44A4449C444FEAB60681EA060208EA40
:100E900002024A4002EBFC620B9C224472441A4458
:100EA0004FEAB80886EA080B0CEA0B0B86EA0B0B34
:100EB0000BEBF26B0C9CA3448B449B444FEABC0CA1
:100EC00088EA0C07174088EA070707EBFB67039CD3
:100ED000274437441F444FEAB2028CEA02000BEA6F
:100EE00000008CEA000000EBF760049E30444044B0
:100EF00018444FEABB0B82EA0B043C40544004EB1D
:100F0000F064059E344464441C444FEAB7078BEAFE
:100F1000070E00EA0E0E8BEA0E0E0EEBF46E06992B
:100F20008E4496449E444FEAB00087EA0001214077
:100F3000794001EBFE61079E3144594419444FEA60
:100F4000B40480EA04060EEA0606464006EBF166A3
:100F5000009A16443E441E444FEABE0E84EA0E0830
:100F600001EA080884EA080808EBF668019FB8441B
:100F7000804498444FEAB1018EEA010C06EA0C0C59
:100F80008EEA0C0C0CEBF86C029FBC4464441C44CD
:100F90004FEAB609039E86EA02006840089A50406C
:100FA00081EA090208EA02024A4002EBF4624FEACF
:100FB000F076089632441A4472444FEAB80804980E
:100FC000019E70408AEA0000099E704089EA080B81
:100FD00004EA0B0B89EA0B0B0BEBF26B4FEAF07692
:100FE0000996B3449B448B444FEAB40C059CA64637
:100FF0008EEA07010D9F79404D4088EA0C061640A5
:1010000088EA060606EBFB664FEAF57528462E448D
:101010001E444E444FEAB20E069DA946089D89EA39
:1010200005020A9D6A408AEA020A8CEA0E050BEA6A
:1010300005058CEA050505EBF6654FEAFA7A554495
:101040001D4445444FEABB01079B9846099B88EA2B
:1010500003090B9C84EA090987EA090986EA010465
:101060008EEA040404EBF5644FEAF9794C4404F188
:10107000DD4404F5B30404F5D744213464444FEA55
:10108000B607009E034686EA00080C9A82EA080822
:101090000A9A82EA080885EA07024A4002EBF462EB
:1010A0004FEAF878424402F1DD4202F5B30202F55C
:1010B000D742213272444FEAB500019D85EA0A0CFD
:1010C000039D85EA0C0C0B9E86EA0C0C84EA000B4F
:1010D00087EA0B0B0BEBF26B4FEAFC7CE3440BF162
:1010E000DD4B0BF5B30B0BF5D74B0BF1210B8B4401
:1010F0004FEAB404029981EA090E049981EA0E0EBE
:101100000C9E86EA0E0E82EA0406464006EBFB665B
:101110004FEAFE7E764406F1DD4606F5B30606F597
:10112000D74621363E444FEAB202089F87EA0807B5
:10113000059D6F40039D6F408BEA0205654005EBFE
:10114000F6654FEAF7773D4405F1DD4505F5B30552
:1011500005F5D745213505444FEABB0B099981EACE
:101160000C00069948400499484086EA0B0151401A
:1011700001EBF5614FEAF0700390014401F1DD41AC
:1011800001F5B30101F5D74121310C444FEAB60610
:1011900002E000BF9979825A83EA0E010798414024
:1011A0000598414085EA06008BEA000000EBF460F8
:1011B0004FEAF1710491084400F1DD4000F5B300FD
:1011C00000F5D740213002444FEAB5058AEA07000E
:1011D000009948400699484084EA0501714001EBB6
:1011E000F2614FEAF0700590014401F1DD4101F533
:1011F000B30101F5D74121318B444FEAB404039880
:1012000089EA0000019948400799484082EA0401B0
:10121000694001EBFB614FEAF0700690014401F177
:10122000DD4101F5B30101F5D74121310E444FEA0B
:10123000B202049888EA00000299484000994840A8
:101240008BEA0201614001EBF6614FEAF070009019
:10125000014401F1DD4101F5B30101F5D74121312F
:101260000D444FEABB0B05998CEA010008994840F0
:101270000199484086EA0B01514001EBF5614FEAC4
:10128000F0700190014401F1DD4101F5B30101F578
:10129000D74121310C444FEAB6000A9006998EEAF4
:1012A000010109984140029841400A9868408BEA40
:1012B000000000EBF4604FEAF1710291084400F184
:1012C000DD4000F5B30000F5D740213010444FEA6F
:1012D000B505009A7A405A4008994A4084EA0501C7
:1012E0000A9E714001EBF0614FEAF27207921144DD
:1012F00001F1DD4101F5B30101F5D7412131594437
:101300004FEAB404039A9346019A8BEA020B8AEAE5
:101310000B0B099A82EA0B0B80EA04026A4002EB8B
:10132000F1624FEAFB7BCDF834B05A4402F1DD4262
:1013300002F5B30202F5D74221320A9E16444FEA63
:10134000B000049A9346029A8BEA020289EA0202EA
:101350005A4081EA000B84EA0B0B0BEBF66B4FEA69
:10136000F27308939B440BF1DD4B0BF5B30B0BF5BC
:10137000D74B0BF1210B5D444FEAB101059B9B4616
:10138000079B8BEA030288EA02028AEA020A86EADB
:101390000102424002EBF5624FEAFA7B5A4402F145
:1013A000DD4202F5B30202F5D742213214444FEA7E
:1013B000B606069B9A460D9B8AEA03028CEA020255
:1013C00089EA020985EA060A81EA0A0A0AEBF46A4E
:1013D0004FEAF979CDF83C90CA440AF1DD4A0AF5A2
:1013E000B30A0AF5D74A0AF1210A50444FEAB50573
:1013F000009B9946089B9A4689EA03028EEA0202FC
:1014000088EA020884EA0502724002EBF0624FEAC1
:10141000F878CDF82480424402F1DD4202F5B302AF
:1014200002F5D742213211444FEAB404019B83EA0A
:101430000B0887EA08088CEA080C80EA040985EAA8
:10144000090909EBF1694FEAFC7CCDF828C0E144B9
:1014500009F1DD4909F5B30909F5D74909F1210970
:101460004E444FEAB000029B0F9A83EA020C039BA2
:10147000984683EA0C0C8EEA0C0E81EA0002624068
:1014800002EBF6624FEAFE7ECDF82CE0724402F1E8
:10149000DD4202F5B30202F5D742213215444FEA8C
:1014A000B101079A9646099A8EEA0203049A5340BC
:1014B0005F4006EA010246EA010303401A4302EBD9
:1014C000F5624FEAF7770C973A44DA4B1A44144422
:1014D0004FEAB6060D9FBE460A9F8EEA0702059F99
:1014E0007A4047467A4005EA060E45EA06070F406D
:1014F0004EEA070707EBF4674FEAF27210921744BF
:101500001F4438444FEAB5050B9F8AEA0702069F3D
:101510007A40049F7A4004EA050E44EA0507374002
:101520004EEA070707EBF0674FEAF272039217449F
:101530001F4439444FEAB4040C9F8BEA0702009F12
:101540007A40059F7A4000EA040E40EA04072F40E3
:101550004EEA070707EBF1674FEAF272049217446D
:101560001F443E444FEAB00E0F98844610988CEA10
:10157000000701984740069A574001EA0E0041EAE9
:101580000E022240024302EBF6624FEAF77011901E
:10159000024402EB030845444FEAB101099884462E
:1015A00003988CEA0000029A5040009F784006EAB7
:1015B000010246EA01070EEA0707174307EBF56742
:1015C0004FEAF0701290074407EB030C64444FEAB3
:1015D000B6060A9F04987840079F7840019F78409C
:1015E00005EA060745EA06020A403A4302EBF462BE
:1015F0004FEAF0771397D019184470444FEAB508B2
:101600000B9DAE46119D8EEA050C0D9F87EA0C0CD2
:10161000029D85EA0C0C04EA080944EA08023240FB
:1016200049EA020909EBF0694FEAFC7ECDF800E0D7
:10163000F144994489444FEAB40C0C99129C81EA14
:10164000040255466A40079C624000EA0C0440EAE6
:101650000C0108EA01010C4304EBF9644FEAF27152
:10166000019165181D4435444FEAB000109C139E4B
:1016700084EA06018BEA0101794009EA000749EA98
:1016800000020CEA0202174307EBF5674FEAF17616
:10169000029607EB060E9E44C6444FEAB901039E2C
:1016A000009A72400F9E7240089C624005EA010851
:1016B00045EA0104044048EA040808EBFE684FEAE2
:1016C000F2740594A0449844E0444FEAB504049DA4
:1016D000019A85EA020A099D85EA0A0A8BEA0A0A42
:1016E0000EEA040B4EEA04020A404BEA020202EB45
:1016F000F8624FEAFA7CCDF83CC002EB0C0B9B443D
:1017000083444FEABE07119A029882EA00090A9DB3
:1017100085EA090986EA090908EA070648EA07028C
:101720002240164306EBFB664FEAF97ECDF850E007
:1017300076441E440E444FEAB8021299059841407F
:101740000B9D6940099D69400BEA02054BEA0200C6
:101750003840054305EBF6654FEAF17106910D44FB
:101760001D4425444FEABB0A13990F9881EA0008EB
:101770000C9981EA08080A9C84EA080806EA0A0E1D
:1017800046EA0A0111404EEA010E0EEBF56E4FEAF1
:10179000F87CCDF81CC0E6449E44BE444FEAB6092E
:1017A000009F149E87EA060C109F87EA0C0C0B9C86
:1017B00084EA0C0C05EA090845EA09010AEA010174
:1017C00048EA010808EBFE684FEAFC7CCDF820C02F
:1017D000E044984490444FEAB504019D069985EA97
:1017E0000100039E70400C9D68400EEA040C4EEA16
:1017F000040209EA02024CEA020C0CEBF86C4FEA14
:10180000F07509950CEB050B9B44D3444FEABE0ED3
:101810000299079D6940049D6940794008EA0E06D7
:1018200048EA0E0525402E4306EBFB664FEAF177AA
:101830000A9701E0DCBC1B8F3E441E444E444FEA35
:10184000B808059F089887EA0002119F7A40039D17
:101850006A400BEA08054BEA08000EEA000005435F
:1018600005EBF6654FEAF272039215441D442544D8
:101870004FEABB0C0F9B9946099B89EA0300129C17
:101880006040049B584006EA0C0246EA0C0308EA52
:101890000303134303EBF5634FEAF0700490034432
:1018A000D74919448E444FEAB600149B0A9A83EA3A
:1018B0000201139E7140794085EA00078CEA070710
:1018C00007EBFE674FEAF1730B931F44CD4B1F44A8
:1018D00047444FEAB505069A03994A4000994A40A1
:1018E00062408EEA050B80EA0B0B0BEBF76B4FEABD
:1018F000F2740C94A3449B44E3444FEABE01079C5A
:10190000A646049C8EEA0408019C84EA080886EA3C
:10191000080887EA01066E4006EBFB664FEAF87E90
:10192000CDF834E076441E4406444FEAB702089FDF
:101930000B9C87EA040C029F87EA0C0C009C84EA4B
:101940000C0C8BEA02044C4004EBF6644FEAFC7E7C
:10195000CDF800E074441C442C444FEABB0A099DB6
:101960000C986840059F7840019D684086EA0A0E01
:1019700082EA0E0E0EEBF46E4FEAF0752846AE4486
:101980009E448E444FEAB6090A9EB4460D9E8CEAE8
:1019900006010F9E7140029D694084EA09078AEAA8
:1019A000070707EBFE674FEAF17501952F441F44C7
:1019B00017444FEAB405039C009984EA0102149984
:1019C0004A40059C62408EEA050B89EA0B0B0BEB43
:1019D000F76B4FEAF27293449B44D3444FEABE083C
:1019E000049CA64605908EEA000A069C84EA0A0A30
:1019F00086EA0A0A87EA08066E4006EBFB664FEAAB
:101A0000FA7A56441E444E444FEAB70C0B9FBE462A
:101A1000019F8EEA0709079F87EA090981EA0909F8
:101A20008BEA0C0488EA040404EBF6644FEAF979C3
:101A30004C441C442C444FEABB000C995140089F75
:101A40007940069D694086EA000E8CEA0E0E0EEB88
:101A5000F46E4FEAF17106918E449E44C6444FEAFB
:101A6000B6010D9E86EA0A08099E86EA0808079DC7
:101A700085EA080884EA0107474007EBFE674FEA5A
:101A8000F87847441F4467444FEAB404009D85EA50
:101A9000090C0A9D85EA0C0C089D85EA0C0C8EEA5F
:101AA000040B81EA0B0B0BEBF76B4FEAFC7CE34476
:101AB0009B4483444FEABE0E059D069E85EA0600C0
:101AC000039E7040099E704087EA0E06664006EB52
:101AD000FB664FEAF07006441E440E444FEAB70717
:101AE000019981EA0801049D69400A9D69408BEAD9
:101AF00007058EEA050505EBF6654FEAF1710D4421
:101B00001D442C444FEABB0B82EA0C020B9D6A4039
:101B1000039D6A4086EA0B057D4005EBF4654FEABC
:101B2000F27215441D4475444FEAB60602968AEADD
:101B300000000C9E7040049E7040029E84EA060ED7
:101B40008BEA0E0E0EEBF56E4FEAF07086449E4463
:101B500077444FEAB40489EA01010D9E71400B9E5F
:101B6000714085EA040E029E86EA0E0E0EEBF76EB9
:101B70004FEAF1718E449E44F3444FEAB505069E48
:101B80007240009E72400C9E724087EA050E84EA05
:101B90000E0E0EEBFB6E0EEBF27E9E44029A72442A
:101BA00016464FEAB70788EA0000059A50400D9A9A
:101BB00050408BEA07026A4002EBF66202EBF072D9
:101BC0001A4414444FEABB0B8CEA010C019981EAD8
:101BD0000C0C009981EA0C0186EA0B0C87EA0C0CCC
:101BE0000CEBF46202EBF17C63441D44179B9E46B0
:101BF0001D44159A95600E9B1C44D460189803E010
:101C0000DCBC1B8FD6C162CA00EBB6061661199800
:101C100000EB0B035361169B1F4497611BB0BDE89B
:101C2000F08F00BFB2B32DE9F84306460D461446C7
:101C3000036803F03F07C7F14008134403609A426A
:101C400002D9436801334360C7B1444516D306F156
:101C50001C094246294609EB070003F0D3FD49461B
:101C60003046FEF7BFFF4544C8EB0404002705E0FB
:101C700029463046FEF7B6FF4035403C3F2CF7D8AA
:101C800034B106F11C0022462946384403F0BAFD5F
:101C9000BDE8F883704700BF30B583B004460D46F9
:101CA00002684368DB0043EA5273D100180E8DF8D6
:101CB0000000C3F307408DF80100C3F307208DF83F
:101CC00002008DF803300B0E8DF80430C1F307438A
:101CD0008DF80530C1F307238DF806308DF8071015
:101CE00002F03F02372A02D8C2F1380201E0C2F105
:101CF000780219492046FFF795FF082269462046D9
:101D0000FFF790FFE37A2B70A37A6B70637AAB7066
:101D1000237AEB70E37B2B71A37B6B71637BAB71DD
:101D2000237BEB71E37C2B72A37C6B72637CAB72C5
:101D3000237CEB72E37D2B73A37D6B73637DAB73AD
:101D4000237DEB73E37E2B74A37E6B74637EAB7495
:101D5000237EEB7403B030BDB884000810B5814B0E
:101D60001B78012B40F0D4807F4B1B687F4A1268A0
:101D7000934229D09978102915D0822903D17C4B20
:101D80001B78012B0FD0302903D1794B1B78012B05
:101D900009D0C02903D1764B1B78012B03D0754B9A
:101DA0001B78012B10D1744804F0B0F96E4C2068F8
:101DB00000F042FE236803F5007323606F4A126847
:101DC000934201D16E4A22606E4B1A686E4B1B68BB
:101DD0009A4200F088806D4804F098F9694B1A68BF
:101DE0009378202B3DD15379052B33D8DFE803F0CE
:101DF000030F161D242B664804F0FAF901225C4BF0
:101E00001A700022634B1A7000F010FC5FE0624809
:101E100004F0EEF90022534B1A7058E05F4804F0CA
:101E2000E7F900224F4B1A7051E05D4804F0E0F9E9
:101E300000224C4B1A704AE05A4804F0D9F90022AB
:101E4000484B1A7043E0584804F0D2F90022454B41
:101E50001A703CE0554804F0CBF90022414B1A704F
:101E600035E0902B15D19379012B0BD8504804F015
:101E7000BFF901223F4B1A700022464B1A7000F046
:101E8000D5FB24E04B4804F0B3F90022354B1A701F
:101E90001DE0D02B12D1484804F0AAF93D4B1B7825
:101EA000012B03D100223B4B1A7010E0012B0ED9FD
:101EB0000022384B1A7000F0B9FB08E0302B06D135
:101EC0003E4804F095F92F4B186800F055FB2D4A59
:101ED000136803F500731360394A1268934202D104
:101EE000384A284B1A60384B1A68384B1B689A429C
:101EF00036D001F0C7FB344A136803F50073136052
:101F0000334A126893422BD1324A2F4B1A6010BDCC
:101F1000314804F06DF90021304802F0C9FF00217A
:101F20002F4802F0C5FF00212E4B19604FF480624C
:101F30002D4803F072FC00F02FFF88B92B4804F005
:101F400057F90122074B1A700021264B19604FF4F4
:101F50008062254803F061FC00F024FA00F0A6FB43
:101F600010BD00BF142300201023002068120020A1
:101F70007012002004230020F88400086C12002056
:101F8000A826002098250020B436002008850008E7
:101F900014850008A0260020288500085085000828
:101FA0007C850008A0850008CC850008EC85000829
:101FB0000C860008188600082C8600084C8600084D
:101FC000FC12002068020020A4260020B036002069
:101FD0000823002004130020608600080008004049
:101FE000002C0140B8360020BC3600207086000866
:101FF00008B54FF4E13000F091FC00F071FD41F6BE
:102000001F4140F22B1000F015FC00F003F800F027
:1020100047F808BD124B134A1360134A136003F5C7
:102020006063124A1360124B124A1360124A136023
:1020300003F56063114A1360114B124A1360124A90
:10204000136003F56063114A13600023104A137094
:10205000104A1370104A1370104A1370704700BF73
:1020600068020020B436002098250020FC120020D1
:10207000A826002068120020102300206C120020E7
:1020800004130020B0360020A426002008230020DE
:10209000A02600200423002070120020142300201A
:1020A0002DE9F041A2B0274C274E22462749304661
:1020B00004F050F93046FEF74BFC254B1860254FD5
:1020C000254D3B4622462549284604F043F928463B
:1020D000FEF73EFC224B186000972346224621491A
:1020E00002A804F037F902A8FEF732FC1E4C2023A8
:1020F00000931E4B2246014602A8FEF7CFFC204665
:10210000FEF726FC1A4B1860DFF880803A46194922
:10211000404604F01FF940F25B72174B1A604146CB
:10212000164803F0F3FF3146154803F0EFFF294648
:10213000144803F0EBFF2146134803F0E7FF22B0F9
:10214000BDE8F08184860008781200208C860008A3
:1021500074120020B486000818230020C0860008EE
:1021600000130020C88600089C250020EC8600088B
:102170000C23002010870008F81200203887000880
:102180004C8700085C8700086C8700082026002028
:1021900038B50C46134D2B680A460146981C03F0CF
:1021A00031FB2A682346002C01DA04F1FF031B12DD
:1021B00013700C4B1A680C4B2340002B03DA013BC5
:1021C00063F0FF0301335370064A136803F500738D
:1021D0001360064A1268934202D1054A014B1A6005
:1021E00038BD00BF68120020FF0000806C12002084
:1021F000A82600202DE9F04701225E4B1A600A2232
:102200005D4B1A605D4B1D682E1D5D4BD3F8008041
:10221000464402365B4B1F683E445B4B1E60B2185F
:1022200010215A4B19705A4B1340002B03DA013B13
:1022300063F07F0301331146002A01DA02F17F01C6
:10224000CA11002A01DD43F080034A490C684F4857
:10225000035501340C60002AE5DC034600210155DA
:10226000621C04209854A21C4FF04D0E03F802E0AB
:10227000E21C4FF0510E03F802E022184FF0540E0A
:1022800003F802E0621D03F802E0A21D9854E21D6B
:10229000C220985404F10802995404F109026421FF
:1022A000995404F10A0A2B46002D01DA05F1FF03C7
:1022B0001B12364A02F80A3004F10B02354B2B4050
:1022C000002B03DA013B63F0FF0301332F488354F3
:1022D00004F10C092A463049484403F093FAA94412
:1022E0004346B8F1000F01DA08F1FF031B12274A39
:1022F00002F8093004F10D022A44264B08EA0303D0
:10230000002B03DA013B63F0FF0301331F488354C2
:1023100004F10E09A94442462049484403F072FAE8
:10232000C1443B46002F01DA07F1FF031B12174A95
:1023300002F8093004F10F022A444244154B3B4095
:10234000002B03DA013B63F0FF030133DFF83C901D
:1023500009F8023004F11000284440443A4610497C
:10236000484403F04FFA06EB0A014846FFF710FF16
:10237000BDE8F087A83600201C260020741200203B
:10238000001300200C230020AC36002098230020EE
:102390007F000080FF0000807812002018230020BA
:1023A0009C25002038B51A4B1B681A4A1468A342B2
:1023B00023D0194B9C4204D103F50062144B1A60E0
:1023C00013E0164B9C4204D103F50062104B1A60D7
:1023D0000BE0134B9C4204D103F500620C4B1A60D6
:1023E00003E0A4F5C0630A4A13600A4D084B1B685A
:1023F0002B60FFF7FFFE2C6001E0FFF7FBFE0023E0
:10240000084A1370084A1370084A137038BD00BF99
:102410001023002068120020A8260020A8280020F1
:10242000A82A00200423002070120020A0260020EB
:1024300008B50448C0230370002343700221FFF74E
:10244000A7FE08BD982300202DE9F04704468846E2
:1024500015460122284B1A60FEF77AFA861C274B94
:102460001E60274B1D6072193021264B1970264BB8
:102470001340002B03DA013B63F07F030133114665
:10248000002A01DA02F17F01CA11002A01DD43F0BE
:102490008003194801681B4F7B544F1C0760002ABA
:1024A000E5DC2046FEF754FA000ADFF8589009F8F8
:1024B000070007F1010A2046FEF74AFA09F80A0068
:1024C00007F1020ACA442046FEF742FA02462146B4
:1024D000504603F097F92046FEF73AFA38440230A6
:1024E0002A464146484403F08DF9F11929444846EB
:1024F000FFF74EFEBDE8F087A83600201C2600201E
:10250000AC360020982300207F00008038B50C46B0
:10251000154D2B680A460146981C03F073F92A688A
:102520002346002C01DA04F1FF031B1213700E4B3B
:102530001A680E4B2340002B03DA013B63F0FF03C4
:1025400001335370084A0234136800211955136887
:1025500003F500731360064A1268934202D1054ADC
:10256000014B1A6038BD00BFB0360020FF0000806C
:1025700008230020041300202DE9F047ADF5007D6D
:1025800090F800E0437803EB0E2E841C00273E46B3
:102590000136012213460020F918615C01F07F0525
:1025A00005FB0200D201013311F0800FF4D1034486
:1025B0001F44BEEB030EEBD131461B4803F0A6FDD2
:1025C0004FF00009C84629E03B4602E001221346CD
:1025D000002508EB0301615C01F07F0000FB025560
:1025E000D2015F1C11F0800FEED108EB0701605C97
:1025F00002334344E25C02EB0022931CC3EB050A66
:10260000194452462144684603F0FCF85146684696
:10261000FFF77CFF3D44A84409F10109B145D5DB32
:102620000DF5007DBDE8F0877C87000810B584B00B
:102630004FF4A06001F0EAFE01214FF4006002F0C7
:102640003BF9194C204602F063FA47F22F53ADF8DC
:10265000083043F63F03ADF804300023ADF80630F0
:10266000ADF80A3001A9204602F052FB01212046B4
:1026700002F0C8FC01221146204602F027FC01218D
:10268000204602F015FC19238DF8003002238DF846
:10269000013001238DF802308DF80330684601F0D7
:1026A000BFFE04B010BD00BF002C014010B584B0C7
:1026B0004FF4A06001F0AAFE01214FF4006002F087
:1026C000FBF8194C204602F023FA41F28733ADF8AB
:1026D000083043F63F03ADF804300023ADF8063070
:1026E000ADF80A3001A9204602F012FB0121204674
:1026F00002F088FC01221146204602F0E7FB01218E
:10270000204602F0D5FB19238DF8003002238DF806
:10271000013001238DF802308DF80330684601F056
:102720007FFE04B010BD00BF002C014010B584B086
:102730004FF4A06001F06AFE01214FF4006002F046
:10274000BBF8194C204602F0E3F940F2CF73ADF824
:10275000083043F63F03ADF804300023ADF80630EF
:10276000ADF80A3001A9204602F0D2FA0121204634
:1027700002F048FC01221146204602F0A7FB01218D
:10278000204602F095FB19238DF8003002238DF8C6
:10279000013001238DF802308DF80330684601F0D6
:1027A0003FFE04B010BD00BF002C014008B5012160
:1027B0001C4802F01BFC002833D01B4B197805295C
:1027C00027D8DFE801F0030B1515151DFFF730FEC4
:1027D000154B1978154803F099FC1AE0FFF7A6FF8E
:1027E000FFF726FE104B1978104803F08FFC10E01D
:1027F000FFF71EFE0C4B19780C4803F087FC08E02D
:102800000A4803F083FC0021094B1970054802F0C7
:102810004FFB054A1378013313700121014802F080
:10282000F1FB08BD002C0140A0260020988700087D
:102830001423002030B585B005460C464FF4A06047
:1028400001F0E4FD0121042002F044F8ADF8085045
:10285000ADF804400024ADF80640ADF80A40104D34
:1028600001A9284602F054FA0121284602F0CAFBC9
:1028700001221146284602F029FB2146284602F093
:1028800017FB1E238DF8003001238DF801308DF8E1
:1028900002408DF80330684601F0C2FD05B030BD3E
:1028A0000008004038B50121164802F09FFB40B3F4
:1028B000154C2068154D2A681549023002F0A2FF18
:1028C00022682B681B0A137023682A685A702368D1
:1028D00003F5007323600F4A1268934201D10E4A38
:1028E00022600025094B1D60064C2946204602F057
:1028F000DFFA2946204602F009FB0121204602F0BA
:1029000081FB38BD00080040B4360020B8360020F6
:10291000BC360020FC1200206802002070B586B092
:1029200006464FF4A06001F071FD01214FF48020B4
:1029300001F0D0FF0121082001F0BEFF254D2846FF
:1029400002F064FB4FF48063ADF8143003238DF87C
:10295000163018238DF817301F4C05A9204601F0BA
:10296000CBFE4FF40063ADF8143004238DF817301C
:1029700005A9204601F0C0FE01960024ADF80840EC
:10298000ADF80A40ADF80C40ADF810400C23ADF89E
:102990000E3001A9284602F08BFB2021284602F0C8
:1029A00025FC012240F22551284602F0F3FB2723A3
:1029B0008DF800308DF801408DF8024001248DF82B
:1029C0000340684601F02CFD2146284602F0D4FB66
:1029D00006B070BD00480040000C01400FB410B5B7
:1029E00082B004AA52F8041B0192114C204603F055
:1029F00007FD2046FDF7ACFF0E4B1B8803F040039C
:102A00009BB2002BF8D000220BE0094B995C094BDC
:102A10009980084B1B8803F040039BB2002BF8D031
:102A200001328242F1D302B0BDE8104004B07047D9
:102A3000BC3A0020004800400D4B1B8803F04003C7
:102A40009BB2002BF8D001220BE083185978084B79
:102A50009980074B1B8803F040039BB2002BF8D0F2
:102A600001320178437803EB01239A42EDDD704790
:102A70000048004008B540F22551144802F0BAFB66
:102A800018B3134B1B7863B9104B9B889BB2E3B10F
:102A9000104A13680D4988880F49C85401331360E0
:102AA00008BD0C4B1B68094A91880B4AD15423B9C5
:102AB00001210A4802F0FCF903E00021074802F076
:102AC00025FA044A13680133136008BD004800402A
:102AD00014230020B8360020BC3600200008004037
:102AE00030B583B00121042001F0E6FE4025ADF8A9
:102AF000045003238DF8063010238DF80730064C60
:102B000001A9204601F0F8FD01222946204601F0E6
:102B10004BFE03B030BD00BF0008014038B505468C
:102B20000C460021124B19604FF48062114802F0EC
:102B300074FE29461048FFF751FF0CE0642002F0B4
:102B4000BBFB0E490B4803F029FC38B929460C4859
:102B500003F0DCFA2C46651E002CEFD1094803F087
:102B600047FB002D01DC012038BD002038BD00BF2F
:102B7000B8360020BC360020A8870008B0870008BF
:102B8000B48700089088000838B50446144D002228
:102B90004021284601F008FE4FF4FA7002F08CFB49
:102BA00001224021284601F0FFFD0CE0642002F0E4
:102BB00083FB0C490C4803F0F1FB38B929460B485C
:102BC00003F0A4FA2C46651E002CEFD1084803F050
:102BD0000FFB002D01DC012038BD002038BD00BFF7
:102BE00000080140B8870008BC360020B487000800
:102BF0009088000838B504460021134B19604FF443
:102C00008062124802F009FE114A12491248FFF789
:102C1000E5FE0DE04FF47A7002F04EFB0F490B48D1
:102C200003F0BCFB38B929460D4803F06FFA2C4677
:102C3000651E002CEED10B4803F0DAFA002D01DC02
:102C4000012038BD002038BDB8360020BC36002039
:102C5000C0870008CC870008DC870008F4870008DC
:102C6000B48700089088000838B505460021394B24
:102C700019604FF48062384802F0CFFD374B1A6874
:102C800037493848FFF7AAFE18E0642002F014FB29
:102C90003549314803F082FB98B934492E4803F096
:102CA0007DFB00284DD132492B4803F077FB0028EB
:102CB00049D121462F4803F029FA25466C1E002DE4
:102CC000E3D12D4803F094FA002C3EDD2B4803F0AD
:102CD0008FFA00211F4B19604FF480621E4802F0EA
:102CE0009CFD2748FFF77AFE0CE0642002F0E4FA2E
:102CF0002449194803F052FB38B929461D4803F00E
:102D000005FA2C46651E002CEFD11F4A13780133BB
:102D1000DBB21370022B10D11C48FFF75FFE64205A
:102D200002F0CAFA1A490C4803F038FB10B11948EE
:102D300003F05EFA0022144B1A70002D07DC042009
:102D400038BD012038BD022038BD032038BD002029
:102D500038BD00BFB8360020BC360020F812002075
:102D600020260020008800081C880008248800080D
:102D70002C880008B4870008908800084088000864
:102D80006088000870880008BC3E00207C8800082D
:102D9000B08700088C88000810B5384803F028FA7E
:102DA0003220FFF7F1FE20B1354803F021FA01246B
:102DB00061E0344803F01CFA334803F019FA322179
:102DC0003248FFF7ABFE20B1314803F011FA02247C
:102DD00051E0304803F00CFA2F4803F009FA322191
:102DE0002E48FFF79BFE20B12D4803F001FA032483
:102DF00041E02C4803F0FCF92B4803F0F9F90A20D4
:102E0000FFF7F8FE20B1294803F0F2F9042432E07C
:102E1000274803F0EDF9274803F0EAF93221264864
:102E2000FFF77CFE20B1254803F0E2F9082422E0F8
:102E3000234803F0DDF9234803F0DAF93221224870
:102E4000FFF76CFE20B1214803F0D2F9092412E00B
:102E50001F4803F0CDF91F4803F0CAF96420FFF7BB
:102E600003FF044620B11C4803F0C2F90A2402E023
:102E70001A4803F0BDF9204610BD00BF9488000831
:102E8000A4880008B8880008C4880008D88800080A
:102E9000E4880008008900081489000828890008CF
:102EA0003889000854890008688900087889000872
:102EB00094890008A4890008B4890008C48900081E
:102EC000DC890008EC890008008A00080C8A0008E8
:102ED000288A00083C8A00084C8A0008688A000892
:102EE00030B587B001214FF4027001F0E5FC4FF4DA
:102EF000004001F079FC0223ADF8003000248DF889
:102F0000034069461B4801F0F7FB0121042001F052
:102F1000D3FC1023ADF800306946174801F0ECFBF4
:102F2000164D284601F0BEFA01948DF808408DF840
:102F300009404FF460230393049401248DF8144056
:102F400001A9284601F0E0FA2146284601F000FBDD
:102F5000284601F009FB094801F00CFB0028FAD1D2
:102F6000064801F00FFB054801F012FB0028FAD1DA
:102F700007B030BD000C01400008014000240140B2
:102F800010B50A4C072301220146204601F014FB2C
:102F90000121204601F004FB0221044801F056FB08
:102FA0000028F9D0014801F04DFB10BD002401407C
:102FB000F8B507460E460024254608E03846FFF7D8
:102FC000DFFF0544052002F077F90134E4B2B44292
:102FD000F4D3B5FBF6F080B2F8BD00BF00B583B006
:102FE0000121082001F068FC4FF48073ADF8043033
:102FF00010238DF8073003238DF806300122044B8F
:103000001A6001A9034801F077FB03B05DF804FBE7
:10301000A0812142000C014008B52D4A002120204A
:1030200001F020F82B4A0221202001F01BF82A4A47
:103030000421202001F016F8284A0621202001F062
:1030400011F800221146104601F024F80122002157
:10305000102001F01FF802220021402001F01AF890
:1030600003220021502001F015F806220221002041
:1030700001F010F807220221102001F00BF80422C1
:103080000221402001F006F805220221502001F023
:1030900001F808220421002000F0FCFF092204218D
:1030A000102000F0F7FF0A220421402000F0F2FF78
:1030B0000B220421502000F0EDFF0C2206210020FD
:1030C00000F0E8FF0D220621102000F0E3FF08BD0C
:1030D000788A0008888A0008988A0008A08A000870
:1030E00010B51D4C611C204600F01EFC0A21092071
:1030F000FFF75EFFFDF77CF90022184BFDF7EEF9B4
:1031000013A3D3E90023FDF713FB02460B4600206F
:103110001249FDF72FF8FDF7F3FBE0700A210420B8
:10312000FFF746FFFDF764F900220C4BFDF7D6F9D7
:1031300007A3D3E90023FDF7FBFA02460B46002064
:103140000649FDF717F8FDF7DBFBA07010BD00BFC7
:103150000000000000FEAF40603F0020000059402A
:1031600030B583B06A4D2A781024009402230021E0
:10317000282000F039FF6A7800940223002168209B
:1031800000F032FFAA78009402231946282000F0AC
:103190002BFFEA78009402231946682000F024FFF0
:1031A0005C4B1B782BB90F220421282000F072FF02
:1031B00004E00E220421282000F06CFF554B5B78C0
:1031C000032B1AD8DFE803F002080E140F220421A3
:1031D000682000F05FFF10E016220421682000F054
:1031E00059FF0AE017220421682000F053FF04E091
:1031F00018220421682000F04DFF464B9B78032BDA
:103200001AD8DFE803F002080E140F220621282046
:1032100000F040FF10E016220621282000F03AFFBF
:103220000AE017220621282000F034FF04E01822CB
:103230000621282000F02EFF364B1B7953B11B22AC
:1032400006213C2000F026FF1C2206214C2000F025
:1032500021FF09E01D2206213C2000F01BFF1C225B
:1032600006214C2000F016FF2A4BDB784BB91922BF
:103270000621602000F00EFF1A220621702000F0C7
:1032800009FF244BDB78012B1ED1224B1B78012B2D
:103290001AD1214C22460621602000F0E3FE962040
:1032A00002F00AF814220621602000F0F3FE152235
:1032B0000621702000F0EEFE962001F0FDFF224670
:1032C0000621602000F0CEFE124BDB78012B1DD1D1
:1032D000104B9B78D3B1104C22460621602000F0A1
:1032E000C1FE962001F0E8FF12220621602000F0C6
:1032F000D1FE13220621702000F0CCFE962001F0B2
:10330000DBFF22460621602000F0ACFE03B030BD9A
:10331000603F0020583F0020A48A000810B5384BB9
:103320001B781C2B03D80021364A917016E0A3F1BC
:103330001D02D2B2012A03D80121324A91700DE058
:10334000A3F11F02D2B2012A03D802212D4A9170A3
:1033500004E0202B02D903212A4A9170284A91784F
:10336000272903D90020274A107002E00120254AAE
:103370001070234AD278272A03D90020214A50709E
:1033800016E0A2F11E00C0B2092803D801201D4A90
:1033900050700DE0A2F11400C0B2092803D8022039
:1033A000184A507004E0132A02D80320154A5070BE
:1033B0001C2B05D8272903D90022124BDA7002E012
:1033C0000122104BDA700F4C2378B3FA83F35B09B8
:1033D0000D4A136022780D4B1A606378B3FA83F3B9
:1033E0005B090B4A1360607800F0A0FCA378B3FA85
:1033F00083F35B09074A1360A07800F075FC10BDE9
:10340000603F0020583F0020880122429401214261
:103410008C012242900122420C4BDB7873B10C4AA2
:103420001368B3FA83F35B09136002F5FF42643259
:103430001368B3FA83F35B09136070470123044AEE
:10344000136002F5FF42643213607047583F00205A
:10345000A081214210B5044C00232360282001F0F4
:103460002BFF0123236010BDA081214208B5084A2B
:103470001378B3FA83F35B09137083F001030549F2
:103480000B601278044B1A60FFF7E4FF08BD00BF21
:10349000583F0020880122429401214208B50D4A7C
:1034A00053780133DBB25370042B14BF0023012384
:1034B00009490B605078042800D1002000F036FC48
:1034C000044B5B78042B02D10022024B5A70FFF7A9
:1034D000C1FF08BD583F00208C01224208B50D4AAB
:1034E00093780133DBB29370042B14BF00230123C4
:1034F00009490B609078042800D1002000F0F4FB0B
:10350000044B9B78042B02D10022024B9A70FFF7E8
:10351000A1FF08BD583F002090012242034AD37802
:10352000B3FA83F35B09D370704700BF583F0020A4
:1035300010B5114B1A79B2FA82F252091A710F4979
:103540000A68B2FA82F252090A60012214390A604A
:1035500004310A6004310A600024094A14601C70B6
:103560005C709C70DC70204600F0E0FB204600F0B0
:10357000BBFBFFF76FFF10BD583F00209C012242AC
:103580009401214208B500F011FF48B11C4B1B7893
:1035900033B900F00BFF1B4B18700122184B1A7047
:1035A00000F004FF30B9164B1B78012B02D100222A
:1035B000134B1A70134B1B78E22B01D1FFF7B8FFA6
:1035C000114B1B79BBB90F4B1B78682B08D002D865
:1035D000422B0ED00FE0982B05D0B02B06D00AE07E
:1035E000FFF744FF07E0FFF759FF04E0FFF776FF1E
:1035F00001E0FFF793FF0022024B1A7008BD00BFE5
:10360000620000205D3F0020583F0020F0B589B0E7
:1036100015490A784B788878CC7814490E784F7819
:1036200091F802E091F803C00979114D0691CDF8A7
:1036300014C0CDF810E003970296019400900D4954
:10364000284602F087FE0C4C2A460C49204602F020
:1036500081FE2046FDF77CF9024621460848FEF728
:10366000F3FE09B0F0BD00BF603F0020583F0020CE
:10367000C03E0020AC8A0008643F0020000000200B
:103680001C8B000810B5564B1B79002B40F088802E
:10369000544B1C6802345449204602F07FFE28B186
:1036A00001224F4B1A70FFF7E1FE09E04F49204617
:1036B00002F074FE20B10022494B1A70FFF7D6FECB
:1036C000484B1C6802344A49204602F067FE28B184
:1036D0000322434B5A70FFF7E1FE1FE045492046A5
:1036E00002F05CFE28B100223D4B5A70FFF7D6FE77
:1036F00014E04149204602F051FE28B10122384B26
:103700005A70FFF7CBFE09E03C49204602F046FE26
:1037100020B10222324B5A70FFF7C0FE314B1C68B9
:1037200002343749204602F039FE28B103222C4BDF
:103730009A70FFF7D3FE1FE03249204602F02EFEBA
:1037400028B10022264B9A70FFF7C8FE14E02E49DC
:10375000204602F023FE28B10122214B9A70FFF788
:10376000BDFE09E02949204602F018FE20B10222E0
:103770001B4B9A70FFF7B2FE1A4B1C6802342449A7
:10378000204602F00BFE18B10022154BDA7007E05C
:103790002049204602F002FE10B10122104BDA70DF
:1037A000104B1C6802341C49204602F0F7FD40B162
:1037B00001220B4B1A710022184B1A60FFF7B8FE5A
:1037C00010BD1749204602F0E9FD38B10022044B34
:1037D0001A710122114B1A60FFF7AAFE10BD00BF3B
:1037E000583F0020A4260020508B00085C8B000866
:1037F000688B0008788B0008888B0008988B00087D
:10380000A88B0008B88B0008C88B0008D88B00086C
:10381000E88B0008F48B0008008C00089C01224211
:10382000108C000810B50A4B5A6822F0F0025A605A
:103830005A6842F030025A60064C0023236014207C
:1038400001F03AFD012323601E2001F017FD10BD99
:10385000000C0140A481214210B5154B5A6822F09A
:10386000F0025A605A6842F080025A60002404E074
:103870000134E4B2012001F001FD0E4B1B680BB1D5
:10388000632CF5D9632C0FD8002404E00134E4B292
:10389000012001F0F3FC074B1B680BB9632CF5D931
:1038A000632C03D9012010BD012010BD002010BDE4
:1038B000000C01402481214210B5002404E00134B1
:1038C000E4B2012001F0DAFC0E4B1B684BB1632C13
:1038D000F5D9002406E00134E4B2012001F0CEFC69
:1038E00000E00024074B1B680BB9632CF3D9282098
:1038F00001F0C4FC034B1B680BB1012010BD00207C
:1039000010BD00BF2481214238B50020054607E0E4
:103910004000C4B2FFF7D0FF2043C0B20135EDB282
:10392000072DF5D938BD00BFF0B583B006460F4668
:10393000FFF778FFFFF790FF50B101251DE0FFF77B
:10394000E3FF02AB234403F8080C0134E4B201E0C6
:1039500005460024042CF2D99DF800109DF8013092
:103960000B449DF8022013449DF8030003449DF886
:103970000400834201D139703270284603B0F0BD93
:1039800030B583B00121082000F096FF4FF4007598
:10399000ADF8045010238DF8073003238DF806305E
:1039A000074C01A9204600F0A7FE2946204600F05A
:1039B000F9FEFFF737FFFFF74FFF03B030BD00BF41
:1039C000000C014008B50CE00A4A0221182000F062
:1039D00049FBC82001F070FC00F0A6FA064802F08E
:1039E00007FCFFF7CDFF0028EED1044802F000FCF1
:1039F00008BD00BF208C0008308C0008408C0008F7
:103A000070B584B000F0C0F80121084600F054FF02
:103A10000821022000F0CEFE4FF4807302930025AF
:103A20008DF80C500C238DF80D3001248DF80E40CC
:103A300002A800F013FE0921022000F0BBFE4FF4A3
:103A40000073029302A800F009FE0221032000F097
:103A5000B1FE0423029302A800F000FE2946284686
:103A600000F0A8FE029408268DF80D600DEB06000C
:103A700000F0F4FD06238DF8043002258DF8055082
:103A800003238DF806308DF8074001A800F0C8FC2C
:103A90008DF804608DF805508DF806508DF80740BC
:103AA00001A800F0BDFC17238DF804308DF80550F7
:103AB0008DF806408DF8074001A800F0B1FC04B075
:103AC00070BD00BF08B50A2001F0F6FB074B1B686C
:103AD000012B07D1064B1B7923B9064802F016FBD0
:103AE000FFF71CFD012000F001FE08BD000121428E
:103AF000583F00204C8C000808B50A2001F0DCFB80
:103B00000F4B1B683BB90F4B1B7923B90E4802F0D2
:103B1000FDFAFFF7ABFC0D4B1B683BB9094B1B795A
:103B200023B90B4802F0F2FAFFF7B8FC4FF48070AB
:103B300000F0DCFD4FF4007000F0D8FD08BD00BFC0
:103B400020012242583F0020548C000824012242C8
:103B50005C8C000808B50A2001F0AEFB074B1B681F
:103B60003BB9074B1B7923B9064802F0CFFAFFF7A0
:103B7000B5FC042000F0BAFD08BD00BF0881224258
:103B8000583F0020648C000810B582B0012130201D
:103B900000F092FE4FF44073ADF8043048248DF8E5
:103BA000074001A90C4800F0A7FD0423ADF804303C
:103BB0008DF807400DEB0301084800F09DFD01233F
:103BC000ADF8043028238DF8073001A9044800F02F
:103BD00093FD02B010BD00BF001001400014014071
:103BE0000008014000B583B00121102000F064FE00
:103BF000FF23ADF8043010238DF8073003238DF830
:103C0000063001230B4A1360043213600432136040
:103C10000432136004321360043213600432136000
:103C20000432136001A9044800F066FD03B05DF89A
:103C300004FB00BF800122420010014030B589B072
:103C400005460C460121084600F044FE01210520EE
:103C500000F032FE0623ADF81C3018238DF81F301B
:103C600003238DF81E3007A91E4800F045FDADF86E
:103C70001450ADF810400024ADF81640ADF81240D5
:103C800004A94FF0804001F043F86023ADF8003004
:103C90000125ADF80250ADF8084069464FF080406C
:103CA00001F080F869464FF0804001F0BFF808212C
:103CB0004FF0804001F016F908214FF0804001F0EC
:103CC0001BF929464FF0804001F0F2F821464FF0F1
:103CD000804001F01DF921464FF0804001F01AF9B3
:103CE00009B030BD0008014008B503281DD8DFE841
:103CF00000F002080F1600214FF0804001F008F993
:103D000008BD4FF4FA714FF0804001F001F908BD91
:103D10004FF42F714FF0804001F0FAF808BD4FF4D6
:103D200061714FF0804001F0F3F808BD08B5032839
:103D30001DD8DFE800F002080F1600214FF0804088
:103D400001F0E8F808BD4FF496714FF0804001F0A3
:103D5000E1F808BD4FF416714FF0804001F0DAF839
:103D600008BD4FF461714FF0804001F0D3F808BDF9
:103D700000B583B00121042000F09EFD2023ADF8A2
:103D8000043010238DF8073003238DF8063001A985
:103D9000024800F0B1FC03B05DF804FB00080140EC
:103DA000044B01221A6004490A6000220A601A606A
:103DB000704700BFA0012142B4012242034B002200
:103DC0001A60012202490A601A607047B401224257
:103DD000A001214208B5094B00221A6001220849BE
:103DE0000A601A604FF40051064800F0D3FC012825
:103DF00000D000200022014B1A6008BDA001214222
:103E0000B40122420010014008B5002315E0002152
:103E10000F4A116010F0800F05D0012102F58032A9
:103E20001432116002E000210A4A11604000C0B261
:103E30000121074A11600B44DBB2072BE7D90022AE
:103E4000034B1A60FFF7C6FF0028FBD108BD00BF77
:103E5000A0012142B401224210B50446FFF7A0FFA1
:103E60007820FFF7D1FF4020FFF7CEFF2046FFF775
:103E7000CBFFFFF7A3FF10BD10B50446FFF790FF7F
:103E80007820FFF7C1FF0020FFF7BEFF2046FFF7B5
:103E9000BBFFFFF793FF10BD00B583B001211020D9
:103EA00000F00AFD4FF48073ADF8043014238DF850
:103EB000073003238DF8063001A90A4800F01CFCE6
:103EC0004FF40053ADF8043001A9074800F014FC8A
:103ED0000123064A136002F580321432136003B0E6
:103EE0005DF804FB0008014000100140A0012142E0
:103EF00008B511B1FFF7B0FF08BDFFF7BDFF08BD62
:103F000010B50446A1F150000021C0B2FFF7F0FF48
:103F1000002104F00F00FFF7EBFF2009002140F023
:103F20001000FFF7E5FF10BD38B500251AE0A5F138
:103F300050000021C0B2FFF7DBFF00210846FFF769
:103F4000D7FF00211020FFF7D3FF002405E0012157
:103F50000020FFF7CDFF0134E4B214F0800FF6D05B
:103F60000135EDB2072DE2D938BD00BFF8B50746DF
:103F70000E46203AD5B210F0800F02D00236F6B2CB
:103F8000002731463846FFF7BBFF002408E004EB6A
:103F9000051301210D4AD05CFFF7AAFF0134E4B2FA
:103FA000072CF4D9711CC9B23846FFF7A9FF0024C9
:103FB00009E004EB051308330121044AD05CFFF744
:103FC00097FF0134E4B2072CF3D9F8BD6C8C0008DC
:103FD000012202E000FB02F219464B1EDBB200296F
:103FE000F8D11046704700BF2DE9F0478246894658
:103FF00017461D469DF82080002634462CE0291BDC
:104000000139C9B20A20FFF7E3FFB7FBF0F0144A09
:10401000A2FB0032D20802EB82025300C21AD2B2D3
:1040200076B96B1E9C420BDA4AB94FEA580000FB86
:1040300004A020224946C0B2FFF798FF0AE00126FB
:1040400030324FEA580000FB04A0D2B24946C0B259
:10405000FFF78CFF0134E4B2AC42D0D3BDE8F08767
:10406000CDCCCCCCF8B504460E46174600250DE065
:1040700031462046FFF77AFF0834E4B214F0800F8F
:1040800002D00236F6B200240135EDB27A5D002A84
:10409000EED1F8BDF8B507460E461546FFF730FFDE
:1040A000002408E00F4B03EB85130121185DFFF797
:1040B0001FFF0134E4B20F2CF4D9711CC9B2384689
:1040C000FFF71EFF00240AE06B005A1C054B03EBB0
:1040D00042130121185DFFF70BFF0134E4B20F2CEE
:1040E000F2D9F8BD5C92000808B5FFF7D5FE0021B3
:1040F000AE20FFF7FDFE00210846FFF7F9FE002184
:104100001020FFF7F5FE00214020FFF7F1FE00210F
:10411000B020FFF7EDFE00218120FFF7E9FE00212E
:10412000FF20FFF7E5FE0021A120FFF7E1FE0021BF
:10413000A620FFF7DDFE0021A820FFF7D9FE002111
:104140003F20FFF7D5FE0021C820FFF7D1FE002158
:10415000D320FFF7CDFE00210846FFF7C9FE00215E
:10416000D520FFF7C5FE00218020FFF7C1FE00210A
:10417000D920FFF7BDFE0021F120FFF7B9FE002195
:10418000DA20FFF7B5FE00211220FFF7B1FE002173
:10419000DB20FFF7ADFE00214020FFF7A9FE002144
:1041A0008D20FFF7A5FE00211420FFF7A1FE0021BE
:1041B000AF20FFF79DFEFFF7B7FE00210846FFF78F
:1041C0009FFE08BDF0B589B00121082000F074FB06
:1041D0000121022000F07EFB0124ADF81C402823C1
:1041E0008DF81F3003278DF81E70204D07A9284633
:1041F00000F082FA2146284600F0D4FA42F2107309
:10420000ADF810304723ADF80C300025ADF8125052
:10421000ADF80E50164E03A9304600F079FD082384
:10422000ADF80030ADF80250ADF80440ADF80650DE
:10423000ADF808706946304600F0A2FE21463046CF
:1042400000F036FE1D238DF818308DF819508DF8CA
:104250001A708DF81B4006A800F0E2F822460921EA
:10426000304600F033FE09B0F0BD00BF000C014045
:104270000004004010B50121464800F0B7FEE0B14F
:10428000454B1B7813F0800F17D003F0EF03424A21
:10429000137013F00F0F02D143F0400313703E4B25
:1042A0001B7803F00F020D2A03DC01333A4A137026
:1042B00003E003F07003384A13700821354800F01A
:1042C00095FE002861D0354B1B6873B1314C02213B
:1042D000204600F011FE0021204600F017FE2E4A75
:1042E000137843F0100313704FE02A4C204600F07F
:1042F00079FE2B4B18800021204600F0FDFD264B57
:104300001B7813F0100F3BD013F0800F28D0244AF5
:104310001188A1F22D1292B2B2F5F97F04D8214A88
:1043200013685B0013602BE0A1F2795292B2B2F5F0
:10433000C77F06D81B4A13685B0043F00103136074
:104340001EE0A1F6990292B2B2F5C77F18D81649BD
:104350000A7801320A7023F00F030F4A13700FE03E
:104360000F4A1288A2F58352093A92B2B2F5F97F48
:1043700006D863F07F03084A137000220A4B1A70B4
:10438000054A137823F0100313700921014800F047
:1043900039FE10BD000400406E450020008121421E
:1043A0006C4500206845002064450020144B1B78B4
:1043B00013F0400F21D0134A1168080EC1F30742D1
:1043C000D243D2B2904209D150B9C1F30720C9B249
:1043D000C943C9B2884204D0002002E0002000E0B6
:1043E000002010B113F0800F08D123F04003044ADD
:1043F00013700022044B1A7070470020704700BFF2
:104400006E450020684500206445002040F0BF60F4
:1044100040F40030014BD860704700BF00ED00E071
:10442000C378FBB1154BDB68DB43C3F30223C3F155
:1044300004010F22DA40437803FA01F18378134034
:104440000B431B010278DBB20D490A4482F80033AA
:104450000378580903F01F03012202FA03F341F81D
:104460002030704703785A0903F01F03012101FA35
:1044700003F32032024941F82230704700ED00E09A
:1044800000E100E0042805D1054A136843F0040365
:1044900013607047024A136823F0040313607047E7
:1044A00010E000E008B5154B98420AD101214FF405
:1044B000007000F01DFA00214FF4007000F018FAAF
:1044C00008BD0F4B98420AD101214FF4806000F0E3
:1044D0000FFA00214FF4806000F00AFA08BD094B82
:1044E000984209D101214FF4004000F001FA002167
:1044F0004FF4004000F0FCF908BD00BF002401406B
:1045000000280140003C014010B4436823F47022AD
:1045100022F480720B680C7943EA0423134343604E
:1045200083680A4C1C40CA688B681A434B7942EA7C
:10453000430323438360C36A23F470020B7C013B73
:10454000DBB242EA0353C36210BC7047FDF7F1FFD0
:1045500021B1836843F0010383607047836823F0CF
:1045600001038360704700BF836843F008038360E2
:10457000704700BF836813F0080F01D00120704717
:1045800000207047836843F004038360704700BFD6
:10459000836813F0040F01D001207047002070479A
:1045A00021B1836843F4A00383607047836823F4D8
:1045B000A0038360704700BF70B409290DD9C66895
:1045C000A1F10A0404EB44040725A54026EA0505E9
:1045D00003FA04F42C43C4600AE0066901EB4104C9
:1045E0000725A54026EA050503FA04F42C430461D7
:1045F000062A0BD8446B013A02EB82021F23934038
:1046000024EA030391401943416318E00C2A0BD8B4
:10461000046B073A02EB82021F23934024EA030350
:104620009140194301630AE0C46A0D3A02EB820229
:104630001F23934024EA030391401943C16270BCD5
:10464000704700BFC06C80B2704700BF036819425A
:1046500001D0012070470020704700BF8379002BF4
:1046600034D010B4204B1A68016822EA01021A60A3
:104670005A68016822EA01025A60027902F1804216
:1046800002F5823214680168214311609A6801685A
:1046900022EA01029A60DA68016822EA0102DA601D
:1046A0004379102B09D1104B996802680A439A602C
:1046B000D96802680A43DA6013E003F1804303F526
:1046C0008233196802680A431A600AE0037903F129
:1046D000804303F582331A68016822EA01021A60F6
:1046E000704710BC704700BF00040140014B586187
:1046F000704700BF00040140F0B4CB7803F00F0214
:10470000154613F0100F01D08D7815430B78E3B1E7
:104710000668002316E001229A400C8832EA04045D
:104720000FD19C000F27A74026EA070605FA04F4DC
:104730002643CC78282C01D1426102E0482C00D1DC
:1047400002610133072BE6D906600B88FF2B1ED9C7
:104750004668002318E003F108040122A2400C88F7
:1047600032EA04040FD19C000F27A74026EA07066F
:1047700005FA04F42643CC78282C00D14261CC7889
:10478000482C00D102610133072BE4D94660F0BC0C
:10479000704700BF8368194201D001207047002094
:1047A000704700BF016170470AB101617047416104
:1047B000704700BF30B401F003039B000F2404FADC
:1047C00003F58908074A023152F8214024EA05041A
:1047D00042F8214052F821409840204342F82100FD
:1047E00030BC704700000140034A536823F4404343
:1047F00018435060704700BF0010024010B4294BAE
:104800005B6803F00C03042B05D0082B06D013BB08
:10481000254B036021E0244B03601EE0214A5368CE
:104820005268C3F38343023312F4803F04D11F4A1A
:1048300002FB03F3036010E01A4A526812F4003FCF
:1048400004D01A4A02FB03F3036006E0164A02FB97
:1048500003F3036001E0144B036012494B68C3F398
:104860000313134CE35CDAB20368D34043604A6835
:10487000C2F30222A25CD2B223FA02F282604A6838
:10488000C2F3C222A25CD2B2D340C3604A68C2F370
:10489000813208498A5CD2B2B3FBF2F3036110BCE7
:1048A000704700BF0010024000127A0000093D006E
:1048B000680000206400002021B1054B9A69104374
:1048C00098617047024A936923EA0000906170473B
:1048D0000010024021B1054BDA691043D8617047DE
:1048E000024AD36923EA0000D061704700100240F9
:1048F00021B1054BDA681043D8607047024AD3688B
:1049000023EA0000D06070470010024021B1054B3F
:104910001A69104318617047024A136923EA0000BC
:10492000106170470010024030B4048CA4B224F02F
:104930000104A4B20484048BA4B2058CADB224F0AB
:10494000F3041B019BB21A4344EA0203124A904249
:1049500012D002F5006290420ED0B0F1804F0BD021
:10496000A2F59832904207D002F58062904203D0BF
:1049700002F58062904205D125F00205294341F0FD
:10498000010104E025F00A02114341F00101038313
:10499000018430BC704700BF002C014070B4048C0F
:1049A000A4B224F01004A4B20484058B048CA4B235
:1049B0000E01B6B225F440752D052D0D1B039BB2DB
:1049C0002B43120292B21A43124B984212D003F5B3
:1049D000006398420ED0B0F1804F0BD0A3F598330E
:1049E000984207D003F58063984203D003F58063B3
:1049F000984205D124F02001314341F0100104E038
:104A000024F0A004214341F010010283018470BC12
:104A1000704700BF002C014070B4048CA4B224F491
:104A20008074A4B20484848BA4B2058CAEB20D024F
:104A3000ADB224F0F3041B019BB21A4344EA020313
:104A4000124A904212D002F5006290420ED0B0F1AC
:104A5000804F0BD0A2F59832904207D002F58062C9
:104A6000904203D002F58062904205D126F4007195
:104A7000294341F4807104E026F42062114341F49B
:104A800080718383018470BC704700BF002C01409B
:104A900070B4058CADB225F48055ADB20584868B1B
:104AA000048CA4B20D03ADB226F440763605360D63
:104AB000120292B232431B039BB21343134A904239
:104AC00012D002F5006290420ED0B0F1804F0BD0B0
:104AD000A2F59832904207D002F58062904203D04E
:104AE00002F58062904205D124F400542C4344F432
:104AF000805406E024F400746404640C0C4344F411
:104B000080548383048470BC704700BF002C014034
:104B100008B56F4B98420AD101214FF40060FFF7AE
:104B2000E7FE00214FF40060FFF7E2FE08BDB0F1A0
:104B3000804F08D101210846FFF7E8FE002101203F
:104B4000FFF7E4FE08BD634B984208D10121022023
:104B5000FFF7DCFE00210220FFF7D8FE08BD5E4B08
:104B6000984208D101210420FFF7D0FE0021042043
:104B7000FFF7CCFE08BD594B984208D1012108200F
:104B8000FFF7C4FE00210820FFF7C0FE08BD544B0C
:104B9000984208D101211020FFF7B8FE0021102013
:104BA000FFF7B4FE08BD4F4B984208D101212020E9
:104BB000FFF7ACFE00212020FFF7A8FE08BD4A4BFE
:104BC00098420AD101214FF40050FFF791FE0021D5
:104BD0004FF40050FFF78CFE08BD444B98420AD1B9
:104BE00001214FF40020FFF783FE00214FF4002045
:104BF000FFF77EFE08BD3E4B98420AD101214FF4DB
:104C00008010FFF775FE00214FF48010FFF770FE53
:104C100008BD384B98420AD101214FF40010FFF72C
:104C200067FE00214FF40010FFF762FE08BD324B13
:104C3000984208D101214020FFF768FE0021402062
:104C4000FFF764FE08BD2D4B984208D1012180205A
:104C5000FFF75CFE00218020FFF758FE08BD284BBF
:104C600098420AD101214FF48070FFF74FFE0021D6
:104C70004FF48070FFF74AFE08BD224B98420AD1DC
:104C800001214FF48030FFF733FE00214FF48030D4
:104C9000FFF72EFE08BD1C4B98420AD101214FF4AC
:104CA0000030FFF725FE00214FF40030FFF720FE13
:104CB00008BD164B984209D101214FF48020FFF71F
:104CC00017FE00214FF48020FFF712FE08BD00BF41
:104CD000002C01400004004000080040000C00408F
:104CE000001000400014004000340140004C01401E
:104CF000005001400054014000180040001C0040DA
:104D000000200040004001400044014000480140B4
:104D100003889BB2214A904212D002F50062904271
:104D20000ED0B0F1804F0BD0A2F59832904207D050
:104D300002F58062904203D002F58062904203D176
:104D400023F070034A881343154A904208D002F5B5
:104D50008062904204D023F440739BB2CA8813430C
:104D600003808B8883850B8803850C4B98420FD07A
:104D700003F5006398420BD003F54063984207D0D7
:104D800003F58063984203D003F58063984201D114
:104D90000B7A038601238382704700BF002C0140F9
:104DA0000010004030B4038C9BB223F010039BB280
:104DB0000384028C92B28588ADB2048BA4B224F431
:104DC000E6440B881B029BB21C4322F020020B8995
:104DD0001B019BB21A434B881B019BB21343124A1F
:104DE000904203D002F50062904215D123F0800377
:104DF0004A89120192B2134323F040028B881B01AF
:104E00009BB2134325F440658A89920092B22A43EB
:104E1000CD89AD00ADB2154385800483CA88028771
:104E2000038430BC704700BF002C014030B4038CB9
:104E30009BB223F480739BB20384028C92B2848869
:104E4000A4B2838B9BB223F073030D881D4322F41D
:104E500000720B891B029BB21A434B881B029BB248
:104E60001343124A904203D002F50062904215D1DA
:104E700023F400634A89120292B2134323F480623E
:104E80008B881B029BB2134324F440548A8912017D
:104E900092B22243CC892401A4B214438480858336
:104EA000CA888287038430BC704700BF002C014051
:104EB00029B103889BB243F0010303807047038844
:104EC0009BB223F001039BB20380704722B1838918
:104ED0009BB21943818170478389C94389B21940C4
:104EE00081817047038C9BB223F02003090189B2B2
:104EF00019430184704700BF038C9BB223F40073F5
:104F0000090289B219430184704700BF8184704748
:104F10000187704781877047038B9BB223F00C0396
:104F20009BB20383038B9BB219430183704700BF7D
:104F3000038B9BB223F440639BB20383038B9BB22E
:104F4000090289B219430183704700BF838B9BB26A
:104F500023F00C039BB28383838B9BB21943818321
:104F6000704700BF838B9BB223F440639BB2838363
:104F7000838B9BB2090289B219438183704700BFBA
:104F800038B505460C460B884BB90B898A88498889
:104F9000FFF7CAFCE1882846FFF7BEFF38BD042BA7
:104FA00009D10B898A884988FFF7F8FCE1882846EF
:104FB000FFF7BEFF38BD082B09D10B898A884988C5
:104FC000FFF72AFDE1882846FFF7C0FF38BD0B89AF
:104FD0008A884988FFF75CFDE1882846FFF7C2FF11
:104FE00038BD00BF808F80B2704700BF028A8389BE
:104FF0000B40114202D01BB90020704700207047BF
:1050000001207047C94389B20182704708B5234B1C
:1050100098420AD101214FF48040FFF769FC00213A
:105020004FF48040FFF764FC08BD1D4B98420AD145
:1050300001214FF40030FFF769FC00214FF40030EC
:10504000FFF764FC08BD174B98420AD101214FF4C9
:105050008020FFF75BFC00214FF48020FFF756FC17
:1050600008BD114B98420AD101214FF40020FFF7EF
:105070004DFC00214FF40020FFF748FC08BD0B4B0E
:10508000984209D101214FF48010FFF73FFC002125
:105090004FF48010FFF73AFC08BD00BF0038014014
:1050A0000044004000480040004C004000500040D8
:1050B00030B587B004460D46038A9BB2CA8823F4F4
:1050C00040531343038283899BB28A880989688984
:1050D0000A43024323F4B05323F00C031343A38188
:1050E000A38A9BB2AA8923F440731343A38201A825
:1050F000FFF784FB1E4B9C4201D1049A00E0039A07
:10510000A38913F4004F08D002EB820202EB820263
:1051100029684900B2FBF1F107E002EB820202EBE1
:10512000820229688900B2FBF1F1124BA3FB012333
:105130005B091B011A09642000FB1212A18911F4FA
:10514000004F08D0D20032320A49A1FB0212C2F34A
:1051500042121A4307E0120132320649A1FB021241
:10516000C2F343121A4392B2228107B030BD00BF8E
:10517000003801401F85EB5129B183899BB243F46C
:1051800000538381704783899BB223F400539BB201
:105190008381704710B4C1F3421401F01F01012351
:1051A00003FA01F19C4201D10C3004E0022C01D140
:1051B000103000E014301AB103681943016003E0B5
:1051C000036823EA0101016010BC7047C1F30801C4
:1051D000818070478088C0F30800704703881942B7
:1051E00001D0012070470020704700BFC94389B239
:1051F0000180704710B4C1F3421201F01F04012373
:10520000A340012A03D1828992B2134008E0022A06
:1052100003D1028A92B2134002E0828A92B2134012
:10522000090A012202FA01F1028892B2114013B177
:1052300019B9002002E0002000E0012010BC7047F6
:1052400008B56FF00400FFF71DF9084B1B68084A0A
:10525000A2FB0323C3F34753064A1370C3EB431265
:1052600003EB8203DA00044B1A8008BD78000020AB
:1052700083DE1B436F450020704500200C4B1B78DC
:1052800000FB03F00B4B586000229A601A6842F052
:1052900001021A60074B1B6803F00113012BF9D0C0
:1052A000044B1A6822F001021A6000229A607047CB
:1052B0006F45002010E000E00C4B1B8800FB03F062
:1052C0000B4B586000229A601A6842F001021A6083
:1052D000074B1B6803F00113012BF9D0044B1A682C
:1052E00022F001021A6000229A6070477045002087
:1052F00010E000E008B5054B1860054B1868002366
:1053000002221946806800F07BFF08BD404600205D
:10531000DC00002070B586B00646012144F204008E
:10532000FFF7CAFA4FF40073ADF8143003248DF878
:10533000164018238DF817301D4D05A92846FFF794
:10534000DBF94FF48063ADF8143004238DF8173087
:1053500005A92846FFF7D0F925238DF800308DF8F0
:1053600001408DF8024001258DF803506846FFF793
:1053700057F801960023ADF80830ADF80A30ADF8C3
:105380000C30ADF810300C23ADF80E30094C01A9EB
:105390002046FFF78DFE2A4640F225512046FFF7B2
:1053A000F9FE29462046FFF7E7FE06B070BD00BFB4
:1053B000000801400038014008B540F225511A4864
:1053C000FFF718FF00282DD01748FFF703FFC0B2E2
:1053D000164B1B8813F4004F24D103F4804292B281
:1053E00062B10A2803D00022104B1A8008BD6FEA70
:1053F00043436FEA53430D4A138008BD0D2804D17F
:1054000043F48043094A138008BDC3F30D020849E1
:10541000885401339BB2054A1380C72B02D900225E
:10542000024B1A8008BD00BF003801403C460020F6
:1054300074450020022801D80120704700207047E1
:105440000138012810D94FF0FF307047315D0E4B05
:105450001868FFF7BBFE80210B4B1868FFF7BEFEF4
:105460000028F8D0013403E070B515460E4600243C
:10547000AC42EBD34021044B1868FFF7AFFE002885
:10548000F8D0284670BD00BF40460020022801D851
:10549000002070474FF0FF30704700BF4FF0FF30E3
:1054A000704700BF10B50C4658B920210648FFF7D9
:1054B00095FE0028F9D00448FFF78CFE20700120EB
:1054C00010BD4FF0FF3010BD0044004000F04CF91B
:1054D0000B480C490C4A002302E0D458C450043352
:1054E000C4188C42F9D3094A094C002301E0136027
:1054F0000432A242FBD300F05FF900F00DF87047D0
:10550000000000204C020020A89C00084C02002053
:1055100058460020FEE7000008B54FF4E130FFF7E1
:10552000F9FE4E48FFF7E6FEFFF78AFEFEF75AFB4C
:10553000FDF754FDFDF7D4FCFEF762FAFEF718FC08
:10554000FEF740FE002140F28330FEF777FBFEF7C6
:10555000CBFDFEF7E9FC4FF47A70FFF7ADFEFEF7E6
:1055600031FAFCF745FDFDF757FDFDF773FF3C4BA6
:105570001B783C4AA2FB03121209322101FB1233B1
:1055800013F0FF0F05D1384A1368B3FA83F35B09B0
:105590001360334B1B7813F0010F01D1FCF7DEFBD6
:1055A0002F4B1B782F4AA2FB03125209642101FBE7
:1055B000123313F0FF0F01D1FDF792FD284B1B783A
:1055C000284AA2FB03121209322101FB123313F005
:1055D000FF0F05D1254B1B79012B01D1FDF79EFE55
:1055E0001F4B1A78224BA3FB0213DB0803EB830348
:1055F0005900521A12F0FF0F01D1FDF70DFFFEF70F
:10560000D5FE08B1FDF7BEFF154B1A78184BA3FB6A
:105610000213DB0803EB83035900521A12F0FF0F49
:1056200001D1FDF79DFD0E4B1B780E4AA2FB031224
:105630005209642101FB123313F0FF0F05D10D4B0A
:105640001B78012B01D1FDF7E1FF054A13780133E7
:1056500013700A20FFF730FE89E700BF00380140D1
:10566000444600201F85EB5180012242583F002014
:10567000CDCCCCCC70120020704700BFFEE700BF3D
:10568000FEE700BFFEE700BFFEE700BF704700BFB8
:10569000704700BF704700BF704700BF82B0002353
:1056A000019300932C4A136843F4803313602A4B10
:1056B0001B6803F400330093019B01330193009BAB
:1056C0001BB9019BB3F5A06FF1D1234B1B6813F4F9
:1056D000003F02D00123009301E000230093009BD0
:1056E000012B36D11D4B1A6842F010021A601A685D
:1056F00022F007021A601A6842F002021A60A3F54B
:1057000080535A685A605A685A605A6842F48062F4
:105710005A605A6822F47C125A605A6842F4E812BD
:105720005A601A6842F080721A600B4B1B6813F0C3
:10573000007FFAD0084B5A6822F003025A605A6878
:1057400042F002025A60044B5B6803F00C03082B22
:10575000F9D102B0704700BF0010024000200240A3
:1057600008B5FFF79BFF08BD08B5104B1A6842F05B
:1057700001021A6059680E4A0A405A601A6822F0FB
:10578000847222F480321A601A6822F480221A602D
:105790005A6822F4FE025A604FF41F029A60FFF723
:1057A000DFFF4FF00062034B9A6008BD001002401B
:1057B0000000FFF800ED00E00E4B70B51E460E4CE9
:1057C0000025E41AA410A54204D056F825309847C5
:1057D0000135F8E702F062FE084B094C1E46E41A58
:1057E000A4100025A54204D056F82530984701356D
:1057F000F8E770BDA09C0008A09C0008A09C0008D1
:10580000A49C000810B5431E0A44914204D011F82C
:10581000014B03F8014FF8E710BD034602449342E1
:1058200002D003F8011BFAE770472DE9F04788B072
:10583000149F002B1E461299B8BF03F1004327F0B6
:105840002007B6BF1E4600232D23462F1446109D69
:10585000DDF84CA00B7003D0452F03D1013501E0DA
:10586000032300E0022307AA049206AA03928DE80C
:1058700028042246334600F01BFF472F804602D102
:10588000119BDB0728D5462F08EB050911D198F8A5
:105890000030302B0AD10022002320463146FBF78E
:1058A000B5F818B9C5F10105CAF80050DAF80030AA
:1058B00099440022002320463146FBF7A7F808B997
:1058C000302202E0CDF81C9006E0079B994503D9F1
:1058D000591C07911A70F8E74046079B159AC8EBC8
:1058E0000303136008B0BDE8F087034673B50029D1
:1058F000B8BF494203F8022BB4BF2D222B2209293D
:1059000042701ADD0DF1070216460A2591FBF5F4E7
:1059100005FB1411092C01F1300102F8011D21468B
:10592000F4DC3031541E02F8011CB4421A460AD28B
:1059300014F8012B03F8012BF7E71A463024214411
:1059400002F8024B5970101A02B070BD2DE9F04FE9
:1059500091B00C46DDF8688016461F46054601F0FA
:10596000B9FD036818460993FAF7F2FF00230E9376
:10597000D8F800300A90073323F0070303F1080238
:1059800094F81890D4F800B0C8F80020D3E90023A8
:10599000C4E91223D4F84CA0D4F848802AF000437C
:1059A0000B934FF0FF32A74B40460B99FBF760F883
:1059B000A0B94FF0FF32A34B40460B99FBF73AF8E2
:1059C00060B90022002340465146FBF729F810B188
:1059D0002D2384F843309C4B9C4A0AE042465346B0
:1059E00040465146FBF744F8002800F09281984B5E
:1059F000984AB9F1470F8CBF90469846032323611C
:105A00002BF0040323604FF0000A3DE0B9F1670F6B
:105A100000F08A81B9F1470F00F08681236001937D
:105A2000636800210DF13302059002920093424613
:105A300053460691CDF81090CDF80CE02846FFF7BC
:105A4000F4FE09F0DF03472B804600F08481B9F1B2
:105A5000650F0D9900F28D8101394A4604F150001D
:105A60000D91FFF742FF0E9A82468318012A2361A7
:105A700000F37C812268D10700F178819DF83330F2
:105A800013B12D2384F84330009733460FAA2146E3
:105A9000284600F09FF9013002D14FF0FF3096E127
:105AA00023685A0501D4236965E0B9F1650F40F216
:105AB000D580D4E9120100220023FAF7A7FF78B3BA
:105AC0000123654A31462846B8470130E5D00E9B90
:105AD0000D9A9A420BDB2368D80708D423689B07EA
