:020000040800F2
:1000000000500020612B0008D12C0008D52C0008DE
:10001000D92C0008DD2C0008E12C000800000000AD
:10002000000000000000000000000000E52C0008B7
:10003000E92C000800000000ED2C0008F12C00085D
:10004000A92B0008A92B0008A92B0008A92B000840
:10005000A92B0008A92B000845140008A92B0008AB
:10006000D1140008A92B0008A92B0008A92B00080F
:10007000A92B0008A92B0008A92B0008A92B000810
:10008000A92B0008A92B0008A92B0008A92B000800
:10009000A92B0008A92B0008A92B0008751400083B
:1000A000A92B0008A92B0008A92B0008A92B0008E0
:1000B000A92B0008F11B0008A92B0008A92B000898
:1000C000A92B0008A92B0008A92B0008A92B0008C0
:1000D000A92B00084D2A0008A92B0008A92B00080D
:1000E000A92B0008A92B0008A92B0008000000007C
:1000F0000000000000000000000000000000000000
:0C01000000000000000000005FF808F1A3
:1001100010B5054C237833B9044B13B10448AFF341
:1001200000800123237010BDEC01002000000000BE
:1001300004570008084B10B51BB108490848AFF335
:1001400000800848036803B910BD074B002BFBD0A3
:10015000BDE81040184700BF00000000F00100207B
:1001600004570008EC0100200000000081F000416D
:1001700002E000BF83F0004330B54FEA41044FEA8C
:10018000430594EA050F08BF90EA020F1FBF54EA27
:10019000000C55EA020C7FEA645C7FEA655C00F0C3
:1001A000E2804FEA5454D4EB5555B8BF6D420CDD94
:1001B0002C4480EA020281EA030382EA000083EA17
:1001C000010180EA020281EA0303362D88BF30BDB7
:1001D00011F0004F4FEA01314FF4801C4CEA11310D
:1001E00002D0404261EB410113F0004F4FEA03336C
:1001F0004CEA133302D0524263EB430394EA050FF7
:1002000000F0A780A4F10104D5F1200E0DDB02FA65
:100210000EFC22FA05F2801841F1000103FA0EF2F9
:10022000801843FA05F359410EE0A5F120050EF1BF
:10023000200E012A03FA0EFC28BF4CF0020C43FAF0
:1002400005F3C01851EBE37101F0004507D54FF0FD
:10025000000EDCF1000C7EEB00006EEB0101B1F54D
:10026000801F1BD3B1F5001F0CD349085FEA300093
:100270004FEA3C0C04F101044FEA445212F5800F9E
:1002800080F09A80BCF1004F08BF5FEA500C50F13B
:10029000000041EB045141EA050130BD5FEA4C0C1E
:1002A000404141EB010111F4801FA4F10104E9D1A7
:1002B00091F0000F04BF01460020B1FA81F308BF9E
:1002C0002033A3F10B03B3F120020CDA0C3208DD6A
:1002D00002F1140CC2F10C0201FA0CF021FA02F145
:1002E0000CE002F11402D8BFC2F1200C01FA02F1B5
:1002F00020FA0CFCDCBF41EA0C019040E41AA2BFDA
:1003000001EB0451294330BD6FEA04041F3C1CDAA1
:100310000C340EDC04F11404C4F1200220FA04F0C1
:1003200001FA02F340EA030021FA04F345EA03016B
:1003300030BDC4F10C04C4F1200220FA02F001FA2D
:1003400004F340EA0300294630BD21FA04F02946AF
:1003500030BD94F0000F83F4801306BF81F4801148
:100360000134013D4EE77FEA645C18BF7FEA655CBB
:1003700029D094EA050F08BF90EA020F05D054EA8D
:10038000000C04BF1946104630BD91EA030F1EBF92
:100390000021002030BD5FEA545C05D14000494196
:1003A00028BF41F0004130BD14F580043CBF01F589
:1003B000801130BD01F0004545F0FE4141F470016F
:1003C0004FF0000030BD7FEA645C1ABF194610464A
:1003D0007FEA655C1CBF0B46024650EA013406BF4B
:1003E00052EA033591EA030F41F4002130BD00BF0A
:1003F00090F0000F04BF0021704730B54FF48064C7
:1004000004F132044FF000054FF0000150E700BF47
:1004100090F0000F04BF0021704730B54FF48064A6
:1004200004F1320410F0004548BF40424FF0000193
:100430003EE700BF42004FEAE2014FEA31014FEAD6
:1004400002701FBF12F07F4393F07F4F81F0605125
:10045000704792F0000F14BF93F07F4F704730B594
:100460004FF4607401F0004521F0004120E700BF27
:1004700050EA010208BF704730B54FF000050AE0AE
:1004800050EA010208BF704730B511F0004502D5AF
:10049000404261EB41014FF4806404F132045FEAB1
:1004A000915C3FF4DCAE4FF003025FEADC0C18BF56
:1004B00003325FEADC0C18BF033202EBDC02C2F14C
:1004C000200300FA03FC20FA02F001FA03FE40EADE
:1004D0000E0021FA02F11444C1E600BF70B54FF0DE
:1004E000FF0C4CF4E06C1CEA11541DBF1CEA1355C0
:1004F00094EA0C0F95EA0C0F00F0DEF82C4481EA28
:10050000030621EA4C5123EA4C5350EA013518BF47
:1005100052EA033541F4801143F4801338D0A0FB34
:1005200002CE4FF00005E1FB02E506F00042E0FBE1
:1005300003E54FF00006E1FB03569CF0000F18BFE7
:100540004EF0010EA4F1FF04B6F5007F64F540748F
:1005500004D25FEA4E0E6D4146EB060642EAC62122
:1005600041EA55514FEAC52040EA5E504FEACE2E8F
:10057000B4F1FD0C88BFBCF5E06F1ED8BEF1004F92
:1005800008BF5FEA500E50F1000041EB045170BD0E
:1005900006F0004646EA010140EA020081EA030152
:1005A000B4EB5C04C2BFD4EB0C0541EA045170BD4E
:1005B00041F480114FF0000E013C00F3AB8014F1C8
:1005C000360FDEBF002001F0004170BDC4F1000411
:1005D000203C35DA0C341BDC04F11404C4F1200592
:1005E00000FA05F320FA04F001FA05F240EA0200ED
:1005F00001F0004221F0004110EBD37021FA04F623
:1006000042EB06015EEA430E08BF20EAD37070BDDC
:10061000C4F10C04C4F1200500FA04F320FA05F03B
:1006200001FA04F240EA020001F0004110EBD3703D
:1006300041F100015EEA430E08BF20EAD37070BDAD
:10064000C4F1200500FA05F24EEA020E20FA04F386
:1006500001FA05F243EA020321FA04F001F0004135
:1006600021FA04F220EA020000EBD3705EEA430EA6
:1006700008BF20EAD37070BD94F0000F0FD101F0D5
:100680000046400041EB010111F4801F08BF013C0E
:10069000F7D041EA060195F0000F18BF704703F04C
:1006A0000046520043EB030313F4801F08BF013DD3
:1006B000F7D043EA0603704794EA0C0F0CEA13558F
:1006C00018BF95EA0C0F0CD050EA410618BF52EA49
:1006D0004306D1D181EA030101F000414FF000004F
:1006E00070BD50EA410606BF1046194652EA43065D
:1006F00019D094EA0C0F02D150EA013613D195EAD1
:100700000C0F05D152EA03361CBF104619460AD118
:1007100081EA030101F0004141F0FE4141F4700122
:100720004FF0000070BD41F0FE4141F4780170BD12
:1007300070B54FF0FF0C4CF4E06C1CEA11541DBF77
:100740001CEA135594EA0C0F95EA0C0F00F0A7F879
:10075000A4EB050481EA030E52EA03354FEA0131A6
:1007600000F088804FEA03334FF0805545EA1313B9
:1007700043EA12634FEA022245EA111545EA106581
:100780004FEA00260EF000419D4208BF964244F118
:10079000FD0404F5407402D25B084FEA3202B61A37
:1007A00065EB03055B084FEA32024FF480104FF40B
:1007B000002CB6EB020E75EB030E22BFB61A75467F
:1007C00040EA0C005B084FEA3202B6EB020E75EB12
:1007D000030E22BFB61A754640EA5C005B084FEA7A
:1007E0003202B6EB020E75EB030E22BFB61A754647
:1007F00040EA9C005B084FEA3202B6EB020E75EB52
:10080000030E22BFB61A754640EADC0055EA060E12
:1008100018D04FEA051545EA16754FEA06164FEA55
:10082000C30343EA52734FEAC2025FEA1C1CC0D101
:1008300011F4801F0BD141EA00014FF000004FF08E
:10084000004CB6E711F4801F04BF01430020B4F14F
:10085000FD0C88BFBCF5E06F3FF6AFAEB5EB030C07
:1008600004BFB6EB020C5FEA500C50F1000041EB04
:10087000045170BD0EF0004E4EEA113114EB5C04D1
:10088000C2BFD4EB0C0541EA045170BD41F48011A4
:100890004FF0000E013C90E645EA060E8DE60CEAAC
:1008A000135594EA0C0F08BF95EA0C0F3FF43BAFC9
:1008B00094EA0C0F0AD150EA01347FF434AF95EA80
:1008C0000C0F7FF425AF104619462CE795EA0C0F64
:1008D00006D152EA03353FF4FDAE1046194622E731
:1008E00050EA410618BF52EA43067FF4C5AE50EA0B
:1008F00041047FF40DAF52EA43057FF4EBAE12E7FB
:100900004FEA410212F5001215D211D56FF4787337
:10091000B3EB625212D94FEAC12343F0004343EADA
:10092000505311F0004F23FA02F018BF40427047B5
:100930004FF00000704750EA013005D111F000403F
:1009400008BF6FF0004070474FF00000704700BFD5
:10095000034613F8012B002AFBD1181A01387047FF
:100960004FF0FF3C06E000BF4FF0010C02E000BF7B
:100970004FF0010C4DF804CD4FEA410C7FEA6C5C5E
:100980004FEA430C18BF7FEA6C5C1BD001B050EA01
:10099000410C0CBF52EA430C91EA030F02BF90EAEC
:1009A000020F0020704710F1000F91EA030F58BFAB
:1009B000994208BF90422CBFD8176FEAE37040F00D
:1009C000010070474FEA410C7FEA6C5C02D150EAAB
:1009D000013C07D14FEA430C7FEA6C5CD6D152EA66
:1009E000033CD3D05DF8040B704700BF844610462B
:1009F00062468C461946634600E000BF01B5FFF72A
:100A0000B7FF002848BF10F1000F01BD4DF808EDF9
:100A1000FFF7F4FF0CBF012000205DF808FB00BFCA
:100A20004DF808EDFFF7EAFF34BF012000205DF824
:100A300008FB00BF4DF808EDFFF7E0FF94BF012071
:100A400000205DF808FB00BF4DF808EDFFF7CEFF72
:100A500094BF012000205DF808FB00BF4DF808EDB1
:100A6000FFF7C4FF34BF012000205DF808FB00BF82
:100A70004FEA410C7FEA6C5C02D150EA013C0AD19A
:100A80004FEA430C7FEA6C5C02D152EA033C02D18C
:100A90004FF0000070474FF00100704730B587B04D
:100AA00001214FF4027001F0B5FB4FF4004001F05A
:100AB00049FB0223ADF8003000248DF8034069465D
:100AC0001B4801F0CDFA0121042001F0A3FB102303
:100AD000ADF800306946174801F0C2FA164D2846B5
:100AE00001F094F901948DF808408DF809404FF415
:100AF00060230393049401248DF8144001A928462F
:100B000001F0B6F92146284601F0D6F9284601F051
:100B1000DFF9094801F0E2F90028FAD1064801F0AE
:100B2000E5F9054801F0E8F90028FAD107B030BD31
:100B3000000C0140000801400024014010B50A4C9F
:100B4000072301220146204601F0EAF9012120464F
:100B500001F0DAF90221044801F02CFA0028F9D05A
:100B6000014801F023FA10BD00240140F8B5074602
:100B70000E460024254608E03846FFF7DFFF05440F
:100B8000052001F0E3FE0134E4B2B442F4D3B5FB36
:100B9000F6F080B2F8BD00BF00B583B00121082097
:100BA00001F038FB4FF48073ADF8043010238DF85A
:100BB000073003238DF806300122044B1A6001A987
:100BC000034801F04DFA03B05DF804FBA081214217
:100BD000000C014008B52D4A0021202000F000FF44
:100BE0002B4A0221202000F0FBFE2A4A042120206B
:100BF00000F0F6FE284A0621202000F0F1FE002237
:100C00001146104600F004FF01220021102000F0E0
:100C1000FFFE02220021402000F0FAFE0322002104
:100C2000502000F0F5FE06220221002000F0F0FE28
:100C300007220221102000F0EBFE042202214020B6
:100C400000F0E6FE05220221502000F0E1FE08221D
:100C50000421002000F0DCFE09220421102000F015
:100C6000D7FE0A220421402000F0D2FE0B220421EC
:100C7000502000F0CDFE0C220621002000F0C8FE1E
:100C80000D220621102000F0C3FE08BD20570008E9
:100C9000305700084057000848570008000000007F
:100CA00010B51D4C611C204600F0FEFA0A210920F7
:100CB000FFF75CFFFFF79CFB0022184BFFF70EFCD1
:100CC00013A3D3E90023FFF733FD02460B460020B0
:100CD0001249FFF74FFAFFF713FEE0700A210420D4
:100CE000FFF744FFFFF784FB00220C4BFFF7F6FBF6
:100CF00007A3D3E90023FFF71BFD02460B460020A4
:100D00000649FFF737FAFFF7FBFDA07010BD00BFE3
:100D10000000000000FEAF40140200200000594017
:100D200030B583B06A4D2A78102400940223002144
:100D3000282000F017FE6A78009402230021682022
:100D400000F010FEAA78009402231946282000F033
:100D500009FEEA78009402231946682000F002FE9A
:100D60005C4B1B782BB90F220421282000F050FE89
:100D700004E00E220421282000F04AFE554B5B7847
:100D8000032B1AD8DFE803F002080E140F22042107
:100D9000682000F03DFE10E016220421682000F0DB
:100DA00037FE0AE017220421682000F031FE04E03B
:100DB00018220421682000F02BFE464B9B78032B61
:100DC0001AD8DFE803F002080E140F2206212820AB
:100DD00000F01EFE10E016220621282000F018FE6A
:100DE0000AE017220621282000F012FE04E0182253
:100DF0000621282000F00CFE374B1B7853B11B2234
:100E000006213C2000F004FE1C2206214C2000F0AC
:100E1000FFFD09E01D2206213C2000F0F9FD1C2207
:100E200006214C2000F0F4FD2A4BDB784BB9192247
:100E30000621602000F0ECFD1A220621702000F04F
:100E4000E7FD244BDB78012B1ED1224B1B78012BB5
:100E50001AD1224C22460621602000F0C1FD9620C6
:100E600001F074FD14220621602000F0D1FD15224E
:100E70000621702000F0CCFD962001F067FD22468F
:100E80000621602000F0ACFD124BDB78012B1DD158
:100E9000104B9B78D3B1114C22460621602000F004
:100EA0009FFD962001F052FD12220621602000F0E5
:100EB000AFFD13220621702000F0AAFD962001F05C
:100EC00045FD22460621602000F08AFD03B030BDBA
:100ED000140200200C020020080200204C570008D9
:100EE00010B5384B1B781C2B03D80021364A917063
:100EF00016E0A3F11D02D2B2012A03D80121324A21
:100F000091700DE0A3F11F02D2B2012A03D8022191
:100F10002D4A917004E0202B02D903212A4A9170B6
:100F2000284A9178272903D90020274A107002E027
:100F30000120254A1070234AD278272A03D900209D
:100F4000214A507016E0A2F11E00C0B2092803D851
:100F500001201D4A50700DE0A2F11400C0B2092812
:100F600003D80220184A507004E0132A02D8032044
:100F7000154A50701C2B05D8272903D90022124B83
:100F8000DA7002E00122104BDA700F4C2378B3FACA
:100F900083F35B090D4A136022780D4B1A60637866
:100FA000B3FA83F35B090B4A1360607800F07CFBB3
:100FB000A378B3FA83F35B09074A1360A07800F0C3
:100FC00051FB10BD140200200C02002088012242B7
:100FD000940121428C012242900122420C4BDB7889
:100FE00073B10C4A1368B3FA83F35B09136002F51B
:100FF000FF4264321368B3FA83F35B0913607047EE
:101000000123044A136002F5FF4264321360704703
:101010000C020020A081214210B5044C0023236063
:10102000282001F093FC0123236010BDA081214200
:1010300008B5084A1378B3FA83F35B09137083F099
:10104000010305490B601278044B1A60FFF7E4FFB7
:1010500008BD00BF0C0200208801224294012142F9
:1010600008B50D4A53780133DBB25370042B14BF1B
:101070000023012309490B605078042800D1002087
:1010800000F012FB044B5B78042B02D10022024BD0
:101090005A70FFF7C1FF08BD0C0200208C012242EC
:1010A00008B50D4A93780133DBB29370042B14BF5B
:1010B0000023012309490B609078042800D1002007
:1010C00000F0D0FA044B9B78042B02D10022024B93
:1010D0009A70FFF7A1FF08BD0C0200209001224288
:1010E00010B500F021FE48B1284B1B7833B900F051
:1010F0001BFE274B18700122244B1A7000F014FEBF
:1011000030B9224B1B78012B02D100221F4B1A70E1
:101110001F4B1B78E22B22D11E4A1378B3FA83F3BC
:101120005B0913701C4A1368B3FA83F35B091360FD
:101130000123143A13600432136004321360002454
:10114000164B1C60164B1C705C709C70DC7020464B
:1011500000F0AAFA204600F085FAFFF75DFF0D4B7C
:101160001B787BB90A4B1B78982B06D0B02B07D085
:10117000682B07D1FFF75CFF04E0FFF771FF01E088
:10118000FFF78EFF0022024B1A7010BD00000020F6
:1011900010020020080200209C01224294012142FA
:1011A0000C02002010B50A4B5A6822F0F0025A6077
:1011B0005A6842F030025A60064C00232360142023
:1011C00001F0C4FB012323601E2001F0A1FB10BD30
:1011D000000C0140A481214210B5154B5A6822F041
:1011E000F0025A605A6842F080025A60002404E01B
:1011F0000134E4B2012001F08BFB0E4B1B680BB1F4
:10120000632CF5D9632C0FD8002404E00134E4B238
:10121000012001F07DFB074B1B680BB9632CF5D94E
:10122000632C03D9012010BD012010BD002010BD8A
:10123000000C01402481214210B5002404E0013457
:10124000E4B2012001F064FB0E4B1B684BB1632C30
:10125000F5D9002406E00134E4B2012001F058FB86
:1012600000E00024074B1B680BB9632CF3D928203E
:1012700001F04EFB034B1B680BB1012010BD002099
:1012800010BD00BF2481214238B50020054607E08B
:101290004000C4B2FFF7D0FF2043C0B20135EDB229
:1012A000072DF5D938BD00BFF0B583B006460F460F
:1012B000FFF778FFFFF790FF50B101251DE0FFF722
:1012C000E3FF02AB234403F8080C0134E4B201E06D
:1012D00005460024042CF2D99DF800109DF8013039
:1012E0000B449DF8022013449DF8030003449DF82D
:1012F0000400834201D139703270284603B0F0BD3A
:1013000030B583B00121082000F084FF4FF4007550
:10131000ADF8045010238DF8073003238DF8063004
:10132000074C01A9204600F09BFE2946204600F00C
:10133000EDFEFFF737FFFFF74FFF03B030BD00BFF3
:10134000000C014008B50CE00A4A0221182000F008
:1013500047FBC82001F0FAFA00F0A4FA064802F0B0
:1013600069FAFFF7CDFF0028EED1044802F062FAD7
:1013700008BD00BF545700086457000874570008A0
:1013800070B584B000F0BEF80121084600F042FFBD
:101390000821022000F0BCFE4FF480730293002568
:1013A0008DF80C500C238DF80D3001248DF80E4073
:1013B00002A800F007FE0921022000F0A9FE4FF468
:1013C0000073029302A800F0FDFD0221032000F04B
:1013D0009FFE0423029302A800F0F4FD294628464C
:1013E00000F096FE029408268DF80D600DEB0600C5
:1013F00000F0E8FD06238DF8043002258DF8055035
:1014000003238DF806308DF8074001A800F0BCFCDE
:101410008DF804608DF805508DF806508DF8074062
:1014200001A800F0B1FC17238DF804308DF80550A9
:101430008DF806408DF8074001A800F0A5FC04B027
:1014400070BD00BF08B50A2001F080FA064B1B688A
:10145000012B05D1054B1B7813B9054802F078F92B
:10146000012000F0F7FD08BD000121420802002024
:101470008057000808B50A2001F068FA0F4B1B6876
:101480003BB90F4B1B7823B90E4802F061F9FFF707
:10149000CFFD0D4B1B683BB9094B1B7823B90B489B
:1014A00002F056F9FFF7DCFD4FF4807000F0D2FD3A
:1014B0004FF4007000F0CEFD08BD00BF20012242B5
:1014C0000802002088570008240122429057000893
:1014D00008B50A2001F03AFA074B1B683BB9074BE5
:1014E0001B7823B9064802F033F9FFF7D9FD042031
:1014F00000F0B0FD08BD00BF0881224208020020B4
:101500009857000810B582B00121302000F082FE0B
:101510004FF44073ADF8043048248DF8074001A91A
:101520000C4800F09DFD0423ADF804308DF8074011
:101530000DEB0301084800F093FD0123ADF80430E2
:1015400028238DF8073001A9044800F089FD02B076
:1015500010BD00BF00100140001401400008014010
:1015600000B583B00121102000F054FEFF23ADF838
:10157000043010238DF8073003238DF80630012343
:101580000B4A136004321360043213600432136098
:1015900004321360043213600432136004321360A7
:1015A00001A9044800F05CFD03B05DF804FB00BF36
:1015B000800122420010014030B589B005460C463A
:1015C0000121084600F034FE0121052000F022FE32
:1015D0000623ADF81C3018238DF81F3003238DF837
:1015E0001E3007A91E4800F03BFDADF81450ADF8C1
:1015F00010400024ADF81640ADF8124004A94FF099
:10160000804000F025FF6023ADF800300125ADF8E3
:101610000250ADF8084069464FF0804000F062FF8C
:1016200069464FF0804000F0A1FF08214FF0804054
:1016300000F0F8FF08214FF0804000F0FDFF294640
:101640004FF0804000F0D4FF21464FF0804000F082
:10165000FFFF21464FF0804000F0FCFF09B030BD95
:101660000008014008B503281DD8DFE800F0020893
:101670000F1600214FF0804000F0EAFF08BD4FF444
:10168000FA714FF0804000F0E3FF08BD4FF42F7176
:101690004FF0804000F0DCFF08BD4FF461714FF067
:1016A000804000F0D5FF08BD08B503281DD8DFE84D
:1016B00000F002080F1600214FF0804000F0CAFF32
:1016C00008BD4FF496714FF0804000F0C3FF08BD95
:1016D0004FF416714FF0804000F0BCFF08BD4FF48E
:1016E00061714FF0804000F0B5FF08BD00B583B0D8
:1016F0000121042000F08EFD2023ADF804301023DA
:101700008DF8073003238DF8063001A9024800F058
:10171000A7FC03B05DF804FB00080140044B012264
:101720001A6004490A6000220A601A60704700BF0C
:10173000A0012142B4012242034B00221A6001227F
:1017400002490A601A607047B4012242A001214296
:1017500008B5094B00221A60012208490A601A6084
:101760004FF40051064800F0C9FC012800D00020C9
:101770000022014B1A6008BDA0012142B40122429F
:101780000010014008B5002315E000210F4A116048
:1017900010F0800F05D0012102F580321432116063
:1017A00002E000210A4A11604000C0B20121074A4C
:1017B00011600B44DBB2072BE7D90022034B1A6000
:1017C000FFF7C6FF0028FBD108BD00BFA0012142E2
:1017D000B401224210B50446FFF7A0FF7820FFF7BE
:1017E000D1FF4020FFF7CEFF2046FFF7CBFFFFF7EA
:1017F000A3FF10BD10B50446FFF790FF7820FFF758
:10180000C1FF0020FFF7BEFF2046FFF7BBFFFFF739
:1018100093FF10BD00B583B00121102000F0FAFC49
:101820004FF48073ADF8043014238DF80730032390
:101830008DF8063001A90A4800F012FC4FF400535D
:10184000ADF8043001A9074800F00AFC0123064A5C
:10185000136002F580321432136003B05DF804FBAC
:101860000008014000100140A001214208B511B15B
:10187000FFF7B0FF08BDFFF7BDFF08BD10B5044678
:10188000A1F150000021C0B2FFF7F0FF002104F0E9
:101890000F00FFF7EBFF2009002140F01000FFF7D9
:1018A000E5FF10BD38B500251AE0A5F15000002174
:1018B000C0B2FFF7DBFF00210846FFF7D7FF00218A
:1018C0001020FFF7D3FF002405E001210020FFF7DF
:1018D000CDFF0134E4B214F0800FF6D00135EDB243
:1018E000072DE2D938BD00BFF8B507460E46203AAD
:1018F000D5B210F0800F02D00236F6B20027314682
:101900003846FFF7BBFF002408E004EB0513012174
:101910000D4AD05CFFF7AAFF0134E4B2072CF4D9DA
:10192000711CC9B23846FFF7A9FF002409E004EB97
:10193000051308330121044AD05CFFF797FF0134F7
:10194000E4B2072CF3D9F8BDA0570008012202E049
:1019500000FB02F219464B1EDBB20029F8D11046FB
:10196000704700BF2DE9F0478246894617461D465D
:101970009DF82080002634462CE0291B0139C9B28D
:101980000A20FFF7E3FFB7FBF0F0144AA2FB003296
:10199000D20802EB82025300C21AD2B276B96B1E91
:1019A0009C420BDA4AB94FEA580000FB04A02022FF
:1019B0004946C0B2FFF798FF0AE0012630324FEAED
:1019C000580000FB04A0D2B24946C0B2FFF78CFF1A
:1019D0000134E4B2AC42D0D3BDE8F087CDCCCCCC5E
:1019E000F8B504460E46174600250DE03146204660
:1019F000FFF77AFF0834E4B214F0800F02D0023609
:101A0000F6B200240135EDB27A5D002AEED1F8BDC0
:101A1000F8B507460E461546FFF730FF002408E0EC
:101A20000F4B03EB85130121185DFFF71FFF0134F6
:101A3000E4B20F2CF4D9711CC9B23846FFF71EFF6F
:101A400000240AE06B005A1C054B03EB42130121F2
:101A5000185DFFF70BFF0134E4B20F2CF2D9F8BD8B
:101A6000905D000808B5FFF7D5FE0021AE20FFF716
:101A7000FDFE00210846FFF7F9FE00211020FFF7C8
:101A8000F5FE00214020FFF7F1FE0021B020FFF716
:101A9000EDFE00218120FFF7E9FE0021FF20FFF786
:101AA000E5FE0021A120FFF7E1FE0021A620FFF7BF
:101AB000DDFE0021A820FFF7D9FE00213F20FFF71F
:101AC000D5FE0021C820FFF7D1FE0021D320FFF76B
:101AD000CDFE00210846FFF7C9FE0021D520FFF703
:101AE000C5FE00218020FFF7C1FE0021D920FFF7AD
:101AF000BDFE0021F120FFF7B9FE0021DA20FFF73B
:101B0000B5FE00211220FFF7B1FE0021DB20FFF718
:101B1000ADFE00214020FFF7A9FE00218D20FFF738
:101B2000A5FE00211420FFF7A1FE0021AF20FFF742
:101B30009DFEFFF7B7FE00210846FFF79FFE08BD98
:101B4000F0B589B00121082000F064FB01210220DA
:101B500000F06EFB0124ADF81C4028238DF81F30E7
:101B600003278DF81E70204D07A9284600F078FA4B
:101B70002146284600F0CAFA42F21073ADF8103040
:101B80004723ADF80C300025ADF81250ADF80E50DB
:101B9000164E03A9304600F05BFC0823ADF8003078
:101BA000ADF80250ADF80440ADF80650ADF808703D
:101BB0006946304600F084FD2146304600F018FDAD
:101BC0001D238DF818308DF819508DF81A708DF886
:101BD0001B4006A800F0D8F822460921304600F044
:101BE00015FD09B0F0BD00BF000C0140000400402D
:101BF00010B50121464800F099FDE0B1454B1B7836
:101C000013F0800F17D003F0EF03424A137013F064
:101C10000F0F02D143F0400313703E4B1B7803F0CB
:101C20000F020D2A03DC01333A4A137003E003F07C
:101C30007003384A13700821354800F077FD0028FA
:101C400061D0354B1B6873B1314C0221204600F046
:101C5000F3FC0021204600F0F9FC2E4A137843F0F3
:101C6000100313704FE02A4C204600F05BFD2B4B15
:101C700018800021204600F0DFFC264B1B7813F073
:101C8000100F3BD013F0800F28D0244A1188A1F206
:101C90002D1292B2B2F5F97F04D8214A13685B0085
:101CA00013602BE0A1F2795292B2B2F5C77F06D849
:101CB0001B4A13685B0043F0010313601EE0A1F6AA
:101CC000990292B2B2F5C77F18D816490A78013244
:101CD0000A7023F00F030F4A13700FE00F4A1288A7
:101CE000A2F58352093A92B2B2F5F97F06D863F0B1
:101CF0007F03084A137000220A4B1A70054A1378B2
:101D000023F0100313700921014800F01BFD10BDE2
:101D10000004004022020020008121422002002015
:101D20001C02002018020020144B1B7813F0400FF7
:101D300021D0134A1168080EC1F30742D243D2B230
:101D4000904209D150B9C1F30720C9B2C943C9B201
:101D5000884204D0002002E0002000E0002010B102
:101D600013F0800F08D123F04003044A13700022BF
:101D7000044B1A7070470020704700BF22020020F9
:101D80001C02002018020020C378FBB1154BDB6851
:101D9000DB43C3F30223C3F104010F22DA4043788B
:101DA00003FA01F1837813400B431B010278DBB285
:101DB0000D490A4482F800330378580903F01F03E1
:101DC000012202FA03F341F82030704703785A09E0
:101DD00003F01F03012101FA03F32032024941F805
:101DE0002230704700ED00E000E100E0042805D15A
:101DF000054A136843F0040313607047024A1368EE
:101E000023F004031360704710E000E008B5154BA1
:101E100098420AD101214FF4007000F017FA002116
:101E20004FF4007000F012FA08BD0F4B98420AD12F
:101E300001214FF4806000F009FA00214FF4806026
:101E400000F004FA08BD094B984209D101214FF472
:101E5000004000F0FBF900214FF4004000F0F6F9DB
:101E600008BD00BF0024014000280140003C0140A3
:101E700010B4436823F4702222F480720B680C794A
:101E800043EA04231343436083680A4C1C40CA6836
:101E90008B681A434B7942EA430323438360C36A46
:101EA00023F470020B7C013BDBB242EA0353C362B2
:101EB00010BC7047FDF7F1FF21B1836843F00103C7
:101EC00083607047836823F001038360704700BF1D
:101ED000836843F008038360704700BF836813F092
:101EE000080F01D00120704700207047836843F03D
:101EF00004038360704700BF836813F0040F01D0B0
:101F0000012070470020704721B1836843F4A0038B
:101F100083607047836823F4A0038360704700BF29
:101F200070B409290DD9C668A1F10A0404EB440470
:101F30000725A54026EA050503FA04F42C43C460EE
:101F40000AE0066901EB41040725A54026EA0505DC
:101F500003FA04F42C430461062A0BD8446B013ABB
:101F600002EB82021F23934024EA030391401943AA
:101F7000416318E00C2A0BD8046B073A02EB82028B
:101F80001F23934024EA03039140194301630AE0AD
:101F9000C46A0D3A02EB82021F23934024EA030332
:101FA00091401943C16270BC704700BFC06C80B2E1
:101FB000704700BF0368194201D00120704700201C
:101FC000704700BF8379002B34D010B4204B1A68BF
:101FD000016822EA01021A605A68016822EA0102D5
:101FE0005A60027902F1804202F582321468016877
:101FF000214311609A68016822EA01029A60DA6856
:10200000016822EA0102DA604379102B09D1104BF2
:10201000996802680A439A60D96802680A43DA60DC
:1020200013E003F1804303F58233196802680A4321
:102030001A600AE0037903F1804303F582331A68DA
:10204000016822EA01021A60704710BC704700BFA5
:1020500000040140014B5861704700BF000401407B
:10206000F0B4CB7803F00F02154613F0100F01D037
:102070008D7815430B78E3B10668002316E0012242
:102080009A400C8832EA04040FD19C000F27A74025
:1020900026EA070605FA04F42643CC78282C01D159
:1020A000426102E0482C00D102610133072BE6D9DE
:1020B00006600B88FF2B1ED94668002318E003F149
:1020C00008040122A2400C8832EA04040FD19C00CB
:1020D0000F27A74026EA070605FA04F42643CC7822
:1020E000282C00D14261CC78482C00D10261013308
:1020F000072BE4D94660F0BC704700BF83681942E3
:1021000001D0012070470020704700BF0161704777
:1021100030B401F003039B000F2404FA03F589088F
:10212000074A023152F8214024EA050442F82140CE
:1021300052F821409840204342F8210030BC7047BB
:1021400000000140034A536823F4404318435060A1
:10215000704700BF0010024010B4294B5B6803F0C9
:102160000C03042B05D0082B06D013BB254B0360B2
:1021700021E0244B03601EE0214A53685268C3F3F8
:102180008343023312F4803F04D11F4A02FB03F35E
:10219000036010E01A4A526812F4003F04D01A4A51
:1021A00002FB03F3036006E0164A02FB03F303603D
:1021B00001E0144B036012494B68C3F30313134C43
:1021C000E35CDAB20368D34043604A68C2F3022298
:1021D000A25CD2B223FA02F282604A68C2F3C2223F
:1021E000A25CD2B2D340C3604A68C2F381320849CC
:1021F0008A5CD2B2B3FBF2F3036110BC704700BF3C
:102200000010024000127A0000093D000800002082
:102210000400002021B1054B9A6910439861704772
:10222000024A936923EA000090617047001002405F
:1022300021B1054BDA691043D8617047024AD3696E
:1022400023EA0000D06170470010024021B1054B25
:10225000DA681043D8607047024AD36823EA000066
:10226000D06070470010024030B4048CA4B224F057
:102270000104A4B20484048BA4B2058CADB224F092
:10228000F3041B019BB21A4344EA0203124A904230
:1022900012D002F5006290420ED0B0F1804F0BD008
:1022A000A2F59832904207D002F58062904203D0A6
:1022B00002F58062904205D125F00205294341F0E4
:1022C000010104E025F00A02114341F001010383FA
:1022D000018430BC704700BF002C014070B4048CF6
:1022E000A4B224F01004A4B20484058B048CA4B21C
:1022F0000E01B6B225F440752D052D0D1B039BB2C2
:102300002B43120292B21A43124B984212D003F599
:10231000006398420ED0B0F1804F0BD0A3F59833F4
:10232000984207D003F58063984203D003F5806399
:10233000984205D124F02001314341F0100104E01E
:1023400024F0A004214341F010010283018470BCF9
:10235000704700BF002C014070B4048CA4B224F478
:102360008074A4B20484848BA4B2058CAEB20D0236
:10237000ADB224F0F3041B019BB21A4344EA0203FA
:10238000124A904212D002F5006290420ED0B0F193
:10239000804F0BD0A2F59832904207D002F58062B0
:1023A000904203D002F58062904205D126F400717C
:1023B000294341F4807104E026F42062114341F482
:1023C00080718383018470BC704700BF002C014082
:1023D00070B4058CADB225F48055ADB20584868B02
:1023E000048CA4B20D03ADB226F440763605360D4A
:1023F000120292B232431B039BB21343134A904220
:1024000012D002F5006290420ED0B0F1804F0BD096
:10241000A2F59832904207D002F58062904203D034
:1024200002F58062904205D124F400542C4344F418
:10243000805406E024F400746404640C0C4344F4F7
:1024400080548383048470BC704700BF002C01401B
:1024500003889BB2214A904212D002F5006290425A
:102460000ED0B0F1804F0BD0A2F59832904207D039
:1024700002F58062904203D002F58062904203D15F
:1024800023F070034A881343154A904208D002F59E
:102490008062904204D023F440739BB2CA881343F5
:1024A00003808B8883850B8803850C4B98420FD063
:1024B00003F5006398420BD003F54063984207D0C0
:1024C00003F58063984203D003F58063984201D1FD
:1024D0000B7A038601238382704700BF002C0140E2
:1024E0000010004030B4038C9BB223F010039BB269
:1024F0000384028C92B28588ADB2048BA4B224F41A
:10250000E6440B881B029BB21C4322F020020B897D
:102510001B019BB21A434B881B019BB21343124A07
:10252000904203D002F50062904215D123F080035F
:102530004A89120192B2134323F040028B881B0197
:102540009BB2134325F440658A89920092B22A43D4
:10255000CD89AD00ADB2154385800483CA8802875A
:10256000038430BC704700BF002C014030B4038CA2
:102570009BB223F480739BB20384028C92B2848852
:10258000A4B2838B9BB223F073030D881D4322F406
:1025900000720B891B029BB21A434B881B029BB231
:1025A0001343124A904203D002F50062904215D1C3
:1025B00023F400634A89120292B2134323F4806227
:1025C0008B881B029BB2134324F440548A89120166
:1025D00092B22243CC892401A4B21443848085831F
:1025E000CA888287038430BC704700BF002C01403A
:1025F00029B103889BB243F001030380704703882D
:102600009BB223F001039BB20380704722B1838900
:102610009BB21943818170478389C94389B21940AC
:1026200081817047038C9BB223F02003090189B29A
:1026300019430184704700BF038C9BB223F40073DD
:10264000090289B219430184704700BF8184704731
:102650000187704781877047038B9BB223F00C037F
:102660009BB20383038B9BB219430183704700BF66
:10267000038B9BB223F440639BB20383038B9BB217
:10268000090289B219430183704700BF838B9BB253
:1026900023F00C039BB28383838B9BB2194381830A
:1026A000704700BF838B9BB223F440639BB283834C
:1026B000838B9BB2090289B219438183704700BFA3
:1026C00038B505460C460B884BB90B898A88498872
:1026D000FFF7CAFDE1882846FFF7BEFF38BD042B8F
:1026E00009D10B898A884988FFF7F8FDE1882846D7
:1026F000FFF7BEFF38BD082B09D10B898A884988AE
:10270000FFF72AFEE1882846FFF7C0FF38BD0B8996
:102710008A884988FFF75CFEE1882846FFF7C2FFF8
:1027200038BD00BF808F80B2704700BF028A8389A6
:102730000B40114202D01BB90020704700207047A7
:1027400001207047C94389B20182704730B587B014
:1027500004460D46038A9BB2CA8823F440531343B0
:10276000038283899BB28A88098968890A43024364
:1027700023F4B05323F00C031343A381A38A9BB229
:10278000AA8923F440731343A38201A8FFF7E4FC52
:102790001E4B9C4201D1049A00E0039AA38913F4D2
:1027A000004F08D002EB820202EB82022968490046
:1027B000B2FBF1F107E002EB820202EB8202296830
:1027C0008900B2FBF1F1124BA3FB01235B091B0152
:1027D0001A09642000FB1212A18911F4004F08D0DD
:1027E000D20032320A49A1FB0212C2F342121A434A
:1027F00007E0120132320649A1FB0212C2F3431272
:102800001A4392B2228107B030BD00BF00380140A8
:102810001F85EB5129B183899BB243F40053838117
:10282000704783899BB223F400539BB28381704726
:1028300010B4C1F3421401F01F01012303FA01F1A6
:102840009C4201D10C3004E0022C01D1103000E098
:1028500014301AB103681943016003E0036823EAE6
:102860000101016010BC7047C1F30801818070470D
:102870008088C0F3080070470388194201D0012006
:1028800070470020704700BF10B4C1F3421201F03E
:102890001F040123A340012A03D1828992B213406D
:1028A00008E0022A03D1028A92B2134002E0828A2F
:1028B00092B21340090A012202FA01F1028892B28F
:1028C000114013B119B9002002E0002000E00120FE
:1028D00010BC704708B56FF00400FFF787FA084B8B
:1028E0001B68084AA2FB0323C3F34753064A13702D
:1028F000C3EB431203EB8203DA00044B1A8008BDDA
:102900001800002083DE1B43230200202402002045
:102910000C4B1B7800FB03F00B4B586000229A60B5
:102920001A6842F001021A60074B1B6803F001139A
:10293000012BF9D0044B1A6822F001021A60002220
:102940009A6070472302002010E000E00C4B1B88C7
:1029500000FB03F00B4B586000229A601A6842F0AB
:1029600001021A60074B1B6803F00113012BF9D019
:10297000044B1A6822F001021A6000229A60704724
:102980002402002010E000E008B5054B1860054B5C
:102990001868002302221946806800F053FF08BD22
:1029A000F40200207C00002070B586B006460121AC
:1029B00044F20400FFF72EFC4FF40073ADF814301E
:1029C00003248DF8164018238DF817301D4D05A9E6
:1029D0002846FFF745FB4FF48063ADF8143004231D
:1029E0008DF8173005A92846FFF73AFB25238DF807
:1029F00000308DF801408DF8024001258DF803501C
:102A00006846FFF7C1F901960023ADF80830ADF82C
:102A10000A30ADF80C30ADF810300C23ADF80E30A4
:102A2000094C01A92046FFF791FE2A4640F22551A4
:102A30002046FFF7FDFE29462046FFF7EBFE06B0D5
:102A400070BD00BF000801400038014008B540F2E9
:102A500025511A48FFF718FF00282DD01748FFF717
:102A600007FFC0B2164B1B8813F4004F24D103F4A8
:102A7000804292B262B10A2803D00022104B1A8021
:102A800008BD6FEA43436FEA53430D4A138008BD04
:102A90000D2804D143F48043094A138008BDC3F3D1
:102AA0000D020849885401339BB2054A1380C72B95
:102AB00002D90022024B1A8008BD00BF0038014035
:102AC000F002002028020020022801D801207047CF
:102AD000002070470138012810D94FF0FF307047AF
:102AE000315D0E4B1868FFF7BFFE80210B4B186855
:102AF000FFF7C2FE0028F8D0013403E070B5154698
:102B00000E460024AC42EBD34021044B1868FFF77B
:102B1000B3FE0028F8D0284670BD00BFF4020020A4
:102B2000022801D8002070474FF0FF30704700BFE7
:102B30004FF0FF30704700BF10B50C4658B9202148
:102B40000648FFF799FE0028F9D00448FFF790FEE9
:102B50002070012010BD4FF0FF3010BD0044004038
:102B600000F02EF90B480C490C4A002302E0D4581F
:102B7000C4500433C4188C42F9D3094A094C0023C9
:102B800001E013600432A242FBD300F041F900F0EF
:102B90000DF8704700000020EC010020D867000805
:102BA000EC0100200C030020FEE7000008B54FF404
:102BB000E130FFF7F9FE4048FFF7E6FEFFF78AFE37
:102BC000FEF7CEFCFDF7E8FFFDF768FFFEF7D8FB48
:102BD000FEF78CFDFEF7B4FF002140F28330FEF7D4
:102BE000EBFCFEF73FFFFEF75DFE4FF47A70FFF758
:102BF000ADFEFEF7A7FBFDF7EDFFFEF70DFA2F4B3D
:102C00001B782F4AA2FB03121209322101FB123357
:102C100013F0FF0F05D12B4A1368B3FA83F35B0956
:102C20001360264B1B78264AA2FB0312520964212B
:102C300001FB123313F0FF0F01D1FEF731F81F4BE8
:102C40001B781F4AA2FB03121209322101FB123327
:102C500013F0FF0F05D11C4B1B78012B01D1FEF7A0
:102C60003FF9164B1A78194BA3FB0213DB0803EB51
:102C700083035900521A12F0FF0F01D1FEF7AEF98B
:102C8000FFF752F808B1FEF72BFA0C4B1A780F4BEE
:102C9000A3FB0213DB0803EB83035900521A12F063
:102CA000FF0F01D1FEF73CF8044A1378013313708B
:102CB0000A20FFF74BFEA2E700380140F80200208F
:102CC0001F85EB518001224208020020CDCCCCCCE4
:102CD000704700BFFEE700BFFEE700BFFEE700BF92
:102CE000FEE700BF704700BF704700BF704700BFDE
:102CF000704700BF82B00023019300932C4A1368F1
:102D000043F4803313602A4B1B6803F400330093B1
:102D1000019B01330193009B1BB9019BB3F5A06F8D
:102D2000F1D1234B1B6813F4003F02D00123009321
:102D300001E000230093009B012B36D11D4B1A6844
:102D400042F010021A601A6822F007021A601A682C
:102D500042F002021A60A3F580535A685A605A681A
:102D60005A605A6842F480625A605A6822F47C12AF
:102D70005A605A6842F4E8125A601A6842F0807247
:102D80001A600B4B1B6813F0007FFAD0084B5A688F
:102D900022F003025A605A6842F002025A60044B61
:102DA0005B6803F00C03082BF9D102B0704700BF39
:102DB000001002400020024008B5FFF79BFF08BD4D
:102DC00008B5104B1A6842F001021A6059680E4AA1
:102DD0000A405A601A6822F0847222F480321A6023
:102DE0001A6822F480221A605A6822F4FE025A609D
:102DF0004FF41F029A60FFF7DFFF4FF00062034BB2
:102E00009A6008BD001002400000FFF800ED00E0ED
:102E10000E4B70B51E460E4C0025E41AA410A542B8
:102E200004D056F8253098470135F8E702F06AFCDF
:102E3000084B094C1E46E41AA4100025A54204D0F4
:102E400056F8253098470135F8E770BDD06700087F
:102E5000D0670008D0670008D46700080346024422
:102E6000934202D003F8011BFAE770472DE9F047BF
:102E700088B0149F002B1E461299B8BF03F100437F
:102E800027F02007B6BF1E4600232D23462F1446E9
:102E9000109DDDF84CA00B7003D0452F03D10135F8
:102EA00001E0032300E0022307AA049206AA03928A
:102EB0008DE828042246334600F0BEFE472F8046A8
:102EC00002D1119BDB0728D5462F08EB050911D14C
:102ED00098F80030302B0AD10022002320463146DA
:102EE000FDF794FD18B9C5F10105CAF80050DAF8EC
:102EF000003099440022002320463146FDF786FD2C
:102F000008B9302202E0CDF81C9006E0079B9945F5
:102F100003D9591C07911A70F8E74046079B159A88
:102F2000C8EB0303136008B0BDE8F087034673B530
:102F30000029B8BF494203F8022BB4BF2D222B222F
:102F4000092942701ADD0DF1070216460A2591FB88
:102F5000F5F405FB1411092C01F1300102F8011DF3
:102F60002146F4DC3031541E02F8011CB4421A46EA
:102F70000AD214F8012B03F8012BF7E71A46302484
:102F8000214402F8024B5970101A02B070BD0000C3
:102F90002DE9F04F91B00C46DDF8688016461F46CB
:102FA000054601F05BFD036818460993FDF7D0FC68
:102FB00000230E93D8F800300A90073323F007035C
:102FC00003F1080294F81890D4F800B0C8F8002073
:102FD000D3E90023C4E91223D4F84CA0D4F84880E4
:102FE0002AF000430B934FF0FF32A74B40460B995A
:102FF000FDF73EFDA0B94FF0FF32A34B40460B99C1
:10300000FDF718FD60B90022002340465146FDF748
:1030100007FD10B12D2384F843309C4B9C4A0AE0F5
:103020004246534640465146FDF722FD002800F037
:103030009281984B984AB9F1470F8CBF90469846B9
:10304000032323612BF0040323604FF0000A3DE0CB
:10305000B9F1670F00F08A81B9F1470F00F086815E
:1030600023600193636800210DF133020590029201
:103070000093424653460691CDF81090CDF80CE0EF
:103080002846FFF7F3FE09F0DF03472B804600F0E8
:103090008481B9F1650F0D9900F28D8101394A469D
:1030A00004F150000D91FFF741FF0E9A82468318FC
:1030B000012A236100F37C812268D10700F1788125
:1030C0009DF8333013B12D2384F8433000973346F5
:1030D0000FAA2146284600F09FF9013002D14FF097
:1030E000FF3096E123685A0501D4236965E0B9F100
:1030F000650F40F2D580D4E9120100220023FDF7CC
:1031000085FC78B30123654A31462846B84701302B
:10311000E5D00E9B0D9A9A420BDB2368D80708D4A2
:1031200023689B0740F111814FF0000804F1190951
:1031300006E10A9B099A31462846B8470130CED0AD
:103140004FF0000804F11A090E9B013B9845E7DA9D
:1031500001234A4631462846B8470130BFD008F11E
:103160000108F1E70D9B002B29DC01234B4A314676
:103170002846B8470130B2D00D9B23B90E9B13B936
:103180002368D907CCD50A9B099A31462846B84707
:103190000130A4D04FF0000904F11A0A0D9B5B42E4
:1031A000994509DA0123524631462846B84701308D
:1031B00095D009F10109F1E70E9B4246A7E00E9A6E
:1031C000A36D9A42A8BF1A46002A914606DC4FF02A
:1031D000000A29EAE97904F11A0B11E01346314695
:1031E00042462846B8470130F1D178E701235A46D4
:1031F00031462846B84701303FF471AF0AF1010A61
:10320000A36DC9EB03029245F0DB08EB03090D9AAD
:103210000E9B9A420FDB2368DA070CD40E9B0D9AA3
:103220009844C9EB08089B1A9845A8BF9846B8F17E
:10323000000F08DC0FE00A9B099A31462846B84780
:103240000130EBD14BE743464A4631462846B84762
:1032500001303FF444AF4FF0000928EAE87804F168
:103260001A0A09E00123524631462846B847013080
:103270003FF435AF09F101090D9A0E9B9B1AC8EB7B
:1032800003039945EEDB4BE7FFFFEF7F1465000872
:10329000186500081C650008206500082465000802
:1032A0000E9A012A01DCDB0738D50123424631465C
:1032B0002846B84701303FF412AF0A9B099A3146BD
:1032C0002846B84701303FF40AAFD4E91201002282
:1032D0000023FDF79BFB20B14FF0000804F11A0911
:1032E0000EE00E9B08F10102013B19E001234A4662
:1032F00031462846B84701303FF4F1AE08F10108E5
:103300000E9B013B9845F1DB534604F150023146D8
:103310002846B84701307FF403AFE0E64246012378
:1033200031462846B8470130EED1D8E601234A4657
:1033300031462846B84701303FF4D1AE08F10108C4
:10334000E3680F9A9B1A9845F0DBE0680F9B984260
:10335000B8BF18465DE062680EA8531C0DF1340E2C
:103360004BF480637FF474AE062201E012B90122AF
:10337000626075E6002106910DF133018DE80C00C5
:10338000236005904246CDF81090CDF80CE00291F4
:1033900053462846FFF76AFD80460D9BD81C02DB8A
:1033A000626893421DDDA9F102095FFA89F970E6AE
:1033B0000133236184E6B9F1660F14D100296368F3
:1033C00007DD216113B92268D2071DD501330B44F3
:1033D00019E013B92268D00701D5023313E00123A5
:1033E00011E04FF067090D9B0E9A934205DB2268AE
:1033F0002361D10708D5013305E0002BD4BFC3F109
:1034000002030123134423610D9B4FF0000AA365BF
:1034100056E611B0BDE8F08F2DE9F04791461F4602
:103420000A698B6806469342B8BF1346C9F8003054
:1034300091F843200C46DDF8208012B10133C9F821
:1034400000302368990642BFD9F800300233C9F82A
:103450000030256815F0060510D104F1190A07E0BF
:103460000123524639463046C04701301AD0013553
:10347000E368D9F800209B1A9D42F1DB94F84330B1
:103480002268003318BF012392060FD5E1183020BF
:1034900081F843005A1C94F845102244023382F804
:1034A000431003E04FF0FF30BDE8F08704F1430222
:1034B00039463046C0470130F4D02268D9F8005070
:1034C000E36802F00602042A08BF5D1B2269A368B4
:1034D0000CBF25EAE57500259342C4BF9B1AED1881
:1034E0004FF000091A344D4509D0012322463946D0
:1034F0003046C0470130D5D009F10109F3E700207B
:10350000BDE8F0872DE9F04317460A7E85B06E2AA4
:10351000984606460C460C9B01F1430E00F0AE8027
:1035200011D8632A22D009D8002A00F0BB80582A7B
:1035300040F0CA8081F84520834955E0642A1ED0B6
:10354000692A1CD0C0E0732A00F0B08009D86F2A25
:103550002ED0702A40F0B8800A6842F020020A603B
:103560003EE0752A24D0782A3AD0ADE01A6801F1FD
:103570004205111D1960136884F84230A8E02168E3
:103580001A6811F0800F02D0111D196008E011F0C7
:10359000400F02F10401196002D0B2F9003000E0DE
:1035A0001368002B3CDA2D225B4284F8432037E07D
:1035B00021681A6811F0800F02D0111D196007E010
:1035C00011F0400F02F10401196001D0138800E0EE
:1035D0001368227E5C496F2A14BF0A2208221BE06E
:1035E00078225A4984F845202268186812F0800F22
:1035F00000F104051D6003D1550601D5038800E0E4
:103600000368D00744BF42F0200222601BB9226841
:1036100022F0200222601022002084F8430001E002
:1036200049490A226568002DA56008DB206820F062
:10363000040020602BB9002D7DD175460CE0002BD5
:1036400079D07546B3FBF2F002FB1033CB5C05F882
:10365000013D03460028F5D1082A0BD12368DA077B
:1036600008D5236962689A42DEBF302305F8013C21
:1036700005F1FF35C5EB0E0323612EE008681A68DB
:1036800010F0800F496903D0101D1860136808E01E
:1036900010F0400F02F104001860136801D0198087
:1036A00000E0196000232361754616E01A68111DB9
:1036B0001960156800216268284601F045FA08B1D2
:1036C000401B6060636804E004F1420584F8422016
:1036D00001232361002384F84330CDF800803B466A
:1036E00003AA21463046FFF797FE013002D14FF082
:1036F000FF3026E023692A4639463046C04701306C
:10370000F5D023689B0710D5002504F1190907E0BF
:1037100001234A4639463046C0470130E7D00135DB
:10372000E368039A9B1A9D42F2DBE068039B984290
:10373000B8BF184605E00B7804F1420584F8423022
:103740008AE705B0BDE8F083266500083765000804
:103750000FB40A4B13B51C6824B1A36913B92046F2
:1037600001F0F2F805AB049AA1682046019301F03C
:10377000B9FD02B0BDE8104004B070477C000020E5
:1037800070B50E46054618B183690BB901F0DCF837
:10379000AB69AC6813B9284601F0D6F8224B9C42BD
:1037A00001D16C6808E0214B9C4201D1AC6803E078
:1037B0001F4B9C4208BFEC68A3891B0701D52369F6
:1037C0003BB92146284600F03BF910B14FF0FF30DD
:1037D00070BD013EA36816F8011F013BA36091B1C3
:1037E000002B04DAA269934206DB0A2904D023687D
:1037F0005A1C22601970EDE72246284600F0CCF8EA
:103800000130E7D1E2E7002B08DA22460A212846F8
:1038100000F0C2F80130D9D00A2070BD23680A2018
:103820005A1C2260187070BD586500087865000841
:1038300098650008024B01461868FFF7A1BF00BF5A
:103840007C0000202DE9F7431D464F4B04461E68BF
:103850000F46904626B1B36913B9304601F074F8AB
:103860004A4B9C4201D1746808E0494B9C4201D10B
:10387000B46803E0474B9C4208BFF468B8F1020FFC
:1038800004D0B8F1010F79D8002D77DB21463046FE
:1038900000F0F0FF616B41B104F14403994202D0A2
:1038A000304601F04DFC002363630023A361636095
:1038B000A3891B0603D52169304601F041FCA38989
:1038C000B8F1020F23F44A6323F00303A3811ED04F
:1038D00001AB6A462146304601F0CEF8A389184371
:1038E000A0810DB9009D00E02FBB284601F024F90E
:1038F0000746D0B9DDF80090A94502D14FF0FF305E
:1039000006E0484601F018F9074678B9F6E70020C6
:10391000A38943F00203A3810023A36004F14703BA
:1039200023602361012363612AE0A9464D46A389F0
:1039300043F08003A381B36913B9304601F004F862
:10394000B8F1010F08BFA389276004BF43F001034A
:10395000A381A389276103F0080080B2656158B193
:1039600013F001034FF000001DBF6D42A060A56180
:10397000A56008BF184603E0A06001E04FF0FF30EB
:1039800003B0BDE8F08300BF7C000020586500084C
:103990007865000898650008F8B50F461446054696
:1039A00018B183690BB900F0CFFF224B9C4201D1C3
:1039B0006C6808E0204B9C4201D1AC6803E01F4BCF
:1039C0009C4208BFEC68A369A360A3891A0709D5C4
:1039D00023693BB123682069FEB2181A63699842D3
:1039E0000FDB08E02146284600F02AF80028F1D035
:1039F0004FF0FF361BE02146284600F03BFF002831
:103A0000F6D1A3680130013BA36023685A1C2260F1
:103A10001F706369984204D0A389DB0707D50A2E7B
:103A200005D12146284600F025FF0028E0D1304688
:103A3000F8BD00BF58650008786500089865000863
:103A4000324B70B51D6806460C4625B1AB6913B9FB
:103A5000284600F079FF2E4B9C4201D16C6808E0AB
:103A60002C4B9C4201D1AC6803E02B4B9C4208BF1D
:103A7000EC68B4F90C309AB215071DD4D00602D404
:103A8000092232603AE0510712D5616B41B104F16D
:103A90004403994202D0304601F052FB0023636395
:103AA000A38923F02403A381002363602369236097
:103AB000A38943F00803A38123694BB9A38903F4C5
:103AC0002073B3F5007F03D02146304600F0F8FFA5
:103AD000A28912F0010305D00023A36063695B4251
:103AE000A36103E0920758BF6369A36023695BB9D0
:103AF000B4F90C3003F0800080B230B143F04003E1
:103B0000A3814FF0FF3070BD002070BD7C0000200D
:103B10005865000878650008986500082DE9F74F9A
:103B200003690C6980469C427FDC013C01F114076B
:103B30004FEA840E00F1140606EB0E0357F82450EA
:103B4000019356F824300135B3FBF5F507EB0E0968
:103B5000C5B34FF0000A3846B446D34650F8043B8C
:103B60009AB205FB02A21B0C4FEA124A05FB03A303
:103B700092B2C2EB0B0BBCF800204FEA134A5A4436
:103B80001FFA83FBDCF800308145CBEB134303EBDA
:103B9000224392B242EA03424FEA234B4CF8042BF1
:103BA000DCD256F80E306BB9019B043B9E421A469C
:103BB00002D3C8F8104005E01268043B002AF8D18F
:103BC000013CF3E7404601F0E4F900282BDB3046E6
:103BD00001354FF0000E57F8042B036891B2C1EB8A
:103BE0000E0E120C99B27144C2EB134303EB214346
:103BF00089B24FEA234EB94541EA034340F8043BFA
:103C0000E9D256F8242006EB840362B9043B9E42B5
:103C10001A4602D3C8F8104005E01268043B002A97
:103C2000F8D1013CF3E7284600E0002003B0BDE8EE
:103C3000F08F0000000000002DE9F04F456A95B0BC
:103C40008246219CCDE9022345B9102000F074FF83
:103C5000CAF82400456085600560C560DAF8243044
:103C6000196859B15A68012393404A608B605046E5
:103C700000F0B8FFDAF8243000221A60039BA04A53
:103C8000002BBDBF01232360039B0023BCBF23F097
:103C900000430393DDF80C80A8BF236028F00043A5
:103CA0001B0D1B0593421DD142F20F73209A136026
:103CB000029B43B9934A944BC8F31300002814BFE6
:103CC0001846104600E09048229B002B00F04685E5
:103CD000C37813B100F1080300E0C31C229A1360FB
:103CE00000F03CBDDDE902450022002320462946C4
:103CF000FCF78CFE074658B1209A01231360229BE3
:103D0000002B00F01E8581481860013800F026BDA8
:103D100012AB019313AB009322462B46504601F0A1
:103D2000B3F9C8F30A56049056B1C5F3130343F030
:103D30007F51204641F44011A6F2FF3611971DE055
:103D4000139B129E1E4406F23243202B0ADD029A78
:103D500006F21240C3F1400322FA00F008FA03F31E
:103D6000184304E0C3F12000029B03FA00F0FCF7C3
:103D70003FFB0123A1F1F871013E11930022644B36
:103D8000FCF7F8F958A3D3E90023FCF7A7FB58A3E5
:103D9000D3E90023FCF7F0F9044630460D46FCF762
:103DA00037FB55A3D3E90023FCF798FB02460B46EB
:103DB00020462946FCF7E0F904460D46FCF7A0FD35
:103DC00000228346002320462946FCF729FE58B1ED
:103DD0005846FCF71DFB02460B4620462946FCF7D9
:103DE00015FE08B90BF1FF3BBBF1160F0DD8DDE94D
:103DF0000223484901EBCB01D1E90001FCF72EFE7B
:103E000030B10BF1FF3B002300E00123109300E0F1
:103E10001090129B9E1B731E079343BFC3F10008B3
:103E2000002307934FF00008BBF1000F06DB079B50
:103E3000CDF82CB05B440793002705E00023CBEBC3
:103E40000808CBF100070B931E9B092B28D8052BE4
:103E5000C4BF043B1E931E9BC8BF0025A3F10203F1
:103E6000D8BF0125032B20D8DFE803F0060E02049B
:103E7000012302E0012308E000230A931F9B002B8B
:103E80001DDD9946059321E000230A931F9B0BEB50
:103E9000030909F10103012B0593B8BF012315E0C4
:103EA000012500231E930A9501E001230A934FF098
:103EB000FF390022CDF8149012231F9206E04FF034
:103EC00001094B46CDF81490CDF87C90DAF82440E7
:103ED00000226260042101F114029A421CD8626837
:103EE000490001326260F6E761436F63A787D23F02
:103EF000B3C8608B288AC63FFB799F501344D33FD9
:103F00000000F07F4865000851650008256500083D
:103F10000000F83FB86500086168504600F02DFECB
:103F2000DAF8243020601B680693059B0E2B00F204
:103F30005B81002D00F05881DDE90234BBF1000FF8
:103F4000CDE90E3430DD9F4A0BF00F034FEA2B15FD
:103F500002EBC303E80618CBCDE908340CD5DDE944
:103F60000E01994B05F00F05D3E90823FCF7E0FBA0
:103F70000324CDE9020100E00224934E6DB1E9076C
:103F800008D5DDE90801D6E90023FCF7A7FACDE959
:103F9000080101346D100836F0E7DDE90823DDE99A
:103FA0000201FCF7C5FB20E0CBF1000505B3DDE91C
:103FB0000E01844B05F00F0203EBC203D3E900238B
:103FC000FCF78CFACDE902017F4E2D11002302246B
:103FD00055B1EA0705D5D6E90023FCF77FFA01348D
:103FE00001236D100836F3E71BB1CDE9020100E0B3
:103FF0000224109BE3B1DDE902560022734B2846F0
:104000003146FCF70DFD98B1059B8BB1B9F1000F5E
:1040100040F3E6800BF1FF330893314600226C4BEE
:104020002846FCF75BFA0134CDE902014E4602E076
:10403000059ECDF820B02046FCF7EAF9DDE9022321
:10404000FCF74CFA634B0022FCF796F8A1F1507391
:1040500004460C931D46D6B9DDE9020100225E4BF1
:10406000FCF788F822460C9BCDE90201FCF7F6FC30
:10407000002840F03F820C99224601F10043DDE91F
:104080000201FCF7CDFC002840F02B82A8E00A9A40
:104090004C4B711E002A49D003EBC103D3E9002326
:1040A00000204E49FCF744FB22462B46FCF762F801
:1040B000CDE90C01069CDDE90201FCF721FC054677
:1040C000FCF7A6F902460B46DDE90201FCF752F8BF
:1040D000DDE90C23303504F8015BCDE90201FCF782
:1040E0009FFC002840F01D83DDE9022300203749B2
:1040F000FCF740F8DDE90C23FCF792FC002840F0C7
:10410000D180069BE31AB3426ADADDE90C01002292
:104110002F4BFCF7E3F90022CDE90C01DDE90201A8
:104120002B4BFCF7DBF9CDE90201C4E703EBC1013E
:104130002246D1E900012B46FCF7D0F9069BCDE9D8
:104140000C011D469C19DDE90201FCF7D9FB06466E
:10415000FCF75EF902460B46DDE90201FCF70AF8BE
:10416000303605F8016BAC42CDE902014FF0000298
:1041700022D11A4BDDE90C01FBF7FEFF02460B468C
:10418000DDE90201FCF76AFC002840F08B80DDE9E4
:104190000C2300201149FBF7EDFF02460B46DDE939
:1041A0000201FCF73DFCD8B114F8013C621E302B33
:1041B00040F0B7821446F7E7054BFCF78FF9CDE9DD
:1041C0000201C0E7B8650008806600080000F03F03
:1041D0000000244000001C40000014400000E03FAC
:1041E000DDE90E34CDE90234139B002B7CDBBBF1FF
:1041F0000E0F79DCAB4B03EBCB03D3E900671F9BBE
:10420000002B14DA059B002B11DC40F06C8100229E
:10421000A54B30463946FCF761F9DDE90223FCF78E
:1042200013FC059D2E46002840F05F8165E1069C49
:10423000DDE9028932463B4640464946FCF778FABA
:10424000FCF75EFB0546FCF7E3F832463B46FCF71D
:1042500045F90B46024649464046FBF78BFF05F100
:10426000300E069B04F801EBC3EB040E059B73456F
:104270002DD102460B46FBF77FFF8046894602465A
:104280000B4630463946FCF7CBFB78B942464B46E5
:1042900030463946FCF7BAFB002800F04482EB07B1
:1042A00004D440E2DDF820B000E01C4614F8012CF4
:1042B000631E392A07D1069A9A42F6D1069930220E
:1042C0000BF1010B0A701A7801321A702BE20022EE
:1042D000764BFCF703F90022002380468946FCF761
:1042E00095FB0028A6D01EE20A9A002A2BD01E9A1F
:1042F000012A0ADC119A12B103F2334302E0129B45
:10430000C3F136033D46444613E0059B5D1EAF42B4
:10431000BFBF0B9BEA1B9B180B93059BB6BF2F4699
:104320007D1B0025002BA7BF4446059BC3EB08045B
:104330000023079A01211A4450469844079200F03E
:10434000F0FC064602E03D4644460A9E5CB1079BEF
:10435000002B08DDA342A8BF2346079AC3EB080839
:10436000E41AD31A0793002F1DDD0A9BABB18DB160
:1043700031462A46504600F06DFD049A0146064635
:10438000504600F0D7FC04990890504600F02AFCF3
:10439000089B04937A1B06D000E03A4604995046E5
:1043A00000F058FD04900121504600F0BAFC0B9B30
:1043B00005465BB31A460146504600F04BFD1E9B76
:1043C0000546012B18DC029B83B9039BC3F313033F
:1043D00073B9039B23F000473F0D3F054FB1079B87
:1043E00008F1010801330793012702E0002700E0EC
:1043F000029F0B9B73B100E000272B6905EB830341
:10440000186900F041FCC0F1200004E01E9B012B64
:10441000D9DD0B9F0120079B184410F01F0008D026
:10442000C0F12003042B02DDC0F11C0002E006D025
:1044300018461C30079B8044034404440793B8F19A
:10444000000F05DD42460499504600F051FD0490EE
:10445000079B002B05DD29461A46504600F048FD13
:104460000546109B23B32946049800F092FD0028CE
:104470001EDA00230A220499504600F0CAFB0A9B68
:104480000BF1FF3B0490002B00F05F8131460023CD
:104490000A22504600F0BDFBB9F1000F06463FDC92
:1044A0003BE000BFB8650008000014400000244055
:1044B000059B002B2BDC1E9B022B28DDDDF81490C6
:1044C000B9F1000F11D129464B460522504600F0A4
:1044D000A0FB01460546049800F05BFD00280CDCBB
:1044E00003E0354600E000252E461F9B069C6FEA40
:1044F000030B09E03546DDF820B0069B069A5C1CEC
:10450000312313700BF1010B05960026F7E00A9B8F
:10451000DDF8149023B9069CB2E01E9B022BCFDC81
:10452000002C05DD31462246504600F0E1FC0646EF
:104530009FB17168504600F020FB0446326906F1D5
:104540000C01023292000C3000F00CFB01222146DB
:10455000504600F0CDFC059000E00596029B069FBA
:1045600003F00103079329460498FFF7D7FA314671
:10457000044600F13008049800F00BFD059A029003
:104580002946504600F021FDC36802463BB901466A
:104590000A90049800F0FDFC0A9A034600E001230B
:1045A000114650460A9300F01DFB0A9B53B91E9A10
:1045B00042B9079A32B9B8F1390F2AD0029B002BC1
:1045C0001CDC1DE0029A002A04DB1BD11E9ACAB92A
:1045D000079ABAB9002B13DD01220499504600F066
:1045E00087FC2946049000F0D4FC002803DC07D1A6
:1045F00018F0010F04D0B8F1390F0AD004F13108D6
:104600007C1C0CE0002B07F101040BDDB8F1390F25
:1046100003D139233B70013756E008F1010887F8D0
:1046200000806CE0069B2746E31A4B4504F8018C9A
:104630003BD000230A220499504600F0EAFA059B79
:1046400004909E424FF00A024FF00003314650465C
:1046500004D100F0DEFA0646059084E700F0D9FAAE
:10466000002306460A220599504600F0D2FA05902A
:1046700079E700230A220499504600F0CAFA049010
:1046800029460498FFF74AFA069B00F1300804F81F
:10469000018BE31A4B45ECDB069B0596B9F1010F44
:1046A000ACBF4B4401331F460026012204995046FB
:1046B00000F01EFC2946049000F06BFC002803DC8F
:1046C00015D118F0010F12D03C4614F8013C621EBF
:1046D000392B09D1069B934204D10BF1010B3123F5
:1046E000069A02E01446F0E70133137007E03C46F7
:1046F00014F8013C621E302B01D11446F8E729461C
:10470000504600F06FFA059B6BB12EB19E4203D06C
:104710003146504600F066FA0599504600F062FABC
:1047200001E0DDF820B00499504600F05BFA002368
:10473000209A23700BF101031360229B1BB11C60B4
:1047400001E008480AE0069808E0B9F1000F3FF7D9
:10475000E2AE1E9B022B7FF7DEAEB1E615B0BDE8E0
:10476000F08F00BF246500088A892DE9F0410546D5
:1047700010070C4659D44B68002B02DC0B6C002B45
:1047800017DDE66AAEB102F48052002392B22F68C0
:104790002B600AB1606D15E0216A01232846B047FD
:1047A000411C0FD12B686BB11D2B01D0162B03D1EF
:1047B0002F600020BDE8F081A38943F04003A3816E
:1047C000BDE8F081A3895A0705D56368C01A636BF9
:1047D0000BB1236CC01A00230246E66A216A284600
:1047E000B047431CA38906D129681D2939D8204A1E
:1047F000CA40D60735D5002262602269D9042260FA
:1048000004D5421C01D12B6803B96065616B2F6030
:104810000029CED004F14403994202D0284600F08A
:104820008FFC00206063BDE8F0810F69002FC0D0CD
:1048300093070E680CBF4B690023C7EB06080F6097
:104840008B6002E00744C0EB0808B8F1000FB0DD50
:1048500043463A46216A2846A66AB0470028F1DC5A
:10486000A38943F04003A3814FF0FF30BDE8F081FE
:104870000100402038B50B6905460C46DBB118B184
:1048800083690BB900F060F80C4B9C4201D16C6855
:1048900008E00B4B9C4201D1AC6803E0094B9C4201
:1048A00008BFEC68B4F90C302BB121462846BDE8AE
:1048B0003840FFF759BF002038BD00BF58650008D9
:1048C0007865000898650008014900F0A9B800BFA4
:1048D0007548000810B504460023036043608360F8
:1048E00081814366C2810361436183611946082265
:1048F0005C30FEF7B3FA054B24626362044BA3629B
:10490000044BE362044B236310BD00BF3D55000818
:104910005F55000897550008BB55000870B568231F
:104920004D1E5D430E4605F1740100F055FC044632
:1049300040B1002180E842000C30A06005F168021F
:10494000FEF78CFA204670BD836910B5044633BB70
:104950008364C3640365124B124A1B6882629842E7
:1049600004BF0123836100F01FF86060204600F05F
:104970001BF8A060204600F017F80022E060042138
:104980006068FFF7A7FF01220921A068FFF7A2FFD7
:1049900002221221E068FFF79DFF0123A36110BDF1
:1049A00010650008C9480008F8B51C4B07461E688A
:1049B000B36913B93046FFF7C7FF4836B468736868
:1049C000013B04D4B4F90C507DB16834F8E7336886
:1049D0000BB13668F2E704213846FFF79FFF3060DD
:1049E0000028F6D10C233B60F8BD4FF6FF73E3813E
:1049F0000123A38165662560A56065602561656109
:104A0000A5610822294604F15C00FEF727FA6563D8
:104A1000A563A564E5642046F8BD00BF10650008E5
:104A20002DE9F8438046894600F14804002694B1F8
:104A3000A5686768013F0CD4AB89012B07D9B5F98C
:104A40000E30013303D029464046C8470643683537
:104A5000F0E72468EBE73046BDE8F883044B1B68B9
:104A6000186A044B002808BF1846F030704700BF92
:104A70007C0000208000002070B50E46B1F90E10B9
:104A800090B0002914461D4606DA00232B60B38936
:104A90001A060ED540230EE001AA00F0B5FD00284D
:104AA000F3DB029A02F47042A2F500535A425A41D3
:104AB0002A604FF480630020236010B070BD0000B6
:104AC0008B8973B59E0705460C4610D401AB6A4628
:104AD000FFF7D2FF00990646284600F07DFB68B933
:104AE000B4F90C309A0522D443F00203A38104F1F7
:104AF0004703236023610123636118E00D4BAB6220
:104B0000A389206043F08003A381009B206163613F
:104B1000019B4BB1B4F90E10284600F087FD18B187
:104B2000A38943F00103A381A0893043A08102B08F
:104B300070BD00BFC9480008024B0146186800F06C
:104B40004BBB00BF7C00002010B5C9B202449042AC
:104B5000034605D01C7801308C42F8D1184610BDB0
:104B6000002010BD10B5431E0A44914204D011F834
:104B7000014B03F8014FF8E710BD70B5456A0446D4
:104B80000E463DB91020FFF7D7FF60624560856093
:104B90000560C560656AEB6843B1636ADB6853F81A
:104BA000260078B1026843F8262017E0212204216C
:104BB000204600F0B7FA636AE860DB68002BECD1AE
:104BC000002070BD012101FA06F56A1D9200204601
:104BD00000F0A8FA0028F3D0466085600023036146
:104BE000C36070BD70B5446A06460D463CB91020DE
:104BF000FFF7A2FF7062446084600460C4603DB14E
:104C0000736A6A68DB6853F82210296043F82250FF
:104C100070BD2DE9F04106460C460D691F4601F1B5
:104C2000140E0023DEF80000013381B202FB017193
:104C3000000C0F0C02FB007089B201EB00419D4299
:104C40004FEA10474EF8041BECDCD7B1A3689D4235
:104C500012DB616830460131FFF78FFF8046226921
:104C600004F10C01023292000C30FFF77BFF214669
:104C70003046FFF7B7FF444604EB850301355F611B
:104C800025612046BDE8F081030C1B0413B9000424
:104C9000102300E0002310F07F4F04BF0002083310
:104CA00010F0704F04BF0001043310F0404F04BFF8
:104CB00080000233002803DB420003D5581C7047F4
:104CC0001846704720207047036813F007020BD086
:104CD000D90722D49A074BBF5B089B080360036087
:104CE0004CBF01200220704799B209B91B0C102259
:104CF00013F0FF0F04BF1B0A0832190704BF1B097A
:104D00000432990704BF9B080232D90702D45B081A
:104D100005D0013203601046704700207047202004
:104D2000704710B50C460121FFF727FF01224461AF
:104D3000026110BD2DE9F74F14460A6923698846C0
:104D40009A42BEBF0B46A0461C46D8F81070D4F855
:104D50001090D8F80830D8F8041007EB09069E42E6
:104D6000C8BF0131FFF709FF00F114052B4605EB21
:104D7000860C0022634502D243F8042BFAE704F1C3
:104D8000140208F1140102EB890301EB8707009379
:104D9000009B0192934257D9B2F800B0BBF1000FCB
:104DA00023D08946AE464FF0000859F8044BBEF8B0
:104DB00000A0A3B20BFB03A34FEA144ADEF80040A5
:104DC00043444FEA14480BFB0A84F24604EB1344B5
:104DD0009BB243EA04434F454FEA14484AF8043B68
:104DE00001D9D646E1E7CEF80480019B0432B3F83E
:104DF00002A0BAF1000F21D02C4689462B684FF053
:104E00000008B9F800E0B4F802B09BB20AFB0EBE8D
:104E1000A346F04443EA08434BF8043B59F8043BEB
:104E2000B4F804E01B0C0AFB03E34F4503EB184303
:104E30004FEA134801D95C46E3E763600435A7E70E
:104E40005CF8043D13B9013E002EF9DC066103B0A5
:104E5000BDE8F08F2DE9F843154612F0030206462F
:104E60000F4607D0214C013A002354F82220FFF7C7
:104E7000D0FE0746AD1036D0746A3CB91020FFF75B
:104E80005BFE7062446084600460C460D6F8248075
:104E9000D8F808404CB940F271213046FFF741FF85
:104EA00004460023C8F8080003604FF00008EB0731
:104EB0000AD5394622463046FFF73CFF814639463F
:104EC0003046FFF78FFE4F466D100CD0206808B1BA
:104ED0000446ECE7224621463046FFF72BFF2060D0
:104EE000C0F80080F4E73846BDE8F883A8660008FB
:104EF0002DE9F0470C460746914626694FEA621AAB
:104F000056444968A368751CAB4202DA01315B0064
:104F1000FAE73846FFF731FE002380461A4600F1D3
:104F20001401534503DA41F823200133F9E72AEA53
:104F3000EA73206901EB830319F01F0904F11401DE
:104F400001EB800E14D0C9F1200C002208689A46AB
:104F500000FA09F0024343F8042B51F8042B8E4564
:104F600022FA0CF2F2D8CAF8042042B1B51C06E0CD
:104F7000043B51F8042B8E4543F8042FF9D8013D2A
:104F80003846C8F810502146FFF72CFE4046BDE8D1
:104F9000F08703690A6910B59B1A11D19200143089
:104FA000143183180A4453F8044D52F8041D8C42FE
:104FB00002D007D3012010BD9842F4D3002010BDC9
:104FC000184610BD4FF0FF3010BD2DE9F8430C46D8
:104FD0000746114620461546FFF7DBFF061E08D19F
:104FE00031463846FFF7C9FD012303614661BDE83C
:104FF000F883BCBF23462C4638466168BABF1D46BD
:1050000001260026FFF7B9FD2B69C660266905F168
:10501000140904F1140101EB860709EB830800F180
:1050200014054FF0000C51F8042B59F8044B93B2BF
:105030009C44A3B2240CC3EB0C03C4EB124202EB5E
:1050400023429BB24FEA224CC84543EA02428E46B5
:1050500045F8042BE7D8BE450ED25EF8041B8AB291
:105060006244131403EB114392B242EA03424FEA43
:10507000234C45F8042BEEE755F8043D0BB9013EEF
:10508000FAE70661BDE8F8832DE9F3411C460121EA
:105090009046089E099DFFF770FDC4F31302C4F308
:1050A0000A5407460CB142F480120192B8F1000F85
:1050B00019D002A840F8088DFFF706FE009B48B102
:1050C000019AC0F1200102FA01F10B43C2407B6159
:1050D000019200E07B61019B002B14BF02210121A2
:1050E000BB61396107E001A8FFF7EEFD019B0121DB
:1050F0007B613961203034B1A4F23344044434601C
:10510000C0F1350009E0A0F2324007EB81033060C6
:105110001869FFF7B9FDC0EB41102860384602B0AE
:10512000BDE8F08138B502FB01F4214600F054F8E7
:10513000054618B122460021FDF790FE284638BDED
:1051400038B50546002944D051F8043C0C1F002B0B
:10515000B8BFE41800F09EFA1E4A1368114613B94E
:105160006360146030E0A3420DD92268A018834226
:1051700001BF18685B681218226063600C6023E04E
:10518000A24203D813465A68002AF9D118681918A0
:10519000A1420BD12168014458188242196013D1F1
:1051A00010685268014419605A600DE002D90C235E
:1051B0002B6009E021686018824201BF10685268C4
:1051C0000918216062605C602846BDE8384000F044
:1051D00062BA38BD0003002070B5CD1C25F0030570
:1051E00008350C2D38BF0C25002D064601DBA942E1
:1051F00002D90C23336046E000F04CFA234B1C68C4
:105200001A462146A1B10B685B1B0ED40B2B03D9A8
:105210000B60CC18CD501EE08C420BBF63684B680E
:105220001360636018BF0C4615E00C464968E9E757
:10523000174C23681BB9304600F070F920602946EE
:10524000304600F06BF9431C18D0C41C24F0030452
:10525000A0420DD12560304600F01DFA04F10B008C
:10526000231D20F00700C31A0ED05A42E25070BD31
:10527000211A304600F052F90130EBD10C23336093
:10528000304600F008FA002070BD00BF0003002087
:10529000FC020020936810B4013B002B936008DAF5
:1052A0009469A34202DBCBB20A2B02D110BCFEF7F9
:1052B00073BB1368581C10601970C8B210BC7047DB
:1052C000F8B506460F461446D518AC4208D03A4603
:1052D00014F8011B3046FFF7DDFF431CF5D100E059
:1052E0000020F8BD2DE9F04F9DB00C461746039302
:1052F000064618B183690BB9FFF726FB7F4B9C422A
:1053000001D1746808E07E4B9C4201D1B46803E08F
:105310007C4B9C4208BFF468A38918070CD523690D
:1053200053B10023099320238DF8293030238DF8C1
:105330002A30DFF8D4B144E021463046FEF780FB46
:105340000028EED04FF0FF30D5E0039A111D12680F
:105350000391002A80F28C80524243F002000792AF
:10536000049098F800302E2B00F08480032298F8E7
:1053700000106548FFF7E8FB48B14023CBEB000085
:1053800003FA00F0049B08F101081843049098F810
:10539000001006225D4808F101078DF82810FFF77C
:1053A000D3FB002800F09580594B002B40F08880FB
:1053B000039B073323F0070308330393099B5344EC
:1053C0000993B846454615F8013B1BB9B8EB0709E8
:1053D0000FD003E0252BF9D0A846F3E74B463A4619
:1053E00021463046FFF76CFF01307FD0099B4B44CC
:1053F000099398F80030002B78D000234FF0FF324B
:1054000004930793059206938DF853301A9301275E
:10541000052229783F48FFF797FB05F10108049B17
:1054200038B13C4A4546801A07FA00F01843049008
:10543000EEE7D90644BF20228DF853201A0744BF57
:105440002B228DF853202A782A2A3FF47EAF079A20
:1054500000210A20A84698F800300135303B092B7E
:1054600003D800FB02320121F4E700293FF479AFB1
:10547000079276E798F801302A2B0BD1039B08F1AD
:1054800002081A1D1B680392002BB8BF4FF0FF33B0
:1054900005936BE700231946059308F101000A25DF
:1054A000804698F800200130303A092A03D805FBDD
:1054B00001210123F4E7002B3FF458AF059155E794
:1054C00003AB00932246144B04A93046FDF760FD60
:1054D00007E003AB009322460F4B04A93046FEF7CA
:1054E00011F8B0F1FF3F82467FF468AFA3895B06F5
:1054F0003FF528AF09981DB0BDE8F08F586500084A
:105500007865000898650008BA660008BE6600085D
:10551000912F0008B4660008C152000838B5064C47
:10552000002305460846236000F0DEF8431C02D144
:10553000236803B12B6038BD0803002010B50C466A
:10554000B1F90E1000F0A8F80028ABBF636DA38975
:105550001B1823F48053ACBF6365A38110BD2DE9F4
:10556000F0411F468B890546DB050C46164605D5DE
:1055700002230022B1F90E1000F068F8A389324628
:1055800023F48053A381B4F90E103B462846BDE8AE
:10559000F04100F017B810B50C46B1F90E1000F04C
:1055A00055F8431CA38915BF606523F4805343F469
:1055B0008053A38118BFA38110BDB1F90E1000F074
:1055C00013B8000038B5074C0546084611460022BE
:1055D00022601A46FDF77EFA431C02D1236803B10C
:1055E0002B6038BD0803002038B5064C0023054663
:1055F00008462360FDF794FA431C02D1236803B1E7
:105600002B6038BD0803002038B5074C0023054641
:1056100008461146236000F05FF8431C02D123685E
:1056200003B12B6038BD00BF0803002038B5064C1D
:105630000023054608462360FDF746FA431C02D1C5
:10564000236803B12B6038BD0803002038B5074C30
:10565000054608461146002222601A46FDF768FA00
:10566000431C02D1236803B12B6038BD080300201E
:1056700082B001B901A93AB143B113780B60127835
:10568000101C18BF012003E0104601E06FF001007C
:1056900002B070477047704738B5074C054608465A
:1056A0001146002222601A46FDF746FA431C02D139
:1056B000236803B12B6038BD0803002049B1FF2ADD
:1056C00085BF8A2303600A704FF0FF3098BF012026
:1056D0007047084670470000024B58221A604FF08E
:1056E000FF30704708030020044A05491368002B67
:1056F00008BF0B461844106018467047040300208A
:1057000010030020F8B500BFF8BC08BC9E467047E7
:0C571000F8B500BFF8BC08BC9E4670470E
:105720003A202027202020203A20202500000000B9
:105730003A202025202020203A2020480000000088
:105740003A202020202020203A0000002020202085
:10575000000000004448543131204552524F52213C
:10576000210000004448543131204552524F52210B
:10577000210D00004448543131204F4B21210D00B0
:105780004B45595F555000004B4559300000000013
:105790004B455931000000004B45593200000000D4
:1057A00000000000000000000000000000000000F9
:1057B000000000F80000000000000033300000008E
:1057C00000100C06100C0600000000000000000095
:1057D00040C07840C0784000043F04043F04040007
:1057E000007088FC08300000001820FF211E000017
:1057F000F008F000E018000000211C031E211E002C
:1058000000F00888700000001E21232419272110B1
:10581000000C12120C00000000000000000000004C
:10582000000000E0180402000000000718204000FB
:1058300000020418E00000000040201807000000EB
:10584000404080F0804040000202010F010202004F
:10585000000000F0000000000101011F0101010033
:10586000000000000000000080B070000000000098
:105870000000000000000000000101010101010121
:1058800000000000000000000030300000000000B8
:10589000000000008060180400601806010000008D
:1058A00000E010080810E000000F102020100F008A
:1058B000001010F8000000000020203F2020000011
:1058C0000070080808887000003028242221300069
:1058D00000300888884830000018202020110E0071
:1058E0000000C02010F8000000070424243F24001A
:1058F00000F80888880808000019212020110E00EF
:1059000000E0108888180000000F112020110E0000
:1059100000380808C83808000000003F00000000F8
:105920000070880808887000001C222121221C00B9
:1059300000E010080810E0000000312222110F00E2
:10594000000000C0C0000000000000303000000077
:1059500000000080000000000000806000000000E7
:105960000000804020100800000102040810200000
:10597000404040404040400004040404040404004B
:1059800000081020408000000020100804020100E0
:10599000007048080808F0000000003036010000E0
:1059A000C030C828E810E0000718272423140B0093
:1059B0000000C038E0000000203C2302022738200D
:1059C00008F8888888700000203F202020110E00F1
:1059D000C0300808080838000718202020100800E8
:1059E00008F808080810E000203F202020100F00D1
:1059F00008F88888E8081000203F2020232018009D
:105A000008F88888E8081000203F20000300000004
:105A1000C03008080838000007182020221E0200A5
:105A200008F808000008F808203F210101213F2064
:105A3000000808F8080800000020203F202000008F
:105A400000000808F8080800C08080807F0000007F
:105A500008F888C028180800203F200126382000B8
:105A600008F8080000000000203F2020202030001F
:105A700008F8F800F8F80800203F003F003F200039
:105A800008F830C00008F808203F200007183F0041
:105A9000E01008080810E0000F10202020100F0070
:105AA00008F808080808F000203F21010101000063
:105AB000E01008080810E0000F18242438504F00A8
:105AC00008F8888888887000203F2000030C302068
:105AD00000708808080838000038202121221C00A6
