:020000040800F2
:1000000000500020B1350008993900089D390008DA
:10001000A1390008A5390008A9390008000000002E
:10002000000000000000000000000000AD390008E2
:10003000B139000800000000B5390008B9390008DE
:10004000F9350008F9350008F9350008A11A00084B
:10005000F9350008F9350008D5130008F93500080E
:100060001D140008F9350008F9350008F9350008B5
:10007000F9350008F9350008F9350008F9350008A8
:10008000F9350008F9350008F9350008F935000898
:10009000F9350008F9350008F9350008351400086D
:1000A000F9350008F9350008F9350008F935000878
:1000B000051C0008D1210008F9350008F9350008B1
:1000C000F9350008F9350008F9350008F935000858
:1000D000F9350008F9350008F9350008F935000848
:1000E000F9350008F9350008F9350008000000006E
:1000F0000000000000000000000000000000000000
:0C01000000000000000000005FF808F1A3
:1001100010B5054C237833B9044B13B10448AFF341
:1001200000800123237010BDF001002000000000BA
:10013000CC630008084B10B51BB108490848AFF361
:1001400000800848036803B910BD074B002BFBD0A3
:10015000BDE81040184700BF00000000F401002077
:10016000CC630008F00100200000000081F0004195
:1001700002E000BF83F0004330B54FEA41044FEA8C
:10018000430594EA050F08BF90EA020F1FBF54EA27
:10019000000C55EA020C7FEA645C7FEA655C00F0C3
:1001A000E2804FEA5454D4EB5555B8BF6D420CDD94
:1001B0002C4480EA020281EA030382EA000083EA17
:1001C000010180EA020281EA0303362D88BF30BDB7
:1001D00011F0004F4FEA01314FF4801C4CEA11310D
:1001E00002D0404261EB410113F0004F4FEA03336C
:1001F0004CEA133302D0524263EB430394EA050FF7
:1002000000F0A780A4F10104D5F1200E0DDB02FA65
:100210000EFC22FA05F2801841F1000103FA0EF2F9
:10022000801843FA05F359410EE0A5F120050EF1BF
:10023000200E012A03FA0EFC28BF4CF0020C43FAF0
:1002400005F3C01851EBE37101F0004507D54FF0FD
:10025000000EDCF1000C7EEB00006EEB0101B1F54D
:10026000801F1BD3B1F5001F0CD349085FEA300093
:100270004FEA3C0C04F101044FEA445212F5800F9E
:1002800080F09A80BCF1004F08BF5FEA500C50F13B
:10029000000041EB045141EA050130BD5FEA4C0C1E
:1002A000404141EB010111F4801FA4F10104E9D1A7
:1002B00091F0000F04BF01460020B1FA81F308BF9E
:1002C0002033A3F10B03B3F120020CDA0C3208DD6A
:1002D00002F1140CC2F10C0201FA0CF021FA02F145
:1002E0000CE002F11402D8BFC2F1200C01FA02F1B5
:1002F00020FA0CFCDCBF41EA0C019040E41AA2BFDA
:1003000001EB0451294330BD6FEA04041F3C1CDAA1
:100310000C340EDC04F11404C4F1200220FA04F0C1
:1003200001FA02F340EA030021FA04F345EA03016B
:1003300030BDC4F10C04C4F1200220FA02F001FA2D
:1003400004F340EA0300294630BD21FA04F02946AF
:1003500030BD94F0000F83F4801306BF81F4801148
:100360000134013D4EE77FEA645C18BF7FEA655CBB
:1003700029D094EA050F08BF90EA020F05D054EA8D
:10038000000C04BF1946104630BD91EA030F1EBF92
:100390000021002030BD5FEA545C05D14000494196
:1003A00028BF41F0004130BD14F580043CBF01F589
:1003B000801130BD01F0004545F0FE4141F470016F
:1003C0004FF0000030BD7FEA645C1ABF194610464A
:1003D0007FEA655C1CBF0B46024650EA013406BF4B
:1003E00052EA033591EA030F41F4002130BD00BF0A
:1003F00090F0000F04BF0021704730B54FF48064C7
:1004000004F132044FF000054FF0000150E700BF47
:1004100090F0000F04BF0021704730B54FF48064A6
:1004200004F1320410F0004548BF40424FF0000193
:100430003EE700BF42004FEAE2014FEA31014FEAD6
:1004400002701FBF12F07F4393F07F4F81F0605125
:10045000704792F0000F14BF93F07F4F704730B594
:100460004FF4607401F0004521F0004120E700BF27
:1004700050EA010208BF704730B54FF000050AE0AE
:1004800050EA010208BF704730B511F0004502D5AF
:10049000404261EB41014FF4806404F132045FEAB1
:1004A000915C3FF4DCAE4FF003025FEADC0C18BF56
:1004B00003325FEADC0C18BF033202EBDC02C2F14C
:1004C000200300FA03FC20FA02F001FA03FE40EADE
:1004D0000E0021FA02F11444C1E600BF70B54FF0DE
:1004E000FF0C4CF4E06C1CEA11541DBF1CEA1355C0
:1004F00094EA0C0F95EA0C0F00F0DEF82C4481EA28
:10050000030621EA4C5123EA4C5350EA013518BF47
:1005100052EA033541F4801143F4801338D0A0FB34
:1005200002CE4FF00005E1FB02E506F00042E0FBE1
:1005300003E54FF00006E1FB03569CF0000F18BFE7
:100540004EF0010EA4F1FF04B6F5007F64F540748F
:1005500004D25FEA4E0E6D4146EB060642EAC62122
:1005600041EA55514FEAC52040EA5E504FEACE2E8F
:10057000B4F1FD0C88BFBCF5E06F1ED8BEF1004F92
:1005800008BF5FEA500E50F1000041EB045170BD0E
:1005900006F0004646EA010140EA020081EA030152
:1005A000B4EB5C04C2BFD4EB0C0541EA045170BD4E
:1005B00041F480114FF0000E013C00F3AB8014F1C8
:1005C000360FDEBF002001F0004170BDC4F1000411
:1005D000203C35DA0C341BDC04F11404C4F1200592
:1005E00000FA05F320FA04F001FA05F240EA0200ED
:1005F00001F0004221F0004110EBD37021FA04F623
:1006000042EB06015EEA430E08BF20EAD37070BDDC
:10061000C4F10C04C4F1200500FA04F320FA05F03B
:1006200001FA04F240EA020001F0004110EBD3703D
:1006300041F100015EEA430E08BF20EAD37070BDAD
:10064000C4F1200500FA05F24EEA020E20FA04F386
:1006500001FA05F243EA020321FA04F001F0004135
:1006600021FA04F220EA020000EBD3705EEA430EA6
:1006700008BF20EAD37070BD94F0000F0FD101F0D5
:100680000046400041EB010111F4801F08BF013C0E
:10069000F7D041EA060195F0000F18BF704703F04C
:1006A0000046520043EB030313F4801F08BF013DD3
:1006B000F7D043EA0603704794EA0C0F0CEA13558F
:1006C00018BF95EA0C0F0CD050EA410618BF52EA49
:1006D0004306D1D181EA030101F000414FF000004F
:1006E00070BD50EA410606BF1046194652EA43065D
:1006F00019D094EA0C0F02D150EA013613D195EAD1
:100700000C0F05D152EA03361CBF104619460AD118
:1007100081EA030101F0004141F0FE4141F4700122
:100720004FF0000070BD41F0FE4141F4780170BD12
:1007300070B54FF0FF0C4CF4E06C1CEA11541DBF77
:100740001CEA135594EA0C0F95EA0C0F00F0A7F879
:10075000A4EB050481EA030E52EA03354FEA0131A6
:1007600000F088804FEA03334FF0805545EA1313B9
:1007700043EA12634FEA022245EA111545EA106581
:100780004FEA00260EF000419D4208BF964244F118
:10079000FD0404F5407402D25B084FEA3202B61A37
:1007A00065EB03055B084FEA32024FF480104FF40B
:1007B000002CB6EB020E75EB030E22BFB61A75467F
:1007C00040EA0C005B084FEA3202B6EB020E75EB12
:1007D000030E22BFB61A754640EA5C005B084FEA7A
:1007E0003202B6EB020E75EB030E22BFB61A754647
:1007F00040EA9C005B084FEA3202B6EB020E75EB52
:10080000030E22BFB61A754640EADC0055EA060E12
:1008100018D04FEA051545EA16754FEA06164FEA55
:10082000C30343EA52734FEAC2025FEA1C1CC0D101
:1008300011F4801F0BD141EA00014FF000004FF08E
:10084000004CB6E711F4801F04BF01430020B4F14F
:10085000FD0C88BFBCF5E06F3FF6AFAEB5EB030C07
:1008600004BFB6EB020C5FEA500C50F1000041EB04
:10087000045170BD0EF0004E4EEA113114EB5C04D1
:10088000C2BFD4EB0C0541EA045170BD41F48011A4
:100890004FF0000E013C90E645EA060E8DE60CEAAC
:1008A000135594EA0C0F08BF95EA0C0F3FF43BAFC9
:1008B00094EA0C0F0AD150EA01347FF434AF95EA80
:1008C0000C0F7FF425AF104619462CE795EA0C0F64
:1008D00006D152EA03353FF4FDAE1046194622E731
:1008E00050EA410618BF52EA43067FF4C5AE50EA0B
:1008F00041047FF40DAF52EA43057FF4EBAE12E7FB
:100900004FEA4102B2F1E04324BFB3F5001CDCF131
:10091000FE5C0DD901F0004C4FEAC0024CEA507069
:10092000B2F1004F40EB830008BF20F00100704798
:1009300011F0804F21D113F13872BCBF01F000409B
:10094000704741F480114FEA5252C2F11802C2F1CD
:10095000200C10FA0CF320FA02F018BF40F001004E
:100960004FEAC1234FEAD32303FA0CFC40EA0C0000
:1009700023FA02F34FEA4303CCE77FEA625307D13D
:1009800050EA01331EBF4FF0FE4040F44000704774
:1009900001F0004040F0FE4040F40000704700BF0E
:1009A00080F0004002E000BF81F0004142001FBF24
:1009B0005FEA410392EA030F7FEA226C7FEA236C2D
:1009C0006AD04FEA1262D2EB1363C1BFD218414022
:1009D00048404140B8BF5B42192B88BF704710F0B8
:1009E000004F40F4000020F07F4018BF404211F05B
:1009F000004F41F4000121F07F4118BF494292EAC3
:100A0000030F3FD0A2F1010241FA03FC10EB0C00EE
:100A1000C3F1200301FA03F100F0004302D549427B
:100A200060EB4000B0F5000F13D3B0F1807F06D328
:100A300040084FEA310102F10102FE2A51D2B1F120
:100A4000004F40EBC25008BF20F0010040EA030015
:100A50007047490040EB000010F4000FA2F10102C2
:100A6000EDD1B0FA80FCACF1080CB2EB0C0200FA4C
:100A70000CF0AABF00EBC25052421843BCBFD0409A
:100A80001843704792F0000F81F4000106BF80F414
:100A900000000132013BB5E74FEA41037FEA226CD7
:100AA00018BF7FEA236C21D092EA030F04D092F0A2
:100AB000000F08BF0846704790EA010F1CBF0020D6
:100AC000704712F07F4F04D1400028BF40F0004033
:100AD000704712F100723CBF00F50000704700F053
:100AE000004343F0FE4040F4000070477FEA22627A
:100AF00016BF08467FEA23630146420206BF5FEA4B
:100B0000412390EA010F40F4800070474FF000034A
:100B100004E000BF10F0004348BF40425FEA000C11
:100B200008BF704743F0964301464FF000001CE0B9
:100B300050EA010208BF70474FF000030AE000BF0F
:100B400050EA010208BF704711F0004302D540424D
:100B500061EB41015FEA010C02BF844601460020BF
:100B600043F0B64308BFA3F18053A3F50003BCFADA
:100B70008CF2083AA3EBC25310DB01FA02FC634487
:100B800000FA02FCC2F12002BCF1004F20FA02F28E
:100B900043EB020008BF20F00100704702F1200281
:100BA00001FA02FCC2F1200250EA4C0021FA02F2E2
:100BB00043EB020008BF20EADC7070474FF0FF0CE7
:100BC0001CEAD0521EBF1CEAD15392EA0C0F93EAE2
:100BD0000C0F6FD01A4480EA010C400218BF5FEA84
:100BE00041211ED04FF0006343EA501043EA5111F7
:100BF000A0FB01310CF00040B1F5000F3EBF4900F1
:100C000041EAD3715B0040EA010062F17F02FD2AF4
:100C10001DD8B3F1004F40EBC25008BF20F00100D7
:100C2000704790F0000F0CF0004C08BF49024CEAEE
:100C3000502040EA51207F3AC2BFD2F1FF0340EA80
:100C4000C250704740F400004FF00003013A5DDCF1
:100C500012F1190FDCBF00F000407047C2F1000232
:100C6000410021FA02F1C2F1200200FA02FC5FEA1F
:100C7000310040F1000053EA4C0308BF20EADC7069
:100C8000704792F0000F00F0004C02BF400010F4DB
:100C9000000F013AF9D040EA0C0093F0000F01F088
:100CA000004C02BF490011F4000F013BF9D041EAAA
:100CB0000C018FE70CEAD15392EA0C0F18BF93EAAC
:100CC0000C0F0AD030F0004C18BF31F0004CD8D1D6
:100CD00080EA010000F00040704790F0000F17BF5D
:100CE00090F0004F084691F0000F91F0004F14D0A3
:100CF00092EA0C0F01D142020FD193EA0C0F03D1FB
:100D00004B0218BF084608D180EA010000F00040FD
:100D100040F0FE4040F40000704740F0FE4040F4D8
:100D2000400070474FF0FF0C1CEAD0521EBF1CEA77
:100D3000D15392EA0C0F93EA0C0F69D0A2EB030295
:100D400080EA010C49024FEA402037D04FF080532F
:100D500043EA111143EA10130CF000408B4238BFF4
:100D60005B0042F17D024FF4000C8B4224BF5B1A02
:100D700040EA0C00B3EB510F24BFA3EB510340EA50
:100D80005C00B3EB910F24BFA3EB910340EA9C00FE
:100D9000B3EBD10F24BFA3EBD10340EADC001B016E
:100DA00018BF5FEA1C1CE0D1FD2A3FF650AF8B4212
:100DB00040EBC25008BF20F0010070470CF0004C1F
:100DC0004CEA50207F32C2BFD2F1FF0340EAC2504A
:100DD000704740F400004FF00003013A37E792F00B
:100DE000000F00F0004C02BF400010F4000F013A69
:100DF000F9D040EA0C0093F0000F01F0004C02BF64
:100E0000490011F4000F013BF9D041EA0C0195E7CC
:100E10000CEAD15392EA0C0F08D142027FF47DAF65
:100E200093EA0C0F7FF470AF084676E793EA0C0F55
:100E300004D14B023FF44CAF08466EE730F0004C53
:100E400018BF31F0004CCAD130F000427FF45CAFE3
:100E500031F000437FF43CAF5FE700BF42000ED2A9
:100E6000B2F1FE4F0BD34FF09E03B3EB126209D4E5
:100E70004FEA002343F0004323FA02F070474FF09B
:100E80000000704712F1610F01D1420202D14FF010
:100E9000FF3070474FF00000704700BF034613F863
:100EA000012B002AFBD1181A013870474FF0FF3C84
:100EB00006E000BF4FF0010C02E000BF4FF0010C54
:100EC0004DF804CD4FEA410C7FEA6C5C4FEA430CCD
:100ED00018BF7FEA6C5C1BD001B050EA410C0CBF1C
:100EE00052EA430C91EA030F02BF90EA020F00207E
:100EF000704710F1000F91EA030F58BF994208BFE5
:100F000090422CBFD8176FEAE37040F001007047A1
:100F10004FEA410C7FEA6C5C02D150EA013C07D1F8
:100F20004FEA430C7FEA6C5CD6D152EA033CD3D043
:100F30005DF8040B704700BF8446104662468C463D
:100F40001946634600E000BF01B5FFF7B7FF002870
:100F500048BF10F1000F01BD4DF808EDFFF7F4FF99
:100F60000CBF012000205DF808FB00BF4DF808ED24
:100F7000FFF7EAFF34BF012000205DF808FB00BF47
:100F80004DF808EDFFF7E0FF94BF012000205DF869
:100F900008FB00BF4DF808EDFFF7CEFF94BF01201E
:100FA00000205DF808FB00BF4DF808EDFFF7C4FF17
:100FB00034BF012000205DF808FB00BF4FEA410C60
:100FC0007FEA6C5C02D150EA013C0AD14FEA430C43
:100FD0007FEA6C5C02D152EA033C02D14FF0000080
:100FE00070474FF0010070474FEA410212F50012BE
:100FF00015D211D56FF47873B3EB625212D94FEA60
:10100000C12343F0004343EA505311F0004F23FA49
:1010100002F018BF404270474FF00000704750EA9E
:10102000013005D111F0004008BF6FF0004070475B
:101030004FF00000704700BF30B587B001214FF47A
:10104000027001F0F5FC4FF4004001F067FC022350
:10105000ADF8003000248DF8034069461B4801F0CC
:10106000E5FB0121042001F0E3FC1023ADF8003082
:101070006946174801F0DAFB164D284601F07CFA64
:1010800001948DF808408DF809404FF460230393D4
:10109000049401248DF8144001A9284601F09EFA19
:1010A0002146284601F0BEFA284601F0C7FA094851
:1010B00001F0CAFA0028FAD1064801F0CDFA054835
:1010C00001F0D0FA0028FAD107B030BD000C014081
:1010D000000801400024014010B50A4C07230122FA
:1010E0000146204601F0D2FA0121204601F0C2FA61
:1010F0000221044801F014FB0028F9D0014801F056
:101100000BFB10BD00240140F8B507460E46002435
:10111000254608E03846FFF7DFFF0544052002F0CA
:101120007BF90134E4B2B442F4D3B5FBF6F080B2FB
:10113000F8BD00BF00B583B00121082001F078FCA4
:101140004FF48073ADF8043010238DF8073003237B
:101150008DF806300122044B1A6001A9034801F002
:1011600065FB03B05DF804FBA0812142000C014047
:1011700010B50A4B5A6822F0F0025A605A6842F0E1
:1011800030025A60064C00232360142002F044F918
:10119000012323601E2002F021F910BD000C014044
:1011A000A481214210B5154B5A6822F0F0025A6012
:1011B0005A6842F080025A60002404E00134E4B22C
:1011C000012002F00BF90E4B1B680BB1632CF5D913
:1011D000632C0FD8002404E00134E4B2012002F0B3
:1011E000FDF8074B1B680BB9632CF5D9632C03D9A9
:1011F000012010BD012010BD002010BD000C0140D9
:101200002481214210B5002404E00134E4B201201D
:1012100002F0E4F80E4B1B684BB1632CF5D90024A7
:1012200006E00134E4B2012002F0D8F800E0002426
:10123000074B1B680BB9632CF3D9282002F0CEF8BA
:10124000034B1B680BB1012010BD002010BD00BF77
:101250002481214238B50020054607E04000C4B291
:10126000FFF7D0FF2043C0B20135EDB2072DF5D90D
:1012700038BD00BFF0B583B006460F46FFF778FFD4
:10128000FFF790FF50B101251DE0FFF7E3FF02AB30
:10129000234403F8080C0134E4B201E005460024BD
:1012A000042CF2D99DF800109DF801300B449DF8F4
:1012B000022013449DF8030003449DF80400834278
:1012C00001D139703270284603B0F0BD30B583B01B
:1012D0000121082001F0ACFB4FF40075ADF804507B
:1012E00010238DF8073003238DF80630074C01A931
:1012F000204601F09BFA2946204601F0EDFAFFF75F
:1013000037FFFFF74FFF03B030BD00BF000C0140B7
:10131000F0B585B000F0D8F80121084601F088FB4F
:101320000821022001F0DAFA4FF4807302930025BD
:101330008DF80C500C238DF80D3001248DF80E40E3
:1013400002A801F01BFA0921022001F0C7FA4FF4AC
:101350000073029302A801F011FA0221032001F0A8
:10136000BDFA0423029302A801F008FA2946284690
:1013700001F0B4FA029408278DF80D700DEB070008
:1013800001F0FCF906238DF8043002258DF8055094
:1013900003268DF806608DF8074001A801F0AAF831
:1013A0008DF804708DF805508DF806508DF80740C3
:1013B00001A801F09FF817238DF804308DF805601F
:1013C0008DF806408DF8074001A801F093F805B0AC
:1013D000F0BD00BF38B50A2002F01EF80B4B1B68A9
:1013E000012B0FD101240A4B1C6004331C60002325
:1013F000084A136004321360074D2B60322002F05C
:101400000BF82C60012001F00BFA38BD00012142DD
:101410008401224294012142A081214208B50A2080
:1014200001F0FAFF024B1B68042001F0F9F908BD36
:101430000881224210B50A2001F0EEFF4FF48070BF
:1014400001F0E4F9C8B11D4A1368B3FA83F35B09EC
:101450001360A2F57F42F03A1368B3FA83F35B0995
:101460001360174C00232360322001F0D5FF0123C5
:1014700023604FF4807001F0D3F94FF4007001F055
:10148000C5F9C8B10F4A1368B3FA83F35B09136057
:10149000A2F57F42F03A1368B3FA83F35B09136055
:1014A000074C00232360322001F0B6FF01232360A4
:1014B0004FF4007001F0B4F910BD00BF8401224266
:1014C000A08121428801224210B582B0012134203E
:1014D00001F0AEFA4FF44073ADF8043048248DF8B3
:1014E000074001A90C4801F0A1F90423ADF804302C
:1014F0008DF807400DEB0301084801F097F901232F
:10150000ADF8043028238DF8073001A9044801F014
:101510008DF902B010BD00BF001001400014014061
:101520000008014000B583B00121102001F080FACD
:101530000F23ADF8043010238DF8073003238DF806
:1015400006300123074A136004321360043213602B
:101550000432136001A9044801F068F903B05DF892
:1015600004FB00BF800122420010014030B589B069
:1015700005460C460121084601F068FA01210520C4
:1015800001F056FA0F23ADF81C3018238DF81F30E8
:1015900003238DF81E3007A9234801F047F9ADF861
:1015A0001450ADF810400024ADF81640ADF81240CC
:1015B00004A94FF0804001F047FC6023ADF80030F3
:1015C0000125ADF80250ADF8084069464FF0804063
:1015D00001F084FC69464FF0804001F0C1FC69468F
:1015E0004FF0804001F000FD69464FF0804001F06F
:1015F0003DFD08214FF0804001F086FD08214FF0AD
:10160000804001F089FD08214FF0804001F08EFDFF
:1016100008214FF0804001F093FD29464FF08040B3
:1016200001F058FD09B030BD0008014008B5294B54
:101630001B788BB1284B1978284B1A880A441A80DA
:10164000274A13885B1A9BB213802BB90022214BC7
:101650001A700122234B1A70224B1B788BB11E4B40
:101660001978214B1A880A441A801C4A13885B1A7D
:101670009BB213802BB900221A4B1A7001221B4B0C
:101680001A701A4B1B788BB1134B1978144B1A88AC
:101690000A441A80144A13885B1A9BB213802BB930
:1016A0000022124B1A7001220A4B1A700C4B198837
:1016B0004FF0804001F050FD084B19884FF08040FA
:1016C00001F04CFD084B19884FF0804001F048FDB7
:1016D00008BD00BF00000020040000200E02002012
:1016E00002000020110200200C0200201002002045
:1016F00030B583B00121042001F09AF96025ADF8DE
:10170000045010238DF8073003238DF80630054C64
:1017100001A9204601F08AF82946204601F0DCF8AC
:1017200003B030BD0008014000B583B003238DF83D
:10173000043000238DF805308DF8063001238DF834
:10174000073001A800F0D6FE03B05DF804FB00BF2F
:1017500010F0030F14D10D4BA3FB00235B0964228F
:1017600002FB13039BB26BB9084BA3FB0023DB09FD
:101770004FF4C87202FB130080B228B901207047F1
:101780000020704701207047002070471F85EB51F3
:101790002DE9F0479DF82090A0F2B275ADB2812DF1
:1017A00055D8984617468A460646002440F2B27538
:1017B00010E02846FFF7CCFF20B104F1F17404F5E6
:1017C000054405E004F1F07404F5993404F5C0749F
:1017D0000135ADB2B542ECD30AF1FF3A5FFA8AFAAD
:1017E000002510E01B4B5B5D1B4A02FB03443046A7
:1017F000FFF7AEFF28B1012D03D104F5A83404F59D
:10180000C0740135ADB21FFA8AF39D42EAD3013F9D
:10181000114A02FB07444FF4616202FB0848C9EB1E
:1018200009194FEA890242449DF82480904401211D
:101830004FF0C05001F00AF9012001F069F840466C
:1018400001F078F901F094F90020BDE8F08701205B
:10185000BDE8F087E863000880510100F0B41A4D3C
:10186000A5FB00356C09E5B2642303FB1403DBB26E
:10187000132D01D96433DBB203EB9304134EA4FBA5
:101880000667E01B07EB50008008C0EBC000201A81
:1018900080B2024492B2481E0D4C205C024492B2C7
:1018A00013F0030F03D1022901D8013A92B207487D
:1018B000A2FB0001501A01EB50008008C0EBC000F1
:1018C000101AC0B2F0BC70471F85EB512549922415
:1018D000F463000870B501F019F90646334CA4FB17
:1018E0000034240C324B1B889C4238D0304B1C8077
:1018F00040F2B27510E02846FFF72AFF40B1B4F578
:10190000B77F02D3A4F5B77404E00135ADB206E0A9
:10191000A4F26D140135ADB2B4F5B67FEBD8254B0A
:101920009D80002512E0234B988880B2FFF710FFBE
:1019300028B1012D03D11C2C0AD91D3C04E01E4BFB
:101940005B5D9C4204D3E41A0135ADB21B2CEAD88E
:101950000135EDB2174B9D710134E4B2DC71134BCC
:10196000A3FB06231B0C154A02FB1363144AA2FBBC
:101970000312D20AD1B20F4C21704FF4616101FB06
:101980001231104BA3FB01235B09DAB26270C3EB87
:1019900003139A008A1AD2B2A270A088A179E279C0
:1019A00080B2FFF75BFF2072002070BD07452EC29A
:1019B0001E02002014020020E8630008805101008C
:1019C000C5B3A2918988888810B582B001214FF0F3
:1019D000C05001F03BF8012000F09AFF042000F015
:1019E000BDFE45F25003984245D000F0A1FE012013
:1019F00000F09EFF002404E00134E4B20A2001F06C
:101A00000BFD412001F044F808B9F92CF4D9F92C68
:101A10003FD8214802F072FD4FF4807000F09CFF27
:101A2000012000F0A1FF01F0A3F801F0ABF80121C3
:101A3000084601F047F801F09BF801F053F847F62B
:101A4000FF7001F085F801F093F8002301933A2329
:101A5000009311230E22092140F2E770FFF798FE50
:101A60000E4802F04BFD01F047F845F2500104200A
:101A700000F066FE07E001F085F80121084601F05C
:101A800021F801F075F8FFF74FFEFFF723FF002064
:101A900000E0012002B010BD0064000810640008DE
:101AA00030B585B0012001F07FF808B1FFF712FFD3
:101AB000022001F079F890B1022001F085F8FFF7DB
:101AC00009FF0A4881888279C3790478457880784B
:101AD00002900195009489B2054802F09DFC052012
:101AE00001F072F801F044F805B030BD1402002096
:101AF0002064000838B50546002403E00134E4B250
:101B0000C82C1AD802210F4801F0A2F80028F5D0FD
:101B100029460C4801F096F8002403E00134E4B2B1
:101B2000C82C0CD80121074801F092F80028F5D004
:101B3000044801F089F8C0B238BD002038BD00204B
:101B400038BD00BF0038004030B587B00121082003
:101B500000F06EFF01214FF4804000F077FF4FF45A
:101B60006045ADF8145018238DF8173003238DF815
:101B70001630194C05A9204600F058FE294620468B
:101B800000F0AAFE0023ADF800304FF48272ADF8E9
:101B90000220ADF804300222ADF806200125ADF890
:101BA00008504FF40072ADF80A203822ADF80C202E
:101BB000ADF80E300723ADF81030A4F55444694653
:101BC000204601F00BF82946204601F02DF8FF20B1
:101BD000FFF790FF07B030BD000C014008B5084A80
:101BE00013889BB223F038039BB2138013889BB2F7
:101BF000184310800121104601F016F808BD00BFFF
:101C00000038004010B5294B93F90030002B47DB1A
:101C100001214FF0804001F015FBA0B1234B1B7850
:101C200013F0400F0FD003F03F023F2A08D163F0BA
:101C30007F031E4A13704FF6FF721D4B1A8002E09D
:101C400001331A4A137002214FF0804001F0FAFA72
:101C500030B3164B1B7813F0400F0FD063F07F03A7
:101C6000124A13704FF0804001F0E4FA104B1880D4
:101C700000214FF0804001F047FA11E00B4C0021A9
:101C800021700B4B19804FF0804001F063FA2378EC
:101C900043F04003237002214FF0804001F034FAFA
:101CA00003214FF0804001F0D9FA10BD220200203C
:101CB0002002002038B50E4D00242C609020FFF744
:101CC00019FF2046FFF716FF2046FFF713FF2046B7
:101CD000FFF710FFFF20FFF70DFF000284B2FF2087
:101CE000FFF708FF204301232B6080B238BD00BFFF
:101CF000B081214230B583B00121082000F098FE68
:101D00004FF48055ADF8045010238DF807300323AD
:101D10008DF806300B4C01A9204600F087FD2946BE
:101D2000204600F0D9FD0122074B1A60FFF70CFF97
:101D30000020FFF753FFFFF7BDFF044B188003B0EF
:101D400030BD00BF000C0140B081214206000020E0
:101D5000044B01221A6004490A6000220A601A60DA
:101D6000704700BFA0012142B4012242034B002270
:101D70001A60012202490A601A607047B4012242C7
:101D8000A001214208B5094B00221A60012208492E
:101D90000A601A604FF40051064800F095FD0128D2
:101DA00000D000200022014B1A6008BDA001214292
:101DB000B40122420010014008B5002315E00021C3
:101DC0000F4A116010F0800F05D0012102F580321A
:101DD0001432116002E000210A4A11604000C0B2D2
:101DE0000121074A11600B44DBB2072BE7D900221F
:101DF000034B1A60FFF7C6FF0028FBD108BD00BFE8
:101E0000A0012142B401224210B50446FFF7A0FF11
:101E10007820FFF7D1FF4020FFF7CEFF2046FFF7E5
:101E2000CBFFFFF7A3FF10BD10B50446FFF790FFEF
:101E30007820FFF7C1FF0020FFF7BEFF2046FFF725
:101E4000BBFFFFF793FF10BD00B583B00121142045
:101E500000F0EEFD4FF48073ADF8043014238DF8DC
:101E6000073003238DF8063001A90A4800F0DEFC94
:101E70004FF40053ADF8043001A9074800F0D6FC38
:101E80000123064A136002F580321432136003B056
:101E90005DF804FB0008014000100140A001214250
:101EA00008B511B1FFF7B0FF08BDFFF7BDFF08BDD2
:101EB00010B50446A1F150000021C0B2FFF7F0FFB9
:101EC000002104F00F00FFF7EBFF2009002140F094
:101ED0001000FFF7E5FF10BD38B500251AE0A5F1A9
:101EE00050000021C0B2FFF7DBFF00210846FFF7DA
:101EF000D7FF00211020FFF7D3FF002405E00121C8
:101F00000020FFF7CDFF0134E4B214F0800FF6D0CB
:101F10000135EDB2072DE2D938BD00BFF8B507464F
:101F20000E46203AD5B210F0800F02D00236F6B23B
:101F3000002731463846FFF7BBFF002408E004EBDA
:101F4000051301210D4AD05CFFF7AAFF0134E4B26A
:101F5000072CF4D9711CC9B23846FFF7A9FF002439
:101F600009E004EB051308330121044AD05CFFF7B4
:101F700097FF0134E4B2072CF3D9F8BD40640008A0
:101F8000012202E000FB02F219464B1EDBB20029DF
:101F9000F8D11046704700BF2DE9F04782468946C8
:101FA00017461D469DF82080002634462CE0291B4C
:101FB0000139C9B20A20FFF7E3FFB7FBF0F0144A7A
:101FC000A2FB0032D20802EB82025300C21AD2B244
:101FD00076B96B1E9C420BDA4AB94FEA580000FBF7
:101FE00004A020224946C0B2FFF798FF0AE001266C
:101FF00030324FEA580000FB04A0D2B24946C0B2CA
:10200000FFF78CFF0134E4B2AC42D0D3BDE8F087D7
:10201000CDCCCCCCF8B504460E46174600250DE0D5
:1020200031462046FFF77AFF0834E4B214F0800FFF
:1020300002D00236F6B200240135EDB27A5D002AF4
:10204000EED1F8BD08B5FFF7FFFE0021AE20FFF787
:1020500027FF00210846FFF723FF00211020FFF78C
:102060001FFF00214020FFF71BFF0021B020FFF7DA
:1020700017FF00218120FFF713FF0021FF20FFF74A
:102080000FFF0021A120FFF70BFF0021A620FFF783
:1020900007FF0021A820FFF703FF00213F20FFF7E3
:1020A000FFFE0021C820FFF7FBFE0021D320FFF731
:1020B000F7FE00210846FFF7F3FE0021D520FFF7C9
:1020C000EFFE00218020FFF7EBFE0021D920FFF773
:1020D000E7FE0021F120FFF7E3FE0021DA20FFF701
:1020E000DFFE00211220FFF7DBFE0021DB20FFF7DF
:1020F000D7FE00214020FFF7D3FE00218D20FFF7FF
:10210000CFFE00211420FFF7CBFE0021AF20FFF708
:10211000C7FEFFF7E1FE00210846FFF7C9FE08BD34
:10212000F0B589B00121082000F082FC01210220D5
:1021300000F08CFC0124ADF81C4028238DF81F30E2
:1021400003278DF81E70204D07A9284600F06EFB6E
:102150002146284600F0C0FB42F21073ADF8103063
:102160004723ADF80C300025ADF81250ADF80E50F5
:10217000164E03A9304600F067FE0823ADF8003084
:10218000ADF80250ADF80440ADF80650ADF8087057
:102190006946304601F01CF82146304600F09AFFAF
:1021A0001D238DF818308DF819508DF81A708DF8A0
:1021B0001B4006A800F09EF922460921304600F097
:1021C00097FF09B0F0BD00BF000C014000040040C3
:1021D00010B50121464801F035F8E0B1454B1B78B8
:1021E00013F0800F17D003F0EF03424A137013F07F
:1021F0000F0F02D143F0400313703E4B1B7803F0E6
:102200000F020D2A03DC01333A4A137003E003F096
:102210007003384A13700821354801F013F800287C
:1022200061D0354B1B6873B1314C0221204600F060
:102230007DFF0021204600F08DFF2E4A137843F0E9
:10224000100313704FE02A4C204600F0F7FF2B4B91
:1022500018800021204600F069FF264B1B7813F000
:10226000100F3BD013F0800F28D0244A1188A1F220
:102270002D1292B2B2F5F97F04D8214A13685B009F
:1022800013602BE0A1F2795292B2B2F5C77F06D863
:102290001B4A13685B0043F0010313601EE0A1F6C4
:1022A000990292B2B2F5C77F18D816490A7801325E
:1022B0000A7023F00F030F4A13700FE00F4A1288C1
:1022C000A2F58352093A92B2B2F5F97F06D863F0CB
:1022D0007F03084A137000220A4B1A70054A1378CC
:1022E00023F0100313700921014800F0B7FF10BD5F
:1022F0000004004032020020008121423002002010
:102300002C02002028020020144B1B7813F0400FF1
:1023100021D0134A1168080EC1F30742D243D2B24A
:10232000904209D150B9C1F30720C9B2C943C9B21B
:10233000884204D0002002E0002000E0002010B11C
:1023400013F0800F08D123F04003044A13700022D9
:10235000044B1A7070470020704700BF3202002003
:102360002C0200202802002008B5FFF7CDFF4A4BC1
:102370001870002800F08E8062283DD019D82228DD
:102380004AD009D802283BD001D868B37FE0102892
:102390006AD0182860D07AE0422871D004D830285A
:1023A00056D0382864D072E052286DD05A2863D0B5
:1023B0006DE0A2281CD00AD87A2851D002D868280B
:1023C0003AD064E0902833D0982839D05FE0C22812
:1023D0001ED004D8A82827D0B02835D057E0E02850
:1023E0001ED0E22810D052E02C4A2D4B1A604EE04D
:1023F0002C4A2B4B1A604AE02B4A294B1A6046E0C4
:102400002A4A274B1A6042E0294A254B1A603EE0CF
:10241000284A234B1A603AE0274A214B1A6036E0DB
:10242000264A1F4B1A6032E0254A1D4B1A602EE0E7
:10243000244A1B4B1A602AE0234A194B1A6026E0F3
:10244000224A174B1A6022E0214A154B1A601EE0FF
:10245000204A134B1A601AE01F4A114B1A6016E00B
:102460001E4A0F4B1A6012E01D4A0D4B1A600EE017
:102470001C4A0B4B1A600AE01B4A094B1A6006E023
:102480001A4A074B1A6002E0194A054B1A60044BBE
:10249000186808BD08BD00BF23020020306A00088C
:1024A00024020020386A0008406A0008446A0008D4
:1024B0004C6A0008586A0008606A0008686A0008E8
:1024C000706A0008786A0008346B0008806A0008A7
:1024D000846A0008886A00088C6A0008906A00080C
:1024E000946A0008986A00089C6A0008A06A0008BC
:1024F000A46A0008C378FBB1154BDB68DB43C3F368
:102500000223C3F104010F22DA40437803FA01F1F8
:10251000837813400B431B010278DBB20D490A4458
:1025200082F800330378580903F01F03012202FAEE
:1025300003F341F82030704703785A0903F01F0372
:10254000012101FA03F32032024941F82230704799
:1025500000ED00E000E100E0042805D1054A136821
:1025600043F0040313607047024A136823F0040326
:102570001360704710E000E008B5154B98420AD18F
:1025800001214FF4007000F06FFA00214FF4007049
:1025900000F06AFA08BD0F4B98420AD101214FF4AE
:1025A000806000F061FA00214FF4806000F05CFA76
:1025B00008BD094B984209D101214FF4004000F0B9
:1025C00053FA00214FF4004000F04EFA08BD00BF5E
:1025D0000024014000280140003C014010B4436841
:1025E00023F4702222F480720B680C7943EA0423EE
:1025F0001343436083680A4C1C40CA688B681A43C3
:102600004B7942EA430323438360C36A23F4700295
:102610000B7C013BDBB242EA0353C36210BC704740
:10262000FDF7F1FF21B1836843F001038360704738
:10263000836823F001038360704700BF836843F021
:1026400008038360704700BF836813F0080F01D050
:102650000120704700207047836843F004038360C3
:10266000704700BF836813F0040F01D0012070474A
:102670000020704721B1836843F4A0038360704752
:10268000836823F4A0038360704700BF70B40929F6
:102690000DD9C668A1F10A0404EB44040725A5403E
:1026A00026EA050503FA04F42C43C4600AE006692F
:1026B00001EB41040725A54026EA050503FA04F4C9
:1026C0002C430461062A0BD8446B013A02EB8202C8
:1026D0001F23934024EA030391401943416318E008
:1026E0000C2A0BD8046B073A02EB82021F2393409B
:1026F00024EA03039140194301630AE0C46A0D3AD6
:1027000002EB82021F23934024EA03039140194302
:10271000C16270BC704700BFC06C80B2704700BF20
:102720000368194201D0012070470020704700BFA4
:1027300008B5012000F0A6F9002000F0A3F908BDBB
:1027400082B000230193044B0193019B1844019034
:10275000019B196002B07047006C004082B00023FA
:102760000193054B0193019B18440190019B18882C
:1027700080B202B0704700BF006C00408379002B2C
:1027800034D010B4204B1A68016822EA01021A60A2
:102790005A68016822EA01025A60027902F1804215
:1027A00002F5823214680168214311609A68016859
:1027B00022EA01029A60DA68016822EA0102DA601C
:1027C0004379102B09D1104B996802680A439A602B
:1027D000D96802680A43DA6013E003F1804303F525
:1027E0008233196802680A431A600AE0037903F128
:1027F000804303F582331A68016822EA01021A60F5
:10280000704710BC704700BF00040140034B5B6978
:10281000034201D0012070470020704700040140AE
:10282000014B5861704700BF00040140F0B4CB7801
:1028300003F00F02154613F0100F01D08D781543E9
:102840000B78E3B10668002316E001229A400C8859
:1028500032EA04040FD19C000F27A74026EA07069E
:1028600005FA04F42643CC78282C01D1426102E019
:10287000482C00D102610133072BE6D906600B8892
:10288000FF2B1ED94668002318E003F1080401223B
:10289000A2400C8832EA04040FD19C000F27A74005
:1028A00026EA070605FA04F42643CC78282C00D142
:1028B0004261CC78482C00D102610133072BE4D966
:1028C0004660F0BC704700BF8368194201D0012008
:1028D00070470020704700BF0161704730B401F0BD
:1028E00003039B000F2404FA03F58908074A023109
:1028F00052F8214024EA050442F8214052F82140D0
:102900009840204342F8210030BC7047000001404D
:10291000014B1860704700BF20000E42034A536805
:1029200023F4404318435060704700BF001002403A
:10293000084B00221A701A70012802D0042804D013
:1029400070470122034B1A7070470522014B1A7021
:10295000704700BF20100240024A136A18431062F9
:10296000704700BF00100240014B1860704700BF65
:102970003C04424210B4294B5B6803F00C03042B67
:1029800005D0082B06D013BB254B036021E0244B58
:1029900003601EE0214A53685268C3F38343023345
:1029A00012F4803F04D11F4A02FB03F3036010E0DE
:1029B0001A4A526812F4003F04D01A4A02FB03F389
:1029C000036006E0164A02FB03F3036001E0144BC8
:1029D000036012494B68C3F30313134CE35CDAB290
:1029E0000368D34043604A68C2F30222A25CD2B2B9
:1029F00023FA02F282604A68C2F3C222A25CD2B217
:102A0000D340C3604A68C2F3813208498A5CD2B2BB
:102A1000B3FBF2F3036110BC704700BF001002402B
:102A200000127A0000093D000C0000200800002080
:102A300021B1054B9A69104398617047024A936926
:102A400023EA0000906170470010024021B1054B5D
:102A5000DA691043D8617047024AD36923EA00005B
:102A6000D06170470010024021B1054BDA68104375
:102A7000D8607047024AD36823EA0000D0607047EC
:102A800000100240014B1860704700BF40044242F2
:102A90004309012B02D10A4B1B6806E0022B02D12D
:102AA000074B1B6A01E0064B5B6A00F01F0023FA2C
:102AB00000F010F0010F01D0012070470020704796
:102AC0000010024029B1064A13889BB218431080B7
:102AD0007047034A1388C04380B218401080704783
:102AE00000280040034A93889BB243F01003938070
:102AF000704700BF00280040034A93889BB223F030
:102B000010039BB293807047002800400849088B4F
:102B100082B28B8B9BB2088B80B2824204D08B8BAB
:102B20009BB243EA0040704743EA0240704700BF4F
:102B30000028004010B50446FFF7D4FF220C034BD9
:102B40001A83A4B29C83FFF7D7FF10BD0028004072
:102B500010B50446FFF7C6FFC4F30342034B1A81C6
:102B6000A4B29C81FFF7C8FF10BD00BF0028004041
:102B7000034B9B8803F020039BB2002BF8D07047D7
:102B800000280040074A93889BB223F008039BB2B9
:102B90009380044B9B8803F008039BB2002BF8D072
:102BA000704700BF00280040064A9388C1B20B401E
:102BB0001288104202D01BB90020704700207047D5
:102BC0000120704700280040034A9388C04380B228
:102BD00003409380704700BF002800402DE9F0417A
:102BE000038803F441570D884E888C88B1F806801D
:102BF0000A89B1F80AC08B89B1F80EE03543254344
:102C000048EA050414434CEA04021A434EEA02035C
:102C10003B430380838B9BB223F400639BB283838B
:102C20000B8A0382BDE8F08129B103889BB243F08F
:102C300040030380704703889BB223F040039BB29C
:102C40000380704781817047808980B2704700BFE0
:102C50000389194201D0012070470020704700BF4E
:102C600030B4048CA4B224F00104A4B20484048B14
:102C7000A4B2058CADB224F0F3041B019BB21A433D
:102C800044EA0203124A904212D002F500629042D6
:102C90000ED0B0F1804F0BD0A2F59832904207D001
:102CA00002F58062904203D002F58062904205D125
:102CB00025F00205294341F0010104E025F00A0254
:102CC000114341F001010383018430BC704700BF10
:102CD000002C014070B4048CA4B224F01004A4B2FF
:102CE0000484058B048CA4B20E01B6B225F44075A1
:102CF0002D052D0D1B039BB22B43120292B21A43DA
:102D0000124B984212D003F5006398420ED0B0F1F6
:102D1000804F0BD0A3F59833984207D003F580631A
:102D2000984203D003F58063984205D124F0200136
:102D3000314341F0100104E024F0A004214341F0AC
:102D400010010283018470BC704700BF002C014059
:102D500070B4048CA4B224F48074A4B20484848B70
:102D6000A4B2058CAEB20D02ADB224F0F3041B0187
:102D70009BB21A4344EA0203124A904212D002F56F
:102D8000006290420ED0B0F1804F0BD0A2F5983285
:102D9000904207D002F58062904203D002F5806233
:102DA000904205D126F40071294341F4807104E07A
:102DB00026F42062114341F480718383018470BC46
:102DC000704700BF002C014070B4058CADB225F4F3
:102DD0008055ADB20584868B048CA4B20D03ADB2D0
:102DE00026F440763605360D120292B232431B03AA
:102DF0009BB21343134A904212D002F500629042F4
:102E00000ED0B0F1804F0BD0A2F59832904207D08F
:102E100002F58062904203D002F58062904205D1B3
:102E200024F400542C4344F4805406E024F4007449
:102E30006404640C0C4344F480548383048470BCA5
:102E4000704700BF002C014003889BB2214A90428A
:102E500012D002F5006290420ED0B0F1804F0BD03C
:102E6000A2F59832904207D002F58062904203D0DA
:102E700002F58062904203D123F070034A88134325
:102E8000154A904208D002F58062904204D023F4A3
:102E900040739BB2CA88134303808B8883850B8859
:102EA00003850C4B98420FD003F5006398420BD07A
:102EB00003F54063984207D003F58063984203D03E
:102EC00003F58063984201D10B7A03860123838244
:102ED000704700BF002C01400010004030B4038C4C
:102EE0009BB223F001039BB20384038C9BB28288C4
:102EF00092B2048BA4B224F073040D882C4323F007
:102F000002030D892B434D882B43144DA8420FD04B
:102F100005F50065A8420BD005F54065A84207D02D
:102F200005F58065A84203D005F58065A8420DD15E
:102F300023F008034D892B4323F004038D882B4392
:102F400022F440728D892A43CD892A4382800483EA
:102F5000CA888286038430BC704700BF002C0140C1
:102F600030B4038C9BB223F010039BB20384028C19
:102F700092B28588ADB2048BA4B224F4E6440B88E7
:102F80001B029BB21C4322F020020B891B019BB247
:102F90001A434B881B019BB21343124A904203D041
:102FA00002F50062904215D123F080034A89120194
:102FB00092B2134323F040028B881B019BB2134350
:102FC00025F440658A89920092B22A43CD89AD00EA
:102FD000ADB2154385800483CA880287038430BC60
:102FE000704700BF002C014030B4038C9BB223F427
:102FF00080739BB20384028C92B28488A4B2838BC8
:103000009BB223F073030D881D4322F400720B89D9
:103010001B029BB21A434B881B029BB21343124AFA
:10302000904203D002F50062904215D123F4006370
:103030004A89120292B2134323F480628B881B02E6
:103040009BB2134324F440548A89120192B2224362
:10305000CC892401A4B2144384808583CA888287E2
:10306000038430BC704700BF002C014030B4038C97
:103070009BB223F480539BB20384048CA4B2858852
:10308000ADB2828B92B222F4E6420B881B029BB255
:103090001A4324F400540B891B039BB21C434B8836
:1030A0001B039BB223430A4CA04203D004F50064E7
:1030B000A04205D125F480458C89A401A4B2254302
:1030C00085808283CA88A0F84020038430BC704782
:1030D000002C014029B103889BB243F00103038017
:1030E000704703889BB223F001039BB203807047B3
:1030F00022B183899BB21943818170478389C94377
:1031000089B2194081817047038C9BB223F002037E
:1031100019430184704700BF038C9BB223F0200346
:10312000090189B219430184704700BF038C9BB227
:1031300023F40073090289B219430184704700BF68
:10314000038C9BB223F40053090389B21943018411
:10315000704700BF8184704701877047818770473F
:10316000A0F84010704700BF038B9BB223F00C0304
:103170009BB20383038B9BB219430183704700BF4B
:10318000038B9BB223F440639BB20383038B9BB2FC
:10319000090289B219430183704700BF838B9BB238
:1031A00023F00C039BB28383838B9BB219438183EF
:1031B000704700BF838B9BB223F440639BB2838331
:1031C000838B9BB2090289B219438183704700BF88
:1031D00038B505460C460B884BB90B898A88498857
:1031E000FFF73EFDE1882846FFF7BEFF38BD042B00
:1031F00009D10B898A884988FFF76CFDE188284648
:10320000FFF7BEFF38BD082B09D10B898A88498892
:10321000FFF79EFDE1882846FFF7C0FF38BD0B8908
:103220008A884988FFF7D0FDE1882846FFF7C2FF6A
:1032300038BD00BF808E80B2704700BF808F80B2E3
:10324000704700BF028A83890B40114202D01BB92C
:10325000002070470020704701207047C94389B2A1
:103260000182704730B587B004460D46038A9BB291
:10327000CA8823F440531343038283899BB28A880C
:10328000098968890A43024323F4B05323F00C03ED
:103290001343A381A38A9BB2AA8923F440731343E7
:1032A000A38201A8FFF766FB1E4B9C4201D1049A42
:1032B00000E0039AA38913F4004F08D002EB8202C6
:1032C00002EB820229684900B2FBF1F107E002EB50
:1032D000820202EB820229688900B2FBF1F1124BF3
:1032E000A3FB01235B091B011A09642000FB1212D6
:1032F000A18911F4004F08D0D20032320A49A1FB53
:103300000212C2F342121A4307E012013232064996
:10331000A1FB0212C2F343121A4392B2228107B0F8
:1033200030BD00BF003801401F85EB5129B18389B2
:103330009BB243F400538381704783899BB223F48B
:1033400000539BB28381704710B4C1F3421401F063
:103350001F01012303FA01F19C4201D10C3004E06A
:10336000022C01D1103000E014301AB10368194367
:10337000016003E0036823EA0101016010BC7047AB
:10338000C1F30801818070478088C0F3080070474E
:103390000388194201D0012070470020704700BF08
:1033A00008B56FF00400FFF7D7F8084B1B68084A10
:1033B000A2FB0323C3F34753064A1370C3EB431224
:1033C00003EB8203DA00044B1A8008BD1C000020C6
:1033D00083DE1B4333020020340200200C4B1B7899
:1033E00000FB03F00B4B586000229A601A6842F011
:1033F00001021A60074B1B6803F00113012BF9D07F
:10340000044B1A6822F001021A6000229A60704789
:103410003302002010E000E00C4B1B8800FB03F09F
:103420000B4B586000229A601A6842F001021A6041
:10343000074B1B6803F00113012BF9D0044B1A68EA
:1034400022F001021A6000229A60704734020020C4
:1034500010E000E008B5054B1860054B1868002324
:1034600002221946806801F051F808BD3802002098
:103470008000002070B586B00646012144F20400A9
:10348000FFF7D6FA4FF40073ADF8143003248DF82B
:10349000164018238DF817301D4D05A92846FFF753
:1034A000C5F94FF48063ADF8143004238DF817305C
:1034B00005A92846FFF7BAF925238DF800308DF8C5
:1034C00001408DF8024001258DF803506846FFF752
:1034D00011F801960023ADF80830ADF80A30ADF8C8
:1034E0000C30ADF810300C23ADF80E30094C01A9AA
:1034F0002046FFF7B7FE2A4640F225512046FFF747
:1035000023FF29462046FFF711FF06B070BD00BF1C
:103510000008014000380140022801D8012070470E
:10352000002070470138012810D94FF0FF30704754
:10353000315D0E4B1868FFF723FF80210B4B186895
:10354000FFF726FF0028F8D0013403E070B51546D8
:103550000E460024AC42EBD34021044B1868FFF721
:1035600017FF0028F8D0284670BD00BF38020020A1
:10357000022801D8002070474FF0FF30704700BF8D
:103580004FF0FF30704700BF10B50C4658B92021EE
:103590000648FFF7FDFE0028F9D00448FFF7F4FEC7
:1035A0002070012010BD4FF0FF3010BD00440040DE
:1035B00000F06AFA0B480C490C4A002302E0D45888
:1035C000C4500433C4188C42F9D3094A094C00236F
:1035D00001E013600432A242FBD300F07DFA00F058
:1035E0000FF8704700000020F0010020306E000846
:1035F000F001002060020020FEE700000000000053
:1036000000B583B0FFF7CCFEFDF794FDFDF78AFF10
:10361000FDF75AFFFDF77CFE4FF4E130FFF72AFF7C
:10362000BD48FFF717FFFEF765FBFEF70BFDFDF743
:1036300003FDFEF7C9F9002140F28330FDF796FF44
:10364000FEF756F80023B54A136004321360FEF704
:1036500067FDFEF741FC13E0B14800F04FFF4FF467
:10366000FA70FFF7D9FEAF4800F048FF4FF4FA7048
:10367000FFF7D2FEAC4A1368B3FA83F35B09136019
:10368000FEF718FB46F614039842E5D1FEF712FB4D
:1036900046F61403984202D1A44800F02FFF4FF4DD
:1036A0007A70FFF7B9FE0CE0A14A02211820FEF75C
:1036B000B1FCC820FFF7B0FEFEF70EFC9D4800F0FD
:1036C0001DFFFDF703FE0028EED19B4800F016FF1A
:1036D000FEF702FC994A00210820FEF79BFC984A5D
:1036E00002210020FEF796FC964A04210020FEF7F6
:1036F00091FC954A06210020FEF78CFC934A02219A
:103700003C20FEF787FC924A04213C20FEF782FC15
:10371000904A06213C20FEF77DFCFDF787FFFEF76F
:1037200023FE10B900228C4B1A70FEF71DFE0028F4
:103730003CD0894B1B78002B38D1FEF715FE874D06
:103740002860FEF7E1FD864C20700122824B1A7042
:103750002968844800F060FE2378A22B02D0E22B77
:103760000FD01BE00023804A13600125A2F57F42A1
:10377000F03A15607D4C23603220FFF74DFE256046
:1037800014E00125784B1D600023644A1360774CD8
:1037900023603220FFF740FE256007E0734C0023D2
:1037A00023603220FFF738FE01232360704B1A7824
:1037B000704BA3FB0213DB0803EB8303A2EB430371
:1037C00013F0FF0F14D16C4D6C4C29462046FDF7C9
:1037D00051FD227810240094022304212020FEF7BA
:1037E000DBFB2A780094022306212020FEF7D4FB7D
:1037F0005F4B1A785F4BA3FB02131B0903EB830398
:10380000A2EB830313F0FF0F46D10A210920FDF735
:103810007BFC02465A4C2080102500950423194653
:103820005420FEF7B9FB2088FCF7E2FD36A3D3E96C
:103830000023FCF77DFF36A3D3E90023FCF74EFEFF
:10384000FDF75EF84F4E3060FDF708FB82B2228034
:103850000095012306215420FEF79EFB4A4A0621CB
:103860005C20FEF7D7FB2088FDF754F9014630684D
:10387000FDF79AF84549FDF7A1F93060FDF7EEFA3A
:1038800000950223024606216420FEF785FB404A8C
:1038900006217620FEF7BEFB354B1B783D4AA2FB86
:1038A00003121209322101FB123313F0FF0F15D15D
:1038B0000A210420FDF728FC314B1880FCF798FD05
:1038C00011A3D3E90023FCF733FF11A3D3E90023AD
:1038D000FCF704FEFDF714F82A4B18600A20FFF7E6
:1038E0009BFD234A13780133DBB21370142B7FF452
:1038F00014AF00221E4B1A700B4A1368B3FA83F3FD
:103900005B09136009E700BF0000000000FEAF4044
:103910006666666666660A40003801409401214288
:10392000BC6A0008D46A000880012242E46A0008E8
:10393000F46A0008046B0008146B0008206B000890
:10394000306B0008386B0008406B0008486B0008BB
:10395000506B0008546B00083C020020400200201D
:1039600046020020586B000884012242A0812142B7
:1039700044020020CDCCCCCC450200204E020020D9
:103980004C020020480200205C6B000800007A44D2
:10399000606B00081F85EB51704700BFFEE700BF5A
:1039A000FEE700BFFEE700BFFEE700BF704700BFB5
:1039B000704700BF704700BF704700BF82B0002350
:1039C000019300932C4A136843F4803313602A4B0D
:1039D0001B6803F400330093019B01330193009BA8
:1039E0001BB9019BB3F5A06FF1D1234B1B6813F4F6
:1039F000003F02D00123009301E000230093009BCD
:103A0000012B36D11D4B1A6842F010021A601A6859
:103A100022F007021A601A6842F002021A60A3F547
:103A200080535A685A605A685A605A6842F48062F1
:103A30005A605A6822F47C125A605A6842F4E812BA
:103A40005A601A6842F080721A600B4B1B6813F0C0
:103A5000007FFAD0084B5A6822F003025A605A6875
:103A600042F002025A60044B5B6803F00C03082B1F
:103A7000F9D102B0704700BF0010024000200240A0
:103A800008B5FFF79BFF08BD08B5104B1A6842F058
:103A900001021A6059680E4A0A405A601A6822F0F8
:103AA000847222F480321A601A6822F480221A602A
:103AB0005A6822F4FE025A604FF41F029A60FFF720
:103AC000DFFF4FF00062034B9A6008BD0010024018
:103AD0000000FFF800ED00E00E4B70B51E460E4CE6
:103AE0000025E41AA410A54204D056F825309847C2
:103AF0000135F8E702F06AFC084B094C1E46E41A4F
:103B0000A4100025A54204D056F825309847013569
:103B1000F8E770BD286E0008286E0008286E0008BF
:103B20002C6E000803460244934202D003F8011BA6
:103B3000FAE770472DE9F04788B0149F002B1E4626
:103B40001299B8BF03F1004327F02007B6BF1E4605
:103B500000232D23462F1446109DDDF84CA00B703A
:103B600003D0452F03D1013501E0032300E00223F8
:103B700007AA049206AA03928DE828042246334637
:103B800000F0BEFE472F804602D1119BDB0728D5EF
:103B9000462F08EB050911D198F80030302B0AD1D7
:103BA0000022002320463146FDF7D6F918B9C5F1A9
:103BB0000105CAF80050DAF80030994400220023C9
:103BC00020463146FDF7C8F908B9302202E0CDF8A9
:103BD0001C9006E0079B994503D9591C07911A7060
:103BE000F8E74046079B159AC8EB0303136008B03B
:103BF000BDE8F087034673B50029B8BF494203F812
:103C0000022BB4BF2D222B22092942701ADD0DF19F
:103C1000070216460A2591FBF5F405FB1411092C41
:103C200001F1300102F8011D2146F4DC3031541E4F
:103C300002F8011CB4421A460AD214F8012B03F808
:103C4000012BF7E71A463024214402F8024B597041
:103C5000101A02B070BD00002DE9F04F91B00C4673
:103C6000DDF8688016461F46054601F05BFD0368D7
:103C700018460993FDF712F900230E93D8F8003087
:103C80000A90073323F0070303F1080294F8189011
:103C9000D4F800B0C8F80020D3E90023C4E9122307
:103CA000D4F84CA0D4F848802AF000430B934FF08E
:103CB000FF32A74B40460B99FDF780F9A0B94FF0B2
:103CC000FF32A34B40460B99FDF75AF960B9002229
:103CD000002340465146FDF749F910B12D2384F8E1
:103CE00043309C4B9C4A0AE042465346404651466C
:103CF000FDF764F9002800F09281984B984AB9F1D9
:103D0000470F8CBF90469846032323612BF0040392
:103D100023604FF0000A3DE0B9F1670F00F08A819F
:103D2000B9F1470F00F08681236001936368002199
:103D30000DF13302059002920093424653460691DC
:103D4000CDF81090CDF80CE02846FFF7F3FE09F00F
:103D5000DF03472B804600F08481B9F1650F0D9990
:103D600000F28D8101394A4604F150000D91FFF7B0
:103D700041FF0E9A82468318012A236100F37C8159
:103D80002268D10700F178819DF8333013B12D23DB
:103D900084F84330009733460FAA2146284600F0A6
:103DA0009FF9013002D14FF0FF3096E123685A05A8
:103DB00001D4236965E0B9F1650F40F2D580D4E9FB
:103DC000120100220023FDF7C7F878B30123654AEA
:103DD00031462846B8470130E5D00E9B0D9A9A42ED
:103DE0000BDB2368D80708D423689B0740F11181B7
:103DF0004FF0000804F1190906E10A9B099A3146BF
:103E00002846B8470130CED04FF0000804F11A0917
:103E10000E9B013B9845E7DA01234A463146284686
:103E2000B8470130BFD008F10108F1E70D9B002B26
:103E300029DC01234B4A31462846B8470130B2D02D
:103E40000D9B23B90E9B13B92368D907CCD50A9BC8
:103E5000099A31462846B8470130A4D04FF00009EE
:103E600004F11A0A0D9B5B42994509DA0123524677
:103E700031462846B847013095D009F10109F1E7EC
:103E80000E9B4246A7E00E9AA36D9A42A8BF1A461F
:103E9000002A914606DC4FF0000A29EAE97904F18C
:103EA0001A0B11E01346314642462846B847013006
:103EB000F1D178E701235A4631462846B847013008
:103EC0003FF471AF0AF1010AA36DC9EB03029245F9
:103ED000F0DB08EB03090D9A0E9B9A420FDB236877
:103EE000DA070CD40E9B0D9A9844C9EB08089B1A6C
:103EF0009845A8BF9846B8F1000F08DC0FE00A9B70
:103F0000099A31462846B8470130EBD14BE7434682
:103F10004A4631462846B84701303FF444AF4FF097
:103F2000000928EAE87804F11A0A09E00123524658
:103F300031462846B84701303FF435AF09F1010951
:103F40000D9A0E9B9B1AC8EB03039945EEDB4BE7DA
:103F5000FFFFEF7F686B00086C6B0008706B000858
:103F6000746B0008786B00080E9A012A01DCDB07ED
:103F700038D50123424631462846B84701303FF440
:103F800012AF0A9B099A31462846B84701303FF4E0
:103F90000AAFD4E9120100220023FCF7DDFF20B1B3
:103FA0004FF0000804F11A090EE00E9B08F101021F
:103FB000013B19E001234A4631462846B847013003
:103FC0003FF4F1AE08F101080E9B013B9845F1DB8F
:103FD000534604F1500231462846B84701307FF479
:103FE00003AFE0E64246012331462846B847013098
:103FF000EED1D8E601234A4631462846B84701307B
:104000003FF4D1AE08F10108E3680F9A9B1A984576
:10401000F0DBE0680F9B9842B8BF18465DE062682D
:104020000EA8531C0DF1340E4BF480637FF474AE74
:10403000062201E012B90122626075E600210691B4
:104040000DF133018DE80C00236005904246CDF858
:104050001090CDF80CE0029153462846FFF76AFD18
:1040600080460D9BD81C02DB626893421DDDA9F1DE
:1040700002095FFA89F970E60133236184E6B9F138
:10408000660F14D10029636807DD216113B9226826
:10409000D2071DD501330B4419E013B92268D007AC
:1040A00001D5023313E0012311E04FF067090D9BA6
:1040B0000E9A934205DB22682361D10708D50133AC
:1040C00005E0002BD4BFC3F1020301231344236195
:1040D0000D9B4FF0000AA36556E611B0BDE8F08FC6
:1040E0002DE9F04791461F460A698B6806469342C0
:1040F000B8BF1346C9F8003091F843200C46DDF8EC
:10410000208012B10133C9F800302368990642BFFC
:10411000D9F800300233C9F80030256815F00605DB
:1041200010D104F1190A07E00123524639463046FE
:10413000C04701301AD00135E368D9F800209B1A36
:104140009D42F1DB94F843302268003318BF01230D
:1041500092060FD5E118302081F843005A1C94F8DC
:1041600045102244023382F8431003E04FF0FF3041
:10417000BDE8F08704F1430239463046C0470130BC
:10418000F4D02268D9F80050E36802F00602042A4D
:1041900008BF5D1B2269A3680CBF25EAE5750025F1
:1041A0009342C4BF9B1AED184FF000091A344D45D5
:1041B00009D00123224639463046C0470130D5D0C8
:1041C00009F10109F3E70020BDE8F0872DE9F0438C
:1041D00017460A7E85B06E2A984606460C460C9B0A
:1041E00001F1430E00F0AE8011D8632A22D009D825
:1041F000002A00F0BB80582A40F0CA8081F8452090
:10420000834955E0642A1ED0692A1CD0C0E0732A75
:1042100000F0B08009D86F2A2ED0702A40F0B88004
:104220000A6842F020020A603EE0752A24D0782A0B
:104230003AD0ADE01A6801F14205111D196013680A
:1042400084F84230A8E021681A6811F0800F02D08B
:10425000111D196008E011F0400F02F1040119600E
:1042600002D0B2F9003000E01368002B3CDA2D22B6
:104270005B4284F8432037E021681A6811F0800F10
:1042800002D0111D196007E011F0400F02F1040186
:10429000196001D0138800E01368227E5C496F2A00
:1042A00014BF0A2208221BE078225A4984F84520CC
:1042B0002268186812F0800F00F104051D6003D118
:1042C000550601D5038800E00368D00744BF42F0DB
:1042D000200222601BB9226822F0200222601022F4
:1042E000002084F8430001E049490A226568002D56
:1042F000A56008DB206820F0040020602BB9002DA9
:104300007DD175460CE0002B79D07546B3FBF2F0F9
:1043100002FB1033CB5C05F8013D03460028F5D1C4
:10432000082A0BD12368DA0708D5236962689A4204
:10433000DEBF302305F8013C05F1FF35C5EB0E0368
:1043400023612EE008681A6810F0800F496903D0D5
:10435000101D1860136808E010F0400F02F104000F
:104360001860136801D0198000E0196000232361F0
:10437000754616E01A68111D1960156800216268FB
:10438000284601F045FA08B1401B6060636804E00C
:1043900004F1420584F8422001232361002384F8BC
:1043A0004330CDF800803B4603AA21463046FFF754
:1043B00097FE013002D14FF0FF3026E023692A46F4
:1043C00039463046C0470130F5D023689B0710D5E9
:1043D000002504F1190907E001234A463946304611
:1043E000C0470130E7D00135E368039A9B1A9D422C
:1043F000F2DBE068039B9842B8BF184605E00B78F3
:1044000004F1420584F842308AE705B0BDE8F08344
:104410007A6B00088B6B00080FB40A4B13B51C684D
:1044200024B1A36913B9204601F0F2F805AB049A50
:10443000A1682046019301F0B9FD02B0BDE810402B
:1044400004B070478000002070B50E46054618B1D4
:1044500083690BB901F0DCF8AB69AC6813B9284685
:1044600001F0D6F8224B9C4201D16C6808E0214B48
:104470009C4201D1AC6803E01F4B9C4208BFEC6832
:10448000A3891B0701D523693BB92146284600F0C3
:104490003BF910B14FF0FF3070BD013EA36816F834
:1044A000011F013BA36091B1002B04DAA269934282
:1044B00006DB0A2904D023685A1C22601970EDE734
:1044C0002246284600F0CCF80130E7D1E2E7002B85
:1044D00008DA22460A21284600F0C2F80130D9D075
:1044E0000A2070BD23680A205A1C2260187070BD13
:1044F000AC6B0008CC6B0008EC6B0008024B01466B
:104500001868FFF7A1BF00BF800000202DE9F74326
:104510001D464F4B04461E680F46904626B1B369B0
:1045200013B9304601F074F84A4B9C4201D17468CB
:1045300008E0494B9C4201D1B46803E0474B9C42E0
:1045400008BFF468B8F1020F04D0B8F1010F79D8B0
:10455000002D77DB2146304600F0F0FF616B41B162
:1045600004F14403994202D0304601F04DFC00238F
:1045700063630023A3616360A3891B0603D52169DC
:10458000304601F041FCA389B8F1020F23F44A63DD
:1045900023F00303A3811ED001AB6A4621463046B7
:1045A00001F0CEF8A3891843A0810DB9009D00E069
:1045B0002FBB284601F024F90746D0B9DDF800905A
:1045C000A94502D14FF0FF3006E0484601F018F946
:1045D000074678B9F6E70020A38943F00203A381D8
:1045E0000023A36004F14703236023610123636177
:1045F0002AE0A9464D46A38943F08003A381B3690D
:1046000013B9304601F004F8B8F1010F08BFA389CF
:10461000276004BF43F00103A381A389276103F04E
:10462000080080B2656158B113F001034FF000003B
:104630001DBF6D42A060A561A56008BF184603E0DC
:10464000A06001E04FF0FF3003B0BDE8F08300BF91
:1046500080000020AC6B0008CC6B0008EC6B0008FD
:10466000F8B50F461446054618B183690BB900F03A
:10467000CFFF224B9C4201D16C6808E0204B9C424A
:1046800001D1AC6803E01F4B9C4208BFEC68A369F2
:10469000A360A3891A0709D523693BB12368206960
:1046A000FEB2181A636998420FDB08E021462846DB
:1046B00000F02AF80028F1D04FF0FF361BE0214629
:1046C000284600F03BFF0028F6D1A3680130013BEB
:1046D000A36023685A1C22601F706369984204D04B
:1046E000A389DB0707D50A2E05D12146284600F00D
:1046F00025FF0028E0D13046F8BD00BFAC6B0008B4
:10470000CC6B0008EC6B0008324B70B51D68064698
:104710000C4625B1AB6913B9284600F079FF2E4B42
:104720009C4201D16C6808E02C4B9C4201D1AC68E2
:1047300003E02B4B9C4208BFEC68B4F90C309AB2F2
:1047400015071DD4D00602D4092232603AE0510781
:1047500012D5616B41B104F14403994202D0304655
:1047600001F052FB00236363A38923F02403A38198
:104770000023636023692360A38943F00803A381B6
:1047800023694BB9A38903F42073B3F5007F03D0E9
:104790002146304600F0F8FFA28912F0010305D04F
:1047A0000023A36063695B42A36103E0920758BFE3
:1047B0006369A36023695BB9B4F90C3003F080002E
:1047C00080B230B143F04003A3814FF0FF3070BDA1
:1047D000002070BD80000020AC6B0008CC6B00088E
:1047E000EC6B00082DE9F74F03690C6980469C4289
:1047F0007FDC013C01F114074FEA840E00F114063E
:1048000006EB0E0357F82450019356F82430013577
:10481000B3FBF5F507EB0E09C5B34FF0000A3846B8
:10482000B446D34650F8043B9AB205FB02A21B0CD7
:104830004FEA124A05FB03A392B2C2EB0B0BBCF882
:1048400000204FEA134A5A441FFA83FBDCF8003079
:104850008145CBEB134303EB224392B242EA03427E
:104860004FEA234B4CF8042BDCD256F80E306BB9D0
:10487000019B043B9E421A4602D3C8F8104005E053
:104880001268043B002AF8D1013CF3E7404601F0EE
:10489000E4F900282BDB304601354FF0000E57F8C5
:1048A000042B036891B2C1EB0E0E120C99B2714445
:1048B000C2EB134303EB214389B24FEA234EB945C0
:1048C00041EA034340F8043BE9D256F8242006EBC2
:1048D000840362B9043B9E421A4602D3C8F81040D2
:1048E00005E01268043B002AF8D1013CF3E72846B2
:1048F00000E0002003B0BDE8F08F000000000000E1
:104900002DE9F04F456A95B08246219CCDE90223FE
:1049100045B9102000F074FFCAF824004560856096
:104920000560C560DAF82430196859B15A68012366
:1049300093404A608B60504600F0B8FFDAF82430AC
:1049400000221A60039BA04A002BBDBF01232360F5
:10495000039B0023BCBF23F000430393DDF80C80CE
:10496000A8BF236028F000431B0D1B0593421DD1F7
:1049700042F20F73209A1360029B43B9934A944BFF
:10498000C8F31300002814BF1846104600E09048F2
:10499000229B002B00F04685C37813B100F1080379
:1049A00000E0C31C229A136000F03CBDDDE9024523
:1049B0000022002320462946FCF7CEFA074658B1CC
:1049C000209A01231360229B002B00F01E85814852
:1049D0001860013800F026BD12AB019313AB0093B1
:1049E00022462B46504601F0B3F9C8F30A5604900C
:1049F00056B1C5F3130343F07F51204641F44011F3
:104A0000A6F2FF3611971DE0139B129E1E4406F27C
:104A10003243202B0ADD029A06F21240C3F1400312
:104A200022FA00F008FA03F3184304E0C3F120006F
:104A3000029B03FA00F0FBF7DBFC0123A1F1F87104
:104A4000013E11930022644BFBF794FB58A3D3E97A
:104A50000023FBF743FD58A3D3E90023FBF78CFBAE
:104A6000044630460D46FBF7D3FC55A3D3E900239B
:104A7000FBF734FD02460B4620462946FBF77CFB3C
:104A800004460D46FCF7B0FA002283460023204678
:104A90002946FCF76BFA58B15846FBF7B9FC0246B9
:104AA0000B4620462946FCF757FA08B90BF1FF3BA5
:104AB000BBF1160F0DD8DDE90223484901EBCB010C
:104AC000D1E90001FCF770FA30B10BF1FF3B002394
:104AD00000E00123109300E01090129B9E1B731EB8
:104AE000079343BFC3F10008002307934FF000086A
:104AF000BBF1000F06DB079BCDF82CB05B4407939E
:104B0000002705E00023CBEB0808CBF100070B934F
:104B10001E9B092B28D8052BC4BF043B1E931E9B4C
:104B2000C8BF0025A3F10203D8BF0125032B20D85D
:104B3000DFE803F0060E0204012302E0012308E08F
:104B400000230A931F9B002B1DDD9946059321E04E
:104B500000230A931F9B0BEB030909F10103012BAF
:104B60000593B8BF012315E0012500231E930A9584
:104B700001E001230A934FF0FF390022CDF8149091
:104B800012231F9206E04FF001094B46CDF8149016
:104B9000CDF87C90DAF8244000226260042101F113
:104BA00014029A421CD86268490001326260F6E73A
:104BB00061436F63A787D23FB3C8608B288AC63F23
:104BC000FB799F501344D33F0000F07F9C6B00089B
:104BD000A56B0008796B00080000F83F106C000816
:104BE0006168504600F02DFEDAF8243020601B6822
:104BF0000693059B0E2B00F25B81002D00F058817F
:104C0000DDE90234BBF1000FCDE90E3430DD9F4AFF
:104C10000BF00F034FEA2B1502EBC303E80618CB8A
:104C2000CDE908340CD5DDE90E01994B05F00F05EF
:104C3000D3E90823FBF77CFD0324CDE9020100E062
:104C40000224934E6DB1E90708D5DDE90801D6E9E4
:104C50000023FBF743FCCDE9080101346D10083651
:104C6000F0E7DDE90823DDE90201FBF761FD20E063
:104C7000CBF1000505B3DDE90E01844B05F00F0211
:104C800003EBC203D3E90023FBF728FCCDE90201C3
:104C90007F4E2D110023022455B1EA0705D5D6E930
:104CA0000023FBF71BFC013401236D100836F3E7EA
:104CB0001BB1CDE9020100E00224109BE3B1DDE964
:104CC00002560022734B28463146FCF74FF998B143
:104CD000059B8BB1B9F1000F40F3E6800BF1FF3378
:104CE0000893314600226C4B2846FBF7F7FB013452
:104CF000CDE902014E4602E0059ECDF820B02046E7
:104D0000FBF786FBDDE90223FBF7E8FB634B0022A0
:104D1000FBF732FAA1F1507304460C931D46D6B945
:104D2000DDE9020100225E4BFBF724FA22460C9BD0
:104D3000CDE90201FCF738F9002840F03F820C99D8
:104D4000224601F10043DDE90201FCF70FF90028DA
:104D500040F02B82A8E00A9A4C4B711E002A49D0E1
:104D600003EBC103D3E9002300204E49FBF7E0FC2D
:104D700022462B46FBF7FEF9CDE90C01069CDDE946
:104D80000201FCF731F90546FBF742FB02460B46F0
:104D9000DDE90201FBF7EEF9DDE90C23303504F81B
:104DA000015BCDE90201FCF7E1F8002840F01D832A
:104DB000DDE9022300203749FBF7DCF9DDE90C23AC
:104DC000FCF7D4F8002840F0D180069BE31AB342E8
:104DD0006ADADDE90C0100222F4BFBF77FFB002292
:104DE000CDE90C01DDE902012B4BFBF777FBCDE9A7
:104DF0000201C4E703EBC1012246D1E900012B46C1
:104E0000FBF76CFB069BCDE90C011D469C19DDE907
:104E10000201FCF7E9F80646FBF7FAFA02460B46F0
:104E2000DDE90201FBF7A6F9303605F8016BAC426B
:104E3000CDE902014FF0000222D11A4BDDE90C014D
:104E4000FBF79AF902460B46DDE90201FCF7ACF8E4
:104E5000002840F08B80DDE90C2300201149FBF78E
:104E600089F902460B46DDE90201FCF77FF8D8B16B
:104E700014F8013C621E302B40F0B7821446F7E76D
:104E8000054BFBF72BFBCDE90201C0E7106C0008D6
:104E9000D86C00080000F03F0000244000001C40D7
:104EA000000014400000E03FDDE90E34CDE902349B
:104EB000139B002B7CDBBBF10E0F79DCAB4B03EBC0
:104EC000CB03D3E900671F9B002B14DA059B002B53
:104ED00011DC40F06C810022A54B30463946FBF7CF
:104EE000FDFADDE90223FCF755F8059D2E46002862
:104EF00040F05F8165E1069CDDE9028932463B4670
:104F000040464946FBF714FCFCF76EF80546FBF7F4
:104F10007FFA32463B46FBF7E1FA0B46024649462A
:104F20004046FBF727F905F1300E069B04F801EB2C
:104F3000C3EB040E059B73452DD102460B46FBF7D0
:104F40001BF98046894602460B4630463946FCF737
:104F50000DF878B942464B4630463946FBF7FCFF20
:104F6000002800F04482EB0704D440E2DDF820B0D2
:104F700000E01C4614F8012C631E392A07D1069A5A
:104F80009A42F6D1069930220BF1010B0A701A7879
:104F900001321A702BE20022764BFBF79FFA0022B7
:104FA000002380468946FBF7D7FF0028A6D01EE2E3
:104FB0000A9A002A2BD01E9A012A0ADC119A12B1F1
:104FC00003F2334302E0129BC3F136033D464446ED
:104FD00013E0059B5D1EAF42BFBF0B9BEA1B9B18F6
:104FE0000B93059BB6BF2F467D1B0025002BA7BF4B
:104FF0004446059BC3EB08040023079A01211A4489
:1050000050469844079200F0F0FC064602E03D4608
:1050100044460A9E5CB1079B002B08DDA342A8BF53
:105020002346079AC3EB0808E41AD31A0793002F04
:105030001DDD0A9BABB18DB131462A46504600F0CA
:105040006DFD049A01460646504600F0D7FC0499CF
:105050000890504600F02AFC089B04937A1B06D067
:1050600000E03A460499504600F058FD04900121B2
:10507000504600F0BAFC0B9B05465BB31A4601464E
:10508000504600F04BFD1E9B0546012B18DC029B91
:1050900083B9039BC3F3130373B9039B23F0004746
:1050A0003F0D3F054FB1079B08F1010801330793FE
:1050B000012702E0002700E0029F0B9B73B100E094
:1050C00000272B6905EB8303186900F041FCC0F150
:1050D000200004E01E9B012BD9DD0B9F0120079BC4
:1050E000184410F01F0008D0C0F12003042B02DD8B
:1050F000C0F11C0002E006D018461C30079B80441B
:10510000034404440793B8F1000F05DD42460499B7
:10511000504600F051FD0490079B002B05DD294609
:105120001A46504600F048FD0546109B23B3294619
:10513000049800F092FD00281EDA00230A22049948
:10514000504600F0CAFB0A9B0BF1FF3B0490002B7A
:1051500000F05F81314600230A22504600F0BDFB7B
:10516000B9F1000F06463FDC3BE000BF106C0008C1
:105170000000144000002440059B002B2BDC1E9BEC
:10518000022B28DDDDF81490B9F1000F11D129466A
:105190004B460522504600F0A0FB01460546049808
:1051A00000F05BFD00280CDC03E0354600E0002544
:1051B0002E461F9B069C6FEA030B09E03546DDF87F
:1051C00020B0069B069A5C1C312313700BF1010B77
:1051D00005960026F7E00A9BDDF8149023B9069C9B
:1051E000B2E01E9B022BCFDC002C05DD31462246AF
:1051F000504600F0E1FC06469FB17168504600F051
:1052000020FB0446326906F10C01023292000C3098
:1052100000F00CFB01222146504600F0CDFC059029
:1052200000E00596029B069F03F0010307932946C1
:105230000498FFF7D7FA3146044600F13008049885
:1052400000F00BFD059A02902946504600F021FD22
:10525000C36802463BB901460A90049800F0FDFC81
:105260000A9A034600E00123114650460A9300F0D3
:105270001DFB0A9B53B91E9A42B9079A32B9B8F17D
:10528000390F2AD0029B002B1CDC1DE0029A002A59
:1052900004DB1BD11E9ACAB9079ABAB9002B13DDD9
:1052A00001220499504600F087FC2946049000F042
:1052B000D4FC002803DC07D118F0010F04D0B8F1AA
:1052C000390F0AD004F131087C1C0CE0002B07F1E7
:1052D00001040BDDB8F1390F03D139233B700137DD
:1052E00056E008F1010887F800806CE0069B27462D
:1052F000E31A4B4504F8018C3BD000230A220499A1
:10530000504600F0EAFA059B04909E424FF00A02D4
:105310004FF000033146504604D100F0DEFA064655
:10532000059084E700F0D9FA002306460A22059981
:10533000504600F0D2FA059079E700230A2204993A
:10534000504600F0CAFA049029460498FFF74AFA3A
:10535000069B00F1300804F8018BE31A4B45ECDBA7
:10536000069B0596B9F1010FACBF4B4401331F46B4
:10537000002601220499504600F01EFC29460490A4
:1053800000F06BFC002803DC15D118F0010F12D0DF
:105390003C4614F8013C621E392B09D1069B93420E
:1053A00004D10BF1010B3123069A02E01446F0E719
:1053B0000133137007E03C4614F8013C621E302BA9
:1053C00001D11446F8E72946504600F06FFA059BD4
:1053D0006BB12EB19E4203D03146504600F066FAC2
:1053E0000599504600F062FA01E0DDF820B004991A
:1053F000504600F05BFA0023209A23700BF1010362
:105400001360229B1BB11C6001E008480AE006986B
:1054100008E0B9F1000F3FF7E2AE1E9B022B7FF7C9
:10542000DEAEB1E615B0BDE8F08F00BF786B0008C6
:105430008A892DE9F041054610070C4659D44B687E
:10544000002B02DC0B6C002B17DDE66AAEB102F418
:105450008052002392B22F682B600AB1606D15E074
:10546000216A01232846B047411C0FD12B686BB13C
:105470001D2B01D0162B03D12F600020BDE8F08139
:10548000A38943F04003A381BDE8F081A3895A07B3
:1054900005D56368C01A636B0BB1236CC01A002377
:1054A0000246E66A216A2846B047431CA38906D112
:1054B00029681D2939D8204ACA40D60735D5002287
:1054C00062602269D904226004D5421C01D12B6894
:1054D00003B96065616B2F600029CED004F14403ED
:1054E000994202D0284600F08FFC00206063BDE89E
:1054F000F0810F69002FC0D093070E680CBF4B6975
:105500000023C7EB06080F608B6002E00744C0EB86
:105510000808B8F1000FB0DD43463A46216A284634
:10552000A66AB0470028F1DCA38943F04003A381B9
:105530004FF0FF30BDE8F0810100402038B50B6925
:1055400005460C46DBB118B183690BB900F060F871
:105550000C4B9C4201D16C6808E00B4B9C4201D182
:10556000AC6803E0094B9C4208BFEC68B4F90C300E
:105570002BB121462846BDE83840FFF759BF00202F
:1055800038BD00BFAC6B0008CC6B0008EC6B0008AA
:10559000014900F0A9B800BF3D55000810B5044608
:1055A000002303604360836081814366C28103619D
:1055B00043618361194608225C30FEF7B3FA054B5C
:1055C00024626362044BA362044BE362044B2363D3
:1055D00010BD00BF05620008276200085F62000876
:1055E0008362000870B568234D1E5D430E4605F1C9
:1055F000740100F055FC044640B1002180E84200EF
:105600000C30A06005F16802FEF78CFA204670BDF0
:10561000836910B5044633BB8364C3640365124BCE
:10562000124A1B688262984204BF0123836100F022
:105630001FF86060204600F01BF8A060204600F0D4
:1056400017F80022E06004216068FFF7A7FF01223D
:105650000921A068FFF7A2FF02221221E068FFF7EC
:105660009DFF0123A36110BD646B000891550008E4
:10567000F8B51C4B07461E68B36913B93046FFF7EF
:10568000C7FF4836B4687368013B04D4B4F90C50C2
:105690007DB16834F8E733680BB13668F2E704216E
:1056A0003846FFF79FFF30600028F6D10C233B609F
:1056B000F8BD4FF6FF73E3810123A3816566256082
:1056C000A560656025616561A5610822294604F130
:1056D0005C00FEF727FA6563A563A564E5642046D0
:1056E000F8BD00BF646B00082DE9F8438046894689
:1056F00000F14804002694B1A5686768013F0CD406
:10570000AB89012B07D9B5F90E30013303D02946F7
:105710004046C84706436835F0E72468EBE7304663
:10572000BDE8F883044B1B68186A044B002808BFC7
:105730001846F030704700BF800000208400002031
:1057400070B50E46B1F90E1090B0002914461D46F2
:1057500006DA00232B60B3891A060ED540230EE02B
:1057600001AA00F0B5FD0028F3DB029A02F47042B2
:10577000A2F500535A425A412A604FF48063002038
:10578000236010B070BD00008B8973B59E0705467D
:105790000C4610D401AB6A46FFF7D2FF00990646CB
:1057A000284600F07DFB68B9B4F90C309A0522D484
:1057B00043F00203A38104F1470323602361012323
:1057C000636118E00D4BAB62A389206043F0800356
:1057D000A381009B20616361019B4BB1B4F90E1062
:1057E000284600F087FD18B1A38943F00103A38187
:1057F000A0893043A08102B070BD00BF9155000860
:10580000024B0146186800F04BBB00BF800000202F
:1058100010B5C9B202449042034605D01C7801304D
:105820008C42F8D1184610BD002010BD10B5431EA3
:105830000A44914204D011F8014B03F8014FF8E7F4
:1058400010BD70B5456A04460E463DB91020FFF7FD
:10585000D7FF6062456085600560C560656AEB687A
:1058600043B1636ADB6853F8260078B1026843F8F5
:10587000262017E021220421204600F0B7FA636AAF
:10588000E860DB68002BECD1002070BD012101FA3B
:1058900006F56A1D9200204600F0A8FA0028F3D011
:1058A0004660856000230361C36070BD70B5446AC3
:1058B00006460D463CB91020FFF7A2FF7062446017
:1058C00084600460C4603DB1736A6A68DB6853F841
:1058D0002210296043F8225070BD2DE9F0410646A0
:1058E0000C460D691F4601F1140E0023DEF800007E
:1058F000013381B202FB0171000C0F0C02FB00703E
:1059000089B201EB00419D424FEA10474EF8041B5B
:10591000ECDCD7B1A3689D4212DB616830460131EF
:10592000FFF78FFF8046226904F10C0102329200DA
:105930000C30FFF77BFF21463046FFF7B7FF4446A8
:1059400004EB850301355F6125612046BDE8F081E8
:10595000030C1B0413B90004102300E0002310F013
:105960007F4F04BF0002083310F0704F04BF0001E6
:10597000043310F0404F04BF80000233002803DBE3
:10598000420003D5581C70471846704720207047C6
:10599000036813F007020BD0D90722D49A074BBF34
:1059A0005B089B08036003604CBF01200220704726
:1059B00099B209B91B0C102213F0FF0F04BF1B0A88
:1059C0000832190704BF1B090432990704BF9B085A
:1059D0000232D90702D45B0805D0013203601046B9
:1059E0007047002070472020704710B50C460121F9
:1059F000FFF727FF01224461026110BD2DE9F74F37
:105A000014460A69236988469A42BEBF0B46A046DF
:105A10001C46D8F81070D4F81090D8F80830D8F890
:105A2000041007EB09069E42C8BF0131FFF709FFCA
:105A300000F114052B4605EB860C0022634502D2CB
:105A400043F8042BFAE704F1140208F1140102EB05
:105A5000890301EB87070093009B0192934257D97A
:105A6000B2F800B0BBF1000F23D08946AE464FF02C
:105A7000000859F8044BBEF800A0A3B20BFB03A327
:105A80004FEA144ADEF8004043444FEA14480BFB47
:105A90000A84F24604EB13449BB243EA04434F45A5
:105AA0004FEA14484AF8043B01D9D646E1E7CEF85C
:105AB0000480019B0432B3F802A0BAF1000F21D098
:105AC0002C4689462B684FF00008B9F800E0B4F87E
:105AD00002B09BB20AFB0EBEA346F04443EA084361
