:020000040800F2
:1000000000500020D9280008FD2C0008012D000810
:10001000052D0008092D00080D2D00080000000026
:10002000000000000000000000000000C10C0008FB
:10003000112D000800000000210D000829260008ED
:100040002129000821290008212900082129000868
:100050002129000821290008ED190008212900089C
:10006000FD1900082129000821290008212900087C
:100070002129000821290008212900082129000838
:100080002129000821290008212900082129000828
:10009000212900082129000821290008211A000827
:1000A0002129000821290008212900082129000808
:1000B000F11B00081D1C0008212900082129000847
:1000C00021290008212900082129000821290008E8
:1000D00021290008C5270008212900082129000836
:1000E000212900082129000821290008000000001A
:1000F0000000000000000000000000000000000000
:0C01000000000000000000005FF808F1A3
:1001100010B5054C237833B9044B13B10448AFF341
:1001200000800123237010BDF001002000000000BA
:1001300004520008084B10B51BB108490848AFF33A
:1001400000800848036803B910BD074B002BFBD0A3
:10015000BDE81040184700BF00000000F401002077
:1001600004520008F00100200000000081F000416E
:1001700002E000BF83F0004330B54FEA41044FEA8C
:10018000430594EA050F08BF90EA020F1FBF54EA27
:10019000000C55EA020C7FEA645C7FEA655C00F0C3
:1001A000E2804FEA5454D4EB5555B8BF6D420CDD94
:1001B0002C4480EA020281EA030382EA000083EA17
:1001C000010180EA020281EA0303362D88BF30BDB7
:1001D00011F0004F4FEA01314FF4801C4CEA11310D
:1001E00002D0404261EB410113F0004F4FEA03336C
:1001F0004CEA133302D0524263EB430394EA050FF7
:1002000000F0A780A4F10104D5F1200E0DDB02FA65
:100210000EFC22FA05F2801841F1000103FA0EF2F9
:10022000801843FA05F359410EE0A5F120050EF1BF
:10023000200E012A03FA0EFC28BF4CF0020C43FAF0
:1002400005F3C01851EBE37101F0004507D54FF0FD
:10025000000EDCF1000C7EEB00006EEB0101B1F54D
:10026000801F1BD3B1F5001F0CD349085FEA300093
:100270004FEA3C0C04F101044FEA445212F5800F9E
:1002800080F09A80BCF1004F08BF5FEA500C50F13B
:10029000000041EB045141EA050130BD5FEA4C0C1E
:1002A000404141EB010111F4801FA4F10104E9D1A7
:1002B00091F0000F04BF01460020B1FA81F308BF9E
:1002C0002033A3F10B03B3F120020CDA0C3208DD6A
:1002D00002F1140CC2F10C0201FA0CF021FA02F145
:1002E0000CE002F11402D8BFC2F1200C01FA02F1B5
:1002F00020FA0CFCDCBF41EA0C019040E41AA2BFDA
:1003000001EB0451294330BD6FEA04041F3C1CDAA1
:100310000C340EDC04F11404C4F1200220FA04F0C1
:1003200001FA02F340EA030021FA04F345EA03016B
:1003300030BDC4F10C04C4F1200220FA02F001FA2D
:1003400004F340EA0300294630BD21FA04F02946AF
:1003500030BD94F0000F83F4801306BF81F4801148
:100360000134013D4EE77FEA645C18BF7FEA655CBB
:1003700029D094EA050F08BF90EA020F05D054EA8D
:10038000000C04BF1946104630BD91EA030F1EBF92
:100390000021002030BD5FEA545C05D14000494196
:1003A00028BF41F0004130BD14F580043CBF01F589
:1003B000801130BD01F0004545F0FE4141F470016F
:1003C0004FF0000030BD7FEA645C1ABF194610464A
:1003D0007FEA655C1CBF0B46024650EA013406BF4B
:1003E00052EA033591EA030F41F4002130BD00BF0A
:1003F00090F0000F04BF0021704730B54FF48064C7
:1004000004F132044FF000054FF0000150E700BF47
:1004100090F0000F04BF0021704730B54FF48064A6
:1004200004F1320410F0004548BF40424FF0000193
:100430003EE700BF42004FEAE2014FEA31014FEAD6
:1004400002701FBF12F07F4393F07F4F81F0605125
:10045000704792F0000F14BF93F07F4F704730B594
:100460004FF4607401F0004521F0004120E700BF27
:1004700050EA010208BF704730B54FF000050AE0AE
:1004800050EA010208BF704730B511F0004502D5AF
:10049000404261EB41014FF4806404F132045FEAB1
:1004A000915C3FF4DCAE4FF003025FEADC0C18BF56
:1004B00003325FEADC0C18BF033202EBDC02C2F14C
:1004C000200300FA03FC20FA02F001FA03FE40EADE
:1004D0000E0021FA02F11444C1E600BF70B54FF0DE
:1004E000FF0C4CF4E06C1CEA11541DBF1CEA1355C0
:1004F00094EA0C0F95EA0C0F00F0DEF82C4481EA28
:10050000030621EA4C5123EA4C5350EA013518BF47
:1005100052EA033541F4801143F4801338D0A0FB34
:1005200002CE4FF00005E1FB02E506F00042E0FBE1
:1005300003E54FF00006E1FB03569CF0000F18BFE7
:100540004EF0010EA4F1FF04B6F5007F64F540748F
:1005500004D25FEA4E0E6D4146EB060642EAC62122
:1005600041EA55514FEAC52040EA5E504FEACE2E8F
:10057000B4F1FD0C88BFBCF5E06F1ED8BEF1004F92
:1005800008BF5FEA500E50F1000041EB045170BD0E
:1005900006F0004646EA010140EA020081EA030152
:1005A000B4EB5C04C2BFD4EB0C0541EA045170BD4E
:1005B00041F480114FF0000E013C00F3AB8014F1C8
:1005C000360FDEBF002001F0004170BDC4F1000411
:1005D000203C35DA0C341BDC04F11404C4F1200592
:1005E00000FA05F320FA04F001FA05F240EA0200ED
:1005F00001F0004221F0004110EBD37021FA04F623
:1006000042EB06015EEA430E08BF20EAD37070BDDC
:10061000C4F10C04C4F1200500FA04F320FA05F03B
:1006200001FA04F240EA020001F0004110EBD3703D
:1006300041F100015EEA430E08BF20EAD37070BDAD
:10064000C4F1200500FA05F24EEA020E20FA04F386
:1006500001FA05F243EA020321FA04F001F0004135
:1006600021FA04F220EA020000EBD3705EEA430EA6
:1006700008BF20EAD37070BD94F0000F0FD101F0D5
:100680000046400041EB010111F4801F08BF013C0E
:10069000F7D041EA060195F0000F18BF704703F04C
:1006A0000046520043EB030313F4801F08BF013DD3
:1006B000F7D043EA0603704794EA0C0F0CEA13558F
:1006C00018BF95EA0C0F0CD050EA410618BF52EA49
:1006D0004306D1D181EA030101F000414FF000004F
:1006E00070BD50EA410606BF1046194652EA43065D
:1006F00019D094EA0C0F02D150EA013613D195EAD1
:100700000C0F05D152EA03361CBF104619460AD118
:1007100081EA030101F0004141F0FE4141F4700122
:100720004FF0000070BD41F0FE4141F4780170BD12
:1007300070B54FF0FF0C4CF4E06C1CEA11541DBF77
:100740001CEA135594EA0C0F95EA0C0F00F0A7F879
:10075000A4EB050481EA030E52EA03354FEA0131A6
:1007600000F088804FEA03334FF0805545EA1313B9
:1007700043EA12634FEA022245EA111545EA106581
:100780004FEA00260EF000419D4208BF964244F118
:10079000FD0404F5407402D25B084FEA3202B61A37
:1007A00065EB03055B084FEA32024FF480104FF40B
:1007B000002CB6EB020E75EB030E22BFB61A75467F
:1007C00040EA0C005B084FEA3202B6EB020E75EB12
:1007D000030E22BFB61A754640EA5C005B084FEA7A
:1007E0003202B6EB020E75EB030E22BFB61A754647
:1007F00040EA9C005B084FEA3202B6EB020E75EB52
:10080000030E22BFB61A754640EADC0055EA060E12
:1008100018D04FEA051545EA16754FEA06164FEA55
:10082000C30343EA52734FEAC2025FEA1C1CC0D101
:1008300011F4801F0BD141EA00014FF000004FF08E
:10084000004CB6E711F4801F04BF01430020B4F14F
:10085000FD0C88BFBCF5E06F3FF6AFAEB5EB030C07
:1008600004BFB6EB020C5FEA500C50F1000041EB04
:10087000045170BD0EF0004E4EEA113114EB5C04D1
:10088000C2BFD4EB0C0541EA045170BD41F48011A4
:100890004FF0000E013C90E645EA060E8DE60CEAAC
:1008A000135594EA0C0F08BF95EA0C0F3FF43BAFC9
:1008B00094EA0C0F0AD150EA01347FF434AF95EA80
:1008C0000C0F7FF425AF104619462CE795EA0C0F64
:1008D00006D152EA03353FF4FDAE1046194622E731
:1008E00050EA410618BF52EA43067FF4C5AE50EA0B
:1008F00041047FF40DAF52EA43057FF4EBAE12E7FB
:100900004FEA410212F5001215D211D56FF4787337
:10091000B3EB625212D94FEAC12343F0004343EADA
:10092000505311F0004F23FA02F018BF40427047B5
:100930004FF00000704750EA013005D111F000403F
:1009400008BF6FF0004070474FF00000704700BFD5
:10095000034613F8012B002AFBD1181A01387047FF
:100960004FF0FF3C06E000BF4FF0010C02E000BF7B
:100970004FF0010C4DF804CD4FEA410C7FEA6C5C5E
:100980004FEA430C18BF7FEA6C5C1BD001B050EA01
:10099000410C0CBF52EA430C91EA030F02BF90EAEC
:1009A000020F0020704710F1000F91EA030F58BFAB
:1009B000994208BF90422CBFD8176FEAE37040F00D
:1009C000010070474FEA410C7FEA6C5C02D150EAAB
:1009D000013C07D14FEA430C7FEA6C5CD6D152EA66
:1009E000033CD3D05DF8040B704700BF844610462B
:1009F00062468C461946634600E000BF01B5FFF72A
:100A0000B7FF002848BF10F1000F01BD4DF808EDF9
:100A1000FFF7F4FF0CBF012000205DF808FB00BFCA
:100A20004DF808EDFFF7EAFF34BF012000205DF824
:100A300008FB00BF4DF808EDFFF7E0FF94BF012071
:100A400000205DF808FB00BF4DF808EDFFF7CEFF72
:100A500094BF012000205DF808FB00BF4DF808EDB1
:100A6000FFF7C4FF34BF012000205DF808FB00BF82
:100A70004FEA410C7FEA6C5C02D150EA013C0AD19A
:100A80004FEA430C7FEA6C5C02D152EA033C02D18C
:100A90004FF0000070474FF001007047124A12F00B
:100AA000070F07D0D11D21F00701C1F5884313447A
:100AB0000A4601E04FF488430C480260002141607F
:100AC0001344083B23F00703094803605960196089
:100AD000991A51601360074B1960074B19604FF06A
:100AE0000042064B1A6070471C02002014020020CE
:100AF00010020020204600200C0200201C4600208E
:100B0000124A00E01A4613688342FBD310B45168BE
:100B10005418A04203D14068014451601046416816
:100B20004418A3420CD10A4C2468A34206D05B6847
:100B30001944416013681B68036002E0046000E030
:100B40000360904200D0106010BC70471402002077
:100B50001002002070B5054600F0DEFB274B1B6835
:100B60000BB9FFF79BFF264B1B681D423BD135B1EC
:100B7000083515F0070F02D025F007050835002DC0
:100B800033D0204B1B689D4231D81F4A146801E0C6
:100B900022461C4663689D4202D92368002BF7D188
:100BA000164B1B689C4224D01668083623681360D5
:100BB00063685B1B102B04D9601943606560FFF705
:100BC0009FFF62680F490B689B1A0B600F49096809
:100BD0008B4201D20D490B60094B1B681A436260BE
:100BE0000023236006E0002604E0002602E0002641
:100BF00000E0002600F01EFC304670BD1002002010
:100C00001C4600200C020020140200202046002078
:100C1000F8B138B50346A0F1080550F8042C0D4989
:100C200009680A4214D050F8080C88B91C4622EA18
:100C3000010243F8042C00F06FFB54F8043C064A10
:100C400011680B4413602846FFF75AFF00F0F2FBCF
:100C500038BD70471C4600200C0200204FF0BF0337
:100C600083F31188BFF36F8FBFF34F8FFEE700BF91
:100C700006480068006880F3088862B661B6BFF372
:100C80004F8FBFF36F8F00DF00BF000008ED00E063
:100C90004FF0807340F8043C21F0010140F8081C3B
:100CA000034B40F80C3C40F8202C4038704700BF04
:100CB0005D0C0008000000000000000000000000C3
:100CC000074B19680868B0E8F00F80F30988BFF394
:100CD0006F8F4FF0000080F311884EF00D0E7047BB
:100CE000BC4600204FF0BF0383F31188BFF36F8F22
:100CF000BFF34F8F024A136801331360704700BF80
:100D000000000020034A1368013B13600BB983F312
:100D10001188704700000020000000000000000063
:100D2000EFF30980BFF36F8F0D4B1A6820E9F00FC6
:100D300010602DE908404FF0BF0080F3118800F0EB
:100D400041FC4FF0000080F31188BDE808401968AD
:100D50000868B0E8F00F80F30988BFF36F8F704721
:100D6000BC46002008B54FF0BF0383F31188BFF3E2
:100D70006F8FBFF34F8F00F0D7FA18B14FF080524A
:100D8000024B1A60002383F3118808BD04ED00E0D4
:100D9000034A044B1A600722043B1A60704700BFE5
:100DA0003F19010014E000E008B5094B1A6842F44D
:100DB0007F021A601A6842F07F421A60FFF7E8FF6C
:100DC0000022044B1A60FFF753FFFFF747FF00BFF5
:100DD00020ED00E00000002000F1080343604FF028
:100DE000FF328260C360036100230360704700BF6D
:100DF00000230361704700BF43684B609A688A60B4
:100E00009A68516099600861036801330360704714
:100E100030B40D68B5F1FF3F01D1026907E000F180
:100E2000080200E01A4653681C68A542FAD25368CB
:100E30004B6099608A605160086103680133036008
:100E400030BC70470369426881689160826841687C
:100E500051605A68904201D182685A600022026152
:100E6000186801381860704742690B4B9A4201D1EB
:100E7000012300E0002343B1826A08498A4206D078
:100E800002B100232BB900207047002070470020DA
:100E900070470120704700BF0C470020C04600206B
:100EA0000A4B1B681B680BB9012300E0002323B128
:100EB0004FF0FF32064B1A607047044B1B68DB682B
:100EC000DB685A68024B1A60704700BF2846002052
:100ED000DC46002010B50446006BFFF799FE204663
:100EE000FFF796FE10BD00BF2DE9F04781460D4685
:100EF00017469A46089EDDF824800A9C9200A52198
:100F0000206B01F0C6FF236B07F18042013A03EB2F
:100F1000820727F00707002306E0E95CE21882F861
:100F20003410EA5C12B101330F2BF6D9002384F898
:100F30004330042E00D90426E662201DFFF758FF37
:100F400004F11800FFF754FF2461C6F10506A661FD
:100F500064620023636484F8483052464946384648
:100F6000FFF796FE2060B8F1000F01D0C8F80040EE
:100F7000BDE8F08738B5002407E004EB8402930055
:100F80000E481844FFF728FF0134042CF5D90C4D06
:100F90002846FFF721FF0B4C2046FFF71DFF0A48AC
:100FA000FFF71AFF0948FFF717FF0948FFF714FF7B
:100FB000084B1D60084B1C6038BD00BF4C4600202C
:100FC000E4460020F8460020C046002030460020BD
:100FD0000C470020284600204446002010B5044657
:100FE000FFF780FE204A1368013313601F4B1B6814
:100FF0003BB91E4B1C601368012B0DD1FFF7BAFFE4
:101000000AE01B4B1B683BB9184B1B68DA6AE36AA2
:101010009A4201D8154B1C60164A136801331360BD
:10102000E36A012202FA03F1134802680A430260EC
:1010300003EB83039A00211D10481044FFF7DCFEE8
:10104000FFF760FE0A4B1B686BB1084B1B68DA6A3E
:10105000E36A9A4207D24FF08052094B1A60BFF3FD
:101060004F8FBFF36F8F10BDB8460020BC460020E5
:101070002C460020E0460020204700204C4600205F
:1010800004ED00E070B504460E461D4B1D681D4B77
:1010900018680430FFF7D6FE50B91A4B1B68DA6A9D
:1010A000012303FA02F218490B6823EA02030B60DA
:1010B000B4F1FF3F07D136B1124B19680431134820
:1010C000FFF79AFE70BD2C440E4B1B685C60A54276
:1010D00007D90F4B18680B4B19680431FFF798FEBE
:1010E00070BD0C4B1868074B19680431FFF790FE70
:1010F000094B1B689C4201D2074B1C6070BD00BFAE
:10110000D8460020BC460020204700200C47002085
:101110004446002028460020DC4600202DE9F0430C
:1011200085B006460F46154698469000FFF712FD1B
:1011300060B181464C20FFF70DFD044610B1C0F8A8
:10114000309004E04846FFF763FD00E000248CB1D6
:101150000023039302940D9B01930C9B0093434641
:101160002A4639463046FFF7BFFE2046FFF736FFD6
:10117000012001E04FF0FF3005B0BDE8F08300BF73
:1011800038B50446FFF7AEFD0CB9244B1C68251D8D
:101190002846FFF757FE70B9E36A03EB83018A0024
:1011A0001F498A583AB9012202FA03F31D490A6815
:1011B00022EA03030B60A36A1BB104F11800FFF7D6
:1011C00041FE194A136801331360144B1B689C429B
:1011D00008D129461548FFF70FFE154A1368013359
:1011E000136008E0134A1368013B13602046FFF7C1
:1011F00071FEFFF755FEFFF785FD0F4B1B685BB1D6
:10120000064B1B689C4207D14FF080520B4B1A6073
:10121000BFF34F8FBFF36F8F38BD00BFBC460020B8
:101220004C46002020470020E046002030460020A9
:10123000B4460020B84600202C46002004ED00E013
:1012400080B338B5184A126890422AD00446FFF796
:1012500049FD2046FFF708FE08B3251D2846FFF785
:10126000F1FDE36A012202FA03F1104802680A4321
:10127000026003EB83039A0029460D481044FFF7F0
:10128000BBFDE26A084B1B68DB6A9A4207D34FF04A
:101290008052084B1A60BFF34F8FBFF36F8FFFF779
:1012A00031FD38BD704700BFBC46002020470020FC
:1012B0004C46002004ED00E000B583B0104B0193D4
:1012C0000023009380220F490F48FFF727FF0128D2
:1012D00013D14FF0BF0383F31188BFF36F8FBFF3B8
:1012E0004F8F4FF0FF32094B1A600122084B1A60F2
:1012F0000022084B1A60FFF757FD03B05DF804FBAE
:10130000D4460020205200089D150008DC4600202D
:101310002C460020D8460020024A1368013313608F
:10132000704700BFB0460020F8B5374B1B68002B54
:101330005CD1364B1E6801361E605EB9344A1168B6
:10134000344B186810601960334A13680133136016
:10135000FFF7A6FD314B1B689E4203D200273AE0FF
:10136000012700E000272A4B1B681B680BB90123EB
:1013700000E0002323B14FF0FF32284B1A602AE02F
:10138000234B1B68DB68DC6863689E4202D2234AF9
:10139000136020E0251D2846FFF754FDA36A1BB10A
:1013A00004F11800FFF74EFDE36A012202FA03F18F
:1013B0001B4802680A43026003EB83039A00294634
:1013C00018481044FFF718FDE26A174B1B68DB6AE8
:1013D0009A42C5D2C7E7144B1B68DB6A03EB830351
:1013E0009A00104B9B58012B06D806E00F4A136851
:1013F00001331360002700E001270D4B1B6803B188
:1014000001273846F8BD00BFB0460020D84600206E
:10141000284600204446002024460020DC460020C8
:10142000204700204C460020BC46002048460020B3
:101430002447002038B5FFF755FC2D4B1A68013AB8
:101440001A601B68002B4CD12A4B1B6833BB00244D
:101450004AE0294BDB68DC6804F11800FFF7F2FC76
:10146000251D2846FFF7EEFCE36A012202FA03F18C
:10147000224802680A43026003EB83039A0029466C
:101480001F481044FFF7B8FCE26A1E4B1B68DB6A7A
:101490009A4204D301221C4B1A6000E00024164B30
:1014A0001B68002BD5D10CB1FFF7FAFC174B1C6859
:1014B00054B1FFF739FF10B10122134B1A60013C00
:1014C000F7D10022114B1A600F4B1B685BB14FF034
:1014D00080520F4B1A60BFF34F8FBFF36F8F012401
:1014E00002E0002400E00024FFF70CFC204638BD99
:1014F000B0460020B8460020C0460020204700200B
:101500004C460020BC4600202447002048460020CE
:1015100004ED00E010B548B10446FFF7FDFE0021E0
:101520002046FFF7AFFDFFF785FF00E0002038B948
:101530004FF08052034B1A60BFF34F8FBFF36F8F92
:1015400010BD00BF04ED00E010B51BE0FFF7E4FEA6
:101550000F4B1C68FFF76EFFA4B1FFF7C3FB0C4BEA
:10156000DB68DC68201DFFF76DFC0A4A1368013B4D
:101570001360094A1368013B1360FFF7C3FB204661
:10158000FFF7A8FC044B1B68002BDFD110BD00BF88
:1015900030460020B8460020B446002008B5FFF7CA
:1015A000D3FF064B1B68012BF9D94FF08052044B37
:1015B0001A60BFF34F8FBFF36F8FF0E74C460020E8
:1015C00004ED00E0184B1B681BB10122174B1A6099
:1015D000704730B40022154B1A60154B1B68B3FAE4
:1015E00083F3DBB2C3F11F03124D9900CA189000B8
:1015F000284442685468446019448A0008322A44E6
:10160000944205D1606803EB83018A002A4450604C
:1016100003EB83039A00074B1A445368DA68064BBE
:101620001A6030BC704700BFB0460020244700203D
:10163000204700204C460020BC46002038B5044618
:10164000FFF750FB0CB9244B1C68251D2846FFF7FB
:10165000F9FB70B9E36A03EB83018A001F498A58DA
:101660003AB9012202FA03F31D490A6822EA030388
:101670000B60A36A1BB104F11800FFF7E3FB2946D6
:101680001848FFF7B9FBFFF73DFB174B1B682BB161
:10169000FFF728FBFFF704FCFFF734FB0E4B1B683A
:1016A0009C4217D1104B1B6843B14FF080520F4B37
:1016B0001A60BFF34F8FBFF36F8F38BD094B1A68A5
:1016C0000B4B1B689A4203D10022034B1A6038BDB2
:1016D000FFF778FF38BD00BFBC4600204C46002015
:1016E000204700200C4700202C46002004ED00E09D
:1016F000B8460020054B1B6823B1054B1B681BB97E
:101700000220704701207047002070472C460020BF
:10171000B046002030B587B001214FF4027000F0D0
:1017200093FE4FF4004000F027FE0223ADF8003096
:1017300000248DF8034069461B4800F0C5FD0121D7
:10174000042000F081FE1023ADF8003069461748F0
:1017500000F0BAFD164D284600F0D4FC01948DF837
:1017600008408DF809404FF460230393049401244A
:101770008DF8144001A9284600F0F6FC21462846C1
:1017800000F016FD284600F01FFD094800F022FD7C
:101790000028FAD1064800F025FD054800F028FD94
:1017A0000028FAD107B030BD000C0140000801400C
:1017B0000024014010B50A4C0723012201462046AF
:1017C00000F02AFD0121204600F01AFD0221044804
:1017D00000F06CFD0028F9D0014800F063FD10BD59
:1017E00000240140F8B507460E460024254608E0CF
:1017F0003846FFF7DFFF0544052000F063FF0134A2
:10180000E4B2B442F4D3B5FBF6F080B2F8BD00BF49
:1018100000B583B00121082000F016FE4FF480735C
:10182000ADF8043010238DF8073003238DF806300F
:101830000122044B1A6001A9034800F045FD03B0E2
:101840005DF804FBA0812142000C014010B50A4B59
:101850005A6822F0F0025A605A6842F030025A6028
:10186000064C00232360142000F02CFF012323608A
:101870001E2000F009FF10BD000C0140A481214290
:1018800010B5154B5A6822F0F0025A605A6842F0BF
:1018900080025A60002404E00134E4B2012000F028
:1018A000F3FE0E4B1B680BB1632CF5D9632C0FD8DC
:1018B000002404E00134E4B2012000F0E5FE074B0F
:1018C0001B680BB9632CF5D9632C03D9012010BD1B
:1018D000012010BD002010BD000C014024812142D8
:1018E00010B5002404E00134E4B2012000F0CCFE85
:1018F0000E4B1B684BB1632CF5D9002406E0013474
:10190000E4B2012000F0C0FE00E00024074B1B6899
:101910000BB9632CF3D9282000F0B6FE034B1B68EB
:101920000BB1012010BD002010BD00BF2481214259
:1019300038B50020054607E04000C4B2FFF7D0FFED
:101940002043C0B20135EDB2072DF5D938BD00BF37
:10195000F0B583B006460F46FFF778FFFFF790FF1C
:1019600050B101251DE0FFF7E3FF02AB234403F86C
:10197000080C0134E4B201E005460024042CF2D93D
:101980009DF800109DF801300B449DF8022013448F
:101990009DF8030003449DF80400834201D139708F
:1019A0003270284603B0F0BD30B583B00121082065
:1019B00000F04AFD4FF40075ADF8045010238DF887
:1019C000073003238DF80630074C01A9204600F0AC
:1019D0007BFC2946204600F0CDFCFFF737FFFFF7E0
:1019E0004FFF03B030BD00BF000C014008B50A2016
:1019F00000F068FE012000F061FC08BD08B50A2077
:101A000000F060FE044B1B6813B90022034B1A6000
:101A1000042000F053FC08BD0881224288012242C4
:101A200008B50A2000F04EFE0A4B1B6833B90022AD
:101A3000094B1A604FF4807000F040FC074B1B68A4
:101A400033B90022064B1A604FF4007000F036FCE8
:101A500008BD00BF2001224280012242240122420F
:101A60008401224210B582B00121342000F0ECFC48
:101A70004FF44073ADF8043048248DF8074001A9B5
:101A80000C4800F021FC0423ADF804308DF8074029
:101A90000DEB0301084800F017FC0123ADF80430FA
:101AA00028238DF8073001A9044800F00DFC02B08E
:101AB00010BD00BF001001400014014000080140AB
:101AC00008B5244B1B780BB3234B1B684BB1234B3E
:101AD0001B6833B1224B1B681BB1224B1B68012BC7
:101AE00014D10A2000F0EEFD00221A4B1A701A4B96
:101AF0001B68FBB1194B1B68F3B1194B1B68EBB1A9
:101B0000184B1B68012B1BD1042008BD124B1B680E
:101B1000012B17D1114B1B68012B15D1104B1B68E2
:101B2000012B13D10F4B1B6893B90122094B1A707B
:101B3000002008BD012008BD022008BD032008BD0B
:101B4000002008BD002008BD002008BD002008BD01
:101B5000002008BD0400002020012242240122426E
:101B6000088122420001214200B583B001211020EA
:101B700000F06AFCFF23ADF8043010238DF8073025
:101B800003238DF8063001230B4A136004321360DF
:101B900004321360043213600432136004321360A1
:101BA000043213600432136001A9044800F08CFB76
:101BB00003B05DF804FB00BF800122420010014029
:101BC00000B583B00121042000F03EFC6023ADF895
:101BD000043010238DF8073003238DF8063001A957
:101BE000024800F071FB03B05DF804FB00080140FF
:101BF00008B501214FF0804000F042FC50B10121B6
:101C00004FF0804000F048FC034A1368B3FA83F3B6
:101C10005B09136008BD00BFA081214208B5012106
:101C2000074800F02DFC48B10121054800F034FCC4
:101C3000044A1368B3FA83F35B09136008BD00BF5D
:101C400000040040A0812142044B01221A60044993
:101C50000A6000220A601A60704700BFA00121429A
:101C6000B4012242034B00221A60012202490A6099
:101C70001A607047B4012242A001214208B5094B05
:101C800000221A60012208490A601A604FF40051CC
:101C9000064800F067FB012800D000200022014B1D
:101CA0001A6008BDA0012142B40122420010014087
:101CB00008B5002315E000210F4A116010F0800FD5
:101CC00005D0012102F580321432116002E00021BA
:101CD0000A4A11604000C0B20121074A11600B445A
:101CE000DBB2072BE7D90022034B1A60FFF7C6FFD0
:101CF0000028FBD108BD00BFA0012142B40122424F
:101D000010B50446FFF7A0FF7820FFF7D1FF402071
:101D1000FFF7CEFF2046FFF7CBFFFFF7A3FF10BD75
:101D200010B50446FFF790FF7820FFF7C1FF0020B1
:101D3000FFF7BEFF2046FFF7BBFFFFF793FF10BD85
:101D400000B583B00121142000F07EFB4FF48073B6
:101D5000ADF8043014238DF8073003238DF80630D6
:101D600001A90A4800F0B0FA4FF40053ADF804306E
:101D700001A9074800F0A8FA0123064A136002F5FA
:101D800080321432136003B05DF804FB0008014098
:101D900000100140A001214208B511B1FFF7B0FFCA
:101DA00008BDFFF7BDFF08BD10B50446A1F1500006
:101DB0000021C0B2FFF7F0FF002104F00F00FFF791
:101DC000EBFF2009002140F01000FFF7E5FF10BDF8
:101DD00038B500251AE0A5F150000021C0B2FFF788
:101DE000DBFF00210846FFF7D7FF00211020FFF797
:101DF000D3FF002405E001210020FFF7CDFF0134CF
:101E0000E4B214F0800FF6D00135EDB2072DE2D91F
:101E100038BD00BFF8B507460E46203AD5B210F0DF
:101E2000800F02D00236F6B2002731463846FFF75F
:101E3000BBFF002408E004EB051301210D4AD05C30
:101E4000FFF7AAFF0134E4B2072CF4D9711CC9B220
:101E50003846FFF7A9FF002409E004EB0513083317
:101E60000121044AD05CFFF797FF0134E4B2072C4C
:101E7000F3D9F8BD28520008012202E000FB02F26B
:101E800019464B1EDBB20029F8D11046704700BF3F
:101E90002DE9F0478246894617461D469DF8208069
:101EA000002634462CE0291B0139C9B20A20FFF76D
:101EB000E3FFB7FBF0F0144AA2FB0032D20802EBBA
:101EC00082025300C21AD2B276B96B1E9C420BDA60
:101ED0004AB94FEA580000FB04A020224946C0B28C
:101EE000FFF798FF0AE0012630324FEA580000FB66
:101EF00004A0D2B24946C0B2FFF78CFF0134E4B26D
:101F0000AC42D0D3BDE8F087CDCCCCCCF8B50446FC
:101F10000E46174600250DE031462046FFF77AFFB2
:101F20000834E4B214F0800F02D00236F6B2002476
:101F30000135EDB27A5D002AEED1F8BDF8B507465D
:101F40000E461546FFF730FF002408E00F4B03EB69
:101F500085130121185DFFF71FFF0134E4B20F2C38
:101F6000F4D9711CC9B23846FFF71EFF00240AE0FD
:101F70006B005A1C054B03EB42130121185DFFF760
:101F80000BFF0134E4B20F2CF2D9F8BD1858000849
:101F900008B5FFF7D5FE0021AE20FFF7FDFE0021BA
:101FA0000846FFF7F9FE00211020FFF7F5FE00219B
:101FB0004020FFF7F1FE0021B020FFF7EDFE0021E9
:101FC0008120FFF7E9FE0021FF20FFF7E5FE002159
:101FD000A120FFF7E1FE0021A620FFF7DDFE002192
:101FE000A820FFF7D9FE00213F20FFF7D5FE0021F2
:101FF000C820FFF7D1FE0021D320FFF7CDFE00213E
:102000000846FFF7C9FE0021D520FFF7C5FE0021D5
:102010008020FFF7C1FE0021D920FFF7BDFE00217F
:10202000F120FFF7B9FE0021DA20FFF7B5FE00210D
:102030001220FFF7B1FE0021DB20FFF7ADFE0021EB
:102040004020FFF7A9FE00218D20FFF7A5FE00210B
:102050001420FFF7A1FE0021AF20FFF79DFEFFF740
:10206000B7FE00210846FFF79FFE08BD40F0BF60A5
:1020700040F40030014BD860704700BF00ED00E035
:10208000C378FBB1154BDB68DB43C3F30223C3F119
:1020900004010F22DA40437803FA01F183781340F8
:1020A0000B431B010278DBB20D490A4482F800336E
:1020B0000378580903F01F03012202FA03F341F8E1
:1020C0002030704703785A0903F01F03012101FAF9
:1020D00003F32032024941F82230704700ED00E05E
:1020E00000E100E0042805D1054A136843F0040329
:1020F00013607047024A136823F0040313607047AB
:1021000010E000E008B5154B98420AD101214FF4C8
:10211000007000F0A7F900214FF4007000F0A2F960
:1021200008BD0F4B98420AD101214FF4806000F0A6
:1021300099F900214FF4806000F094F908BD094B33
:10214000984209D101214FF4004000F08BF90021A1
:102150004FF4004000F086F908BD00BF00240140A4
:1021600000280140003C014010B4436823F4702271
:1021700022F480720B680C7943EA04231343436012
:1021800083680A4C1C40CA688B681A434B7942EA40
:10219000430323438360C36A23F470020B7C013B37
:1021A000DBB242EA0353C36210BC7047FDF7F1FF94
:1021B00021B1836843F0010383607047836823F093
:1021C00001038360704700BF836843F008038360A6
:1021D000704700BF836813F0080F01D001207047DB
:1021E00000207047836843F004038360704700BF9A
:1021F000836813F0040F01D001207047002070475E
:1022000021B1836843F4A00383607047836823F49B
:10221000A0038360704700BF70B409290DD9C66858
:10222000A1F10A0404EB44040725A54026EA0505AC
:1022300003FA04F42C43C4600AE0066901EB41048C
:102240000725A54026EA050503FA04F42C4304619A
:10225000062A0BD8446B013A02EB82021F239340FB
:1022600024EA030391401943416318E00C2A0BD878
:10227000046B073A02EB82021F23934024EA030314
:102280009140194301630AE0C46A0D3A02EB8202ED
:102290001F23934024EA030391401943C16270BC99
:1022A000704700BFC06C80B2704700BF036819421E
:1022B00001D0012070470020704700BF014B5861DA
:1022C000704700BF00040140F0B4CB7803F00F0268
:1022D000154613F0100F01D08D7815430B78E3B13C
:1022E0000668002316E001229A400C8832EA0404B2
:1022F0000FD19C000F27A74026EA070605FA04F431
:102300002643CC78282C01D1426102E0482C00D130
:1023100002610133072BE6D906600B88FF2B1ED91B
:102320004668002318E003F108040122A2400C884B
:1023300032EA04040FD19C000F27A74026EA0706C3
:1023400005FA04F42643CC78282C00D14261CC78DD
:10235000482C00D102610133072BE4D94660F0BC60
:10236000704700BF8368194201D0012070470020E8
:10237000704700BF01617047034A536823F440432C
:1023800018435060704700BF0010024010B4294B42
:102390005B6803F00C03042B05D0082B06D013BB9D
:1023A000254B036021E0244B03601EE0214A536863
:1023B0005268C3F38343023312F4803F04D11F4AAF
:1023C00002FB03F3036010E01A4A526812F4003F64
:1023D00004D01A4A02FB03F3036006E0164A02FB2C
:1023E00003F3036001E0144B036012494B68C3F32D
:1023F0000313134CE35CDAB20368D34043604A68CA
:10240000C2F30222A25CD2B223FA02F282604A68CC
:10241000C2F3C222A25CD2B2D340C3604A68C2F304
:10242000813208498A5CD2B2B3FBF2F3036110BC7B
:10243000704700BF0010024000127A0000093D0002
:102440000C0000200800002021B1054B9A691043C0
:1024500098617047024A936923EA000090617047CF
:102460000010024021B1054BDA681043D860704774
:10247000024AD36823EA0000D0607047001002408F
:10248000028A83890B40114202D01BB90020704799
:102490000020704701207047C94389B2018270470C
:1024A00030B587B004460D46038A9BB2CA8823F430
:1024B00040531343038283899BB28A8809896889C0
:1024C0000A43024323F4B05323F00C031343A381C4
:1024D000A38A9BB2AA8923F440731343A38201A861
:1024E000FFF754FF1E4B9C4201D1049A00E0039A6F
:1024F000A38913F4004F08D002EB820202EB8202A0
:1025000029684900B2FBF1F107E002EB820202EB1D
:10251000820229688900B2FBF1F1124BA3FB01236F
:102520005B091B011A09642000FB1212A18911F436
:10253000004F08D0D20032320A49A1FB0212C2F386
:1025400042121A4307E0120132320649A1FB02127D
:10255000C2F343121A4392B2228107B030BD00BFCA
:10256000003801401F85EB5129B183899BB243F4A8
:1025700000538381704783899BB223F400539BB23D
:102580008381704710B4C1F3421401F01F0101238D
:1025900003FA01F19C4201D10C3004E0022C01D17C
:1025A000103000E014301AB103681943016003E0F1
:1025B000036823EA0101016010BC7047C1F3080100
:1025C000818070478088C0F30800704703881942F3
:1025D00001D0012070470020704700BF10B4C1F344
:1025E000421201F01F040123A340012A03D1828972
:1025F00092B2134008E0022A03D1028A92B2134039
:1026000002E0828A92B21340090A012202FA01F121
:10261000028892B2114013B119B9002002E00020E3
:1026200000E0012010BC704708B5FFF763F80128EF
:1026300001D0FEF797FB08BD08B50420FFF752FD57
:102640000C4B1B680C4AA2FB03239B0C0B4A137018
:102650004FF47A7202FB03F30121094A1180094AFF
:10266000116841F0020111605360136843F00103E7
:10267000136008BD1C00002083DE1B432847002098
:102680002A47002010E000E030B40C4A55680C4B9B
:102690001B7800FB03F0936800211A46074B9B68E8
:1026A0009A42FBD002D9D21A114402E0EC1A224419
:1026B00011448142F1D330BC704700BF10E000E00C
:1026C0002847002010B50446FFF714F801280ED063
:1026D0000A4B1888844203D3B4FBF0F0FEF71AFFCC
:1026E000064B1B88B4FBF3F203FB1244A4B24FF475
:1026F0007A7000FB04F0FFF7C7FF10BD2A470020E7
:1027000008B5054B1860054B1868002302221946CE
:10271000806800F073FF08BDF847002080000020AB
:1027200070B586B00646012144F20400FFF78CFE26
:102730004FF40073ADF8143003248DF816401823BD
:102740008DF817301D4D05A92846FFF7BDFD4FF444
:102750008063ADF8143004238DF8173005A928469E
:10276000FFF7B2FD25238DF800308DF801408DF87C
:10277000024001258DF803506846FFF781FC019661
:102780000023ADF80830ADF80A30ADF80C30ADF8E4
:1027900010300C23ADF80E30094C01A92046FFF78C
:1027A0007FFE2A4640F225512046FFF7EBFE2946E0
:1027B0002046FFF7D9FE06B070BD00BF00080140FB
:1027C0000038014008B540F225511A48FFF706FFCE
:1027D00000282DD01748FFF7F5FEC0B2164B1B8816
:1027E00013F4004F24D103F4804292B262B10A285C
:1027F00003D00022104B1A8008BD6FEA43436FEAF2
:1028000053430D4A138008BD0D2804D143F480437F
:10281000094A138008BDC3F30D02084988540133E7
:102820009BB2054A1380C72B02D90022024B1A80A3
:1028300008BD00BF00380140F44700202C470020AD
:10284000022801D801207047002070470138012874
:1028500010D94FF0FF307047315D0E4B1868FFF70D
:10286000ADFE80210B4B1868FFF7B0FE0028F8D0B2
:10287000013403E070B515460E460024AC42EBD39C
:102880004021044B1868FFF7A1FE0028F8D0284625
:1028900070BD00BFF8470020022801D80020704713
:1028A0004FF0FF30704700BF4FF0FF30704700BF60
:1028B00010B50C4658B920210648FFF787FE0028BE
:1028C000F9D00448FFF77EFE2070012010BD4FF0C4
:1028D000FF3010BD0044004000F082FA0B480C4964
:1028E0000C4A002302E0D458C4500433C4188C426C
:1028F000F9D3094A094C002301E013600432A242D3
:10290000FBD300F095FA00F081F970470000002039
:10291000F0010020385D0008F0010020244800206C
:10292000FEE7000010B582B0FEF7DCF9244800F0A5
:102930005DFE244C0194032300930023802222494E
:102940002248FEF7EBFB236813B1214800F04EFE4E
:10295000204C019402230093002380221E491F482B
:10296000FEF7DCFB236813B11D4800F03FFE1D4C51
:10297000019405230093002380221B491B48FEF786
:10298000CDFB236813B11A4800F030FE194C0194B6
:10299000042300930023802217491848FEF7BEFB4A
:1029A0002068FEF74BFE236813B1154800F01EFEA9
:1029B0000020FEF7E5FBFEF7A5F902B010BD00BF51
:1029C000185900081048002038590008612B0008E9
:1029D00044590008FC47002060590008E12A00081B
:1029E0006C5900080448002088590008392A00085A
:1029F000945900080C480020AC590008052A00082A
:102A0000B859000808B50A4800F0F0FD094A1368F3
:102A1000B3FA83F35B09136002F5FF426C3213686B
:102A2000B3FA83F35B0913606420FFF74BFEEAE718
:102A3000D4590008A081214210B50024224800F09A
:102A4000D5FDFFF73DF8022817D0032824D0012830
:102A50002FD164B11D4B1868FEF7F0FD01231C4A0D
:102A6000136002F5FF4270321360002421E0174B1F
:102A70001868FEF7E5FB01241BE0164A1368B3FA59
:102A800083F35B09136002F57F42F8321368B3FAEF
:102A900083F35B0913600CE00F4A1368B3FA83F306
:102AA0005B09136002F580321368B3FA83F35B09A4
:102AB00013600A4A1368B3FA83F35B0913600A20B0
:102AC000FFF700FEBAE700BFEC5900080C480020F1
:102AD000A081214298012142940121428801224291
:102AE00000B583B0174800F081FD174B1A78102409
:102AF0000094022300212020FFF7CAF9134B1A7813
:102B00000094022300216020FFF7C2F9104B1A78CD
:102B10000094022319462020FFF7BAF90D4B1A78CA
:102B20000094032302215820FFF7B2F90A4A1368E0
:102B3000B3FA83F35B0913604FF4FA70FFF7C2FD39
:102B4000D0E700BF045A00080848002000480020D1
:102B500002480020014800208401224200000000B9
:102B600008B5234800F042FD22492348FEF7F0FE55
:102B70000A210420FEF736FEFDF73AFC00221F4B27
:102B8000FDF7ACFC18A3D3E90023FDF7D1FD024605
:102B90000B4600201949FDF7EDFAFDF7B1FE184B81
:102BA00018700A210920FEF71DFEFDF721FC002206
:102BB000124BFDF793FC0CA3D3E90023FDF7B8FDFE
:102BC00002460B4600200D49FDF7D4FAFDF798FEAA
:102BD0000C4B18700C4A1368B3FA83F35B0913604B
:102BE0003220FFF76FFDBCE70000000000FEAF40A1
:102BF0001C5A0008004800200848002000005940E6
:102C000002480020014800208001224210B582B015
:102C10004FF44070FFF72AFAFEF7A6FFFEF7F8FD23
:102C2000FFF70AFD4FF4E130FFF77AFD2A48FFF77E
:102C300067FDFEF76FFDFEF715FFFEF7C1FFFFF71B
:102C4000A7F9FFF7C5F84FF47A70FFF73BFD234A69
:102C500000211020FFF75AF9214A02211020FFF726
:102C600055F9002211461046FFF768F901220021AC
:102C70004020FFF763F9022211460020FFF75EF9BA
:102C8000032202214020FFF759F90CE0154A0221E6
:102C90001820FFF73BF9C820FFF714FDFFF798F85D
:102CA000114800F0A3FCFEF77FFE0028EED10F488C
:102CB00000F09CFC0E4800F099FC002401940123D4
:102CC0000093234680220B490B48FEF727FAFEF7B4
:102CD000F3FA204602B010BD00380140345A000813
:102CE000445A0008545A0008645A0008745A0008EC
:102CF000805A0008905A000825290008704700BF34
:102D0000FEE700BFFEE700BFFEE700BFFEE700BF33
:102D1000704700BF82B00023019300932C4A1368D0
:102D200043F4803313602A4B1B6803F40033009391
:102D3000019B01330193009B1BB9019BB3F5A06F6D
:102D4000F1D1234B1B6813F4003F02D00123009301
:102D500001E000230093009B012B36D11D4B1A6824
:102D600042F010021A601A6822F007021A601A680C
:102D700042F002021A60A3F580535A685A605A68FA
:102D80005A605A6842F480625A605A6822F47C128F
:102D90005A605A6842F4E8125A601A6842F0807227
:102DA0001A600B4B1B6813F0007FFAD0084B5A686F
:102DB00022F003025A605A6842F002025A60044B41
:102DC0005B6803F00C03082BF9D102B0704700BF19
:102DD000001002400020024008B5FFF79BFF08BD2D
:102DE00008B5104B1A6842F001021A6059680E4A81
:102DF0000A405A601A6822F0847222F480321A6003
:102E00001A6822F480221A605A6822F4FE025A607C
:102E10004FF41F029A60FFF7DFFF4FF00062034B91
:102E20009A6008BD001002400000FFF800ED00E0CD
:102E30000E4B70B51E460E4C0025E41AA410A54298
:102E400004D056F8253098470135F8E702F0DAF952
:102E5000084B094C1E46E41AA4100025A54204D0D4
:102E600056F8253098470135F8E770BD305D000809
:102E7000305D0008305D0008345D000810B5431E69
:102E80000A44914204D011F8014B03F8014FF8E7CE
:102E900010BD03460244934202D003F8011BFAE737
:102EA00070472DE9F04788B0149F002B1E461299F9
:102EB000B8BF03F1004327F02007B6BF1E4600232A
:102EC0002D23462F1446109DDDF84CA00B7003D027
:102ED000452F03D1013501E0032300E0022307AAB7
:102EE000049206AA03928DE828042246334600F095
:102EF0007FFD472F804602D1119BDB0728D5462F47
:102F000008EB050911D198F80030302B0AD10022C6
:102F1000002320463146FDF779FD18B9C5F10105BA
:102F2000CAF80050DAF80030994400220023204605
:102F30003146FDF76BFD08B9302202E0CDF81C9058
:102F400006E0079B994503D9591C07911A70F8E7C9
:102F50004046079B159AC8EB0303136008B0BDE811
:102F6000F087034673B50029B8BF494203F8022B26
:102F7000B4BF2D222B22092942701ADD0DF1070260
:102F800016460A2591FBF5F405FB1411092C01F1F5
:102F9000300102F8011D2146F4DC3031541E02F8E4
:102FA000011CB4421A460AD214F8012B03F8012B73
:102FB000F7E71A463024214402F8024B5970101AE0
:102FC00002B070BD2DE9F04F91B00C46DDF868807D
:102FD00016461F46054601F01DFC03681846099376
:102FE000FDF7B6FC00230E93D8F800300A900733A3
:102FF00023F0070303F1080294F81890D4F800B006
:10300000C8F80020D3E90023C4E91223D4F84CA067
:10301000D4F848802AF000430B934FF0FF32A74BBF
:1030200040460B99FDF724FDA0B94FF0FF32A34BAA
:1030300040460B99FDF7FEFC60B900220023404694
:103040005146FDF7EDFC10B12D2384F843309C4B25
:103050009C4A0AE04246534640465146FDF708FD69
:10306000002800F09281984B984AB9F1470F8CBF25
:1030700090469846032323612BF0040323604FF00E
:10308000000A3DE0B9F1670F00F08A81B9F1470FFE
:1030900000F0868123600193636800210DF1330203
:1030A000059002920093424653460691CDF8109047
:1030B000CDF80CE02846FFF7F4FE09F0DF03472BBC
:1030C000804600F08481B9F1650F0D9900F28D8181
:1030D00001394A4604F150000D91FFF742FF0E9A64
:1030E00082468318012A236100F37C812268D1077C
:1030F00000F178819DF8333013B12D2384F84330EB
:10310000009733460FAA2146284600F09FF9013068
:1031100002D14FF0FF3096E123685A0501D42369AC
:1031200065E0B9F1650F40F2D580D4E912010022C3
:103130000023FDF76BFC78B30123654A314628462E
:10314000B8470130E5D00E9B0D9A9A420BDB2368FD
:10315000D80708D423689B0740F111814FF000087D
:1031600004F1190906E10A9B099A31462846B84735
:103170000130CED04FF0000804F11A090E9B013B3C
:103180009845E7DA01234A4631462846B8470130D8
:10319000BFD008F10108F1E70D9B002B29DC0123CA
:1031A0004B4A31462846B8470130B2D00D9B23B96F
:1031B0000E9B13B92368D907CCD50A9B099A3146CF
:1031C0002846B8470130A4D04FF0000904F11A0A8C
:1031D0000D9B5B42994509DA012352463146284648
:1031E000B847013095D009F10109F1E70E9B42463D
:1031F000A7E00E9AA36D9A42A8BF1A46002A9146EC
:1032000006DC4FF0000A29EAE97904F11A0B11E013
:103210001346314642462846B8470130F1D178E797
:1032200001235A4631462846B84701303FF471AF72
:103230000AF1010AA36DC9EB03029245F0DB08EB2A
:1032400003090D9A0E9B9A420FDB2368DA070CD410
:103250000E9B0D9A9844C9EB08089B1A9845A8BF85
:103260009846B8F1000F08DC0FE00A9B099A314636
:103270002846B8470130EBD14BE743464A46314632
:103280002846B84701303FF444AF4FF0000928EA20
:10329000E87804F11A0A09E001235246314628462B
:1032A000B84701303FF435AF09F101090D9A0E9B83
:1032B0009B1AC8EB03039945EEDB4BE7FFFFEF7F5B
:1032C000A45A0008A85A0008AC5A0008B05A0008CE
:1032D000B45A00080E9A012A01DCDB0738D5012315
:1032E000424631462846B84701303FF412AF0A9BA8
:1032F000099A31462846B84701303FF40AAFD4E96D
:10330000120100220023FDF781FB20B14FF00008DD
:1033100004F11A090EE00E9B08F10102013B19E0CD
:1033200001234A4631462846B84701303FF4F1AE02
:1033300008F101080E9B013B9845F1DB534604F16F
:10334000500231462846B84701307FF403AFE0E62B
:103350004246012331462846B8470130EED1D8E62F
:1033600001234A4631462846B84701303FF4D1AEE2
:1033700008F10108E3680F9A9B1A9845F0DBE068B2
:103380000F9B9842B8BF18465DE062680EA8531CB8
:103390000DF1340E4BF480637FF474AE062201E02D
:1033A00012B90122626075E6002106910DF1330128
:1033B0008DE80C00236005904246CDF81090CDF8C2
:1033C0000CE0029153462846FFF76BFD80460D9BAB
:1033D000D81C02DB626893421DDDA9F102095FFA85
:1033E00089F970E60133236184E6B9F1660F14D1DF
:1033F0000029636807DD216113B92268D2071DD552
:1034000001330B4419E013B92268D00701D5023308
:1034100013E0012311E04FF067090D9B0E9A9342D0
:1034200005DB22682361D10708D5013305E0002BB5
:10343000D4BFC3F102030123134423610D9B4FF05A
:10344000000AA36556E611B0BDE8F08F2DE9F047FC
:1034500091461F460A698B6806469342B8BF1346D9
:10346000C9F8003091F843200C46DDF8208012B1F5
:103470000133C9F800302368990642BFD9F80030FB
:103480000233C9F80030256815F0060510D104F1A3
:10349000190A07E00123524639463046C047013039
:1034A0001AD00135E368D9F800209B1A9D42F1DB60
:1034B00094F843302268003318BF012392060FD5D9
:1034C000E118302081F843005A1C94F8451022443A
:1034D000023382F8431003E04FF0FF30BDE8F0877D
:1034E00004F1430239463046C0470130F4D0226827
:1034F000D9F80050E36802F00602042A08BF5D1BF9
:103500002269A3680CBF25EAE57500259342C4BF74
:103510009B1AED184FF000091A344D4509D00123CC
:10352000224639463046C0470130D5D009F101095D
:10353000F3E70020BDE8F08770B50E46054618B1E8
:1035400083690BB901F0DCF8AB69AC6813B92846A4
:1035500001F0D6F8224B9C4201D16C6808E0214B67
:103560009C4201D1AC6803E01F4B9C4208BFEC6851
:10357000A3891B0701D523693BB92146284600F0E2
:103580003BF910B14FF0FF3070BD013EA36816F853
:10359000011F013BA36091B1002B04DAA2699342A1
:1035A00006DB0A2904D023685A1C22601970EDE753
:1035B0002246284600F0CCF80130E7D1E2E7002BA4
:1035C00008DA22460A21284600F0C2F80130D9D094
:1035D0000A2070BD23680A205A1C2260187070BD32
:1035E000C45A0008E45A0008045B0008024B014674
:1035F0001868FFF7A1BF00BF800000202DE9F74346
:103600001D464F4B04461E680F46904626B1B369CF
:1036100013B9304601F074F84A4B9C4201D17468EA
:1036200008E0494B9C4201D1B46803E0474B9C42FF
:1036300008BFF468B8F1020F04D0B8F1010F79D8CF
:10364000002D77DB2146304600F0F0FF616B41B181
:1036500004F14403994202D0304601F035FC0023C6
:1036600063630023A3616360A3891B0603D52169FB
:10367000304601F029FCA389B8F1020F23F44A6314
:1036800023F00303A3811ED001AB6A4621463046D6
:1036900001F0CEF8A3891843A0810DB9009D00E088
:1036A0002FBB284601F024F90746D0B9DDF8009079
:1036B000A94502D14FF0FF3006E0484601F018F965
:1036C000074678B9F6E70020A38943F00203A381F7
:1036D0000023A36004F14703236023610123636196
:1036E0002AE0A9464D46A38943F08003A381B3692C
:1036F00013B9304601F004F8B8F1010F08BFA389EF
:10370000276004BF43F00103A381A389276103F06D
:10371000080080B2656158B113F001034FF000005A
:103720001DBF6D42A060A561A56008BF184603E0FB
:10373000A06001E04FF0FF3003B0BDE8F08300BFB0
:1037400080000020C45A0008E45A0008045B000806
:10375000F8B50F461446054618B183690BB900F059
:10376000CFFF224B9C4201D16C6808E0204B9C4269
:1037700001D1AC6803E01F4B9C4208BFEC68A36911
:10378000A360A3891A0709D523693BB1236820697F
:10379000FEB2181A636998420FDB08E021462846FA
:1037A00000F02AF80028F1D04FF0FF361BE0214648
:1037B000284600F03BFF0028F6D1A3680130013B0A
:1037C000A36023685A1C22601F706369984204D06A
:1037D000A389DB0707D50A2E05D12146284600F02C
:1037E00025FF0028E0D13046F8BD00BFC45A0008CC
:1037F000E45A0008045B0008324B70B51D680646A9
:103800000C4625B1AB6913B9284600F079FF2E4B61
:103810009C4201D16C6808E02C4B9C4201D1AC6801
:1038200003E02B4B9C4208BFEC68B4F90C309AB211
:1038300015071DD4D00602D4092232603AE05107A0
:1038400012D5616B41B104F14403994202D0304674
:1038500001F03AFB00236363A38923F02403A381CF
:103860000023636023692360A38943F00803A381D5
:1038700023694BB9A38903F42073B3F5007F03D008
:103880002146304600F0F8FFA28912F0010305D06E
:103890000023A36063695B42A36103E0920758BF02
:1038A0006369A36023695BB9B4F90C3003F080004D
:1038B00080B230B143F04003A3814FF0FF3070BDC0
:1038C000002070BD80000020C45A0008E45A00089F
:1038D000045B00082DE9F74F03690C6980469C42A0
:1038E0007FDC013C01F114074FEA840E00F114065D
:1038F00006EB0E0357F82450019356F82430013597
:10390000B3FBF5F507EB0E09C5B34FF0000A3846D7
:10391000B446D34650F8043B9AB205FB02A21B0CF6
:103920004FEA124A05FB03A392B2C2EB0B0BBCF8A1
:1039300000204FEA134A5A441FFA83FBDCF8003098
:103940008145CBEB134303EB224392B242EA03429D
:103950004FEA234B4CF8042BDCD256F80E306BB9EF
:10396000019B043B9E421A4602D3C8F8104005E072
:103970001268043B002AF8D1013CF3E7404601F00D
:10398000CCF900282BDB304601354FF0000E57F8FC
:10399000042B036891B2C1EB0E0E120C99B2714464
:1039A000C2EB134303EB214389B24FEA234EB945DF
:1039B00041EA034340F8043BE9D256F8242006EBE1
:1039C000840362B9043B9E421A4602D3C8F81040F1
:1039D00005E01268043B002AF8D1013CF3E72846D1
:1039E00000E0002003B0BDE8F08F00000000000000
:1039F0002DE9F04F456A95B08246219CCDE902231E
:103A000045B9102000F074FFCAF8240045608560B5
:103A10000560C560DAF82430196859B15A68012385
:103A200093404A608B60504600F09FFFDAF82430E4
:103A300000221A60039BA04A002BBDBF0123236014
:103A4000039B0023BCBF23F000430393DDF80C80ED
:103A5000A8BF236028F000431B0D1B0593421DD116
:103A600042F20F73209A1360029B43B9934A944B1E
:103A7000C8F31300002814BF1846104600E0904811
:103A8000229B002B00F04685C37813B100F1080398
:103A900000E0C31C229A136000F03CBDDDE9024542
:103AA0000022002320462946FCF7B0FF074658B104
:103AB000209A01231360229B002B00F01E85814871
:103AC0001860013800F026BD12AB019313AB0093D0
:103AD00022462B46504601F09BF9C8F30A56049043
:103AE00056B1C5F3130343F07F51204641F4401112
:103AF000A6F2FF3611971DE0139B129E1E4406F29C
:103B00003243202B0ADD029A06F21240C3F1400331
:103B100022FA00F008FA03F3184304E0C3F120008E
:103B2000029B03FA00F0FCF763FC0123A1F1F8719A
:103B3000013E11930022644BFCF71CFB58A3D3E910
:103B40000023FCF7CBFC58A3D3E90023FCF714FBBC
:103B5000044630460D46FCF75BFC55A3D3E9002331
:103B6000FCF7BCFC02460B4620462946FCF704FB4A
:103B700004460D46FCF7C4FE00228346002320467F
:103B80002946FCF74DFF58B15846FCF741FC024668
:103B90000B4620462946FCF739FF08B90BF1FF3BDD
:103BA000BBF1160F0DD8DDE90223484901EBCB012B
:103BB000D1E90001FCF752FF30B10BF1FF3B0023CC
:103BC00000E00123109300E01090129B9E1B731ED7
:103BD000079343BFC3F10008002307934FF0000889
:103BE000BBF1000F06DB079BCDF82CB05B440793BD
:103BF000002705E00023CBEB0808CBF100070B936F
:103C00001E9B092B28D8052BC4BF043B1E931E9B6B
:103C1000C8BF0025A3F10203D8BF0125032B20D87C
:103C2000DFE803F0060E0204012302E0012308E0AE
:103C300000230A931F9B002B1DDD9946059321E06D
:103C400000230A931F9B0BEB030909F10103012BCE
:103C50000593B8BF012315E0012500231E930A95A3
:103C600001E001230A934FF0FF390022CDF81490B0
:103C700012231F9206E04FF001094B46CDF8149035
:103C8000CDF87C90DAF8244000226260042101F132
:103C900014029A421CD86268490001326260F6E759
:103CA00061436F63A787D23FB3C8608B288AC63F42
:103CB000FB799F501344D33F0000F07FB65A0008B1
:103CC000BF5A0008B55A00080000F83F285B0008FA
:103CD0006168504600F014FEDAF8243020601B685A
:103CE0000693059B0E2B00F25B81002D00F058819E
:103CF000DDE90234BBF1000FCDE90E3430DD9F4A1F
:103D00000BF00F034FEA2B1502EBC303E80618CBA9
:103D1000CDE908340CD5DDE90E01994B05F00F050E
:103D2000D3E90823FCF704FD0324CDE9020100E0F8
:103D30000224934E6DB1E90708D5DDE90801D6E903
:103D40000023FCF7CBFBCDE9080101346D100836E8
:103D5000F0E7DDE90823DDE90201FCF7E9FC20E0FA
:103D6000CBF1000505B3DDE90E01844B05F00F0230
:103D700003EBC203D3E90023FCF7B0FBCDE902015A
:103D80007F4E2D110023022455B1EA0705D5D6E94F
:103D90000023FCF7A3FB013401236D100836F3E781
:103DA0001BB1CDE9020100E00224109BE3B1DDE983
:103DB00002560022734B28463146FCF731FE98B17B
:103DC000059B8BB1B9F1000F40F3E6800BF1FF3397
:103DD0000893314600226C4B2846FCF77FFB0134E8
:103DE000CDE902014E4602E0059ECDF820B0204606
:103DF000FCF70EFBDDE90223FCF770FB634B0022AE
:103E0000FCF7BAF9A1F1507304460C931D46D6B9DC
:103E1000DDE9020100225E4BFCF7ACF922460C9B67
:103E2000CDE90201FCF71AFE002840F03F820C9910
:103E3000224601F10043DDE90201FCF7F1FD002813
:103E400040F02B82A8E00A9A4C4B711E002A49D000
:103E500003EBC103D3E9002300204E49FCF768FCC3
:103E600022462B46FCF786F9CDE90C01069CDDE9DC
:103E70000201FCF745FD0546FCF7CAFA02460B466F
:103E8000DDE90201FCF776F9DDE90C23303504F8B1
:103E9000015BCDE90201FCF7C3FD002840F01D8362
:103EA000DDE9022300203749FCF764F9DDE90C2342
:103EB000FCF7B6FD002840F0D180069BE31AB34220
:103EC0006ADADDE90C0100222F4BFCF707FB002228
:103ED000CDE90C01DDE902012B4BFCF7FFFACDE93E
:103EE0000201C4E703EBC1012246D1E900012B46E0
:103EF000FCF7F4FA069BCDE90C011D469C19DDE99F
:103F00000201FCF7FDFC0646FCF782FA02460B466E
:103F1000DDE90201FCF72EF9303605F8016BAC4201
:103F2000CDE902014FF0000222D11A4BDDE90C016C
:103F3000FCF722F902460B46DDE90201FCF78EFD93
:103F4000002840F08B80DDE90C2300201149FCF7AC
:103F500011F902460B46DDE90201FCF761FDD8B11B
:103F600014F8013C621E302B40F0B7821446F7E78C
:103F7000054BFCF7B3FACDE90201C0E7285B000866
:103F8000F05B00080000F03F0000244000001C40EF
:103F9000000014400000E03FDDE90E34CDE90234BA
:103FA000139B002B7CDBBBF10E0F79DCAB4B03EBDF
:103FB000CB03D3E900671F9B002B14DA059B002B72
:103FC00011DC40F06C810022A54B30463946FCF7ED
:103FD00085FADDE90223FCF737FD059D2E46002812
:103FE00040F05F8165E1069CDDE9028932463B468F
:103FF00040464946FCF79CFBFCF782FC0546FCF773
:1040000007FA32463B46FCF769FA0B460246494638
:104010004046FCF7AFF805F1300E069B04F801EBC3
:10402000C3EB040E059B73452DD102460B46FCF7EE
:10403000A3F88046894602460B4630463946FCF7CF
:10404000EFFC78B942464B4630463946FCF7DEFC79
:10405000002800F04482EB0704D440E2DDF820B0F1
:1040600000E01C4614F8012C631E392A07D1069A79
:104070009A42F6D1069930220BF1010B0A701A7898
:1040800001321A702BE20022764BFCF727FA00224D
:10409000002380468946FCF7B9FC0028A6D01EE222
:1040A0000A9A002A2BD01E9A012A0ADC119A12B110
:1040B00003F2334302E0129BC3F136033D4644460C
:1040C00013E0059B5D1EAF42BFBF0B9BEA1B9B1815
:1040D0000B93059BB6BF2F467D1B0025002BA7BF6A
:1040E0004446059BC3EB08040023079A01211A44A8
:1040F00050469844079200F0D7FC064602E03D4641
:1041000044460A9E5CB1079B002B08DDA342A8BF72
:104110002346079AC3EB0808E41AD31A0793002F23
:104120001DDD0A9BABB18DB131462A46504600F0E9
:1041300055FD049A01460646504600F0BEFC04991F
:104140000890504600F011FC089B04937A1B06D09F
:1041500000E03A460499504600F040FD04900121E9
:10416000504600F0A1FC0B9B05465BB31A46014686
:10417000504600F033FD1E9B0546012B18DC029BC8
:1041800083B9039BC3F3130373B9039B23F0004765
:104190003F0D3F054FB1079B08F10108013307931D
:1041A000012702E0002700E0029F0B9B73B100E0B3
:1041B00000272B6905EB8303186900F028FCC0F188
:1041C000200004E01E9B012BD9DD0B9F0120079BE3
:1041D000184410F01F0008D0C0F12003042B02DDAA
:1041E000C0F11C0002E006D018461C30079B80443A
:1041F000034404440793B8F1000F05DD42460499D7
:10420000504600F039FD0490079B002B05DD294640
:104210001A46504600F030FD0546109B23B3294650
:10422000049800F07AFD00281EDA00230A2204997F
:10423000504600F0B1FB0A9B0BF1FF3B0490002BB2
:1042400000F05F81314600230A22504600F0A4FBB3
:10425000B9F1000F06463FDC3BE000BF285B0008D9
:104260000000144000002440059B002B2BDC1E9B0B
:10427000022B28DDDDF81490B9F1000F11D1294689
:104280004B460522504600F087FB01460546049840
:1042900000F043FD00280CDC03E0354600E000257B
:1042A0002E461F9B069C6FEA030B09E03546DDF89E
:1042B00020B0069B069A5C1C312313700BF1010B96
:1042C00005960026F7E00A9BDDF8149023B9069CBA
:1042D000B2E01E9B022BCFDC002C05DD31462246CE
:1042E000504600F0C9FC06469FB17168504600F088
:1042F00007FB0446326906F10C01023292000C30D1
:10430000FEF7BCFD01222146504600F0B5FC0590A9
:1043100000E00596029B069F03F0010307932946E0
:104320000498FFF7D7FA3146044600F130080498A4
:1043300000F0F3FC059A02902946504600F009FD72
:10434000C36802463BB901460A90049800F0E5FCB8
:104350000A9A034600E00123114650460A9300F0F2
:1043600004FB0A9B53B91E9A42B9079A32B9B8F1B5
:10437000390F2AD0029B002B1CDC1DE0029A002A78
:1043800004DB1BD11E9ACAB9079ABAB9002B13DDF8
:1043900001220499504600F06FFC2946049000F079
:1043A000BCFC002803DC07D118F0010F04D0B8F1E1
:1043B000390F0AD004F131087C1C0CE0002B07F106
:1043C00001040BDDB8F1390F03D139233B700137FC
:1043D00056E008F1010887F800806CE0069B27464C
:1043E000E31A4B4504F8018C3BD000230A220499C0
:1043F000504600F0D1FA059B04909E424FF00A020D
:104400004FF000033146504604D100F0C5FA06468D
:10441000059084E700F0C0FA002306460A220599B9
:10442000504600F0B9FA059079E700230A22049972
:10443000504600F0B1FA049029460498FFF74AFA72
:10444000069B00F1300804F8018BE31A4B45ECDBC6
:10445000069B0596B9F1010FACBF4B4401331F46D3
:10446000002601220499504600F006FC29460490DB
:1044700000F053FC002803DC15D118F0010F12D016
:104480003C4614F8013C621E392B09D1069B93422D
:1044900004D10BF1010B3123069A02E01446F0E738
:1044A0000133137007E03C4614F8013C621E302BC8
:1044B00001D11446F8E72946504600F056FA059B0C
:1044C0006BB12EB19E4203D03146504600F04DFAFA
:1044D0000599504600F049FA01E0DDF820B0049952
:1044E000504600F042FA0023209A23700BF101039A
:1044F0001360229B1BB11C6001E008480AE006988B
:1045000008E0B9F1000F3FF7E2AE1E9B022B7FF7E8
:10451000DEAEB1E615B0BDE8F08F00BFB45A0008BA
:104520008A892DE9F041054610070C4659D44B689D
:10453000002B02DC0B6C002B17DDE66AAEB102F437
:104540008052002392B22F682B600AB1606D15E093
:10455000216A01232846B047411C0FD12B686BB15B
:104560001D2B01D0162B03D12F600020BDE8F08158
:10457000A38943F04003A381BDE8F081A3895A07D2
:1045800005D56368C01A636B0BB1236CC01A002396
:104590000246E66A216A2846B047431CA38906D131
:1045A00029681D2939D8204ACA40D60735D50022A6
:1045B00062602269D904226004D5421C01D12B68B3
:1045C00003B96065616B2F600029CED004F144030C
:1045D000994202D0284600F077FC00206063BDE8D5
:1045E000F0810F69002FC0D093070E680CBF4B6994
:1045F0000023C7EB06080F608B6002E00744C0EBA6
:104600000808B8F1000FB0DD43463A46216A284653
:10461000A66AB0470028F1DCA38943F04003A381D8
:104620004FF0FF30BDE8F0810100402038B50B6944
:1046300005460C46DBB118B183690BB900F060F890
:104640000C4B9C4201D16C6808E00B4B9C4201D1A1
:10465000AC6803E0094B9C4208BFEC68B4F90C302D
:104660002BB121462846BDE83840FFF759BF00204E
:1046700038BD00BFC45A0008E45A0008045B0008B3
:10468000014900F0A9B800BF2D46000810B5044646
:10469000002303604360836081814366C2810361BC
:1046A00043618361194608225C30FEF7F2FB054B3B
:1046B00024626362044BA362044BE362044B2363F2
:1046C00010BD00BF3D5000085F5000089750000823
:1046D000BB50000870B568234D1E5D430E4605F1C2
:1046E000740100F03DFC044640B1002180E8420026
:1046F0000C30A06005F16802FEF7CBFB204670BDD0
:10470000836910B5044633BB8364C3640365124BED
:10471000124A1B688262984204BF0123836100F041
:104720001FF86060204600F01BF8A060204600F0F3
:1047300017F80022E06004216068FFF7A7FF01225C
:104740000921A068FFF7A2FF02221221E068FFF70B
:104750009DFF0123A36110BDA05A000881460008F7
:10476000F8B51C4B07461E68B36913B93046FFF70E
:10477000C7FF4836B4687368013B04D4B4F90C50E1
:104780007DB16834F8E733680BB13668F2E704218D
:104790003846FFF79FFF30600028F6D10C233B60BE
:1047A000F8BD4FF6FF73E3810123A38165662560A1
:1047B000A560656025616561A5610822294604F14F
:1047C0005C00FEF766FB6563A563A564E5642046AF
:1047D000F8BD00BFA05A00082DE9F843804689467D
:1047E00000F14804002694B1A5686768013F0CD425
:1047F000AB89012B07D9B5F90E30013303D0294617
:104800004046C84706436835F0E72468EBE7304682
:10481000BDE8F883044B1B68186A044B002808BFE6
:104820001846F030704700BF800000208400002050
:1048300070B50E46B1F90E1090B0002914461D4611
:1048400006DA00232B60B3891A060ED540230EE04A
:1048500001AA00F059FC0028F3DB029A02F470422E
:10486000A2F500535A425A412A604FF48063002057
:10487000236010B070BD00008B8973B59E0705469C
:104880000C4610D401AB6A46FFF7D2FF00990646EA
:10489000284600F065FB68B9B4F90C309A0522D4BB
:1048A00043F00203A38104F1470323602361012342
:1048B000636118E00D4BAB62A389206043F0800375
:1048C000A381009B20616361019B4BB1B4F90E1081
:1048D000284600F02BFC18B1A38943F00103A38103
:1048E000A0893043A08102B070BD00BF814600089E
:1048F000024B0146186800F033BB00BF8000002067
:1049000070B5456A04460E463DB91020FFF7F0FF2A
:104910006062456085600560C560656AEB6843B1AB
:10492000636ADB6853F8260078B1026843F82620F2
:1049300017E021220421204600F0B8FA636AE860FB
:10494000DB68002BECD1002070BD012101FA06F5D7
:104950006A1D9200204600F0A9FA0028F3D04660B4
:10496000856000230361C36070BD70B5446A06466C
:104970000D463CB91020FFF7BBFF706244608460B5
:104980000460C4603DB1736A6A68DB6853F8221042
:10499000296043F8225070BD2DE9F04106460C46CF
:1049A0000D691F4601F1140E0023DEF800000133EB
:1049B00081B202FB0171000C0F0C02FB007089B286
:1049C00001EB00419D424FEA10474EF8041BECDC1E
:1049D000D7B1A3689D4212DB616830460131FFF711
:1049E0008FFF8046226904F10C01023292000C30E4
:1049F000FEF744FA21463046FFF7B7FF444604EB82
:104A0000850301355F6125612046BDE8F081030C17
:104A10001B0413B90004102300E0002310F07F4FA3
:104A200004BF0002083310F0704F04BF00010433CC
:104A300010F0404F04BF80000233002803DB420027
:104A400003D5581C704718467047202070470368EC
:104A500013F007020BD0D90722D49A074BBF5B088B
:104A60009B08036003604CBF01200220704799B28D
:104A700009B91B0C102213F0FF0F04BF1B0A0832E8
:104A8000190704BF1B090432990704BF9B080232AF
:104A9000D90702D45B0805D0013203601046704785
:104AA000002070472020704710B50C460121FFF709
:104AB00027FF01224461026110BD2DE9F74F144622
:104AC0000A69236988469A42BEBF0B46A0461C4627
:104AD000D8F81070D4F81090D8F80830D8F804102E
:104AE00007EB09069E42C8BF0131FFF709FF00F13D
:104AF00014052B4605EB860C0022634502D243F8D1
:104B0000042BFAE704F1140208F1140102EB890303
:104B100001EB87070093009B0192934257D9B2F8AB
:104B200000B0BBF1000F23D08946AE464FF000081D
:104B300059F8044BBEF800A0A3B20BFB03A34FEA45
:104B4000144ADEF8004043444FEA14480BFB0A8441
:104B5000F24604EB13449BB243EA04434F454FEA49
:104B600014484AF8043B01D9D646E1E7CEF8048060
:104B7000019B0432B3F802A0BAF1000F21D02C46F9
:104B800089462B684FF00008B9F800E0B4F802B08D
:104B90009BB20AFB0EBEA346F04443EA08434BF81F
:104BA000043B59F8043BB4F804E01B0C0AFB03E394
:104BB0004F4503EB18434FEA134801D95C46E3E73E
:104BC00063600435A7E75CF8043D13B9013E002E8D
:104BD000F9DC066103B0BDE8F08F00002DE9F84371
:104BE000154612F0030206460F4607D0214C013A43
:104BF000002354F82220FFF7CFFE0746AD1036D031
:104C0000746A3CB91020FFF773FE706244608460E0
:104C10000460C460D6F82480D8F808404CB940F24B
:104C200071213046FFF740FF04460023C8F8080012
:104C300003604FF00008EB070AD53946224630469C
:104C4000FFF73BFF814639463046FFF78EFE4F4661
:104C50006D100CD0206808B10446ECE722462146CE
:104C60003046FFF72AFF2060C0F80080F4E738469E
:104C7000BDE8F883185C00082DE9F0470C460746AC
:104C8000914626694FEA621A56444968A368751C22
:104C9000AB4202DA01315B00FAE73846FFF730FE3B
:104CA000002380461A4600F11401534503DA41F807
:104CB00023200133F9E72AEAEA73206901EB830331
:104CC00019F01F0904F1140101EB800E14D0C9F191
:104CD000200C002208689A4600FA09F0024343F8C3
:104CE000042B51F8042B8E4522FA0CF2F2D8CAF8A4
:104CF000042042B1B51C06E0043B51F8042B8E455C
:104D000043F8042FF9D8013D3846C8F81050214621
:104D1000FFF72BFE4046BDE8F08703690A6910B52E
:104D20009B1A11D192001430143183180A4453F89D
:104D3000044D52F8041D8C4202D007D3012010BD4F
:104D40009842F4D3002010BD184610BD4FF0FF303C
:104D500010BD2DE9F8430C4607461146204615467E
:104D6000FFF7DBFF061E08D131463846FFF7C8FDC6
:104D7000012303614661BDE8F883BCBF23462C468E
:104D800038466168BABF1D4601260026FFF7B8FD08
:104D90002B69C660266905F1140904F1140101EBC1
:104DA000860709EB830800F114054FF0000C51F859
:104DB000042B59F8044B93B29C44A3B2240CC3EBCC
:104DC0000C03C4EB124202EB23429BB24FEA224C8B
:104DD000C84543EA02428E4645F8042BE7D8BE4553
:104DE0000ED25EF8041B8AB26244131403EB114323
:104DF00092B242EA03424FEA234C45F8042BEEE715
:104E000055F8043D0BB9013EFAE70661BDE8F883A9
:104E10002DE9F3411C4601219046089E099DFFF7AC
:104E20006FFDC4F31302C4F30A5407460CB142F4F5
:104E300080120192B8F1000F19D002A840F8088D35
:104E4000FFF705FE009B48B1019AC0F1200102FA6C
:104E500001F10B43C2407B61019200E07B61019B49
:104E6000002B14BF02210121BB61396107E001A8B9
:104E7000FFF7EDFD019B01217B613961203034B1E9
:104E8000A4F2334404443460C0F1350009E0A0F2D8
:104E9000324007EB810330601869FFF7B8FDC0EBC3
:104EA00041102860384602B0BDE8F08138B502FBF9
:104EB00001F4214600F054F8054618B122460021BD
:104EC000FDF7E7FF284638BD38B50546002944D030
:104ED00051F8043C0C1F002BB8BFE41800F05AF93D
:104EE0001E4A1368114613B96360146030E0A34290
:104EF0000DD92268A018834201BF18685B68121898
:104F0000226063600C6023E0A24203D813465A6813
:104F1000002AF9D118681918A1420BD1216801445F
:104F200058188242196013D1106852680144196000
:104F30005A600DE002D90C232B6009E0216860184B
:104F4000824201BF106852680918216062605C608B
:104F50002846BDE8384000F01EB938BD184800208A
:104F600070B5CD1C25F0030508350C2D38BF0C2578
:104F7000002D064601DBA94202D90C23336046E02E
:104F800000F008F9234B1C681A462146A1B10B68B2
:104F90005B1B0ED40B2B03D90B60CC18CD501EE03D
:104FA0008C420BBF63684B681360636018BF0C468C
:104FB00015E00C464968E9E7174C23681BB93046F1
:104FC00000F02CF820602946304600F027F8431CFA
:104FD00018D0C41C24F00304A0420DD12560304633
:104FE00000F0D9F804F10B00231D20F00700C31ACC
:104FF0000ED05A42E25070BD211A304600F00EF831
:105000000130EBD10C233360304600F0C4F80020AF
:1050100070BD00BF184800201448002038B5064C69
:10502000002305460846236000F0DEF8431C02D149
:10503000236803B12B6038BD2048002010B50C4612
:10504000B1F90E1000F0A8F80028ABBF636DA3897A
:105050001B1823F48053ACBF6365A38110BD2DE9F9
:10506000F0411F468B890546DB050C46164605D5E3
:1050700002230022B1F90E1000F068F8A38932462D
:1050800023F48053A381B4F90E103B462846BDE8B3
:10509000F04100F017B810B50C46B1F90E1000F051
:1050A00055F8431CA38915BF606523F4805343F46E
:1050B0008053A38118BFA38110BDB1F90E1000F079
:1050C00013B8000038B5074C0546084611460022C3
:1050D00022601A46FDF7BAFB431C02D1236803B1D4
:1050E0002B6038BD2048002038B5064C002305460B
:1050F00008462360FDF7D0FB431C02D1236803B1AF
:105100002B6038BD2048002038B5074C00230546E9
:1051100008461146236000F05FF8431C02D1236863
:1051200003B12B6038BD00BF2048002038B5064CC5
:105130000023054608462360FDF782FB431C02D18D
:10514000236803B12B6038BD2048002038B5074CD8
:10515000054608461146002222601A46FDF7A4FBC8
:10516000431C02D1236803B12B6038BD20480020C6
:1051700082B001B901A93AB143B113780B6012783A
:10518000101C18BF012003E0104601E06FF0010081
:1051900002B070477047704738B5074C054608465F
:1051A0001146002222601A46FDF782FB431C02D101
:1051B000236803B12B6038BD2048002049B1FF2A85
:1051C00085BF8A2303600A704FF0FF3098BF01202B
:1051D0007047084670470000024B58221A604FF093
:1051E000FF30704720480020044A05491368002B0F
:1051F00008BF0B4618441060184670471C48002032
:1052000028480020F8B500BFF8BC08BC9E4670478F
:0C521000F8B500BFF8BC08BC9E46704713
:1052200049444C4500000000000000000000000060
:105230000000000000000000000000F80000000076
:10524000000000333000000000100C06100C0600B7
:10525000000000000000000040C07840C07840001E
:10526000043F04043F040400007088FC0830000080
:10527000001820FF211E0000F008F000E0180000D8
:1052800000211C031E211E0000F008887000000091
:105290001E2123241927211010160E0000000000E3
:1052A0000000000000000000000000E01804020000
:1052B000000000071820400000020418E000000071
:1052C0000040201807000000404080F0804040006F
:1052D0000202010F01020200000000F000000000C5
:1052E0000101011F01010100000000000000000099
:1052F00080B070000000000000000000000000000E
:105300000001010101010101000000000000000096
:105310000030300000000000000000008060180431
:10532000006018060100000000E010080810E0000E
:10533000000F102020100F00001010F800000000D7
:105340000020203F2020000000700808088870001E
:10535000003028242221300000300888884830009E
:105360000018202020110E000000C02010F80000BE
:1053700000070424243F240000F808888808080057
:105380000019212020110E0000E01088881800006C
:10539000000F112020110E0000380808C83808003E
:1053A0000000003F000000000070880808887000BE
:1053B000001C222121221C0000E010080810E0003F
:1053C0000000312222110F00000000C0C0000000C8
:1053D00000000030300000000000008000000000ED
:1053E00000008060000000000000804020100800E5
:1053F00000010204081020004040404040404000AE
:105400000404040404040400000810204080000088
:105410000020100804020100007048080808F0008D
:105420000000003036010000C030C828E810E0005D
:105430000718272423140B000000C038E0000000E8
:10544000203C23020227382008F888888870000052
:10545000203F202020110E00C03008080808380026
:10546000071820202010080008F808080810E0009D
:10547000203F202020100F0008F88888E80810003E
:10548000203F20202320180008F88888E808100012
:10549000203F200003000000C0300808083800004A
:1054A00007182020221E020008F808000008F8084B
:1054B000203F210101213F20000808F808080000D2
:1054C0000020203F2020000000000808F808080005
:1054D000C08080807F00000008F888C0281808007D
:1054E000203F20012638200008F8080000000000B6
:1054F000203F20202020300008F8F800F8F80800AD
:10550000203F003F003F200008F830C00008F808A6
:10551000203F200007183F00E01008080810E000B6
:105520000F10202020100F0008F808080808F000CD
:10553000203F210101010000E01008080810E000F0
:105540000F18242438504F0008F888888888700085
:10555000203F2000030C3020007088080808380025
:105560000038202121221C00180808F8080818001B
:105570000000203F2000000008F808000008F8089C
:10558000001F202020201F000878880000C838084D
:10559000000007380E010000F80800F80008F800C5
:1055A000033C0700073C030008186880806818085F
:1055B00020302C03032C30200838C800C8380800DD
:1055C0000000203F2000000010080808C83808002C
:1055D0002038262120201800000000FE02020200D0
:1055E0000000007F40404000000C30C00000000080
:1055F000000000010638C00000020202FE000000A8
:10560000004040407F00000000000402020204004D
:10561000000000000000000000000000000000008A
:105620008080808080808080000202040000000072
:10563000000000000000000000008080808000006A
:105640000019242222223F2008F800808000000058
:10565000003F112020110E0000000080808000001B
:10566000000E112020201100000000808088F8002A
:10567000000E112020103F2000008080808000005C
:10568000001F222222221300008080F088888818C0
:105690000020203F202000000000808080808000CB
:1056A000006B94949493600008F800808080000060
:1056B000203F210000203F2000809898000000003B
:1056C0000020203F2020000000000080989800006B
:1056D00000C08080807F000008F80000808080008B
:1056E000203F24022D302000000808F800000000B0
:1056F0000020203F2020000080808080808080006B
:10570000203F20003F20003F8080008080800000FC
:10571000203F210000203F2000008080808000008A
:10572000001F202020201F008080008080000000BB
:1057300080FFA12020110E000000008080808000EA
:10574000000E112020A0FF808080800080808000DB
:1057500020203F2120000100000080808080800008
:105760000033242424241900008080E0808000007D
:105770000000001F202000008080000000808000CA
:10578000001F202020103F2080808000008080802B
:1057900000010E30080601008080008000808080BB
:1057A0000F300C030C300F000080800080808000E0
:1057B0000020312E0E31200080808000008080800B
:1057C00080818E70180601000080808080808000BB
:1057D0000021302C2221300000000000807C0202D9
:1057E00000000000003F404000000000FF000000FB
:1057F00000000000FF0000000002027C80000000AA
:105800000040403F000000000006010102020404C5
:1058100000000000000000001060028C0000FE92FA
:1058200092929292FE000000000000000000000032
:10583000000000000000000004047E01407E42429F
:105840007E427E42427E40000000000000000000D8
:1058500000000000000000001060028C00FE929228
:1058600092929292FE0000000000000000000000F2
:10587000000000000000000004047E014448507F46
:1058800040407F50484440000000000000000000FD
:10589000000000000000000000004040404040FFC9
:1058A00040404040400000000000000000000000B8
:1058B0000000000000000000404040404040407FA9
:1058C0004040404040404000000000000000000018
:1058D00000000000000000004040424458C0407FEB
:1058E00040C050484640400000000000000000005A
:1058F0000000000000000000808040201807000029
:10590000003F4040404078000000000000000000E0
:1059100000000000000000004170705461736B4390
:105920007265617465C8CECEF1B4B4BDA8D6D02E70
:105930002E2E2E2E2E0D0000656E7669725F74611C
:10594000736B0000656E7669725F7461736BC8CEAD
:10595000CEF1B4B4BDA8B3C9B9A6A3A10D0000008F
:105960006F6C65645F7461736B0000006F6C6564DD
:105970005F7461736BC8CECEF1B4B4BDA8B3C9B9BE
:10598000A6A3A10D000000006B65795F7461736BC5
:10599000000000006B65795F7461736BC8CECEF157
:1059A000B4B4BDA8B3C9B9A6A3A10D006265657062
:1059B0005F7461736B000000626565705F74617392
:1059C0006BC8CECEF1B4B4BDA8B3C9B9A6A3A10D1E
:1059D00000000000626565705F7461736B20527532
:1059E0006E6E696E672121A3A10D00006B65795F62
:1059F0007461736B2052756E6E696E672121A3A16D
:105A00000D0000006F6C65645F7461736B205275EC
:105A10006E6E696E6721210D00000000656E76696B
:105A2000725F7461736B2052756E6E696E672121AF
:105A3000A3A10D003A202020432020203A2020203E
:105A4000250000003A202020252020203A20202078
:105A5000480000004448543131204552524F5221F1
:105A6000210000004448543131204552524F522108
:105A7000210D00004448543131204F4B21210D00AD
:105A8000D5FDD4DAC6F4B6AF2E2E2E2E2E0D000084
:105A90004170705461736B437265617465000000FE
:105AA00020000020494E4600696E66004E414E00BF
:105AB0006E616E003000496E66696E697479004EE1
:105AC000614E000000000000000000000000000027
:105AD00000000000000000000000000000000000C6
