:020000040800F2
:1000000000500020113200080D340008113400089F
:1000100015340008193400081D34000800000000E1
:10002000000000000000000000000000510D00086A
:100030002134000800000000F10D0008612F0008C5
:100040005932000859320008593200085932000864
:10005000593200085932000879290008593200083D
:100060005932000859320008593200085932000844
:100070005932000859320008593200085932000834
:100080005932000859320008593200085932000824
:100090005932000859320008593200085932000814
:1000A0005932000859320008593200085932000804
:1000B00059320008593200085932000859320008F4
:1000C00059320008593200085932000859320008E4
:1000D00059320008FD300008593200085932000832
:1000E0005932000859320008593200080000000057
:1000F0000000000000000000000000000000000000
:0C01000000000000000000005FF808F1A3
:1001100010B5054C237833B9044B13B10448AFF341
:1001200000800123237010BDF001002000000000BA
:10013000305E0008084B10B51BB108490848AFF302
:1001400000800848036803B910BD074B002BFBD0A3
:10015000BDE81040184700BF00000000F401002077
:10016000305E0008F001002000000000034613F894
:10017000012B002AFBD1181A0138704781F0004189
:1001800002E000BF83F0004330B54FEA41044FEA7C
:10019000430594EA050F08BF90EA020F1FBF54EA17
:1001A000000C55EA020C7FEA645C7FEA655C00F0B3
:1001B000E2804FEA5454D4EB5555B8BF6D420CDD84
:1001C0002C4480EA020281EA030382EA000083EA07
:1001D000010180EA020281EA0303362D88BF30BDA7
:1001E00011F0004F4FEA01314FF4801C4CEA1131FD
:1001F00002D0404261EB410113F0004F4FEA03335C
:100200004CEA133302D0524263EB430394EA050FE6
:1002100000F0A780A4F10104D5F1200E0DDB02FA55
:100220000EFC22FA05F2801841F1000103FA0EF2E9
:10023000801843FA05F359410EE0A5F120050EF1AF
:10024000200E012A03FA0EFC28BF4CF0020C43FAE0
:1002500005F3C01851EBE37101F0004507D54FF0ED
:10026000000EDCF1000C7EEB00006EEB0101B1F53D
:10027000801F1BD3B1F5001F0CD349085FEA300083
:100280004FEA3C0C04F101044FEA445212F5800F8E
:1002900080F09A80BCF1004F08BF5FEA500C50F12B
:1002A000000041EB045141EA050130BD5FEA4C0C0E
:1002B000404141EB010111F4801FA4F10104E9D197
:1002C00091F0000F04BF01460020B1FA81F308BF8E
:1002D0002033A3F10B03B3F120020CDA0C3208DD5A
:1002E00002F1140CC2F10C0201FA0CF021FA02F135
:1002F0000CE002F11402D8BFC2F1200C01FA02F1A5
:1003000020FA0CFCDCBF41EA0C019040E41AA2BFC9
:1003100001EB0451294330BD6FEA04041F3C1CDA91
:100320000C340EDC04F11404C4F1200220FA04F0B1
:1003300001FA02F340EA030021FA04F345EA03015B
:1003400030BDC4F10C04C4F1200220FA02F001FA1D
:1003500004F340EA0300294630BD21FA04F029469F
:1003600030BD94F0000F83F4801306BF81F4801138
:100370000134013D4EE77FEA645C18BF7FEA655CAB
:1003800029D094EA050F08BF90EA020F05D054EA7D
:10039000000C04BF1946104630BD91EA030F1EBF82
:1003A0000021002030BD5FEA545C05D14000494186
:1003B00028BF41F0004130BD14F580043CBF01F579
:1003C000801130BD01F0004545F0FE4141F470015F
:1003D0004FF0000030BD7FEA645C1ABF194610463A
:1003E0007FEA655C1CBF0B46024650EA013406BF3B
:1003F00052EA033591EA030F41F4002130BD00BFFA
:1004000090F0000F04BF0021704730B54FF48064B6
:1004100004F132044FF000054FF0000150E700BF37
:1004200090F0000F04BF0021704730B54FF4806496
:1004300004F1320410F0004548BF40424FF0000183
:100440003EE700BF42004FEAE2014FEA31014FEAC6
:1004500002701FBF12F07F4393F07F4F81F0605115
:10046000704792F0000F14BF93F07F4F704730B584
:100470004FF4607401F0004521F0004120E700BF17
:1004800050EA010208BF704730B54FF000050AE09E
:1004900050EA010208BF704730B511F0004502D59F
:1004A000404261EB41014FF4806404F132045FEAA1
:1004B000915C3FF4DCAE4FF003025FEADC0C18BF46
:1004C00003325FEADC0C18BF033202EBDC02C2F13C
:1004D000200300FA03FC20FA02F001FA03FE40EACE
:1004E0000E0021FA02F11444C1E600BF70B54FF0CE
:1004F000FF0C4CF4E06C1CEA11541DBF1CEA1355B0
:1005000094EA0C0F95EA0C0F00F0DEF82C4481EA17
:10051000030621EA4C5123EA4C5350EA013518BF37
:1005200052EA033541F4801143F4801338D0A0FB24
:1005300002CE4FF00005E1FB02E506F00042E0FBD1
:1005400003E54FF00006E1FB03569CF0000F18BFD7
:100550004EF0010EA4F1FF04B6F5007F64F540747F
:1005600004D25FEA4E0E6D4146EB060642EAC62112
:1005700041EA55514FEAC52040EA5E504FEACE2E7F
:10058000B4F1FD0C88BFBCF5E06F1ED8BEF1004F82
:1005900008BF5FEA500E50F1000041EB045170BDFE
:1005A00006F0004646EA010140EA020081EA030142
:1005B000B4EB5C04C2BFD4EB0C0541EA045170BD3E
:1005C00041F480114FF0000E013C00F3AB8014F1B8
:1005D000360FDEBF002001F0004170BDC4F1000401
:1005E000203C35DA0C341BDC04F11404C4F1200582
:1005F00000FA05F320FA04F001FA05F240EA0200DD
:1006000001F0004221F0004110EBD37021FA04F612
:1006100042EB06015EEA430E08BF20EAD37070BDCC
:10062000C4F10C04C4F1200500FA04F320FA05F02B
:1006300001FA04F240EA020001F0004110EBD3702D
:1006400041F100015EEA430E08BF20EAD37070BD9D
:10065000C4F1200500FA05F24EEA020E20FA04F376
:1006600001FA05F243EA020321FA04F001F0004125
:1006700021FA04F220EA020000EBD3705EEA430E96
:1006800008BF20EAD37070BD94F0000F0FD101F0C5
:100690000046400041EB010111F4801F08BF013CFE
:1006A000F7D041EA060195F0000F18BF704703F03C
:1006B0000046520043EB030313F4801F08BF013DC3
:1006C000F7D043EA0603704794EA0C0F0CEA13557F
:1006D00018BF95EA0C0F0CD050EA410618BF52EA39
:1006E0004306D1D181EA030101F000414FF000003F
:1006F00070BD50EA410606BF1046194652EA43064D
:1007000019D094EA0C0F02D150EA013613D195EAC0
:100710000C0F05D152EA03361CBF104619460AD108
:1007200081EA030101F0004141F0FE4141F4700112
:100730004FF0000070BD41F0FE4141F4780170BD02
:1007400070B54FF0FF0C4CF4E06C1CEA11541DBF67
:100750001CEA135594EA0C0F95EA0C0F00F0A7F869
:10076000A4EB050481EA030E52EA03354FEA013196
:1007700000F088804FEA03334FF0805545EA1313A9
:1007800043EA12634FEA022245EA111545EA106571
:100790004FEA00260EF000419D4208BF964244F108
:1007A000FD0404F5407402D25B084FEA3202B61A27
:1007B00065EB03055B084FEA32024FF480104FF4FB
:1007C000002CB6EB020E75EB030E22BFB61A75466F
:1007D00040EA0C005B084FEA3202B6EB020E75EB02
:1007E000030E22BFB61A754640EA5C005B084FEA6A
:1007F0003202B6EB020E75EB030E22BFB61A754637
:1008000040EA9C005B084FEA3202B6EB020E75EB41
:10081000030E22BFB61A754640EADC0055EA060E02
:1008200018D04FEA051545EA16754FEA06164FEA45
:10083000C30343EA52734FEAC2025FEA1C1CC0D1F1
:1008400011F4801F0BD141EA00014FF000004FF07E
:10085000004CB6E711F4801F04BF01430020B4F13F
:10086000FD0C88BFBCF5E06F3FF6AFAEB5EB030CF7
:1008700004BFB6EB020C5FEA500C50F1000041EBF4
:10088000045170BD0EF0004E4EEA113114EB5C04C1
:10089000C2BFD4EB0C0541EA045170BD41F4801194
:1008A0004FF0000E013C90E645EA060E8DE60CEA9C
:1008B000135594EA0C0F08BF95EA0C0F3FF43BAFB9
:1008C00094EA0C0F0AD150EA01347FF434AF95EA70
:1008D0000C0F7FF425AF104619462CE795EA0C0F54
:1008E00006D152EA03353FF4FDAE1046194622E721
:1008F00050EA410618BF52EA43067FF4C5AE50EAFB
:1009000041047FF40DAF52EA43057FF4EBAE12E7EA
:100910004FF0FF3C06E000BF4FF0010C02E000BFCB
:100920004FF0010C4DF804CD4FEA410C7FEA6C5CAE
:100930004FEA430C18BF7FEA6C5C1BD001B050EA51
:10094000410C0CBF52EA430C91EA030F02BF90EA3C
:10095000020F0020704710F1000F91EA030F58BFFB
:10096000994208BF90422CBFD8176FEAE37040F05D
:10097000010070474FEA410C7FEA6C5C02D150EAFB
:10098000013C07D14FEA430C7FEA6C5CD6D152EAB6
:10099000033CD3D05DF8040B704700BF844610467B
:1009A00062468C461946634600E000BF01B5FFF77A
:1009B000B7FF002848BF10F1000F01BD4DF808ED4A
:1009C000FFF7F4FF0CBF012000205DF808FB00BF1B
:1009D0004DF808EDFFF7EAFF34BF012000205DF875
:1009E00008FB00BF4DF808EDFFF7E0FF94BF0120C2
:1009F00000205DF808FB00BF4DF808EDFFF7CEFFC3
:100A000094BF012000205DF808FB00BF4DF808ED01
:100A1000FFF7C4FF34BF012000205DF808FB00BFD2
:100A20004FEA410C7FEA6C5C02D150EA013C0AD1EA
:100A30004FEA430C7FEA6C5C02D152EA033C02D1DC
:100A40004FF0000070474FF0010070474FEA41023D
:100A500012F5001215D211D56FF47873B3EB625210
:100A600012D94FEAC12343F0004343EA505311F037
:100A7000004F23FA02F018BF404270474FF00000C9
:100A8000704750EA013005D111F0004008BF6FF007
:100A9000004070474FF00000704700BF124A12F04C
:100AA000070F07D0D11D21F00701C1F520531344D2
:100AB0000A4601E04FF420530C48026000214160D7
:100AC0001344083B23F00703094803605960196089
:100AD000991A51601360074B1960074B19604FF06A
:100AE0000042064B1A6070471C02002014020020CE
:100AF00010020020202A00200C0200201C2A0020C6
:100B0000124A00E01A4613688342FBD310B45168BE
:100B10005418A04203D14068014451601046416816
:100B20004418A3420CD10A4C2468A34206D05B6847
:100B30001944416013681B68036002E0046000E030
:100B40000360904200D0106010BC70471402002077
:100B500010020020F8B5054601F000F9354B1B687E
:100B60000BB9FFF79BFF344B1B681D424ED175B18B
:100B7000083515F0070F0AD025F00705083505F0F0
:100B8000070323B1BF222D492D4803F083F9002D1F
:100B90003ED02C4B1B689D423CD82B4A146801E088
:100BA00022461C4663689D4202D92368002BF7D178
:100BB000204B1B689C422FD01668083623681360B0
:100BC00063685B1B102B0FD9671917F0070F04D050
:100BD000EC221A491A4803F05DF963685B1B7B60DD
:100BE00065603846FFF78CFF626816490B689B1AF0
:100BF0000B60164909688B4201D214490B600E4BF9
:100C00001B681A4362600023236006E0002604E0AC
:100C1000002602E0002600E0002601F041F916F06F
:100C2000070F05D04FF496720449054803F032F9D6
:100C30003046F8BD100200201C2A0020485E000843
:100C4000A45E00080C02002014020020202A0020CC
:100C5000002833D038B50446A0F1080550F8042C1C
:100C6000174B1B681A4205D14FF4A072154916485C
:100C700003F010F954F8083C2BB140F2411211492D
:100C8000114803F007F954F8043C0D4A1268134266
:100C900013D054F8081C81B923EA020344F8043C39
:100CA00001F05CF854F8043C084A11680B441360E6
:100CB0002846FFF725FF01F0F3F838BD704700BF65
:100CC0001C2A0020485E0008A45E00080C020020D8
:100CD00006480068006880F3088862B661B6BFF312
:100CE0004F8FBFF36F8F00DF00BF000008ED00E003
:100CF00008B5094B1B68B3F1FF3F04D0F222074946
:100D0000074803F0C7F84FF0500383F31188BFF38F
:100D10006F8FBFF34F8FFEE700000020B45E000826
:100D2000A45E00084FF0807340F8043C21F00101FC
:100D300040F8081C034B40F80C3C40F8202C40388D
:100D4000704700BFF10C0008000000000000000028
:100D5000074B19680868B0E8F00F80F30988BFF303
:100D60006F8F4FF0000080F311884EF00D0E70472A
:100D70006C2D002008B54FF0500383F31188BFF3AA
:100D80006F8FBFF34F8F094A136801331360012B34
:100D90000AD1074B1B6813F0FF0F05D040F27F12FA
:100DA0000449054803F076F808BD00BF00000020A4
:100DB00004ED00E0B45E0008A45E000808B5084B2E
:100DC0001B682BB94FF4C3720649074803F062F859
:100DD000034A1368013B13600BB983F3118808BD04
:100DE00000000020B45E0008A45E000800000000BF
:100DF000EFF30980BFF36F8F0D4B1A6820E9F00FF6
:100E000010602DE908404FF0500080F3118801F088
:100E10002BF94FF0000080F31188BDE808401968F5
:100E20000868B0E8F00F80F30988BFF36F8F704750
:100E30006C2D002008B54FF0500383F31188BFF3E9
:100E40006F8FBFF34F8F00F097FF18B14FF08052B4
:100E5000024B1A60002383F3118808BD04ED00E003
:100E6000064B1B68064AA2FB03235B0A013B054AAB
:100E700013600322044B1A60704700BF1C0000205F
:100E8000D34D621014E000E010E000E000B583B044
:100E90001F4B1A78D2B20192FF221A701B78DBB274
:100EA0008DF803309DF8033003F05003194A137096
:100EB0000722194B1A6009E0174A1368013B1360B7
:100EC0009DF803305B00DBB28DF803309DF80330F2
:100ED00013F0800FF0D1104A13681B0203F4E06393
:100EE0001360019BDBB20A4A13700C4B1A6842F480
:100EF00070021A601A6842F070421A60FFF7B0FF81
:100F00000022074B1A60FFF7E3FEFFF7F1FE00BF78
:100F100000E400E0242A0020282A002020ED00E040
:100F20000000002008B5EFF305830F2B0CD90E4A03
:100F30009B5CDBB20D4A1278934205D240F29E22AE
:100F40000B490C4802F0A6FF0B4B1B6803F4E0634F
:100F50000A4A1268934205D940F2AE220449054874
:100F600002F098FF08BD00BFF0E300E0242A002053
:100F7000B45E0008A45E00080CED00E0282A002002
:100F800000F1080343604FF0FF328260C3600361E9
:100F900000230360704700BF00230361704700BF58
:100FA00043684B609A688A609A68516099600861EA
:100FB000036801330360704730B40D68B5F1FF3F3B
:100FC00001D1026907E000F1080200E01A46536807
:100FD0001C68A542FAD253684B6099608A605160E0
:100FE000086103680133036030BC704703694268DD
:100FF000816891608268416851605A68904201D16D
:1010000082685A60002202611868013818607047CF
:1010100010B50446FFF7AEFEA26BE36B9A4201D116
:10102000012400E00024FFF7C9FE204610BD00BFE8
:1010300010B50446FFF79EFEA36B0BB9012400E038
:101040000024FFF7BBFE204610BD00BF70B504466C
:101050001646856B026C3AB9036843BB406801F0E1
:1010600009FA0023636029E06EB9806802F08EFA05
:10107000A268236C1344A3606268934219D3236867
:10108000A36000201AE0C06802F080FA236C5B4283
:10109000E2681A44E26021688A4202D2626813441C
:1010A000E360022E07D145B1013D002006E000209B
:1010B00004E0002002E0002000E000200135A563EC
:1010C00070BD00BF70B582B001900E46846C2CB923
:1010D00040F6CE121849194802F0DCFEA26BE36B11
:1010E0009A4205D340F6CF121349144802F0D2FEBB
:1010F000A26BE36B9A4218D294F845506DB2324617
:1011000001A92046FFF7A2FF0646B5F1FF3F07D130
:10111000636A6BB104F1240001F096F838B907E076
:1011200001356DB284F8455002E0002600E001264A
:10113000304602B070BD00BF145F0008A45E000816
:10114000026C72B110B5C3681344C3604468A34213
:1011500001D30368C3600C46C168204602F016FA4A
:1011600010BD704738B50546FFF704FE95F84540B9
:1011700064B214E0AB6C3BB100212846FFF7A2FF3C
:1011800058B101F00DF908E06B6A53B105F1240084
:1011900001F05AF808B101F003F9013C64B2002CE7
:1011A000E8DCFF2385F84530FFF708FEFFF7E2FD96
:1011B00095F8444064B20AE02B6953B105F1100080
:1011C00001F042F808B101F0EBF8013C64B2002CE8
:1011D000F2DCFF2385F84430FFF7F0FD38BD00BF97
:1011E00038B50D46044628B940F21B121A491B486F
:1011F00002F050FEFFF7BEFD2168E26B236C03FB9B
:10120000021060600020A063A160013A02FB03139A
:10121000E360FF2384F8443084F845307DB92369C6
:10122000ABB104F1100001F00FF880B14FF0805223
:101230000B4B1A60BFF34F8FBFF36F8F07E004F1C2
:101240001000FFF79DFE04F12400FFF799FEFFF761
:10125000B5FD012038BD00BF145F0008A45E000882
:1012600004ED00E038B51D46049C0B4609B9246026
:1012700000E02260E063236401212046FFF7B0FF15
:1012800084F850500023A36438BD00BFF0B583B08C
:101290000D461746064628B94FF4C4720C490D484E
:1012A00002F0F8FD15B105FB06F000E00020543017
:1012B000FFF750FC044638B100903B4600F1540261
:1012C00029463046FFF7CEFF204603B0F0BD00BFF1
:1012D000145F0008A45E0008F0B585B00F460192C7
:1012E0001E46044628B940F2D9226049604802F0FF
:1012F000D1FD1FB9236C1BB9012302E0012300E0DB
:1013000000232BB940F2DA225849594802F0C2FDB5
:10131000022E03D1E36B012B02D102E0012300E096
:1013200000232BB940F2DB225049514802F0B2FDB4
:1013300001F03CF818B9019B1BB9012302E001231D
:1013400000E000232BB940F2DE224849484802F071
:10135000A1FD0025FFF70EFDA26BE36B9A4201D3BE
:10136000022E31D1324639462046FFF76FFEA36C7C
:101370006BB131462046FFF7A5FE08B34FF080520F
:101380003C4B1A60BFF34F8FBFF36F8F18E0636A57
:101390006BB104F1240000F057FF88B14FF0805288
:1013A000344B1A60BFF34F8FBFF36F8F08E038B133
:1013B0004FF080522F4B1A60BFF34F8FBFF36F8FE8
:1013C000FFF7FCFC01204EE0019B1BB9FFF7F6FC88
:1013D000002048E01DB902A800F07EFF0125FFF7BC
:1013E000EDFC00F0BBFCFFF7C5FC94F844305BB2A9
:1013F000B3F1FF3F02D1002384F8443094F8453024
:101400005BB2B3F1FF3F02D1002384F84530FFF710
:10141000D5FC01A902A800F077FFF0B92046FFF73C
:10142000F7FDA0B1019904F1100000F0D1FE2046B3
:10143000FFF798FE00F034FD00288BD14FF080526A
:101440000C4B1A60BFF34F8FBFF36F8F82E72046BC
:10145000FFF788FE00F024FD7CE72046FFF782FEC0
:1014600000F01EFD002005B0F0BD00BF145F0008B5
:10147000A45E000804ED00E02DE9F8430F46914614
:101480001E46044628B940F29F323849384802F0D7
:1014900001FD1FB9236C1BB9012302E0012300E009
:1014A00000232BB94FF468723049314802F0F2FC46
:1014B000022E03D1E36B012B02D102E0012300E0F5
:1014C00000232BB940F2A1322849294802F0E2FC5E
:1014D000FFF728FDEFF311884FF0500383F31188D5
:1014E000BFF36F8FBFF34F8FA26BE36B9A4201D3B1
:1014F000022E2CD194F845506DB232463946204622
:10150000FFF7A4FDB5F1FF3F1BD1A36C5BB13146E2
:101510002046FFF7D7FDE0B1B9F1000F1BD0012045
:10152000C9F800001EE0636ABBB104F1240000F0BA
:101530008BFEA0B1B9F1000F13D00120C9F8000053
:1015400010E001356DB284F8455001200AE000201A
:1015500008E0012006E0012004E0012002E0012073
:1015600000E0012088F31188BDE8F883145F0008CB
:10157000A45E00082DE9F04184B00E460192984621
:10158000044628B940F2DC425E495F4802F082FC22
:101590001EB9236C1BB9012302E0012300E00023E4
:1015A0002BB940F2DD425749574802F073FC00F076
:1015B000FDFE18B9019B1BB9012302E0012300E0E5
:1015C00000232BB94FF49C624E494F4802F062FC55
:1015D0000025FFF7CFFBA76B97B3E56831462046A0
:1015E000FFF7AEFDB8F1000F16D17B1EA363236891
:1015F00013B900F097FF60602369EBB104F11000AC
:1016000000F022FEC0B14FF08052404B1A60BFF391
:101610004F8FBFF36F8F0FE0E560636A63B104F132
:10162000240000F011FE38B14FF08052374B1A60A1
:10163000BFF34F8FBFF36F8FFFF7C0FB01205DE05B
:10164000019B1BB9FFF7BAFB002057E01DB902A8A8
:1016500000F042FE0125FFF7B1FB00F07FFBFFF732
:1016600089FB94F844305BB2B3F1FF3F02D1002311
:1016700084F8443094F845305BB2B3F1FF3F02D1B7
:10168000002384F84530FFF799FB01A902A800F078
:101690003BFE38BB2046FFF7CBFCE8B1236833B9EB
:1016A000FFF768FB606800F091FEFFF787FB019988
:1016B00004F1240000F08CFD2046FFF753FD00F0FC
:1016C000EFFB002885D14FF08052104B1A60BFF31A
:1016D0004F8FBFF36F8F7CE72046FFF743FD00F08D
:1016E000DFFB76E72046FFF73DFD00F0D9FB204603
:1016F000FFF79EFC00283FF46CAF002004B0BDE86B
:10170000F08100BF145F0008A45E000804ED00E053
:1017100000230BE0074A52F8332032B9054A42F859
:10172000331002EBC303586070470133072BF1D924
:10173000704700BF2C2A002070B504460D4616469F
:10174000FFF718FB94F844305BB2B3F1FF3F02D1CE
:10175000002384F8443094F845305BB2B3F1FF3F86
:1017600002D1002384F84530FFF728FBA36B2BB987
:101770003246294604F1240000F046FD2046FFF7DA
:10178000F1FC70BD0A4B1B681B680BB9012300E01C
:10179000002323B14FF0FF32064B1A607047044B11
:1017A0001B68DB68DB685A68024B1A60704700BF31
:1017B000702A00201C2D002010B50446006BFFF796
:1017C00047FA2046FFF744FA10BD00BF10B50446A3
:1017D00028B940F281620D490D4802F05BFB626955
:1017E0000C4B9A4201D1012300E0002343B1A26ACD
:1017F00009498A4206D002B100232BB9002010BD4E
:10180000002010BD002010BD012010BD685F000841
:10181000A45E0008702D00202C2D00202DE9F0473B
:1018200081460D4617469A46089EDDF824800A9C9C
:101830009200A521206B01F0B4FE236B07F18042DA
:10184000013A03EB820727F00707002306E0E95C73
:10185000E21882F83410EA5C12B101330F2BF6D98A
:10186000002384F843301F2E00D91F26E662E66469
:1018700000252565201DFFF78FFB04F11800FFF7F9
:101880008BFB2461C6F12006A6616462656584F85D
:10189000585084F85950524649463846FFF742FAA4
:1018A0002060B8F1000F01D0C8F80040BDE8F08713
:1018B00038B5002407E004EB840293000E48184476
:1018C000FFF75EFB01341F2CF5D90C4D2846FFF7BE
:1018D00057FB0B4C2046FFF753FB0A48FFF750FB22
:1018E0000948FFF74DFB0948FFF74AFB084B1D600D
:1018F000084B1C6038BD00BF902A0020442D0020FA
:10190000582D00202C2D0020782A0020702D00203A
:10191000702A0020282D002010B50446FFF72AFA6F
:10192000214A136801331360204B1B683BB91F4BDE
:101930001C601368012B0DD1FFF7BAFF0AE01C4BA6
:101940001B683BB9194B1B68DA6AE36A9A4201D8F3
:10195000164B1C60174A1368013313606364E36A13
:10196000012202FA03F1144802680A43026003EB01
:1019700083039A00211D11481044FFF711FBFFF764
:101980001DFA0B4B1B686BB1084B1B68DA6AE36AE4
:101990009A4207D24FF08052094B1A60BFF34F8F23
:1019A000BFF36F8F10BD00BF182D00206C2D0020DD
:1019B000742A0020402D0020842D0020902A002031
:1019C00004ED00E070B504460E461F4B1D681F4B2A
:1019D0001A68002182F8591018680430FFF706FBD6
:1019E00050B91A4B1B68DA6A012303FA02F218494C
:1019F0000B6823EA02030B60B4F1FF3F07D136B155
:101A0000124B196804311348FFF7CAFA70BD2C4411
:101A10000E4B1B685C60A54207D90F4B18680B4B37
:101A200019680431FFF7C8FA70BD0C4B1868074BF2
:101A300019680431FFF7C0FA094B1B689C4201D2B8
:101A4000074B1C6070BD00BF242D00206C2D0020B2
:101A5000842D0020702D0020282D0020702A0020C9
:101A60001C2D00202DE9F04385B006460F46154693
:101A700098469000FFF76EF860B181465C20FFF752
:101A800069F8044610B1C0F8309004E04846FFF70A
:101A9000DFF800E000248CB10023039302940D9B37
:101AA00001930C9B009343462A4639463046FFF784
:101AB000B5FE2046FFF730FF012001E04FF0FF3078
:101AC00005B0BDE8F08300BF38B50446FFF752F912
:101AD0000CB9284B1C68251D2846FFF787FA70B9FA
:101AE000E36A03EB83018A0023498A583AB9012249
:101AF00002FA03F321490A6822EA03030B60A36A8E
:101B00001BB104F11800FFF771FA1D4A1368013385
:101B10001360184B1B689C4208D129461948FFF7EF
:101B20003FFA194A13680133136008E0174A136833
:101B3000013B13602046FFF73FFEFFF723FEFFF750
:101B40003DF9134B1B68A3B10A4B1B689C4210D193
:101B5000104B1B682BB140F265420F490F4802F051
:101B600099F94FF080520E4B1A60BFF34F8FBFF3BD
:101B70006F8F38BD6C2D0020902A0020842D00200E
:101B8000402D0020782A0020142D0020182D002040
:101B9000742A0020102D0020685F0008A45E000851
:101BA00004ED00E038B5044628B940F2AB621A49AA
:101BB0001A4802F06FF96CB3194B1B689C4229D08C
:101BC000FFF7D8F82046FFF701FE08B3251D284689
:101BD000FFF70CFAE36A012202FA03F111480268E6
:101BE0000A43026003EB83039A0029460E4810441F
:101BF000FFF7D6F9E26A0A4B1B68DB6A9A4207D301
:101C00004FF08052094B1A60BFF34F8FBFF36F8FB5
:101C1000FFF7D4F838BD00BF685F0008A45E000875
:101C20006C2D0020842D0020902A002004ED00E07F
:101C3000F8B5044628B940F2E2622049204802F093
:101C400029F9FFF76FF9EFF311854FF0500383F394
:101C50001188BFF36F8FBFF34F8F2046FFF7B6FD9C
:101C600038B3184B1B68EBB9E26A174B1B68DB6A89
:101C70009A4201D2002600E00126271D3846FFF7D0
:101C8000B5F9E36A012202FA03F1104802680A4337
:101C9000026003EB83039A0039460D481044FFF7B6
:101CA0007FF907E004F118010A48FFF779F90026E7
:101CB00000E0002685F311883046F8BD685F000813
:101CC000A45E0008102D00206C2D0020842D002023
:101CD000902A00202C2D002000B583B0174B0193D3
:101CE00000230093802216491648FFF7BBFE012807
:101CF00001D100F085FC012814D14FF0500383F38B
:101D00001188BFF36F8FBFF34F8F4FF0FF320E4B31
:101D10001A6001220D4B1A6000220D4B1A60FFF76A
:101D2000B5F808E0B0F1FF3F05D140F284720949EF
:101D3000094802F0AFF803B05DF804FB202D002045
:101D4000BC5F0008412000081C2D0020742A0020E0
:101D5000242D0020685F0008A45E0008024A136872
:101D600001331360704700BF102D0020014B18682D
:101D7000704700BF242D0020F8B53C4B1B68002B9A
:101D800066D13B4B1E6801361E60AEB9394B1B68ED
:101D90001B682BB140F6D9123749384802F07AF85F
:101DA000344A1168364B186810601960354A136858
:101DB00001331360FFF7E6FC334B1B689E4203D2EE
:101DC00000273AE0012700E000272A4B1B681B6828
:101DD0000BB9012300E0002323B14FF0FF322A4B5F
:101DE0001A602AE0234B1B68DB68DC6863689E424C
:101DF00002D2254A136020E0251D2846FFF7F6F899
:101E0000A36A1BB104F11800FFF7F0F8E36A01229E
:101E100002FA03F11D4802680A43026003EB8303E0
:101E20009A0029461A481044FFF7BAF8E26A194B9B
:101E30001B68DB6A9A42C5D2C7E7164B1B68DB6A90
:101E400003EB83039A00124B9B58012B06D806E044
:101E5000114A136801331360002700E001270F4B7C
:101E60001B6803B101273846F8BD00BF102D0020C4
:101E7000242D0020702A0020685F0008A45E00085E
:101E8000282D00206C2A00201C2D0020842D0020ED
:101E9000902A00206C2D00208C2A0020882D002004
:101EA00038B5334B1B682BB94FF4FD6231493248CA
:101EB00001F0F0FFFEF75EFF2D4B1A68013A1A6041
:101EC0001B68002B4CD12D4B1B6833BB00244AE010
:101ED0002B4BDB68DC6804F11800FFF787F8251D41
:101EE0002846FFF783F8E36A012202FA03F1254846
:101EF00002680A43026003EB83039A0029462248E2
:101F00001044FFF74DF8E26A204B1B68DB6A9A42E7
:101F100004D301221E4B1A6000E00024184B1B68FA
:101F2000002BD5D10CB1FFF72DFC1A4B1C6854B116
:101F3000FFF722FF10B10122154B1A60013CF7D1C7
:101F40000022144B1A60124B1B685BB14FF0805299
:101F5000114B1A60BFF34F8FBFF36F8F012402E064
:101F6000002400E00024FEF729FF204638BD00BF12
:101F7000102D0020685F0008A45E0008182D0020C6
:101F80002C2D0020842D0020902A00206C2D002074
:101F9000882D00208C2A002004ED00E010B590B1BF
:101FA00004460E4B1B682BB140F2CF420C490D4842
:101FB00001F070FFFFF7D2FE00212046FFF702FD7F
:101FC000FFF76EFF00E0002038B94FF08052064B5B
:101FD0001A60BFF34F8FBFF36F8F10BD102D00201D
:101FE000685F0008A45E000804ED00E010B51BE087
:101FF000FFF7B4FE0F4B1C68FFF752FFA4B1FEF7CA
:10200000B9FE0C4BDB68DC68201DFEF7EFFF0A4AC7
:102010001368013B1360094A1368013B1360FEF724
:10202000CDFE2046FFF7C8FB044B1B68002BDFD119
:1020300010BD00BF782A0020182D0020142D00208C
:1020400008B5FFF7D3FF064B1B68012BF9D94FF0FA
:102050008052044B1A60BFF34F8FBFF36F8FF0E7CE
:10206000902A002004ED00E038B51D4B1B681BB121
:1020700001221C4B1A6038BD00221A4B1A601A4B01
:102080001C68B4FA84F4E4B2C4F11F0404EB8402C3
:102090009300164AD3582BB940F6F6221449154836
:1020A00001F0F8FE114DA2001319990029444B6864
:1020B000586848602244930008332B44984205D165
:1020C000416804EB840293002B44596004EB8404C0
:1020D000A300064A13445B68DA68074B1A6038BDF0
:1020E000102D0020882D0020842D0020902A002013
:1020F000685F0008A45E00086C2D002038B5044617
:10210000FEF738FE0CB9284B1C68251D2846FEF743
:102110006DFF70B9E36A03EB83018A0023498A5893
:102120003AB9012202FA03F321490A6822EA0303B9
:102130000B60A36A1BB104F11800FEF757FF294694
:102140001C48FEF72DFFFEF739FE1B4B1B682BB119
:10215000FEF710FEFFF716FBFEF730FE124B1B6872
:102160009C4220D1144B1B688BB1144B1B682BB1C4
:1021700040F257621249134801F08CFE4FF0805232
:10218000114B1A60BFF34F8FBFF36F8F38BD094BF0
:102190001A680E4B1B689A4203D10022024B1A6048
:1021A00038BDFFF761FF38BD6C2D0020902A00205C
:1021B000842D0020702D0020742A0020102D002076
:1021C000685F0008A45E000804ED00E0182D002000
:1021D00038B50C46054628B940F606320749084886
:1021E00001F058FE074B196818312846FEF7E4FE47
:1021F00001212046FFF7E6FB38BD00BF685F0008FD
:10220000A45E00086C2D002070B50D4614460646ED
:1022100028B940F631320949094801F03BFE094B23
:10222000196818313046FEF7BBFE0CB14FF0FF3590
:1022300021462846FFF7C6FB70BD00BF685F000857
:10224000A45E00086C2D002038B5C368DC682CB98A
:1022500040F661321849194801F01CFE04F11805D6
:102260002846FEF7C3FE164B1B68A3B9251D28465A
:10227000FEF7BCFEE36A012202FA03F1114802688C
:102280000A43026003EB83039A0029460E48104478
:10229000FEF786FE03E029460C48FEF781FEE26A5F
:1022A0000B4B1B68DB6A9A4203D90120094B18606B
:1022B00038BD002038BD00BF685F0008A45E00087C
:1022C000102D0020842D0020902A00202C2D00208D
:1022D0006C2D0020882D002010B5044628B940F64A
:1022E000C1320549054801F0D5FD054B1B68236047
:1022F000044B1B68636010BD685F0008A45E0008A3
:102300006C2A0020242D002038B50C46054628B93B
:1023100040F6CB321D491E4801F0BCFD2CB940F6F9
:10232000CC321A491A4801F0B5FDFEF723FD194BCE
:102330001A68194B1B6893F8593033B1164B1B6858
:10234000002283F8592001241CE02368B3F1FF3FE9
:1023500013D0286811490968884202D069688A4206
:102360000DD26968501A83420BD98A1A134423602C
:102370002846FFF7B1FF002404E0002402E0012416
:1023800000E00124FEF71AFD204638BD685F000812
:10239000A45E0008242D00206C2D00206C2A002053
:1023A0000122014B1A607047882D0020054B1B68E5
:1023B00023B1054B1B681BB90220704701207047F1
:1023C00000207047742A0020102D002000284AD0D9
:1023D00038B50246C36A24490968C96A8B4241D2AA
:1023E0008169002905DB20490968C96AC1F120011A
:1023F0008161506903EB830399001C4B19448842A7
:1024000001D1012300E0002343B31446151D2846E3
:10241000FEF7ECFD70B9E36A03EB83018A00134910
:102420008A583AB9012202FA03F311490A6822EAEA
:1024300003030B600C4B1B68DB6AE362012202FAA8
:1024400003F10B4802680A43026003EB83039A001E
:10245000294606481044FEF7A3FD38BD024B1B6811
:10246000DB6AD36238BD70476C2D0020902A0020B3
:10247000842D0020002845D038B50446244B1B6825
:10248000984205D040F6C7622249234801F002FD78
:10249000236D2BB940F6C9621E491F4801F0FAFCB2
:1024A000236D013B2365E16AE26C91422CD06BBB4A
:1024B000251D2846FEF79AFD70B9E36A03EB8301F8
:1024C0008A0016498A583AB9012202FA03F31449DC
:1024D0000A6822EA03030B60E36CE362C3F12002A3
:1024E000A261012404FA03F00D490A6802430A605C
:1024F00003EB83039A00294608481044FEF750FD79
:10250000204638BD00207047002038BD002038BD6F
:102510006C2D0020685F0008A45E0008902A00204F
:10252000842D0020054B1B6823B1044B1A68136DE2
:1025300001331365014B1868704700BF6C2D0020F4
:10254000064B1A681368B3FA83F35B09036013B987
:10255000D368186870470020704700BF8C2D00209A
:1025600008B54160006191420AD8D21A83699A4243
:1025700011D2011D0A4B1868FEF71EFD002008BD90
:102580009A4201D2994208D2011D064B1868FEF703
:1025900013FD002008BD012008BD012008BD00BFBB
:1025A000C02D00208C2D002038B5FEF7E3FB0E4B2C
:1025B0001B68B3B90D4D2846FEF7E2FC0C4C2046D3
:1025C000FEF7DEFC0B4B1D600B4B1C600022102144
:1025D0000520FEF75BFE044B186010B10749FFF7BA
:1025E00097F8FEF7EBFB38BDBC2D0020902D0020A6
:1025F000A42D00208C2D0020C02D0020D45F0008C9
:1026000010B582B0FFF7D0FF0D4B1B6863B10D4BC7
:1026100001931F23009300234FF480720A490B4853
:10262000FFF720FA044600E000242CB940F23312F0
:102630000749084801F02EFC204602B010BD00BF3B
:10264000BC2D0020C42D0020306000081129000896
:10265000DC5F0008A45E0008F0B585B00C461646A5
:102660001F46054628B94FF4D3721449144801F0A7
:1026700011FC144B1868F0B1009401960295052CDA
:1026800013DCFFF793FE022807D100230A9A69465C
:102690000C480068FEF720FE0EE000231A4669464B
:1026A00008480068FEF718FE06E000233A4669462F
:1026B000FEF7E2FE00E0002005B0F0BDDC5F0008A0
:1026C000A45E0008BC2D002070B582B026E0DB6857
:1026D0001E68DC68251D2846FEF788FC636A2046D4
:1026E0009847E369012B19D1A36933449E4207D26D
:1026F0006360246129460F4B1868FEF75DFC0DE00E
:10270000002100910B4632462046FFF7A5FF28B96D
:1027100040F292320849094801F0BCFB054B1B68A6
:102720001A68002AD3D1064A10680249086013606B
:1027300002B070BD8C2D0020DC5F0008A45E000894
:10274000C02D002038B50546FFF710FB0446074BA7
:102750001B68984204D2FFF7B7FF01232B6001E00A
:1027600000232B60014B1C60204638BDB82D002093
:1027700070B582B005460E46124B1B68DB68DC68FC
:10278000201DFEF733FCE369012B15D1A1692B460F
:10279000324629442046FFF7E3FE68B1002100914C
:1027A0000B462A462046FFF757FF28B94FF402721E
:1027B0000549064801F06EFB636A2046984702B05F
:1027C00070BD00BF8C2D0020DC5F0008A45E0008F7
:1027D00070B582B006460C46FFF7C0FA01A8FFF7B5
:1027E000B1FF019B1BBB054644B9B04206D3FFF7BE
:1027F00057FB29463046FFF7BBFF1AE02CB10E4BC2
:102800001B681C68B4FA84F464092246711B0B4BE4
:102810001868FEF791FFFFF743FB50B94FF0805265
:10282000074B1A60BFF34F8FBFF36F8F01E0FFF7C5
:1028300037FB02B070BD00BFC02D0020BC2D0020B2
:1028400004ED00E030B589B051E0049B002B03DAC1
:1028500007990698059B9847049B002B47DB069C2D
:10286000636913B1201DFEF7C1FB03A8FFF76AFFE0
:102870000546049B092B3AD8DFE803F00505053926
:102880002536050539250599A0690B462A460144D8
:102890002046FFF765FE50B3636A20469847E36918
:1028A000012B24D1A269002100910B460598024416
:1028B0002046FFF7D1FED0B940F22132114912482B
:1028C00001F0E8FA13E0059BA3612BB94FF44E72B7
:1028D0000C490D4801F0DEFAA1692B462A4629442D
:1028E0002046FFF73DFE02E02046FEF7B1F9002347
:1028F0001A4604A905480068FEF73CFE0028A4D14A
:1029000009B030BDDC5F0008A45E0008BC2D0020CB
:1029100000B583B001A8FFF713FE0199FFF758FF38
:10292000FFF790FFF6E700BF10B584B000F050F855
:102930000121084600F042FA00208DF80C00012425
:102940008DF80E40014600F0C1F9029408238DF87D
:102950000D300DEB030000F01DF906238DF8043057
:1029600002238DF805308DF806308DF8074001A858
:1029700000F0CEF804B010BD10B50A2000F03EFB08
:102980000E4801F087FA0E4B1B68012B07D10D4B47
:102990001868FFF74DF904460B4801F0EDFA012CD9
:1029A00008D13CB14FF08052084B1A60BFF34F8FF3
:1029B000BFF36F8F012000F035F910BD38600008BB
:1029C00000012142A42E00204060000804ED00E038
:1029D00010B582B00121302000F0F0F94FF44073BF
:1029E000ADF8043048248DF8074001A90C4800F0E8
:1029F0001FF90423ADF804308DF807400DEB0301F7
:102A0000084800F015F90123ADF8043028238DF8AB
:102A1000073001A9044800F00BF902B010BD00BF57
:102A200000100140001401400008014008B51D4B92
:102A30001B78CBB11C4B1B682BB11C4B1B6813B113
:102A40001B4B1B6883B90A20FFF7A8FA0022154B1D
:102A50001A70154B1B68C3B1144B1B68BBB1144BE8
:102A60001B68B3B9032008BD0F4B1B68012B12D1A3
:102A70000E4B1B68012B10D10D4B1B68012B0ED187
:102A80000122084B1A70002008BD012008BD022059
:102A900008BD002008BD002008BD002008BD0020A2
:102AA00008BD00BF04000020200122422401224270
:102AB0000881224200B583B00121102000F07EF988
:102AC0000F23ADF8043010238DF8073003238DF861
:102AD00006300123074A1360043213600432136086
:102AE0000432136001A9044800F0A2F803B05DF8B5
:102AF00004FB00BF800122420010014040F0BF6093
:102B000040F40030014BD860704700BF00ED00E09A
:102B1000C378FBB1154BDB68DB43C3F30223C3F17E
:102B200004010F22DA40437803FA01F1837813405D
:102B30000B431B010278DBB20D490A4482F80033D3
:102B40000378580903F01F03012202FA03F341F846
:102B50002030704703785A0903F01F03012101FA5E
:102B600003F32032024941F82230704700ED00E0C3
:102B700000E100E0042805D1054A136843F004038E
:102B800013607047024A136823F004031360704710
:102B900010E000E08379002B34D010B4204B1A6889
:102BA000016822EA01021A605A68016822EA0102F9
:102BB0005A60027902F1804202F58232146801689B
:102BC000214311609A68016822EA01029A60DA687A
:102BD000016822EA0102DA604379102B09D1104B17
:102BE000996802680A439A60D96802680A43DA6001
:102BF00013E003F1804303F58233196802680A4346
:102C00001A600AE0037903F1804303F582331A68FE
:102C1000016822EA01021A60704710BC704700BFC9
:102C200000040140014B5861704700BF000401409F
:102C3000F0B4CB7803F00F02154613F0100F01D05B
:102C40008D7815430B78E3B10668002316E0012266
:102C50009A400C8832EA04040FD19C000F27A74049
:102C600026EA070605FA04F42643CC78282C01D17D
:102C7000426102E0482C00D102610133072BE6D902
:102C800006600B88FF2B1ED94668002318E003F16D
:102C900008040122A2400C8832EA04040FD19C00EF
:102CA0000F27A74026EA070605FA04F42643CC7846
:102CB000282C00D14261CC78482C00D1026101332C
:102CC000072BE4D94660F0BC704700BF30B401F078
:102CD00003039B000F2404FA03F58908074A023115
:102CE00052F8214024EA050442F8214052F82140DC
:102CF0009840204342F8210030BC7047000001405A
:102D000010B4294B5B6803F00C03042B05D0082B8F
:102D100006D013BB254B036021E0244B03601EE06B
:102D2000214A53685268C3F38343023312F4803F4D
:102D300004D11F4A02FB03F3036010E01A4A5268F1
:102D400012F4003F04D01A4A02FB03F3036006E0CA
:102D5000164A02FB03F3036001E0144B03601249BF
:102D60004B68C3F30313134CE35CDAB20368D3403C
:102D700043604A68C2F30222A25CD2B223FA02F292
:102D800082604A68C2F3C222A25CD2B2D340C3605E
:102D90004A68C2F3813208498A5CD2B2B3FBF2F3CB
:102DA000036110BC704700BF0010024000127A009F
:102DB00000093D000C0000200800002021B1054B57
:102DC0009A69104398617047024A936923EA0000A8
:102DD000906170470010024030B587B004460D4640
:102DE000038A9BB2CA8823F4405313430382838926
:102DF0009BB28A88098968890A43024323F4B05345
:102E000023F00C031343A381A38A9BB2AA8923F462
:102E100040731343A38201A8FFF772FF1E4B9C422D
:102E200001D1049A00E0039AA38913F4004F08D05B
:102E300002EB820202EB820229684900B2FBF1F147
:102E400007E002EB820202EB820229688900B2FBF2
:102E5000F1F1124BA3FB01235B091B011A0964204A
:102E600000FB1212A18911F4004F08D0D2003232B7
:102E70000A49A1FB0212C2F342121A4307E01201EF
:102E800032320649A1FB0212C2F343121A4392B234
:102E9000228107B030BD00BF003801401F85EB51D3
:102EA00029B183899BB243F400538381704783899E
:102EB0009BB223F400539BB28381704710B4C1F3DB
:102EC000421401F01F01012303FA01F19C4201D1D8
:102ED0000C3004E0022C01D1103000E014301AB1A3
:102EE00003681943016003E0036823EA01010160FC
:102EF00010BC7047C1F30801818070478088C0F31F
:102F0000080070470388194201D001207047002053
:102F1000704700BF10B4C1F3421201F01F04012337
:102F2000A340012A03D1828992B2134008E0022A09
:102F300003D1028A92B2134002E0828A92B2134015
:102F4000090A012202FA01F1028892B2114013B17A
:102F500019B9002002E0002000E0012010BC7047F9
:102F600008B5FFF723FA012801D0FDF763FF08BD7C
:102F700008B50420FFF7FEFD0C4B1B680C4AA2FBB2
:102F800003239B0C0B4A13704FF47A7202FB03F37A
:102F90000121094A1180094A116841F002011160BA
:102FA0005360136843F00103136008BD1C00002048
:102FB00083DE1B43C82D0020CA2D002010E000E056
:102FC00030B40C4A55680C4B1B7800FB03F0936837
:102FD00000211A46074B9B689A42FBD002D9D21AAD
:102FE000114402E0EC1A224411448142F1D330BC76
:102FF000704700BF10E000E0C82D002010B5044667
:10300000FFF7D4F901280ED00A4B1888844203D365
:10301000B4FBF0F0FEF7C2FF064B1B88B4FBF3F2E3
:1030200003FB1244A4B24FF47A7000FB04F0FFF7E4
:10303000C7FF10BDCA2D002008B5054B1860054B11
:103040001868002302221946806800F09DFF08BD21
:10305000982E00208000002070B586B00646012121
:1030600044F20400FFF7AAFE4FF40073ADF81430E9
:1030700003248DF8164018238DF817301D4D05A92F
:103080002846FFF7D5FD4FF48063ADF814300423D4
:103090008DF8173005A92846FFF7CAFD25238DF8BE
:1030A00000308DF801408DF8024001258DF8035065
:1030B0006846FFF72DFD01960023ADF80830ADF806
:1030C0000A30ADF80C30ADF810300C23ADF80E30EE
:1030D000094C01A92046FFF77FFE2A4640F2255100
:1030E0002046FFF7EBFE29462046FFF7D9FE06B043
:1030F00070BD00BF000801400038014008B540F233
:1031000025511A48FFF706FF00282DD01748FFF772
:10311000F5FEC0B2164B1B8813F4004F24D103F404
:10312000804292B262B10A2803D00022104B1A806A
:1031300008BD6FEA43436FEA53430D4A138008BD4D
:103140000D2804D143F48043094A138008BDC3F31A
:103150000D020849885401339BB2054A1380C72BDE
:1031600002D90022024B1A8008BD00BF003801407E
:10317000942E0020CC2D0020022801D80120704779
:10318000002070470138012810D94FF0FF307047F8
:10319000315D0E4B1868FFF7ADFE80210B4B1868B0
:1031A000FFF7B0FE0028F8D0013403E070B51546F3
:1031B0000E460024AC42EBD34021044B1868FFF7C5
:1031C000A1FE0028F8D0284670BD00BF982E002030
:1031D000022801D8002070474FF0FF30704700BF31
:1031E0004FF0FF30704700BF10B50C4658B9202192
:1031F0000648FFF787FE0028F9D00448FFF77EFE57
:103200002070012010BD4FF0FF3010BD0044004081
:1032100000F06EF90B480C490C4A002302E0D45828
:10322000C4500433C4188C42F9D3094A094C002312
:1032300001E013600432A242FBD300F081F900F0F8
:10324000B3F8704700000020F0010020306400084F
:10325000F0010020BC2E0020FEE7000008B5FFF7BB
:10326000E5FB012802D0022808D00EE0094B1868BF
:10327000FEF744FF084800F07FFE06E0054B1868A3
:10328000FEF790FC054800F077FE0A20FFF7B6FE37
:10329000E5E700BFA42E0020586000086C6000081D
:1032A00010B500240134074A1368B3FA83F35B09AD
:1032B00013602146044800F0EDFD4FF4C870FFF79D
:1032C0009DFEEFE7800122428460000810B50024D3
:1032D0000134074A1368B3FA83F35B09136021468C
:1032E000044800F0D7FD4FF4FA70FFF787FEEFE7D0
:1032F000840122429C60000810B582B0FDF73AFDBF
:103300001B4800F039FE1B4C01940223009300235C
:10331000802219491948FEF7A5FB236813B1184804
:1033200000F02AFE174C019403230093002380220F
:1033300015491648FEF796FB236813B1144800F0B0
:103340001BFE144C01940423009300238022124995
:103350001248FEF787FB236813B1114800F00CFEFA
:10336000104B1868FEF7B0FBFDF728FD02B010BD4A
:10337000B4600008A42E0020D4600008A132000828
:10338000E0600008A02E0020FC600008CD3200089C
:1033900008610008A82E0020246100085D320008A2
:1033A000306100089C2E002000B583B04FF44070BF
:1033B000FFF7A4FBFFF77EFBFFF7B6FAFFF7D8FD98
:1033C0004FF4E130FFF748FE0B48FFF735FE0B489E
:1033D00000F0D2FD0A4B1B680193012300930023E8
:1033E000802208490848FEF73DFBFEF775FC0020E7
:1033F00003B05DF804FB00BF0038014048610008DD
:103400009C2E002058610008F9320008704700BF68
:10341000FEE700BFFEE700BFFEE700BFFEE700BF1C
:10342000704700BF82B00023019300932C4A1368B9
:1034300043F4803313602A4B1B6803F4003300937A
:10344000019B01330193009B1BB9019BB3F5A06F56
:10345000F1D1234B1B6813F4003F02D001230093EA
:1034600001E000230093009B012B36D11D4B1A680D
:1034700042F010021A601A6822F007021A601A68F5
:1034800042F002021A60A3F580535A685A605A68E3
:103490005A605A6842F480625A605A6822F47C1278
:1034A0005A605A6842F4E8125A601A6842F0807210
:1034B0001A600B4B1B6813F0007FFAD0084B5A6858
:1034C00022F003025A605A6842F002025A60044B2A
:1034D0005B6803F00C03082BF9D102B0704700BF02
:1034E000001002400020024008B5FFF79BFF08BD16
:1034F00008B5104B1A6842F001021A6059680E4A6A
:103500000A405A601A6822F0847222F480321A60EB
:103510001A6822F480221A605A6822F4FE025A6065
:103520004FF41F029A60FFF7DFFF4FF00062034B7A
:103530009A6008BD001002400000FFF800ED00E0B6
:103540000E4B70B51E460E4C0025E41AA410A54281
:1035500004D056F8253098470135F8E702F068FCAA
:10356000084B094C1E46E41AA4100025A54204D0BD
:1035700056F8253098470135F8E770BD28640008F3
:1035800028640008286400082C64000810B5431E55
:103590000A44914204D011F8014B03F8014FF8E7B7
:1035A00010BD03460244934202D003F8011BFAE720
:1035B00070472DE9F04788B0149F002B1E461299E2
:1035C000B8BF03F1004327F02007B6BF1E46002313
:1035D0002D23462F1446109DDDF84CA00B7003D010
:1035E000452F03D1013501E0032300E0022307AAA0
:1035F000049206AA03928DE828042246334600F07E
:10360000BBFE472F804602D1119BDB0728D5462FF2
:1036100008EB050911D198F80030302B0AD10022AF
:10362000002320463146FDF7C9F918B9C5F1010557
:10363000CAF80050DAF800309944002200232046EE
:103640003146FDF7BBF908B9302202E0CDF81C90F5
:1036500006E0079B994503D9591C07911A70F8E7B2
:103660004046079B159AC8EB0303136008B0BDE8FA
:10367000F087034673B50029B8BF494203F8022B0F
:10368000B4BF2D222B22092942701ADD0DF1070249
:1036900016460A2591FBF5F405FB1411092C01F1DE
:1036A000300102F8011D2146F4DC3031541E02F8CD
:1036B000011CB4421A460AD214F8012B03F8012B5C
:1036C000F7E71A463024214402F8024B5970101AC9
:1036D00002B070BD2DE9F04F91B00C46DDF8688066
:1036E00016461F46054601F059FD03681846099322
:1036F000FCF73CFD00230E93D8F800300A90073306
:1037000023F0070303F1080294F81890D4F800B0EE
:10371000C8F80020D3E90023C4E91223D4F84CA050
:10372000D4F848802AF000430B934FF0FF32A74BA8
:1037300040460B99FDF774F9A0B94FF0FF32A34B47
:1037400040460B99FDF74EF960B900220023404630
:103750005146FDF73DF910B12D2384F843309C4BC1
:103760009C4A0AE04246534640465146FDF758F906
:10377000002800F09281984B984AB9F1470F8CBF0E
:1037800090469846032323612BF0040323604FF0F7
:10379000000A3DE0B9F1670F00F08A81B9F1470FE7
:1037A00000F0868123600193636800210DF13302EC
:1037B000059002920093424653460691CDF8109030
:1037C000CDF80CE02846FFF7F4FE09F0DF03472BA5
:1037D000804600F08481B9F1650F0D9900F28D816A
:1037E00001394A4604F150000D91FFF742FF0E9A4D
:1037F00082468318012A236100F37C812268D10765
:1038000000F178819DF8333013B12D2384F84330D3
:10381000009733460FAA2146284600F09FF9013051
:1038200002D14FF0FF3096E123685A0501D4236995
:1038300065E0B9F1650F40F2D580D4E912010022AC
:103840000023FDF7BBF878B30123654A31462846CB
:10385000B8470130E5D00E9B0D9A9A420BDB2368E6
:10386000D80708D423689B0740F111814FF0000866
:1038700004F1190906E10A9B099A31462846B8471E
:103880000130CED04FF0000804F11A090E9B013B25
:103890009845E7DA01234A4631462846B8470130C1
:1038A000BFD008F10108F1E70D9B002B29DC0123B3
:1038B0004B4A31462846B8470130B2D00D9B23B958
:1038C0000E9B13B92368D907CCD50A9B099A3146B8
:1038D0002846B8470130A4D04FF0000904F11A0A75
:1038E0000D9B5B42994509DA012352463146284631
:1038F000B847013095D009F10109F1E70E9B424626
:10390000A7E00E9AA36D9A42A8BF1A46002A9146D4
:1039100006DC4FF0000A29EAE97904F11A0B11E0FC
:103920001346314642462846B8470130F1D178E780
:1039300001235A4631462846B84701303FF471AF5B
:103940000AF1010AA36DC9EB03029245F0DB08EB13
:1039500003090D9A0E9B9A420FDB2368DA070CD4F9
:103960000E9B0D9A9844C9EB08089B1A9845A8BF6E
:103970009846B8F1000F08DC0FE00A9B099A31461F
:103980002846B8470130EBD14BE743464A4631461B
:103990002846B84701303FF444AF4FF0000928EA09
:1039A000E87804F11A0A09E0012352463146284614
:1039B000B84701303FF435AF09F101090D9A0E9B6C
:1039C0009B1AC8EB03039945EEDB4BE7FFFFEF7F44
:1039D0006C6100087061000874610008786100087B
:1039E0007C6100080E9A012A01DCDB0738D501232F
:1039F000424631462846B84701303FF412AF0A9B91
:103A0000099A31462846B84701303FF40AAFD4E955
:103A1000120100220023FCF7D1FF20B14FF0000873
:103A200004F11A090EE00E9B08F10102013B19E0B6
:103A300001234A4631462846B84701303FF4F1AEEB
:103A400008F101080E9B013B9845F1DB534604F158
:103A5000500231462846B84701307FF403AFE0E614
:103A60004246012331462846B8470130EED1D8E618
:103A700001234A4631462846B84701303FF4D1AECB
:103A800008F10108E3680F9A9B1A9845F0DBE0689B
:103A90000F9B9842B8BF18465DE062680EA8531CA1
:103AA0000DF1340E4BF480637FF474AE062201E016
:103AB00012B90122626075E6002106910DF1330111
:103AC0008DE80C00236005904246CDF81090CDF8AB
:103AD0000CE0029153462846FFF76BFD80460D9B94
:103AE000D81C02DB626893421DDDA9F102095FFA6E
:103AF00089F970E60133236184E6B9F1660F14D1C8
:103B00000029636807DD216113B92268D2071DD53A
:103B100001330B4419E013B92268D00701D50233F1
:103B200013E0012311E04FF067090D9B0E9A9342B9
:103B300005DB22682361D10708D5013305E0002B9E
:103B4000D4BFC3F102030123134423610D9B4FF043
:103B5000000AA36556E611B0BDE8F08F2DE9F047E5
:103B600091461F460A698B6806469342B8BF1346C2
:103B7000C9F8003091F843200C46DDF8208012B1DE
:103B80000133C9F800302368990642BFD9F80030E4
:103B90000233C9F80030256815F0060510D104F18C
:103BA000190A07E00123524639463046C047013022
:103BB0001AD00135E368D9F800209B1A9D42F1DB49
:103BC00094F843302268003318BF012392060FD5C2
:103BD000E118302081F843005A1C94F84510224423
:103BE000023382F8431003E04FF0FF30BDE8F08766
:103BF00004F1430239463046C0470130F4D0226810
:103C0000D9F80050E36802F00602042A08BF5D1BE1
:103C10002269A3680CBF25EAE57500259342C4BF5D
:103C20009B1AED184FF000091A344D4509D00123B5
:103C3000224639463046C0470130D5D009F1010946
:103C4000F3E70020BDE8F0872DE9F04317460A7E30
:103C500085B06E2A984606460C460C9B01F1430E31
:103C600000F0AE8011D8632A22D009D8002A00F0D3
:103C7000BB80582A40F0CA8081F84520834955E02E
:103C8000642A1ED0692A1CD0C0E0732A00F0B080DC
:103C900009D86F2A2ED0702A40F0B8800A6842F006
:103CA00020020A603EE0752A24D0782A3AD0ADE09E
:103CB0001A6801F14205111D1960136884F8423039
:103CC000A8E021681A6811F0800F02D0111D196058
:103CD00008E011F0400F02F10401196002D0B2F9BE
:103CE000003000E01368002B3CDA2D225B4284F8A0
:103CF000432037E021681A6811F0800F02D0111DAF
:103D0000196007E011F0400F02F10401196001D0C1
:103D1000138800E01368227E5C496F2A14BF0A22D0
:103D200008221BE078225A4984F845202268186846
:103D300012F0800F00F104051D6003D1550601D576
:103D4000038800E00368D00744BF42F020022260ED
:103D50001BB9226822F0200222601022002084F881
:103D6000430001E049490A226568002DA56008DB8F
:103D7000206820F0040020602BB9002D7DD175460D
:103D80000CE0002B79D07546B3FBF2F002FB103348
:103D9000CB5C05F8013D03460028F5D1082A0BD17C
:103DA0002368DA0708D5236962689A42DEBF3023A8
:103DB00005F8013C05F1FF35C5EB0E0323612EE04C
:103DC00008681A6810F0800F496903D0101D186048
:103DD000136808E010F0400F02F104001860136847
:103DE00001D0198000E0196000232361754616E0B8
:103DF0001A68111D1960156800216268284601F0D3
:103E000043FA08B1401B6060636804E004F14205B6
:103E100084F8422001232361002384F84330CDF845
:103E200000803B4603AA21463046FFF797FE01304B
:103E300002D14FF0FF3026E023692A46394630464A
:103E4000C0470130F5D023689B0710D5002504F149
:103E5000190907E001234A4639463046C047013078
:103E6000E7D00135E368039A9B1A9D42F2DBE068D4
:103E7000039B9842B8BF184605E00B7804F1420551
:103E800084F842308AE705B0BDE8F0837E6100081F
:103E90008F6100080FB40A4B13B51C6824B1A369E5
:103EA00013B9204601F0F0F805AB049AA16820464A
:103EB000019301F0ADFD02B0BDE8104004B07047C1
:103EC0008000002070B50E46054618B183690BB915
:103ED00001F0DAF8AB69AC6813B9284601F0D4F800
:103EE000224B9C4201D16C6808E0214B9C4201D1DD
:103EF000AC6803E01F4B9C4208BFEC68A3891B071A
:103F000001D523693BB92146284600F03BF910B1A1
:103F10004FF0FF3070BD013EA36816F8011F013B52
:103F2000A36091B1002B04DAA269934206DB0A294F
:103F300004D023685A1C22601970EDE722462846F7
:103F400000F0CCF80130E7D1E2E7002B08DA224696
:103F50000A21284600F0C2F80130D9D00A2070BDED
:103F600023680A205A1C2260187070BDB0610008D6
:103F7000D0610008F0610008024B01461868FFF7A5
:103F8000A1BF00BF800000202DE9F7431D464F4B25
:103F900004461E680F46904626B1B36913B93046F1
:103FA00001F072F84A4B9C4201D1746808E0494B19
:103FB0009C4201D1B46803E0474B9C4208BFF468BF
:103FC000B8F1020F04D0B8F1010F79D8002D77DBDA
:103FD0002146304600F0EEFF616B41B104F144032D
:103FE000994202D0304601F041FC00236363002374
:103FF000A3616360A3891B0603D52169304601F0E4
:1040000035FCA389B8F1020F23F44A6323F00303BC
:10401000A3811ED001AB6A462146304601F0CCF8A0
:10402000A3891843A0810DB9009D00E02FBB28464D
:1040300001F022F90746D0B9DDF80090A94502D178
:104040004FF0FF3006E0484601F016F9074678B910
:10405000F6E70020A38943F00203A3810023A360B5
:1040600004F1470323602361012363612AE0A94629
:104070004D46A38943F08003A381B36913B9304649
:1040800001F002F8B8F1010F08BFA389276004BF4F
:1040900043F00103A381A389276103F0080080B2E4
:1040A000656158B113F001034FF000001DBF6D4270
:1040B000A060A561A56008BF184603E0A06001E00C
:1040C0004FF0FF3003B0BDE8F08300BF8000002058
:1040D000B0610008D0610008F0610008F8B50F4633
:1040E0001446054618B183690BB900F0CDFF224B89
:1040F0009C4201D16C6808E0204B9C4201D1AC6825
:1041000003E01F4B9C4208BFEC68A369A360A3892E
:104110001A0709D523693BB123682069FEB2181A32
:10412000636998420FDB08E02146284600F02AF830
:104130000028F1D04FF0FF361BE02146284600F062
:1041400039FF0028F6D1A3680130013BA360236842
:104150005A1C22601F706369984204D0A389DB0750
:1041600007D50A2E05D12146284600F023FF002856
:10417000E0D13046F8BD00BFB0610008D061000852
:10418000F0610008324B70B51D6806460C4625B13B
:10419000AB6913B9284600F077FF2E4B9C4201D142
:1041A0006C6808E02C4B9C4201D1AC6803E02B4BBF
:1041B0009C4208BFEC68B4F90C309AB215071DD4C4
:1041C000D00602D4092232603AE0510712D5616B61
:1041D00041B104F14403994202D0304601F046FB5C
:1041E00000236363A38923F02403A3810023636076
:1041F00023692360A38943F00803A38123694BB992
:10420000A38903F42073B3F5007F03D02146304621
:1042100000F0F6FFA28912F0010305D00023A3608D
:1042200063695B42A36103E0920758BF6369A360BF
:1042300023695BB9B4F90C3003F0800080B230B16F
:1042400043F04003A3814FF0FF3070BD002070BDEC
:1042500080000020B0610008D0610008F061000813
:104260002DE9F74F03690C6980469C427FDC013CD5
:1042700001F114074FEA840E00F1140606EB0E0359
:1042800057F82450019356F824300135B3FBF5F567
:1042900007EB0E09C5B34FF0000A3846B446D346C3
:1042A00050F8043B9AB205FB02A21B0C4FEA124ADB
:1042B00005FB03A392B2C2EB0B0BBCF800204FEA44
:1042C000134A5A441FFA83FBDCF800308145CBEBDC
:1042D000134303EB224392B242EA03424FEA234BD9
:1042E0004CF8042BDCD256F80E306BB9019B043B22
:1042F0009E421A4602D3C8F8104005E01268043BFB
:10430000002AF8D1013CF3E7404601F0D8F9002833
:104310002BDB304601354FF0000E57F8042B0368B5
:1043200091B2C1EB0E0E120C99B27144C2EB134361
:1043300003EB214389B24FEA234EB94541EA0343D7
:1043400040F8043BE9D256F8242006EB840362B916
:10435000043B9E421A4602D3C8F8104005E012689A
:10436000043B002AF8D1013CF3E7284600E0002096
:1043700003B0BDE8F08F00002DE9F04F456A95B01D
:104380008246219CCDE9022345B9102000F074FF3C
:10439000CAF82400456085600560C560DAF82430FD
:1043A000196859B15A68012393404A608B6050469E
:1043B00000F0ADFFDAF8243000221A60039BA04A17
:1043C000002BBDBF01232360039B0023BCBF23F050
:1043D00000430393DDF80C80A8BF236028F000435E
:1043E0001B0D1B0593421DD142F20F73209A1360DF
:1043F000029B43B9934A944BC8F31300002814BF9F
:104400001846104600E09048229B002B00F046859D
:10441000C37813B100F1080300E0C31C229A1360B3
:1044200000F03CBDDDE9024500220023204629467C
:10443000FCF7C4FA074658B1209A01231360229B67
:10444000002B00F01E8581481860013800F026BD61
:1044500012AB019313AB009322462B46504601F05A
:10446000A9F9C8F30A56049056B1C5F3130343F0F3
:104470007F51204641F44011A6F2FF3611971DE00E
:10448000139B129E1E4406F23243202B0ADD029A31
:1044900006F21240C3F1400322FA00F008FA03F3D7
:1044A000184304E0C3F12000029B03FA00F0FBF77D
:1044B000A7FF0123A1F1F871013E11930022644B83
:1044C000FBF760FE58A3D3E90023FCF70FF858A3CD
:1044D000D3E90023FBF758FE044630460D46FBF7B0
:1044E0009FFF55A3D3E90023FCF700F802460B46D3
:1044F00020462946FBF748FE04460D46FCF7A6FA7F
:1045000000228346002320462946FCF761FA58B171
:104510005846FBF785FF02460B4620462946FCF726
:104520004DFA08B90BF1FF3BBBF1160F0DD8DDE9D1
:104530000223484901EBCB01D1E90001FCF766FAFF
:1045400030B10BF1FF3B002300E00123109300E0AA
:104550001090129B9E1B731E079343BFC3F100086C
:10456000002307934FF00008BBF1000F06DB079B09
:10457000CDF82CB05B440793002705E00023CBEB7C
:104580000808CBF100070B931E9B092B28D8052B9D
:10459000C4BF043B1E931E9BC8BF0025A3F10203AA
:1045A000D8BF0125032B20D8DFE803F0060E020454
:1045B000012302E0012308E000230A931F9B002B44
:1045C0001DDD9946059321E000230A931F9B0BEB09
:1045D000030909F10103012B0593B8BF012315E07D
:1045E000012500231E930A9501E001230A934FF051
:1045F000FF390022CDF8149012231F9206E04FF0ED
:1046000001094B46CDF81490CDF87C90DAF824409F
:1046100000226260042101F114029A421CD86268EF
:10462000490001326260F6E761436F63A787D23FBA
:10463000B3C8608B288AC63FFB799F501344D33F91
:104640000000F07FA0610008A96100087D610008FA
:104650000000F83F106200086168504600F022FE3A
:10466000DAF8243020601B680693059B0E2B00F2BD
:104670005B81002D00F05881DDE90234BBF1000FB1
:10468000CDE90E3430DD9F4A0BF00F034FEA2B15B6
:1046900002EBC303E80618CBCDE908340CD5DDE9FD
:1046A0000E01994B05F00F05D3E90823FCF748F8F4
:1046B0000324CDE9020100E00224934E6DB1E90725
:1046C00008D5DDE90801D6E90023FBF70FFFCDE9A6
:1046D000080101346D100836F0E7DDE90823DDE953
:1046E0000201FCF72DF820E0CBF1000505B3DDE970
:1046F0000E01844B05F00F0203EBC203D3E9002344
:10470000FBF7F4FECDE902017F4E2D1100230224B8
:1047100055B1EA0705D5D6E90023FBF7E7FE0134DA
:1047200001236D100836F3E71BB1CDE9020100E06B
:104730000224109BE3B1DDE902560022734B2846A8
:104740003146FCF745F998B1059B8BB1B9F1000FE3
:1047500040F3E6800BF1FF330893314600226C4BA7
:104760002846FBF7C3FE0134CDE902014E4602E0C4
:10477000059ECDF820B02046FBF752FEDDE902236E
:10478000FBF7B4FE634B0022FBF7FEFCA1F1507374
:1047900004460C931D46D6B9DDE9020100225E4BAA
:1047A000FBF7F0FC22460C9BCDE90201FCF72EF949
:1047B000002840F03F820C99224601F10043DDE9D8
:1047C0000201FCF705F9002840F02B82A8E00A9AC4
:1047D0004C4B711E002A49D003EBC103D3E90023DF
:1047E00000204E49FBF7ACFF22462B46FBF7CAFCE4
:1047F000CDE90C01069CDDE90201FCF727F905462D
:10480000FBF70EFE02460B46DDE90201FBF7BAFCA0
:10481000DDE90C23303504F8015BCDE90201FCF73A
:10482000D7F8002840F01D83DDE902230020374936
:10483000FBF7A8FCDDE90C23FCF7CAF8002840F0E0
:10484000D180069BE31AB3426ADADDE90C0100224B
:104850002F4BFBF74BFE0022CDE90C01DDE90201F5
:104860002B4BFBF743FECDE90201C4E703EBC1018B
:104870002246D1E900012B46FBF738FE069BCDE925
:104880000C011D469C19DDE90201FCF7DFF8064624
:10489000FBF7C6FD02460B46DDE90201FBF772FCA1
:1048A000303605F8016BAC42CDE902014FF0000251
:1048B00022D11A4BDDE90C01FBF766FC02460B46E0
:1048C000DDE90201FCF7A2F8002840F08B80DDE969
:1048D0000C2300201149FBF755FC02460B46DDE98D
:1048E0000201FCF775F8D8B114F8013C621E302BB8
:1048F00040F0B7821446F7E7054BFBF7F7FDCDE92B
:104900000201C0E710620008D86200080000F03F12
:104910000000244000001C40000014400000E03F64
:10492000DDE90E34CDE90234139B002B7CDBBBF1B7
:104930000E0F79DCAB4B03EBCB03D3E900671F9B76
:10494000002B14DA059B002B11DC40F06C81002257
:10495000A54B30463946FBF7C9FDDDE90223FCF7DC
:104960004BF8059D2E46002840F05F8165E1069CCE
:10497000DDE9028932463B4640464946FBF7E0FE08
:10498000FCF764F80546FBF74BFD32463B46FBF768
:10499000ADFD0B46024649464046FBF7F3FB05F1E9
:1049A000300E069B04F801EBC3EB040E059B734528
:1049B0002DD102460B46FBF7E7FB804689460246AF
:1049C0000B4630463946FCF703F878B942464B4669
:1049D00030463946FBF7F2FF002800F04482EB072F
:1049E00004D440E2DDF820B000E01C4614F8012CAD
:1049F000631E392A07D1069A9A42F6D106993022C7
:104A00000BF1010B0A701A7801321A702BE20022A6
:104A1000764BFBF76BFD0022002380468946FBF7AF
:104A2000CDFF0028A6D01EE20A9A002A2BD01E9A9B
:104A3000012A0ADC119A12B103F2334302E0129BFD
:104A4000C3F136033D46444613E0059B5D1EAF426D
:104A5000BFBF0B9BEA1B9B180B93059BB6BF2F4652
:104A60007D1B0025002BA7BF4446059BC3EB080414
:104A70000023079A01211A4450469844079200F0F7
:104A8000E5FC064602E03D4644460A9E5CB1079BB3
:104A9000002B08DDA342A8BF2346079AC3EB0808F2
:104AA000E41AD31A0793002F1DDD0A9BABB18DB119
:104AB00031462A46504600F063FD049A01460646F8
:104AC000504600F0CCFC04990890504600F01FFCC2
:104AD000089B04937A1B06D000E03A46049950469E
:104AE00000F04EFD04900121504600F0AFFC0B9BFE
:104AF00005465BB31A460146504600F041FD1E9B39
:104B00000546012B18DC029B83B9039BC3F31303F7
:104B100073B9039B23F000473F0D3F054FB1079B3F
:104B200008F1010801330793012702E0002700E0A4
:104B3000029F0B9B73B100E000272B6905EB8303F9
:104B4000186900F036FCC0F1200004E01E9B012B28
:104B5000D9DD0B9F0120079B184410F01F0008D0DF
:104B6000C0F12003042B02DDC0F11C0002E006D0DE
:104B700018461C30079B8044034404440793B8F153
:104B8000000F05DD42460499504600F047FD0490B1
:104B9000079B002B05DD29461A46504600F03EFDD6
:104BA0000546109B23B32946049800F088FD002891
:104BB0001EDA00230A220499504600F0BFFB0A9B2C
:104BC0000BF1FF3B0490002B00F05F813146002386
:104BD0000A22504600F0B2FBB9F1000F06463FDC56
:104BE0003BE000BF106200080000144000002440B9
:104BF000059B002B2BDC1E9B022B28DDDDF814907F
:104C0000B9F1000F11D129464B460522504600F05C
:104C100095FB01460546049800F051FD00280CDC88
:104C200003E0354600E000252E461F9B069C6FEAF8
:104C3000030B09E03546DDF820B0069B069A5C1CA4
:104C4000312313700BF1010B05960026F7E00A9B48
:104C5000DDF8149023B9069CB2E01E9B022BCFDC3A
:104C6000002C05DD31462246504600F0D7FC0646B2
:104C70009FB17168504600F015FB0446326906F199
:104C80000C01023292000C30FEF780FC012221461A
:104C9000504600F0C3FC059000E00596029B069F7D
:104CA00003F00103079329460498FFF7D9FA314628
:104CB000044600F13008049800F001FD059A0290C6
:104CC0002946504600F017FDC36802463BB901462D
:104CD0000A90049800F0F3FC0A9A034600E00123CE
:104CE000114650460A9300F012FB0A9B53B91E9AD4
:104CF00042B9079A32B9B8F1390F2AD0029B002B7A
:104D00001CDC1DE0029A002A04DB1BD11E9ACAB9E2
:104D1000079ABAB9002B13DD01220499504600F01E
:104D20007DFC2946049000F0CAFC002803DC07D172
:104D300018F0010F04D0B8F1390F0AD004F131088E
:104D40007C1C0CE0002B07F101040BDDB8F1390FDE
:104D500003D139233B70013756E008F1010887F889
:104D600000806CE0069B2746E31A4B4504F8018C53
:104D70003BD000230A220499504600F0DFFA059B3D
:104D800004909E424FF00A024FF000033146504615
:104D900004D100F0D3FA0646059084E700F0CEFA7D
:104DA000002306460A220599504600F0C7FA0590EE
:104DB00079E700230A220499504600F0BFFA0490D4
:104DC00029460498FFF74CFA069B00F1300804F8D6
:104DD000018BE31A4B45ECDB069B0596B9F1010FFD
:104DE000ACBF4B4401331F460026012204995046B4
:104DF00000F014FC2946049000F061FC002803DC5C
:104E000015D118F0010F12D03C4614F8013C621E77
:104E1000392B09D1069B934204D10BF1010B3123AD
:104E2000069A02E01446F0E70133137007E03C46AF
:104E300014F8013C621E302B01D11446F8E72946D4
:104E4000504600F064FA059B6BB12EB19E4203D030
:104E50003146504600F05BFA0599504600F057FA8B
:104E600001E0DDF820B00499504600F050FA00232C
:104E7000209A23700BF101031360229B1BB11C606D
:104E800001E008480AE0069808E0B9F1000F3FF792
:104E9000E2AE1E9B022B7FF7DEAEB1E615B0BDE899
:104EA000F08F00BF7C6100088A892DE9F04105463A
:104EB00010070C4659D44B68002B02DC0B6C002BFE
:104EC00017DDE66AAEB102F48052002392B22F6879
:104ED0002B600AB1606D15E0216A01232846B047B6
:104EE000411C0FD12B686BB11D2B01D0162B03D1A8
:104EF0002F600020BDE8F081A38943F04003A38127
:104F0000BDE8F081A3895A0705D56368C01A636BB1
:104F10000BB1236CC01A00230246E66A216A2846B8
:104F2000B047431CA38906D129681D2939D8204AD6
:104F3000CA40D60735D5002262602269D9042260B2
:104F400004D5421C01D12B6803B96065616B2F60E9
:104F50000029CED004F14403994202D0284600F043
:104F600085FC00206063BDE8F0810F69002FC0D090
:104F700093070E680CBF4B690023C7EB06080F6050
:104F80008B6002E00744C0EB0808B8F1000FB0DD09
:104F900043463A46216A2846A66AB0470028F1DC13
:104FA000A38943F04003A3814FF0FF30BDE8F081B7
:104FB0000100402038B50B6905460C46DBB118B13D
:104FC00083690BB900F060F80C4B9C4201D16C680E
:104FD00008E00B4B9C4201D1AC6803E0094B9C42BA
:104FE00008BFEC68B4F90C302BB121462846BDE867
:104FF0003840FFF759BF002038BD00BFB06100083E
:10500000D0610008F0610008014900F0A9B800BFB4
:10501000B54F000810B50446002303604360836069
:1050200081814366C281036143618361194608221D
:105030005C30FEF7B6FA054B24626362044BA36250
:10504000044BE362044B236310BD00BF695C00089E
:105050008B5C0008C35C0008E75C000870B568233F
:105060004D1E5D430E4605F1740100F04BFC0446F5
:1050700040B1002180E842000C30A06005F16802D8
:10508000FEF78FFA204670BD836910B5044633BB26
:105090008364C3640365124B124A1B6882629842A0
:1050A00004BF0123836100F01FF86060204600F018
:1050B0001BF8A060204600F017F80022E0600421F1
:1050C0006068FFF7A7FF01220921A068FFF7A2FF90
:1050D00002221221E068FFF79DFF0123A36110BDAA
:1050E0006861000809500008F8B51C4B07461E68A7
:1050F000B36913B93046FFF7C7FF4836B468736821
:10510000013B04D4B4F90C507DB16834F8E733683E
:105110000BB13668F2E704213846FFF79FFF306095
:105120000028F6D10C233B60F8BD4FF6FF73E381F6
:105130000123A38165662560A560656025616561C1
:10514000A5610822294604F15C00FEF72AFA65638E
:10515000A563A564E5642046F8BD00BF686100084A
:105160002DE9F8438046894600F14804002694B1B1
:10517000A5686768013F0CD4AB89012B07D9B5F945
:105180000E30013303D029464046C84706436835F0
:10519000F0E72468EBE73046BDE8F883044B1B6872
:1051A000186A044B002808BF1846F030704700BF4B
:1051B000800000208400002070B50E46B1F90E106A
:1051C00090B0002914461D4606DA00232B60B389EF
:1051D0001A060ED540230EE001AA00F0ABFD002810
:1051E000F3DB029A02F47042A2F500535A425A418C
:1051F0002A604FF480630020236010B070BD00006F
:105200008B8973B59E0705460C4610D401AB6A46E0
:10521000FFF7D2FF00990646284600F073FB68B9F5
:10522000B4F90C309A0522D443F00203A38104F1AF
:105230004703236023610123636118E00D4BAB62D8
:10524000A389206043F08003A381009B20616361F8
:10525000019B4BB1B4F90E10284600F07DFD18B14A
:10526000A38943F00103A381A0893043A08102B048
:1052700070BD00BF09500008024B0146186800F0DD
:1052800041BB00BF8000002010B5C9B2024490426B
:10529000034605D01C7801308C42F8D1184610BD69
:1052A000002010BD70B5456A04460E463DB9102079
:1052B000FFF7E2FF6062456085600560C560656A72
:1052C000EB6843B1636ADB6853F8260078B1026883
:1052D00043F8262017E021220421204600F0B8FAE6
:1052E000636AE860DB68002BECD1002070BD01210F
:1052F00001FA06F56A1D9200204600F0A9FA00287E
:10530000F3D04660856000230361C36070BD70B553
:10531000446A06460D463CB91020FFF7ADFF7062A7
:10532000446084600460C4603DB1736A6A68DB688D
:1053300053F82210296043F8225070BD2DE9F04146
:1053400006460C460D691F4601F1140E0023DEF8D7
:105350000000013381B202FB0171000C0F0C02FB53
:10536000007089B201EB00419D424FEA10474EF8B0
:10537000041BECDCD7B1A3689D4212DB61683046A8
:105380000131FFF78FFF8046226904F10C010232E0
:1053900092000C30FEF7FAF821463046FFF7B7FFCF
:1053A000444604EB850301355F6125612046BDE875
:1053B000F081030C1B0413B90004102300E0002348
:1053C00010F07F4F04BF0002083310F0704F04BF8D
:1053D0000001043310F0404F04BF80000233002866
:1053E00003DB420003D5581C704718467047202045
:1053F0007047036813F007020BD0D90722D49A072D
:105400004BBF5B089B08036003604CBF0120022078
:10541000704799B209B91B0C102213F0FF0F04BF9B
:105420001B0A0832190704BF1B090432990704BF7D
:105430009B080232D90702D45B0805D00132036011
:1054400010467047002070472020704710B50C466A
:105450000121FFF727FF01224461026110BD2DE900
:10546000F74F14460A69236988469A42BEBF0B4625
:10547000A0461C46D8F81070D4F81090D8F8083020
:10548000D8F8041007EB09069E42C8BF0131FFF7A8
:1054900009FF00F114052B4605EB860C002263453D
:1054A00002D243F8042BFAE704F1140208F11401C4
:1054B00002EB890301EB87070093009B0192934263
:1054C00057D9B2F800B0BBF1000F23D08946AE46E1
:1054D0004FF0000859F8044BBEF800A0A3B20BFB34
:1054E00003A34FEA144ADEF8004043444FEA14484D
:1054F0000BFB0A84F24604EB13449BB243EA0443D9
:105500004F454FEA14484AF8043B01D9D646E1E733
:10551000CEF80480019B0432B3F802A0BAF1000F68
:1055200021D02C4689462B684FF00008B9F800E0DE
:10553000B4F802B09BB20AFB0EBEA346F04443EAA5
:1055400008434BF8043B59F8043BB4F804E01B0C47
:105550000AFB03E34F4503EB18434FEA134801D915
:105560005C46E3E763600435A7E75CF8043D13B9E4
:10557000013E002EF9DC066103B0BDE8F08F0000AB
:105580002DE9F843154612F0030206460F4607D0F0
:10559000214C013A002354F82220FFF7CFFE0746A2
:1055A000AD1036D0746A3CB91020FFF765FE70620A
:1055B000446084600460C460D6F82480D8F8084051
:1055C0004CB940F271213046FFF740FF04460023FA
:1055D000C8F8080003604FF00008EB070AD5394609
:1055E00022463046FFF73BFF814639463046FFF7FB
:1055F0008EFE4F466D100CD0206808B10446ECE7D3
:10560000224621463046FFF72AFF2060C0F800807E
:10561000F4E73846BDE8F883006300082DE9F04759
:105620000C460746914626694FEA621A5644496875
:10563000A368751CAB4202DA01315B00FAE7384619
:10564000FFF730FE002380461A4600F1140153454F
:1056500003DA41F823200133F9E72AEAEA732069E3
:1056600001EB830319F01F0904F1140101EB800E13
:1056700014D0C9F1200C002208689A4600FA09F0FB
:10568000024343F8042B51F8042B8E4522FA0CF206
:10569000F2D8CAF8042042B1B51C06E0043B51F828
:1056A000042B8E4543F8042FF9D8013D3846C8F83D
:1056B00010502146FFF72BFE4046BDE8F0870369F6
:1056C0000A6910B59B1A11D1920014301431831855
:1056D0000A4453F8044D52F8041D8C4202D007D3FB
:1056E000012010BD9842F4D3002010BD184610BD13
:1056F0004FF0FF3010BD2DE9F8430C460746114628
:1057000020461546FFF7DBFF061E08D13146384616
:10571000FFF7C8FD012303614661BDE8F883BCBF04
:1057200023462C4638466168BABF1D46012600262E
:10573000FFF7B8FD2B69C660266905F1140904F16D
:10574000140101EB860709EB830800F114054FF003
:10575000000C51F8042B59F8044B93B29C44A3B2AB
:10576000240CC3EB0C03C4EB124202EB23429BB2AA
:105770004FEA224CC84543EA02428E4645F8042BC4
:10578000E7D8BE450ED25EF8041B8AB262441314F9
:1057900003EB114392B242EA03424FEA234C45F82D
:1057A000042BEEE755F8043D0BB9013EFAE706611C
:1057B000BDE8F8832DE9F3411C4601219046089E7F
:1057C000099DFFF76FFDC4F31302C4F30A540746A3
:1057D0000CB142F480120192B8F1000F19D002A866
:1057E00040F8088DFFF705FE009B48B1019AC0F113
:1057F000200102FA01F10B43C2407B61019200E0FB
:105800007B61019B002B14BF02210121BB61396127
:1058100007E001A8FFF7EDFD019B01217B613961E4
:10582000203034B1A4F2334404443460C0F1350074
:1058300009E0A0F2324007EB810330601869FFF7FE
:10584000B8FDC0EB41102860384602B0BDE8F081D9
:1058500038B502FB01F4214600F054F8054618B1B2
:1058600022460021FDF79DFE284638BD38B5054685
:10587000002944D051F8043C0C1F002BB8BFE41899
:1058800000F09EFA1E4A1368114613B96360146053
:1058900030E0A3420DD92268A018834201BF1868E6
:1058A0005B681218226063600C6023E0A24203D898
:1058B00013465A68002AF9D118681918A1420BD169
:1058C0002168014458188242196013D11068526847
:1058D000014419605A600DE002D90C232B6009E0E5
:1058E00021686018824201BF10685268091821605F
:1058F00062605C602846BDE8384000F062BA38BD9E
:10590000B02E002070B5CD1C25F0030508350C2DF8
:1059100038BF0C25002D064601DBA94202D90C2315
:10592000336046E000F04CFA234B1C681A462146CF
:10593000A1B10B685B1B0ED40B2B03D90B60CC18E9
:10594000CD501EE08C420BBF63684B6813606360F0
:1059500018BF0C4615E00C464968E9E7174C236868
:105960001BB9304600F070F920602946304600F03F
:105970006BF9431C18D0C41C24F00304A0420DD1C1
:105980002560304600F01DFA04F10B00231D20F0C5
:105990000700C31A0ED05A42E25070BD211A304699
:1059A00000F052F90130EBD10C233360304600F0A7
:1059B00008FA002070BD00BFB02E0020AC2E0020E1
:1059C000936810B4013B002B936008DA9469A342FA
:1059D00002DBCBB20A2B02D110BCFEF77FBB1368EF
:1059E000581C10601970C8B210BC7047F8B5064654
:1059F0000F461446D518AC4208D03A4614F8011B9D
:105A00003046FFF7DDFF431CF5D100E00020F8BD74
:105A10002DE9F04F9DB00C4617460393064618B18A
:105A200083690BB9FFF730FB7F4B9C4201D174684F
:105A300008E07E4B9C4201D1B46803E07C4B9C4261
:105A400008BFF468A38918070CD5236953B1002354
:105A5000099320238DF8293030238DF82A30DFF880
:105A6000D4B144E021463046FEF78CFB0028EED04E
:105A70004FF0FF30D5E0039A111D12680391002A00
:105A800080F28C80524243F002000792049098F812
:105A900000302E2B00F08480032298F80010654817
:105AA000FFF7F2FB48B14023CBEB000003FA00F014
:105AB000049B08F101081843049098F8001006228E
:105AC0005D4808F101078DF82810FFF7DDFB00287D
:105AD00000F09580594B002B40F08880039B0733E2
