:020000040800F2
:1000000000500020B92000084D2200081502000809
:100010005122000855220008592200080000000063
:100020000000000000000000000000005D22000849
:1000300061220008000000009B0100086121000807
:100040000121000801210008012100080121000808
:1000500001210008012100080121000801210008F8
:1000600001210008012100080121000801210008E8
:1000700001210008012100080121000801210008D8
:1000800001210008012100080121000801210008C8
:1000900001210008012100080121000801210008B8
:1000A00001210008012100080121000801210008A8
:1000B0000121000801210008012100080121000898
:1000C0000121000801210008012100080121000888
:1000D00001210008A51F00080121000801210008D6
:1000E0000121000801210008012100080000000092
:1000F0000000000000000000000000000000000000
:0C01000000000000000000005FF808F1A3
:1001100010B5054C237833B9044B13B10448AFF341
:1001200000800123237010BD280200200000000081
:10013000B04B0008084B10B51BB108490848AFF395
:1001400000800848036803B910BD074B002BFBD0A3
:10015000BDE81040184700BF000000002C0200203E
:10016000B04B00082802002000000000EFF31080D0
:1001700072B6704780F310887047354A1368012BB8
:1001800004D04FF001031360324A1060324A11600C
:1001900032484FF0805101607047EFF3108272B621
:1001A0002B48016891B14FF00001016029480168B6
:1001B00029B1EFF3098121E9F00F006801602649B8
:1001C00009680968B1E8F00F81F3098882F31088A3
:1001D0004EF0040E7047204908601E494FF00000A1
:1001E00008601B494FF0010008601D481D49D0F808
:1001F000002041EA0201016018484FF0805101607F
:1002000019480068006800BF80F3088861B662B6CC
:10021000704700BFEFF308801EF0040F01D0EFF32A
:10022000098020E9F00F40F804ED1EF0040F02D021
:1002300080F3098801E080F3088800B500F0F8FC3D
:100240005DF804EB4EF0040E7047EFF30580704745
:1002500048020020500200204402002004ED00E08B
:1002600020ED00E00000FFFF08ED00E0034613F87A
:10027000012B002AFBD1181A0138704781F0004188
:1002800002E000BF83F0004330B54FEA41044FEA7B
:10029000430594EA050F08BF90EA020F1FBF54EA16
:1002A000000C55EA020C7FEA645C7FEA655C00F0B2
:1002B000E2804FEA5454D4EB5555B8BF6D420CDD83
:1002C0002C4480EA020281EA030382EA000083EA06
:1002D000010180EA020281EA0303362D88BF30BDA6
:1002E00011F0004F4FEA01314FF4801C4CEA1131FC
:1002F00002D0404261EB410113F0004F4FEA03335B
:100300004CEA133302D0524263EB430394EA050FE5
:1003100000F0A780A4F10104D5F1200E0DDB02FA54
:100320000EFC22FA05F2801841F1000103FA0EF2E8
:10033000801843FA05F359410EE0A5F120050EF1AE
:10034000200E012A03FA0EFC28BF4CF0020C43FADF
:1003500005F3C01851EBE37101F0004507D54FF0EC
:10036000000EDCF1000C7EEB00006EEB0101B1F53C
:10037000801F1BD3B1F5001F0CD349085FEA300082
:100380004FEA3C0C04F101044FEA445212F5800F8D
:1003900080F09A80BCF1004F08BF5FEA500C50F12A
:1003A000000041EB045141EA050130BD5FEA4C0C0D
:1003B000404141EB010111F4801FA4F10104E9D196
:1003C00091F0000F04BF01460020B1FA81F308BF8D
:1003D0002033A3F10B03B3F120020CDA0C3208DD59
:1003E00002F1140CC2F10C0201FA0CF021FA02F134
:1003F0000CE002F11402D8BFC2F1200C01FA02F1A4
:1004000020FA0CFCDCBF41EA0C019040E41AA2BFC8
:1004100001EB0451294330BD6FEA04041F3C1CDA90
:100420000C340EDC04F11404C4F1200220FA04F0B0
:1004300001FA02F340EA030021FA04F345EA03015A
:1004400030BDC4F10C04C4F1200220FA02F001FA1C
:1004500004F340EA0300294630BD21FA04F029469E
:1004600030BD94F0000F83F4801306BF81F4801137
:100470000134013D4EE77FEA645C18BF7FEA655CAA
:1004800029D094EA050F08BF90EA020F05D054EA7C
:10049000000C04BF1946104630BD91EA030F1EBF81
:1004A0000021002030BD5FEA545C05D14000494185
:1004B00028BF41F0004130BD14F580043CBF01F578
:1004C000801130BD01F0004545F0FE4141F470015E
:1004D0004FF0000030BD7FEA645C1ABF1946104639
:1004E0007FEA655C1CBF0B46024650EA013406BF3A
:1004F00052EA033591EA030F41F4002130BD00BFF9
:1005000090F0000F04BF0021704730B54FF48064B5
:1005100004F132044FF000054FF0000150E700BF36
:1005200090F0000F04BF0021704730B54FF4806495
:1005300004F1320410F0004548BF40424FF0000182
:100540003EE700BF42004FEAE2014FEA31014FEAC5
:1005500002701FBF12F07F4393F07F4F81F0605114
:10056000704792F0000F14BF93F07F4F704730B583
:100570004FF4607401F0004521F0004120E700BF16
:1005800050EA010208BF704730B54FF000050AE09D
:1005900050EA010208BF704730B511F0004502D59E
:1005A000404261EB41014FF4806404F132045FEAA0
:1005B000915C3FF4DCAE4FF003025FEADC0C18BF45
:1005C00003325FEADC0C18BF033202EBDC02C2F13B
:1005D000200300FA03FC20FA02F001FA03FE40EACD
:1005E0000E0021FA02F11444C1E600BF70B54FF0CD
:1005F000FF0C4CF4E06C1CEA11541DBF1CEA1355AF
:1006000094EA0C0F95EA0C0F00F0DEF82C4481EA16
:10061000030621EA4C5123EA4C5350EA013518BF36
:1006200052EA033541F4801143F4801338D0A0FB23
:1006300002CE4FF00005E1FB02E506F00042E0FBD0
:1006400003E54FF00006E1FB03569CF0000F18BFD6
:100650004EF0010EA4F1FF04B6F5007F64F540747E
:1006600004D25FEA4E0E6D4146EB060642EAC62111
:1006700041EA55514FEAC52040EA5E504FEACE2E7E
:10068000B4F1FD0C88BFBCF5E06F1ED8BEF1004F81
:1006900008BF5FEA500E50F1000041EB045170BDFD
:1006A00006F0004646EA010140EA020081EA030141
:1006B000B4EB5C04C2BFD4EB0C0541EA045170BD3D
:1006C00041F480114FF0000E013C00F3AB8014F1B7
:1006D000360FDEBF002001F0004170BDC4F1000400
:1006E000203C35DA0C341BDC04F11404C4F1200581
:1006F00000FA05F320FA04F001FA05F240EA0200DC
:1007000001F0004221F0004110EBD37021FA04F611
:1007100042EB06015EEA430E08BF20EAD37070BDCB
:10072000C4F10C04C4F1200500FA04F320FA05F02A
:1007300001FA04F240EA020001F0004110EBD3702C
:1007400041F100015EEA430E08BF20EAD37070BD9C
:10075000C4F1200500FA05F24EEA020E20FA04F375
:1007600001FA05F243EA020321FA04F001F0004124
:1007700021FA04F220EA020000EBD3705EEA430E95
:1007800008BF20EAD37070BD94F0000F0FD101F0C4
:100790000046400041EB010111F4801F08BF013CFD
:1007A000F7D041EA060195F0000F18BF704703F03B
:1007B0000046520043EB030313F4801F08BF013DC2
:1007C000F7D043EA0603704794EA0C0F0CEA13557E
:1007D00018BF95EA0C0F0CD050EA410618BF52EA38
:1007E0004306D1D181EA030101F000414FF000003E
:1007F00070BD50EA410606BF1046194652EA43064C
:1008000019D094EA0C0F02D150EA013613D195EABF
:100810000C0F05D152EA03361CBF104619460AD107
:1008200081EA030101F0004141F0FE4141F4700111
:100830004FF0000070BD41F0FE4141F4780170BD01
:1008400070B54FF0FF0C4CF4E06C1CEA11541DBF66
:100850001CEA135594EA0C0F95EA0C0F00F0A7F868
:10086000A4EB050481EA030E52EA03354FEA013195
:1008700000F088804FEA03334FF0805545EA1313A8
:1008800043EA12634FEA022245EA111545EA106570
:100890004FEA00260EF000419D4208BF964244F107
:1008A000FD0404F5407402D25B084FEA3202B61A26
:1008B00065EB03055B084FEA32024FF480104FF4FA
:1008C000002CB6EB020E75EB030E22BFB61A75466E
:1008D00040EA0C005B084FEA3202B6EB020E75EB01
:1008E000030E22BFB61A754640EA5C005B084FEA69
:1008F0003202B6EB020E75EB030E22BFB61A754636
:1009000040EA9C005B084FEA3202B6EB020E75EB40
:10091000030E22BFB61A754640EADC0055EA060E01
:1009200018D04FEA051545EA16754FEA06164FEA44
:10093000C30343EA52734FEAC2025FEA1C1CC0D1F0
:1009400011F4801F0BD141EA00014FF000004FF07D
:10095000004CB6E711F4801F04BF01430020B4F13E
:10096000FD0C88BFBCF5E06F3FF6AFAEB5EB030CF6
:1009700004BFB6EB020C5FEA500C50F1000041EBF3
:10098000045170BD0EF0004E4EEA113114EB5C04C0
:10099000C2BFD4EB0C0541EA045170BD41F4801193
:1009A0004FF0000E013C90E645EA060E8DE60CEA9B
:1009B000135594EA0C0F08BF95EA0C0F3FF43BAFB8
:1009C00094EA0C0F0AD150EA01347FF434AF95EA6F
:1009D0000C0F7FF425AF104619462CE795EA0C0F53
:1009E00006D152EA03353FF4FDAE1046194622E720
:1009F00050EA410618BF52EA43067FF4C5AE50EAFA
:100A000041047FF40DAF52EA43057FF4EBAE12E7E9
:100A10004FF0FF3C06E000BF4FF0010C02E000BFCA
:100A20004FF0010C4DF804CD4FEA410C7FEA6C5CAD
:100A30004FEA430C18BF7FEA6C5C1BD001B050EA50
:100A4000410C0CBF52EA430C91EA030F02BF90EA3B
:100A5000020F0020704710F1000F91EA030F58BFFA
:100A6000994208BF90422CBFD8176FEAE37040F05C
:100A7000010070474FEA410C7FEA6C5C02D150EAFA
:100A8000013C07D14FEA430C7FEA6C5CD6D152EAB5
:100A9000033CD3D05DF8040B704700BF844610467A
:100AA00062468C461946634600E000BF01B5FFF779
:100AB000B7FF002848BF10F1000F01BD4DF808ED49
:100AC000FFF7F4FF0CBF012000205DF808FB00BF1A
:100AD0004DF808EDFFF7EAFF34BF012000205DF874
:100AE00008FB00BF4DF808EDFFF7E0FF94BF0120C1
:100AF00000205DF808FB00BF4DF808EDFFF7CEFFC2
:100B000094BF012000205DF808FB00BF4DF808ED00
:100B1000FFF7C4FF34BF012000205DF808FB00BFD1
:100B20004FEA410C7FEA6C5C02D150EA013C0AD1E9
:100B30004FEA430C7FEA6C5C02D152EA033C02D1DB
:100B40004FF0000070474FF0010070474FEA41023C
:100B500012F5001215D211D56FF47873B3EB62520F
:100B600012D94FEAC12343F0004343EA505311F036
:100B7000004F23FA02F018BF404270474FF00000C8
:100B8000704750EA013005D111F0004008BF6FF006
:100B9000004070474FF00000704700BF00B583B0C1
:100BA0000121102001F0CAF80F23ADF80430102302
:100BB0008DF8073003238DF806300123074A1360B0
:100BC00004321360043213600432136001A9044834
:100BD00001F008F803B05DF804FB00BF8001224279
:100BE0000010014070B40646043222F00702A2F160
:100BF0004000002403E00D4D40F8245001340F2C38
:100C0000F9D942F8201C002142F81C1C42F8181C9B
:100C100042F8141C42F8101C42F80C3C42F8086CD4
:100C20004FF0807342F8043C70BC7047EFBEADDEFD
:100C300008B5034B1B680BB1984700B1FEE708BD30
:100C40004C020020014B1868704700BF540200207E
:100C500008B5084A13680133136000F02DFD036CDA
:100C6000013B03641BB9C36B036400F055FD00F046
:100C700009FF08BD54020020002070470020704783
:100C80000020704710B5044C02E054F8043B98472C
:100C9000024B9C42F9D310BDC04F0008B84F00086A
:100CA00010B5044C02E054F8043B9847024B9C42B8
:100CB000F9D310BDB84F0008BC4F000808B5FFF7C6
:100CC000EFFF01F079FA08BD00B583B0142301935A
:100CD0000A2300934FF4007300220449044800F0F3
:100CE000F1FC00F0BBFD03B05DF804FBBD0C000897
:100CF000C84B000808B5FFF739FA01F00BFA00F00D
:100D000055F900F02DFF00F041FBFFF7DDFF00F08B
:100D100035FF00F033F800F05FFB002008BD00BF96
:100D200008B5FFF7E7FF002008BD00BF38B5FFF7A3
:100D30001DFA04460E4B1A689A4202D1FFF71AFABE
:100D400038BD0B4B1B68A3F114051A685968516034
:100D50005A68196811605B601B60586900F044FABA
:100D6000284600F0F5FA2046FFF704FADFE700BF57
:100D70001C05002008B5FFF7D9FFFCE710B584B0CB
:100D80000A4C202303931F2302934FF48073019393
:100D9000074B00930023074A0749204600F070FCE8
:100DA000204600F05BFD04B010BD00BF58020020DB
:100DB000D0020020750D0008D04B000870B5044625
:100DC00016461D460A46022100F05CFA04F114039F
:100DD000A3616361A6836572002070BD2DE9F041B7
:100DE00082B006460191FFF7C1F90746B38B2BB1DC
:100DF000013BB383FFF7BEF9002052E0019B23B90A
:100E0000FFF7B8F96FF001004BE000F055FC044625
:100E10000023036306F1140596F8098000F0ACFC8A
:100E2000B8F1000F03D0B8F1010F09D026E004F1AA
:100E300014036A6813606A68A2616B6065611DE0F3
:100E400073690FE094F8351093F82120914208D28D
:100E500004F1140259680A605968A1615A6063611B
:100E600002E01B689D42EDD19D4207D104F11403BD
:100E70006A6813606A68A2616B606561019B002B00
:100E800009DD04F1440501AA0021284600F0D0FD47
:100E9000284600F043FD3846FFF76CF900F0B4FA3D
:100EA000206B02B0BDE8F08138B50446FFF75EF96B
:100EB000054604F114036069834204D0143800F03D
:100EC000A9FC01240EE0A38B4FF6FF72934203D0DE
:100ED0000133A383002405E02846FFF74BF96FF0A8
:100EE000020038BD2846FFF745F91CB100F08CFA26
:100EF000002038BD002038BD08B5FFF737F9044A97
:100F000013780133DBB21370FFF734F908BD00BF6B
:100F1000D003002008B5FFF729F9044A1378013BF4
:100F2000DBB21370FFF726F908BD00BFD003002025
:100F300010B4032A05D9CCB210F0030F03D0034636
:100F400019E0034617E044EA042444EA0444034653
:100F500005E01C605C609C60DC60103A10330F2A76
:100F6000F7D802E01C60043A0433032AFAD802E0FE
:100F7000197022460133541E002AF9D110BC704763
:100F80009AB130B413460446621C4D1C0978217096
:100F900031B902E0002111700132013BFAD103E0C6
:100FA00014462946013BEFD130BC7047704700BF63
:100FB000E8B110F0FF0203D00E4B985C013070478F
:100FC00010F47F4F05D0C0F307230A4AD05C0930E4
:100FD000704710F47F0F05D0C0F30743054AD05C7B
:100FE00011307047030E034AD05C1930704700205F
:100FF000704700BFD84B0008154B196842680A4477
:10100000904211D053887BB9124B1B689A420BD087
:10101000114B1B689A4201D10F4B18605368436013
:1010200053680B44421A9A6083680B4498420DD06F
:101030005A885AB9084A1268904201D1064A136088
:1010400042685A6042680A445B1A9360704700BF66
:1010500004040020E0030020D403002021F0030159
:10106000182926D9033020F00300A1F11803984273
:101070001FD870B5091AA1F118020E4B1A600E4D57
:1010800028604FF4F55202800C39416000238360E0
:1010900043804418094E34604252012262806160EC
:1010A000A16007490748FFF789FE2A68064B1A60C6
:1010B00070BD7047DC03002004040020E003002022
:1010C000D84C0008E4030020D4030020002878D086
:1010D000F8B50546033525F003053C4B1B689D42DA
:1010E00071D80B2D00D80C254FF0FF313848FFF791
:1010F00075FE384B1E68384B1B689B1B57E0F41875
:101100006188002952D16068C11A0C398D424DD8CE
:1011100005F11807B9421FD3E9180C3170184FF4C4
:10112000F5577752002747806768476083606160A2
:101130000123638043680C32934201D033449960A9
:10114000264A13682B440C331360254A12689342D5
:1011500010D9234A13600DE001236380A31BC31A37
:101160001E490A6813440B601D4A1268934201D954
:101170001B4A13604FF4F5532380174B1B689C42A6
:101180000ED105E0134A12685B681344124A1360DB
:10119000114B1B685A881AB1124A12689342F1D156
:1011A0000B48FFF781FE04F10C00F8BD6368074AA5
:1011B0001268511B8B42A2D30548FFF775FE002031
:1011C000F8BD002070470020F8BD00BFDC03002000
:1011D000E403002004040020D4030020D8030020EE
:1011E00008040020E003002070B338B5174A1268E5
:1011F000904228D3164A1268904224D20446A0F1A5
:101200000C054FF0FF311348FFF7E8FD002324F8E9
:101210000A3C4FF4F55324F80C3C0F4B1B689D42DD
:1012200001D20D4B1D60094B1B68EB1A54F8082CBA
:101230009B1A0A4A11680B4413602846FFF7DCFE2C
:101240000448FFF731FE38BD704700BF040400209A
:10125000E0030020E4030020D4030020D803002092
:10126000002308E01A0106498A5C824202D101EBA0
:10127000031070470133032BF4DD0020704700BFDB
:10128000000000202DE9F04106460F469046084632
:10129000FFF7E6FF054600F03FF96B6800E01B68CA
:1012A0002C1DA342FBD100F043F967F07F07377292
:1012B000082241463046FFF763FEFEF757FF06F16E
:1012C0000C036A6853606A68F2606B603461FEF711
:1012D00051FFBDE8F08100BF10B504460023037242
:1012E000FEF744FF04F10C03E268216951602269B2
:1012F000E16811602361E360FEF73CFF10BD00BFB1
:10130000F8B507460E46FFF7ABFF0546C068FFF786
:10131000DDFED8B10446EA680021FFF709FE277216
:1013200000236372082231462046FFF729FEFEF7AC
:101330001DFF2A1D04F10C0369684B606968E160B8
:101340006B602261FEF716FF2046F8BD0020F8BD55
:1013500010B5044600230372FEF708FF04F10C03E6
:10136000E268216951602269E16811602361E360EC
:10137000FEF700FF2046FFF737FF10BD90F9083059
:10138000002B01DA012070470020704700230C4A2F
:10139000138006E00B4901EBC302526041F8332091
:1013A00001331F2BF6DD1F22074B1A700023074A5B
:1013B0001360074A1360074B5B601B60704700BFF8
:1013C0000C04002014040020180500201004002044
:1013D000140500201C05002008B5084B1868FFF70D
:1013E000E7FD0138064B53F83000A0F11402054B1D
:1013F0001A600830FEF7EFFE08BD00BF140500209C
:10140000140400201004002038B5FEF7AFFE044697
:10141000164BB3F9003023BB154B1868FFF7C8FD16
:101420000138144B53F83010A1F11403124A12681A
:10143000934216D0114D28700F480360104B1B7853
:1014400013F0FF0F08D1083102F11C00FEF795FEE2
:101450002046FEF78FFE38BD083102F11C00FEF772
:101460008CFE2046FEF786FE38BD00BF0C0400202F
:10147000140500201404002010040020180500208A
:10148000D003002010B50446FEF770FE94F8343007
:1014900023F00F0343F0010384F8343094F835202F
:1014A000094B03EBC20304F1140259680A6059683E
:1014B000A1615A606361A36B044A11680B43136016
:1014C000FEF758FE10BD00BF1404002014050020D4
:1014D00010B50446FEF74AFE04F114036269A169DF
:1014E0005160A26961691160A361636194F835205C
:1014F000074B03EBC20153F83230994205D1A16B7F
:10150000044A136823EA01031360FEF733FE10BD9B
:10151000140400201405002008B5FEF727FE034A36
:10152000138801331380FEF725FE08BD0C0400204C
:1015300008B5FEF71BFE0A4A1388013B1BB2138055
:10154000002B0ADC0022064B1A80FEF713FE054B27
:101550001B6823B1FFF758FF08BDFEF70BFE08BD5F
:101560000C0400201004002038B50446FEF7FEFDF0
:101570000546236F0BB1204698472846FEF7FAFD33
:1015800038BD00BF38B5144B1C68FEF7EFFD0546AB
:101590002046FFF7E9FF2046FFF79AFF042384F86F
:1015A000343004F1440000F099F92046FFF7E6FEDC
:1015B000012803D12046FFF78FFE07E004F1140253
:1015C000064B19684A6061611A60A361FFF71CFF4E
:1015D0002846FEF7CFFD38BD100400201C05002072
:1015E000F0B583B00446089809999DF828500B9EE1
:1015F00004F11407A761676122626362A062E1627D
:101600000A462321FFF794FCA16AE36A1A1F104BD4
:101610000A44616A206AFFF7E5FAE06184F836500F
:1016200084F835500025A563E6632664256384F8B5
:10163000345025676567019500952346054A214684
:1016400004F1440000F036F9284603B0F0BD00BFB5
:10165000851500085916000810B56FF001020263E5
:1016600000F11402416984694C60816944690C602D
:1016700082614261FFF706FFFFF7C6FE10BD00BFA3
:10168000F0B585B005460C4616461F460A460121B0
:10169000FFF7F8FD0D9B03939DF8303002930B9BF1
:1016A00001930A9B00933B46324621462846FFF7AA
:1016B00097FF05B0F0BD00BF014B1868704700BF31
:1016C000100400202DE9F04184B005460F469046F5
:1016D0001E4601460120FFF713FEC0B10446304606
:1016E000FFF7F4FC20B92046FFF732FE00200FE0A0
:1016F0000B9A03929DF8282002920196009043468F
:101700003A4629462046FFF76BFF204600E00020BE
:1017100004B0BDE8F08100BF10B5FEF727FD144B03
:101720001B6893F8342002F00F02012A1BD15A697A
:101730009C69A24217D003F1140154609A695C6954
:1017400014609961596193F835400A4A02EBC4026A
:101750005468216054689C6151605A61FEF70AFD2B
:10176000FFF752FE01E0FEF705FD002010BD00BFAF
:10177000100400201404002038B590F8343003F031
:101780000F03012B17D10446FEF7F0FC0546204657
:10179000FFF79EFE94F8343023F00F0343F002036A
:1017A00084F8343004F1440000F01EF92846FEF7B6
:1017B000E1FC002038BD4FF0FF3038BDF0B583B0FC
:1017C00002AD45F8040DFEF7D1FC07460E4B1C6830
:1017D0002046FFF7D1FF04F144062A460021304697
:1017E00000F026F9304600F099F83846FEF7C2FCC2
:1017F000FFF70AFE236B13F1020F01D100232363CD
:10180000002003B0F0BD00BF1004002008B5FFF7B2
:10181000D5FF08BD38B590F8343003F00F03022B24
:1018200019D10446FEF7A2FC054604F114036269CF
:10183000A1695160A26961691160A361636104F1EA
:10184000440000F0D1F82846FEF794FC2046FFF74C
:1018500019FE002038BD4FF0FF3038BD08B590F8B4
:10186000361080F8351001228A408263022280F807
:101870003420FFF7CFFFFFF71FFF08B1FFF7C4FDCC
:10188000002008BD10B49DF8044024F00104447207
:10189000C1610262002282624362134606E09A1C22
:1018A00000EBC202111D916051600133002BF6DD87
:1018B00010BC704770B582B0044615461E460A46F5
:1018C0000A21FFF7DFFC9DF81C300093069B32468F
:1018D00029462046FFF7D6FF02B070BD70B504461A
:1018E000FEF744FC00220CE0931C04EBC303191D1B
:1018F0005D689E686E609D685E682E609960596044
:101900000132002AF0DD637A23F001036372FEF7EF
:1019100031FC2046FFF7E0FC002070BDF0B583B03D
:101920000446FEF723FC054600220CE0931C04EB62
:10193000C303191D58689E68466098685E68066013
:10194000996059600132002AF0DD637A23F00103C7
:101950006372FFF777F9636A1844A0621F4B019323
:10196000002122E032681433D31A9B6A984203D0D4
:101970001B1A1B4FBB420FD902AB03EB810343F889
:10198000042C02AB03EB810353F8046CCB00134A25
:101990001A4452689642E5D131B14B1C083602AA6E
:1019A00002EB830343F8046C01310029E9D00D4AAE
:1019B000136801331360019B04F1140219684A6033
:1019C000196861611A60A361637A43F0010363726D
:1019D0002846FEF7CFFB002003B0F0BD2405002011
:1019E000FEFFFF7F2C050020437A13F0010F1CD06F
:1019F00070B50446FEF7BAFB00220CE0931C04EB22
:101A0000C303191D5D689E686E609D685E682E60E8
:101A1000996059600132002AF0DD637A23F00103F6
:101A20006372FEF7A7FB002070BD4FF0FF307047D8
:101A300070B505460C461646FEF798FB042C1DD8DB
:101A4000DFE804F00603090E13006B6A336015E04B
:101A500033686B6212E06B7A23F002036B720DE065
:101A60006B7A43F002036B7208E06B7A13F0010F9C
:101A700002D00123336001E000233360FEF77AFBDC
:101A8000002070BD2DE9F04182B0CDF804D0CDF832
:101A900000D0FFF7D7F88046FEF768FB064650E017
:101AA000A4F114056069C0EB08002B4B984217D9CC
:101AB0004BE0A4F114028B1CDB001A4404322344D3
:101AC00053F8100C53F80C7C476053F80C0C53F887
:101AD000107C076043F80C2C43F8102C013100E017
:101AE00000210029E5DD14F80B3C13F0020F03D1AF
:101AF00023F0010304F80B3C009B5C60236002AF01
:101B000047F8084D6760A368E0689847FFF79AF8C0
:101B10008046009BBB4214D0236862685A606368A9
:101B200022681A606460246014F80B3C03F003021E
:101B3000032A06D123F0010304F80B3C2846FFF7E3
:101B4000EDFE064B1C689C42AAD13046FEF712FB04
:101B500002B0BDE8F08100BFFEFFFF7F240500203A
:101B6000002306E0044901EBC302526041F8332030
:101B70000133002BF6D0704724050020704700BFCA
:101B8000C378FBB1154BDB68DB43C3F30223C3F11E
:101B900004010F22DA40437803FA01F183781340FD
:101BA0000B431B010278DBB20D490A4482F8003373
:101BB0000378580903F01F03012202FA03F341F8E6
:101BC0002030704703785A0903F01F03012101FAFE
:101BD00003F32032024941F82230704700ED00E063
:101BE00000E100E0F0B4CB7803F00F02154613F0EB
:101BF000100F01D08D7815430B78E3B106680023F0
:101C000016E001229A400C8832EA04040FD19C00AD
:101C10000F27A74026EA070605FA04F42643CC78E6
:101C2000282C01D1426102E0482C00D1026101332D
:101C3000072BE6D906600B88FF2B1ED946680023C8
:101C400018E003F108040122A2400C8832EA0404DF
:101C50000FD19C000F27A74026EA070605FA04F4D7
:101C60002643CC78282C00D14261CC78482C00D176
:101C700002610133072BE4D94660F0BC704700BF16
:101C800010B4294B5B6803F00C03042B05D0082B20
:101C900006D013BB254B036021E0244B03601EE0FC
:101CA000214A53685268C3F38343023312F4803FDE
:101CB00004D11F4A02FB03F3036010E01A4A526882
:101CC00012F4003F04D01A4A02FB03F3036006E05B
:101CD000164A02FB03F3036001E0144B0360124950
:101CE0004B68C3F30313134CE35CDAB20368D340CD
:101CF00043604A68C2F30222A25CD2B223FA02F223
:101D000082604A68C2F3C222A25CD2B2D340C360EE
:101D10004A68C2F3813208498A5CD2B2B3FBF2F35B
:101D2000036110BC704700BF0010024000127A002F
:101D300000093D00440000204000002021B1054B77
:101D40009A69104398617047024A936923EA000038
:101D5000906170470010024030B587B004460D46D0
:101D6000038A9BB2CA8823F44053134303828389B6
:101D70009BB28A88098968890A43024323F4B053D5
:101D800023F00C031343A381A38A9BB2AA8923F4F3
:101D900040731343A38201A8FFF772FF1E4B9C42BE
:101DA00001D1049A00E0039AA38913F4004F08D0EC
:101DB00002EB820202EB820229684900B2FBF1F1D8
:101DC00007E002EB820202EB820229688900B2FB83
:101DD000F1F1124BA3FB01235B091B011A096420DB
:101DE00000FB1212A18911F4004F08D0D200323248
:101DF0000A49A1FB0212C2F342121A4307E0120180
:101E000032320649A1FB0212C2F343121A4392B2C4
:101E1000228107B030BD00BF003801401F85EB5163
:101E200029B183899BB243F400538381704783892E
:101E30009BB223F400539BB28381704710B4C1F36B
:101E4000421401F01F01012303FA01F19C4201D168
:101E50000C3004E0022C01D1103000E014301AB133
:101E600003681943016003E0036823EA010101608C
:101E700010BC7047C1F30801818070478088C0F3AF
:101E8000080070470388194201D0012070470020E4
:101E9000704700BF10B4C1F3421201F01F040123C8
:101EA000A340012A03D1828992B2134008E0022A9A
:101EB00003D1028A92B2134002E0828A92B21340A6
:101EC000090A012202FA01F1028892B2114013B10B
:101ED00019B9002002E0002000E0012010BC70478A
:101EE00008B5054B1860054B1868002302221946F7
:101EF000806800F0FDFE08BDFC050020B800002051
:101F000070B586B00646012144F20400FFF716FFC3
:101F10004FF40073ADF8143003248DF816401823E5
:101F20008DF817301D4D05A92846FFF75BFE4FF4CD
:101F30008063ADF8143004238DF8173005A92846C6
:101F4000FFF750FE25238DF800308DF801408DF805
:101F5000024001258DF803506846FFF711FE0196F7
:101F60000023ADF80830ADF80A30ADF80C30ADF80C
:101F700010300C23ADF80E30094C01A92046FFF7B4
:101F8000EBFE2A4640F225512046FFF757FF29462F
:101F90002046FFF745FF06B070BD00BF00080140B6
:101FA0000038014008B540F225511A48FFF772FF8A
:101FB00000282DD01748FFF761FFC0B2164B1B88D1
:101FC00013F4004F24D103F4804292B262B10A2884
:101FD00003D00022104B1A8008BD6FEA43436FEA1A
:101FE00053430D4A138008BD0D2804D143F48043A8
:101FF000094A138008BDC3F30D0208498854013310
:102000009BB2054A1380C72B02D90022024B1A80CB
:1020100008BD00BF00380140F80500203005002051
:10202000022801D80120704700207047013801289C
:1020300010D94FF0FF307047315D0E4B1868FFF735
:1020400019FF80210B4B1868FFF71CFF0028F8D000
:10205000013403E070B515460E460024AC42EBD3C4
:102060004021044B1868FFF70DFF0028F8D02846E0
:1020700070BD00BFFC050020022801D80020704779
:102080004FF0FF30704700BF4FF0FF30704700BF88
:1020900010B50C4658B920210648FFF7F3FE00287A
:1020A000F9D00448FFF7EAFE2070012010BD4FF080
:1020B000FF3010BD0044004000F03AF90B480C49D5
:1020C0000C4A002302E0D458C4500433C4188C4294
:1020D000F9D3094A094C002301E013600432A242FB
:1020E000FBD300F04DF9FEF71BFE70470000002007
:1020F00028020020CC4F00082802002018260020CB
:10210000FEE70000004870470006002000487047C6
:102110000026002010B50E4B1B680E4AA2FB0323BD
:102120009B09013B0C4A5360F0210C4B83F82310B0
:102130000023936007231360FEF7A4FDFFF7E2FF7F
:102140000446FFF7E3FF01462046FEF787FF10BD78
:1021500054000020D34D621010E000E000ED00E0DC
:1021600008B5FEF7C9FEFEF773FDFEF7D3FE08BD06
:1021700008B5074C002323604FF47A70FFF746FB45
:10218000012323604FF47A70FFF740FBF1E700BFB3
:102190008401224208B5074C002323604FF4FA70F3
:1021A000FFF734FB012323604FF4FA70FFF72EFB97
:1021B000F1E700BF8001224270B582B0FEF7EEFC6D
:1021C0004FF4E130FFF79CFE1848FFF789FE1848EE
:1021D00000F076FD14260196032500954FF4007358
:1021E000002214491448FFF76DFA144C2060019640
:1021F00000954FF40073002211491248FFF762FA6C
:10220000114B186023684BB158B11846FFF726FBF5
:102210000D4B1868FFF722FB002004E04FF0FF3061
:1022200001E04FF0FF3002B070BD00BF0038014048
:10223000E04C000895210008E84C00080426002026
:1022400071210008F04C000800260020704700BFF4
:10225000FEE700BFFEE700BFFEE700BF704700BF1C
:10226000704700BF82B00023019300932C4A13688B
:1022700043F4803313602A4B1B6803F4003300934C
:10228000019B01330193009B1BB9019BB3F5A06F28
:10229000F1D1234B1B6813F4003F02D001230093BC
:1022A00001E000230093009B012B36D11D4B1A68DF
:1022B00042F010021A601A6822F007021A601A68C7
:1022C00042F002021A60A3F580535A685A605A68B5
:1022D0005A605A6842F480625A605A6822F47C124A
:1022E0005A605A6842F4E8125A601A6842F08072E2
:1022F0001A600B4B1B6813F0007FFAD0084B5A682A
:1023000022F003025A605A6842F002025A60044BFB
:102310005B6803F00C03082BF9D102B0704700BFD3
:10232000001002400020024008B5FFF79BFF08BDE7
:1023300008B5104B1A6842F001021A6059680E4A3B
:102340000A405A601A6822F0847222F480321A60BD
:102350001A6822F480221A605A6822F4FE025A6037
:102360004FF41F029A60FFF7DFFF4FF00062034B4C
:102370009A6008BD001002400000FFF800ED00E088
:102380000E4B70B51E460E4C0025E41AA410A54253
:1023900004D056F8253098470135F8E702F008FCDC
:1023A000084B094C1E46E41AA4100025A54204D08F
:1023B00056F8253098470135F8E770BDC44F00083E
:1023C000C44F0008C44F0008C84F00080346024429
:1023D000934202D003F8011BFAE770472DE9F0475A
:1023E00088B0149F002B1E461299B8BF03F100431A
:1023F00027F02007B6BF1E4600232D23462F144684
:10240000109DDDF84CA00B7003D0452F03D1013592
:1024100001E0032300E0022307AA049206AA039224
:102420008DE828042246334600F09AFD472F804667
:1024300002D1119BDB0728D5462F08EB050911D1E6
:1024400098F80030302B0AD1002200232046314674
:10245000FEF734FB18B9C5F10105CAF80050DAF8E7
:10246000003099440022002320463146FEF726FB27
:1024700008B9302202E0CDF81C9006E0079B994590
:1024800003D9591C07911A70F8E74046079B159A23
:10249000C8EB0303136008B0BDE8F087034673B5CB
:1024A0000029B8BF494203F8022BB4BF2D222B22CA
:1024B000092942701ADD0DF1070216460A2591FB23
:1024C000F5F405FB1411092C01F1300102F8011D8E
:1024D0002146F4DC3031541E02F8011CB4421A4685
:1024E0000AD214F8012B03F8012BF7E71A4630241F
:1024F000214402F8024B5970101A02B070BD00005E
:102500002DE9F04F91B00C46DDF8688016461F4665
:10251000054601F037FC036818460993FDF7A6FE4F
:1025200000230E93D8F800300A90073323F00703F6
:1025300003F1080294F81890D4F800B0C8F800200D
:10254000D3E90023C4E91223D4F84CA0D4F848807E
:102550002AF000430B934FF0FF32A74B40460B99F4
:10256000FEF7DEFAA0B94FF0FF32A34B40460B99BD
:10257000FEF7B8FA60B90022002340465146FEF744
:10258000A7FA10B12D2384F843309C4B9C4A0AE0F3
:102590004246534640465146FEF7C2FA002800F034
:1025A0009281984B984AB9F1470F8CBF9046984654
:1025B000032323612BF0040323604FF0000A3DE066
:1025C000B9F1670F00F08A81B9F1470F00F08681F9
:1025D00023600193636800210DF13302059002929C
:1025E0000093424653460691CDF81090CDF80CE08A
:1025F0002846FFF7F3FE09F0DF03472B804600F083
:102600008481B9F1650F0D9900F28D8101394A4637
:1026100004F150000D91FFF741FF0E9A8246831896
:10262000012A236100F37C812268D10700F17881BF
:102630009DF8333013B12D2384F84330009733468F
:102640000FAA2146284600F09FF9013002D14FF031
:10265000FF3096E123685A0501D4236965E0B9F19A
:10266000650F40F2D580D4E9120100220023FEF765
:1026700025FA78B30123654A31462846B847013028
:10268000E5D00E9B0D9A9A420BDB2368D80708D43D
:1026900023689B0740F111814FF0000804F11909EC
:1026A00006E10A9B099A31462846B8470130CED048
:1026B0004FF0000804F11A090E9B013B9845E7DA38
:1026C00001234A4631462846B8470130BFD008F1B9
:1026D0000108F1E70D9B002B29DC01234B4A314611
:1026E0002846B8470130B2D00D9B23B90E9B13B9D1
:1026F0002368D907CCD50A9B099A31462846B847A2
:102700000130A4D04FF0000904F11A0A0D9B5B427E
:10271000994509DA0123524631462846B847013027
:1027200095D009F10109F1E70E9B4246A7E00E9A08
:10273000A36D9A42A8BF1A46002A914606DC4FF0C4
:10274000000A29EAE97904F11A0B11E0134631462F
:1027500042462846B8470130F1D178E701235A466E
:1027600031462846B84701303FF471AF0AF1010AFB
:10277000A36DC9EB03029245F0DB08EB03090D9A48
:102780000E9B9A420FDB2368DA070CD40E9B0D9A3E
:102790009844C9EB08089B1A9845A8BF9846B8F119
:1027A000000F08DC0FE00A9B099A31462846B8471B
:1027B0000130EBD14BE743464A4631462846B847FD
:1027C00001303FF444AF4FF0000928EAE87804F103
:1027D0001A0A09E00123524631462846B84701301B
:1027E0003FF435AF09F101090D9A0E9B9B1AC8EB16
:1027F00003039945EEDB4BE7FFFFEF7FFC4C00083E
:10280000004D0008044D0008084D00080C4D00085C
:102810000E9A012A01DCDB0738D5012342463146F6
:102820002846B84701303FF412AF0A9B099A314657
:102830002846B84701303FF40AAFD4E9120100221C
:102840000023FEF73BF920B14FF0000804F11A090C
:102850000EE00E9B08F10102013B19E001234A46FC
:1028600031462846B84701303FF4F1AE08F101087F
:102870000E9B013B9845F1DB534604F15002314673
:102880002846B84701307FF403AFE0E64246012313
:1028900031462846B8470130EED1D8E601234A46F2
:1028A00031462846B84701303FF4D1AE08F101085F
:1028B000E3680F9A9B1A9845F0DBE0680F9B9842FB
:1028C000B8BF18465DE062680EA8531C0DF1340EC7
:1028D0004BF480637FF474AE062201E012B901224A
:1028E000626075E6002106910DF133018DE80C0060
:1028F000236005904246CDF81090CDF80CE002918F
:1029000053462846FFF76AFD80460D9BD81C02DB24
:10291000626893421DDDA9F102095FFA89F970E648
:102920000133236184E6B9F1660F14D1002963688D
:1029300007DD216113B92268D2071DD501330B448D
:1029400019E013B92268D00701D5023313E001233F
:1029500011E04FF067090D9B0E9A934205DB226848
:102960002361D10708D5013305E0002BD4BFC3F1A3
:1029700002030123134423610D9B4FF0000AA3655A
:1029800056E611B0BDE8F08F2DE9F04791461F469D
:102990000A698B6806469342B8BF1346C9F80030EF
:1029A00091F843200C46DDF8208012B10133C9F8BC
:1029B00000302368990642BFD9F800300233C9F8C5
:1029C0000030256815F0060510D104F1190A07E05A
:1029D0000123524639463046C04701301AD00135EE
:1029E000E368D9F800209B1A9D42F1DB94F843304C
:1029F0002268003318BF012392060FD5E11830205A
:102A000081F843005A1C94F845102244023382F89E
:102A1000431003E04FF0FF30BDE8F08704F14302BC
:102A200039463046C0470130F4D02268D9F800500A
:102A3000E36802F00602042A08BF5D1B2269A3684E
:102A40000CBF25EAE57500259342C4BF9B1AED181B
:102A50004FF000091A344D4509D00123224639466A
:102A60003046C0470130D5D009F10109F3E7002015
:102A7000BDE8F0872DE9F04317460A7E85B06E2A3F
:102A8000984606460C460C9B01F1430E00F0AE80C2
:102A900011D8632A22D009D8002A00F0BB80582A16
:102AA00040F0CA8081F84520834955E0642A1ED051
:102AB000692A1CD0C0E0732A00F0B08009D86F2AC0
:102AC0002ED0702A40F0B8800A6842F020020A60D6
:102AD0003EE0752A24D0782A3AD0ADE01A6801F198
:102AE0004205111D1960136884F84230A8E021687E
:102AF0001A6811F0800F02D0111D196008E011F062
:102B0000400F02F10401196002D0B2F9003000E078
:102B10001368002B3CDA2D225B4284F8432037E017
:102B200021681A6811F0800F02D0111D196007E0AA
:102B300011F0400F02F10401196001D0138800E088
:102B40001368227E5C496F2A14BF0A2208221BE008
:102B500078225A4984F845202268186812F0800FBC
:102B600000F104051D6003D1550601D5038800E07E
:102B70000368D00744BF42F0200222601BB92268DC
:102B800022F0200222601022002084F8430001E09D
:102B900049490A226568002DA56008DB206820F0FD
:102BA000040020602BB9002D7DD175460CE0002B70
:102BB00079D07546B3FBF2F002FB1033CB5C05F81D
:102BC000013D03460028F5D1082A0BD12368DA0716
:102BD00008D5236962689A42DEBF302305F8013CBC
:102BE00005F1FF35C5EB0E0323612EE008681A6876
:102BF00010F0800F496903D0101D1860136808E0B9
:102C000010F0400F02F104001860136801D0198021
:102C100000E0196000232361754616E01A68111D53
:102C20001960156800216268284601F021F908B191
:102C3000401B6060636804E004F1420584F84220B0
:102C400001232361002384F84330CDF800803B4604
:102C500003AA21463046FFF797FE013002D14FF01C
:102C6000FF3026E023692A4639463046C047013006
:102C7000F5D023689B0710D5002504F1190907E05A
:102C800001234A4639463046C0470130E7D0013576
:102C9000E368039A9B1A9D42F2DBE068039B98422B
:102CA000B8BF184605E00B7804F1420584F84230BD
:102CB0008AE705B0BDE8F0830E4D00081F4D0008FF
:102CC0000FB40A4B13B51C6824B1A36913B920468D
:102CD00000F0CEFF05AB049AA1682046019301F0F5
:102CE00095FC02B0BDE8104004B07047B800002069
:102CF0002DE9F7431D464F4B04461E680F4690468C
:102D000026B1B36913B9304600F0B2FF4A4B9C427A
:102D100001D1746808E0494B9C4201D1B46803E0DA
:102D2000474B9C4208BFF468B8F1020F04D0B8F1D9
:102D3000010F79D8002D77DB2146304600F02EFFB9
:102D4000616B41B104F14403994202D0304601F075
:102D50008BFB002363630023A3616360A3891B06CD
:102D600003D52169304601F07FFBA389B8F1020F3A
:102D700023F44A6323F00303A3811ED001AB6A4608
:102D80002146304601F00CF8A3891843A0810DB903
:102D9000009D00E02FBB284601F062F80746D0B93D
:102DA000DDF80090A94502D14FF0FF3006E048461B
:102DB00001F056F8074678B9F6E70020A38943F0FA
:102DC0000203A3810023A36004F14703236023616E
:102DD000012363612AE0A9464D46A38943F080039D
:102DE000A381B36913B9304600F042FFB8F1010F77
:102DF00008BFA389276004BF43F00103A381A3890F
:102E0000276103F0080080B2656158B113F0010337
:102E10004FF000001DBF6D42A060A561A56008BF16
:102E2000184603E0A06001E04FF0FF3003B0BDE8BA
:102E3000F08300BFB8000020404D0008604D00083E
:102E4000804D00082DE9F74F03690C6980469C42CC
:102E50007FDC013C01F114074FEA840E00F11406F7
:102E600006EB0E0357F82450019356F82430013531
:102E7000B3FBF5F507EB0E09C5B34FF0000A384672
:102E8000B446D34650F8043B9AB205FB02A21B0C91
:102E90004FEA124A05FB03A392B2C2EB0B0BBCF83C
:102EA00000204FEA134A5A441FFA83FBDCF8003033
:102EB0008145CBEB134303EB224392B242EA034238
:102EC0004FEA234B4CF8042BDCD256F80E306BB98A
:102ED000019B043B9E421A4602D3C8F8104005E00D
:102EE0001268043B002AF8D1013CF3E7404601F0A8
:102EF000E4F900282BDB304601354FF0000E57F87F
:102F0000042B036891B2C1EB0E0E120C99B27144FE
:102F1000C2EB134303EB214389B24FEA234EB94579
:102F200041EA034340F8043BE9D256F8242006EB7B
:102F3000840362B9043B9E421A4602D3C8F810408B
:102F400005E01268043B002AF8D1013CF3E728466B
:102F500000E0002003B0BDE8F08F0000000000009A
:102F60002DE9F04F456A95B08246219CCDE90223B8
:102F700045B9102000F074FFCAF824004560856050
:102F80000560C560DAF82430196859B15A68012320
:102F900093404A608B60504600F0B8FFDAF8243066
:102FA00000221A60039BA04A002BBDBF01232360AF
:102FB000039B0023BCBF23F000430393DDF80C8088
:102FC000A8BF236028F000431B0D1B0593421DD1B1
:102FD00042F20F73209A1360029B43B9934A944BB9
:102FE000C8F31300002814BF1846104600E09048AC
:102FF000229B002B00F04685C37813B100F1080333
:1030000000E0C31C229A136000F03CBDDDE90245DC
:103010000022002320462946FDF750FD074658B1FF
:10302000209A01231360229B002B00F01E8581480B
:103030001860013800F026BD12AB019313AB00936A
:1030400022462B46504601F0B3F9C8F30A560490C5
:1030500056B1C5F3130343F07F51204641F44011AC
:10306000A6F2FF3611971DE0139B129E1E4406F236
:103070003243202B0ADD029A06F21240C3F14003CC
:1030800022FA00F008FA03F3184304E0C3F1200029
:10309000029B03FA00F0FDF733FA0123A1F1F87166
:1030A000013E11930022644BFDF7ECF858A3D3E9DD
:1030B0000023FDF79BFA58A3D3E90023FDF7E4F8BA
:1030C000044630460D46FDF72BFA55A3D3E90023FD
:1030D000FDF78CFA02460B4620462946FDF7D4F848
:1030E00004460D46FDF732FD0022834600232046AC
:1030F0002946FDF7EDFC58B15846FDF711FA024696
:103100000B4620462946FDF7D9FC08B90BF1FF3BD9
:10311000BBF1160F0DD8DDE90223484901EBCB01C5
:10312000D1E90001FDF7F2FC30B10BF1FF3B0023C8
:1031300000E00123109300E01090129B9E1B731E71
:10314000079343BFC3F10008002307934FF0000823
:10315000BBF1000F06DB079BCDF82CB05B44079357
:10316000002705E00023CBEB0808CBF100070B9309
:103170001E9B092B28D8052BC4BF043B1E931E9B06
:10318000C8BF0025A3F10203D8BF0125032B20D817
:10319000DFE803F0060E0204012302E0012308E049
:1031A00000230A931F9B002B1DDD9946059321E008
:1031B00000230A931F9B0BEB030909F10103012B69
:1031C0000593B8BF012315E0012500231E930A953E
:1031D00001E001230A934FF0FF390022CDF814904B
:1031E00012231F9206E04FF001094B46CDF81490D0
:1031F000CDF87C90DAF8244000226260042101F1CD
:1032000014029A421CD86268490001326260F6E7F3
:1032100061436F63A787D23FB3C8608B288AC63FDC
:10322000FB799F501344D33F0000F07F304D0008DE
:10323000394D00080D4D00080000F83FA04D000872
:103240006168504600F02DFEDAF8243020601B68DB
:103250000693059B0E2B00F25B81002D00F0588138
:10326000DDE90234BBF1000FCDE90E3430DD9F4AB9
:103270000BF00F034FEA2B1502EBC303E80618CB44
:10328000CDE908340CD5DDE90E01994B05F00F05A9
:10329000D3E90823FDF7D4FA0324CDE9020100E0C5
:1032A0000224934E6DB1E90708D5DDE90801D6E99E
:1032B0000023FDF79BF9CDE9080101346D100836B4
:1032C000F0E7DDE90823DDE90201FDF7B9FA20E0C6
:1032D000CBF1000505B3DDE90E01844B05F00F02CB
:1032E00003EBC203D3E90023FDF780F9CDE9020126
:1032F0007F4E2D110023022455B1EA0705D5D6E9EA
:103300000023FDF773F9013401236D100836F3E74C
:103310001BB1CDE9020100E00224109BE3B1DDE91D
:1033200002560022734B28463146FDF7D1FB98B177
:10333000059B8BB1B9F1000F40F3E6800BF1FF3331
:103340000893314600226C4B2846FDF74FF90134B3
:10335000CDE902014E4602E0059ECDF820B02046A0
:10336000FDF7DEF8DDE90223FDF740F9634B0022AB
:10337000FCF78AFFA1F1507304460C931D46D6B9A1
:10338000DDE9020100225E4BFCF77CFF22460C9B2C
:10339000CDE90201FDF7BAFB002840F03F820C990D
:1033A000224601F10043DDE90201FDF791FB00280F
:1033B00040F02B82A8E00A9A4C4B711E002A49D09B
:1033C00003EBC103D3E9002300204E49FDF738FA8F
:1033D00022462B46FCF756FFCDE90C01069CDDE9A1
:1033E0000201FDF7B3FB0546FDF79AF802460B46CE
:1033F000DDE90201FCF746FFDDE90C23303504F876
:10340000015BCDE90201FDF763FB002840F01D835D
:10341000DDE9022300203749FCF734FFDDE90C2306
:10342000FDF756FB002840F0D180069BE31AB3421B
:103430006ADADDE90C0100222F4BFDF7D7F80022F4
:10344000CDE90C01DDE902012B4BFDF7CFF8CDE909
:103450000201C4E703EBC1012246D1E900012B467A
:10346000FDF7C4F8069BCDE90C011D469C19DDE96A
:103470000201FDF76BFB0646FDF752F802460B46CC
:10348000DDE90201FCF7FEFE303605F8016BAC42C7
:10349000CDE902014FF0000222D11A4BDDE90C0107
:1034A000FCF7F2FE02460B46DDE90201FDF72EFBBA
:1034B000002840F08B80DDE90C2300201149FCF747
:1034C000E1FE02460B46DDE90201FDF701FBD8B142
:1034D00014F8013C621E302B40F0B7821446F7E727
:1034E000054BFDF783F8CDE90201C0E7A04D0008C8
:1034F000684E00080000F03F0000244000001C401F
:10350000000014400000E03FDDE90E34CDE9023454
:10351000139B002B7CDBBBF10E0F79DCAB4B03EB79
:10352000CB03D3E900671F9B002B14DA059B002B0C
:1035300011DC40F06C810022A54B30463946FDF786
:1035400055F8DDE90223FDF7D7FA059D2E46002840
:1035500040F05F8165E1069CDDE9028932463B4629
:1035600040464946FDF76CF9FDF7F0FA0546FCF7D1
:10357000D7FF32463B46FDF739F80B46024649462F
:103580004046FCF77FFE05F1300E069B04F801EB88
:10359000C3EB040E059B73452DD102460B46FCF789
:1035A00073FE8046894602460B4630463946FDF793
:1035B0008FFA78B942464B4630463946FDF77EFAD7
:1035C000002800F04482EB0704D440E2DDF820B08C
:1035D00000E01C4614F8012C631E392A07D1069A14
:1035E0009A42F6D1069930220BF1010B0A701A7833
:1035F00001321A702BE20022764BFCF7F7FF002213
:10360000002380468946FDF759FA0028A6D01EE21D
:103610000A9A002A2BD01E9A012A0ADC119A12B1AA
:1036200003F2334302E0129BC3F136033D464446A6
:1036300013E0059B5D1EAF42BFBF0B9BEA1B9B18AF
:103640000B93059BB6BF2F467D1B0025002BA7BF04
:103650004446059BC3EB08040023079A01211A4442
:1036600050469844079200F0F0FC064602E03D46C2
:1036700044460A9E5CB1079B002B08DDA342A8BF0D
:103680002346079AC3EB0808E41AD31A0793002FBE
:103690001DDD0A9BABB18DB131462A46504600F084
:1036A0006DFD049A01460646504600F0D7FC049989
:1036B0000890504600F02AFC089B04937A1B06D021
:1036C00000E03A460499504600F058FD049001216C
:1036D000504600F0BAFC0B9B05465BB31A46014608
:1036E000504600F04BFD1E9B0546012B18DC029B4B
:1036F00083B9039BC3F3130373B9039B23F0004700
:103700003F0D3F054FB1079B08F1010801330793B7
:10371000012702E0002700E0029F0B9B73B100E04D
:1037200000272B6905EB8303186900F041FCC0F109
:10373000200004E01E9B012BD9DD0B9F0120079B7D
:10374000184410F01F0008D0C0F12003042B02DD44
:10375000C0F11C0002E006D018461C30079B8044D4
:10376000034404440793B8F1000F05DD4246049971
:10377000504600F051FD0490079B002B05DD2946C3
:103780001A46504600F048FD0546109B23B32946D3
:10379000049800F092FD00281EDA00230A22049902
:1037A000504600F0CAFB0A9B0BF1FF3B0490002B34
:1037B00000F05F81314600230A22504600F0BDFB35
:1037C000B9F1000F06463FDC3BE000BFA04D00080A
:1037D0000000144000002440059B002B2BDC1E9BA6
:1037E000022B28DDDDF81490B9F1000F11D1294624
:1037F0004B460522504600F0A0FB014605460498C2
:1038000000F05BFD00280CDC03E0354600E00025FD
:103810002E461F9B069C6FEA030B09E03546DDF838
:1038200020B0069B069A5C1C312313700BF1010B30
:1038300005960026F7E00A9BDDF8149023B9069C54
:10384000B2E01E9B022BCFDC002C05DD3146224668
:10385000504600F0E1FC06469FB17168504600F00A
:1038600020FB0446326906F10C01023292000C3052
:1038700000F00CFB01222146504600F0CDFC0590E3
:1038800000E00596029B069F03F00103079329467B
:103890000498FFF7D7FA3146044600F1300804983F
:1038A00000F00BFD059A02902946504600F021FDDC
:1038B000C36802463BB901460A90049800F0FDFC3B
:1038C0000A9A034600E00123114650460A9300F08D
:1038D0001DFB0A9B53B91E9A42B9079A32B9B8F137
:1038E000390F2AD0029B002B1CDC1DE0029A002A13
:1038F00004DB1BD11E9ACAB9079ABAB9002B13DD93
:1039000001220499504600F087FC2946049000F0FB
:10391000D4FC002803DC07D118F0010F04D0B8F163
:10392000390F0AD004F131087C1C0CE0002B07F1A0
:1039300001040BDDB8F1390F03D139233B70013796
:1039400056E008F1010887F800806CE0069B2746E6
:10395000E31A4B4504F8018C3BD000230A2204995A
:10396000504600F0EAFA059B04909E424FF00A028E
:103970004FF000033146504604D100F0DEFA06460F
:10398000059084E700F0D9FA002306460A2205993B
:10399000504600F0D2FA059079E700230A220499F4
:1039A000504600F0CAFA049029460498FFF74AFAF4
:1039B000069B00F1300804F8018BE31A4B45ECDB61
:1039C000069B0596B9F1010FACBF4B4401331F466E
:1039D000002601220499504600F01EFC294604905E
:1039E00000F06BFC002803DC15D118F0010F12D099
:1039F0003C4614F8013C621E392B09D1069B9342C8
:103A000004D10BF1010B3123069A02E01446F0E7D2
:103A10000133137007E03C4614F8013C621E302B62
:103A200001D11446F8E72946504600F06FFA059B8D
:103A30006BB12EB19E4203D03146504600F066FA7B
:103A40000599504600F062FA01E0DDF820B00499D3
:103A5000504600F05BFA0023209A23700BF101031B
:103A60001360229B1BB11C6001E008480AE0069825
:103A700008E0B9F1000F3FF7E2AE1E9B022B7FF783
:103A8000DEAEB1E615B0BDE8F08F00BF0C4D00080A
:103A90008A892DE9F041054610070C4659D44B6838
:103AA000002B02DC0B6C002B17DDE66AAEB102F4D2
:103AB0008052002392B22F682B600AB1606D15E02E
:103AC000216A01232846B047411C0FD12B686BB1F6
:103AD0001D2B01D0162B03D12F600020BDE8F081F3
:103AE000A38943F04003A381BDE8F081A3895A076D
:103AF00005D56368C01A636B0BB1236CC01A002331
:103B00000246E66A216A2846B047431CA38906D1CB
:103B100029681D2939D8204ACA40D60735D5002240
:103B200062602269D904226004D5421C01D12B684D
:103B300003B96065616B2F600029CED004F14403A6
:103B4000994202D0284600F08FFC00206063BDE857
:103B5000F0810F69002FC0D093070E680CBF4B692E
:103B60000023C7EB06080F608B6002E00744C0EB40
:103B70000808B8F1000FB0DD43463A46216A2846EE
:103B8000A66AB0470028F1DCA38943F04003A38173
:103B90004FF0FF30BDE8F0810100402038B50B69DF
:103BA00005460C46DBB118B183690BB900F060F82B
:103BB0000C4B9C4201D16C6808E00B4B9C4201D13C
:103BC000AC6803E0094B9C4208BFEC68B4F90C30C8
:103BD0002BB121462846BDE83840FFF759BF0020E9
:103BE00038BD00BF404D0008604D0008804D000802
:103BF000014900F0A9B800BF9D3B000810B504467C
:103C0000002303604360836081814366C281036156
:103C100043618361194608225C30FEF7D7FB054BF0
:103C200024626362044BA362044BE362044B23638C
:103C300010BD00BF6548000887480008BF4800085D
:103C4000E348000870B568234D1E5D430E4605F13C
:103C5000740100F055FC044640B1002180E84200A8
:103C60000C30A06005F16802FEF7B0FB204670BD85
:103C7000836910B5044633BB8364C3640365124B88
:103C8000124A1B688262984204BF0123836100F0DC
:103C90001FF86060204600F01BF8A060204600F08E
:103CA00017F80022E06004216068FFF7A7FF0122F7
:103CB0000921A068FFF7A2FF02221221E068FFF7A6
:103CC0009DFF0123A36110BDF84C0008F13B0008E3
:103CD000F8B51C4B07461E68B36913B93046FFF7A9
:103CE000C7FF4836B4687368013B04D4B4F90C507C
:103CF0007DB16834F8E733680BB13668F2E7042128
:103D00003846FFF79FFF30600028F6D10C233B6058
:103D1000F8BD4FF6FF73E3810123A381656625603B
:103D2000A560656025616561A5610822294604F1E9
:103D30005C00FEF74BFB6563A563A564E564204664
:103D4000F8BD00BFF84C00082DE9F84380468946CD
:103D500000F14804002694B1A5686768013F0CD4BF
:103D6000AB89012B07D9B5F90E30013303D02946B1
:103D70004046C84706436835F0E72468EBE730461D
:103D8000BDE8F883044B1B68186A044B002808BF81
:103D90001846F030704700BFB8000020BC0000207B
:103DA00070B50E46B1F90E1090B0002914461D46AC
:103DB00006DA00232B60B3891A060ED540230EE0E5
:103DC00001AA00F077FE0028F3DB029A02F47042A9
:103DD000A2F500535A425A412A604FF480630020F2
:103DE000236010B070BD00008B8973B59E07054637
:103DF0000C4610D401AB6A46FFF7D2FF0099064685
:103E0000284600F07DFB68B9B4F90C309A0522D43D
:103E100043F00203A38104F14703236023610123DC
:103E2000636118E00D4BAB62A389206043F080030F
:103E3000A381009B20616361019B4BB1B4F90E101B
:103E4000284600F049FE18B1A38943F00103A3817D
:103E5000A0893043A08102B070BD00BFF13B0008D3
:103E6000024B0146186800F04BBB00BFB8000020B1
:103E700010B5C9B202449042034605D01C78013007
:103E80008C42F8D1184610BD002010BD10B5431E5D
:103E90000A44914204D011F8014B03F8014FF8E7AE
:103EA00010BD70B5456A04460E463DB91020FFF7B7
:103EB000D7FF6062456085600560C560656AEB6834
:103EC00043B1636ADB6853F8260078B1026843F8AF
:103ED000262017E021220421204600F0B7FA636A69
:103EE000E860DB68002BECD1002070BD012101FAF5
:103EF00006F56A1D9200204600F0A8FA0028F3D0CB
:103F00004660856000230361C36070BD70B5446A7C
:103F100006460D463CB91020FFF7A2FF70624460D0
:103F200084600460C4603DB1736A6A68DB6853F8FA
:103F30002210296043F8225070BD2DE9F041064659
:103F40000C460D691F4601F1140E0023DEF8000037
:103F5000013381B202FB0171000C0F0C02FB0070F7
:103F600089B201EB00419D424FEA10474EF8041B15
:103F7000ECDCD7B1A3689D4212DB616830460131A9
:103F8000FFF78FFF8046226904F10C010232920094
:103F90000C30FFF77BFF21463046FFF7B7FF444662
:103FA00004EB850301355F6125612046BDE8F081A2
:103FB000030C1B0413B90004102300E0002310F0CD
:103FC0007F4F04BF0002083310F0704F04BF0001A0
:103FD000043310F0404F04BF80000233002803DB9D
:103FE000420003D5581C7047184670472020704780
:103FF000036813F007020BD0D90722D49A074BBFEE
:104000005B089B08036003604CBF012002207047DF
:1040100099B209B91B0C102213F0FF0F04BF1B0A41
:104020000832190704BF1B090432990704BF9B0813
:104030000232D90702D45B0805D001320360104672
:104040007047002070472020704710B50C460121B2
:10405000FFF727FF01224461026110BD2DE9F74FF0
:1040600014460A69236988469A42BEBF0B46A04699
:104070001C46D8F81070D4F81090D8F80830D8F84A
:10408000041007EB09069E42C8BF0131FFF709FF84
:1040900000F114052B4605EB860C0022634502D285
:1040A00043F8042BFAE704F1140208F1140102EBBF
:1040B000890301EB87070093009B0192934257D934
:1040C000B2F800B0BBF1000F23D08946AE464FF0E6
:1040D000000859F8044BBEF800A0A3B20BFB03A3E1
:1040E0004FEA144ADEF8004043444FEA14480BFB01
:1040F0000A84F24604EB13449BB243EA04434F455F
:104100004FEA14484AF8043B01D9D646E1E7CEF815
:104110000480019B0432B3F802A0BAF1000F21D051
:104120002C4689462B684FF00008B9F800E0B4F837
:1041300002B09BB20AFB0EBEA346F04443EA08431A
:104140004BF8043B59F8043BB4F804E01B0C0AFBA1
:1041500003E34F4503EB18434FEA134801D95C468C
:10416000E3E763600435A7E75CF8043D13B9013E5B
:10417000002EF9DC066103B0BDE8F08F2DE9F843AD
:10418000154612F0030206460F4607D0214C013AAD
:10419000002354F82220FFF7D0FE0746AD1036D09A
:1041A000746A3CB91020FFF75BFE70624460846063
:1041B0000460C460D6F82480D8F808404CB940F2B6
:1041C00071213046FFF741FF04460023C8F808007C
:1041D00003604FF00008EB070AD539462246304607
:1041E000FFF73CFF814639463046FFF78FFE4F46CA
:1041F0006D100CD0206808B10446ECE72246214639
:104200003046FFF72BFF2060C0F80080F4E7384607
:10421000BDE8F883904E00082DE9F0470C460746AC
:10422000914626694FEA621A56444968A368751C8C
:10423000AB4202DA01315B00FAE73846FFF731FEA4
:10424000002380461A4600F11401534503DA41F871
:1042500023200133F9E72AEAEA73206901EB83039B
:1042600019F01F0904F1140101EB800E14D0C9F1FB
:10427000200C002208689A4600FA09F0024343F82D
:10428000042B51F8042B8E4522FA0CF2F2D8CAF80E
:10429000042042B1B51C06E0043B51F8042B8E45C6
:1042A00043F8042FF9D8013D3846C8F8105021468C
:1042B000FFF72CFE4046BDE8F08703690A6910B598
:1042C0009B1A11D192001430143183180A4453F808
:1042D000044D52F8041D8C4202D007D3012010BDBA
:1042E0009842F4D3002010BD184610BD4FF0FF30A7
:1042F00010BD2DE9F8430C460746114620461546E9
:10430000FFF7DBFF061E08D131463846FFF7C9FD2F
:10431000012303614661BDE8F883BCBF23462C46F8
:1043200038466168BABF1D4601260026FFF7B9FD71
:104330002B69C660266905F1140904F1140101EB2B
:10434000860709EB830800F114054FF0000C51F8C3
:10435000042B59F8044B93B29C44A3B2240CC3EB36
:104360000C03C4EB124202EB23429BB24FEA224CF5
:10437000C84543EA02428E4645F8042BE7D8BE45BD
:104380000ED25EF8041B8AB26244131403EB11438D
:1043900092B242EA03424FEA234C45F8042BEEE77F
:1043A00055F8043D0BB9013EFAE70661BDE8F88314
:1043B0002DE9F3411C4601219046089E099DFFF717
:1043C00070FDC4F31302C4F30A5407460CB142F45F
:1043D00080120192B8F1000F19D002A840F8088DA0
:1043E000FFF706FE009B48B1019AC0F1200102FAD6
:1043F00001F10B43C2407B61019200E07B61019BB4
:10440000002B14BF02210121BB61396107E001A823
:10441000FFF7EEFD019B01217B613961203034B152
:10442000A4F2334404443460C0F1350009E0A0F242
:10443000324007EB810330601869FFF7B9FDC0EB2C
:1044400041102860384602B0BDE8F08138B502FB63
:1044500001F4214600F054F8054618B12246002127
:10446000FDF7B4FF284638BD38B50546002944D0CD
:1044700051F8043C0C1F002BB8BFE41800F060FB9F
:104480001E4A1368114613B96360146030E0A342FA
:104490000DD92268A018834201BF18685B68121802
:1044A000226063600C6023E0A24203D813465A687E
:1044B000002AF9D118681918A1420BD121680144CA
:1044C00058188242196013D110685268014419606B
:1044D0005A600DE002D90C232B6009E021686018B6
:1044E000824201BF106852680918216062605C60F6
:1044F0002846BDE8384000F024BB38BD0C2600201B
:1045000070B5CD1C25F0030508350C2D38BF0C25E2
:10451000002D064601DBA94202D90C23336046E098
:1045200000F00EFB234B1C681A462146A1B10B6814
:104530005B1B0ED40B2B03D90B60CC18CD501EE0A7
:104540008C420BBF63684B681360636018BF0C46F6
:1045500015E00C464968E9E7174C23681BB930465B
:1045600000F070F920602946304600F06BF9431CDA
:1045700018D0C41C24F00304A0420DD1256030469D
:1045800000F0DFFA04F10B00231D20F00700C31A2E
:104590000ED05A42E25070BD211A304600F052F956
:1045A0000130EBD10C233360304600F0CAFA002012
:1045B00070BD00BF0C26002008260020936810B4B0
:1045C000013B002B936008DA9469A34202DBCBB273
:1045D0000A2B02D110BC00F089B91368581C106076
:1045E0001970C8B210BC7047F8B506460F4614469D
:1045F000D518AC4208D03A4614F8011B3046FFF7F4
:10460000DDFF431CF5D100E00020F8BD2DE9F04F9F
:104610009DB00C4617460393064618B183690BB943
:10462000FFF726FB7F4B9C4201D1746808E07E4B6C
:104630009C4201D1B46803E07C4B9C4208BFF46803
:10464000A38918070CD5236953B1002309932023AC
:104650008DF8293030238DF82A30DFF8D4B144E0CA
:104660002146304600F0A8F90028EED04FF0FF3088
:10467000D5E0039A111D12680391002A80F28C8004
:10468000524243F002000792049098F800302E2B1B
:1046900000F08480032298F800106548FFF7E8FBDB
:1046A00048B14023CBEB000003FA00F0049B08F173
:1046B00001081843049098F8001006225D4808F19C
:1046C00001078DF82810FFF7D3FB002800F0958034
:1046D000594B002B40F08880039B073323F00703DE
:1046E00008330393099B53440993B846454615F88C
:1046F000013B1BB9B8EB07090FD003E0252BF9D01C
:10470000A846F3E74B463A4621463046FFF76CFF92
:1047100001307FD0099B4B44099398F80030002B5F
:1047200078D000234FF0FF3204930793059206934D
:104730008DF853301A930127052229783F48FFF757
:1047400097FB05F10108049B38B13C4A4546801AA5
:1047500007FA00F018430490EEE7D90644BF202280
:104760008DF853201A0744BF2B228DF853202A7846
:104770002A2A3FF47EAF079A00210A20A84698F81B
:1047800000300135303B092B03D800FB02320121F8
:10479000F4E700293FF479AF079276E798F8013003
:1047A0002A2B0BD1039B08F102081A1D1B680392E8
:1047B000002BB8BF4FF0FF3305936BE7002319467A
:1047C000059308F101000A25804698F80020013081
:1047D000303A092A03D805FB01210123F4E7002B15
:1047E0003FF458AF059155E703AB00932246144BB5
:1047F00004A93046FDF784FE07E003AB0093224690
:104800000F4B04A93046FEF735F9B0F1FF3F824661
:104810007FF468AFA3895B063FF528AF09981DB008
:10482000BDE8F08F404D0008604D0008804D000845
:10483000A24E0008A64E0008012500089C4E000864
:10484000E945000838B5064C0023054608462360B4
:1048500000F0A0F9431C02D1236803B12B6038BDDE
:104860001426002010B50C46B1F90E1000F06AF9BC
:104870000028ABBF636DA3891B1823F48053ACBF22
:104880006365A38110BD2DE9F0411F468B89054664
:10489000DB050C46164605D502230022B1F90E10A1
:1048A00000F02AF9A389324623F48053A381B4F996
:1048B0000E103B462846BDE8F04100F06BB810B53D
:1048C0000C46B1F90E1000F017F9431CA38915BF6F
:1048D000606523F4805343F48053A38118BFA38100
:1048E00010BDB1F90E1000F0D5B80000F8B50F46B4
:1048F0001446054618B183690BB9FFF7B9F9224B85
:104900009C4201D16C6808E0204B9C4201D1AC680C
:1049100003E01F4B9C4208BFEC68A369A360A38916
:104920001A0709D523693BB123682069FEB2181A1A
:10493000636998420FDB08E02146284600F03CF806
:104940000028F1D04FF0FF361BE021462846FFF744
:1049500025F90028F6D1A3680130013BA360236844
:104960005A1C22601F706369984204D0A389DB0738
:1049700007D50A2E05D121462846FFF70FF9002852
:10498000E0D13046F8BD00BF404D0008604D000842
:10499000804D000838B5074C0546084611460022F0
:1049A00022601A46FDF742FB431C02D1236803B183
:1049B0002B6038BD14260020324B70B51D680646AA
:1049C0000C4625B1AB6913B92846FFF751F92E4BB8
:1049D0009C4201D16C6808E02C4B9C4201D1AC6830
:1049E00003E02B4B9C4208BFEC68B4F90C309AB240
:1049F00015071DD4D00602D4092232603AE05107CF
:104A000012D5616B41B104F14403994202D03046A2
:104A1000FFF72AFD00236363A38923F02403A38106
:104A20000023636023692360A38943F00803A38103
:104A300023694BB9A38903F42073B3F5007F03D036
:104A400021463046FFF7D0F9A28912F0010305D0C4
:104A50000023A36063695B42A36103E0920758BF30
:104A60006369A36023695BB9B4F90C3003F080007B
:104A700080B230B143F04003A3814FF0FF3070BDEE
:104A8000002070BDB8000020404D0008604D0008B7
:104A9000804D000838B5064C0023054608462360C3
:104AA000FDF7EAFA431C02D1236803B12B6038BD3D
:104AB0001426002038B5074C002305460846114649
:104AC000236000F05FF8431C02D1236803B12B6020
:104AD00038BD00BF1426002038B5064C002305461B
:104AE00008462360FDF79CFA431C02D1236803B1FA
:104AF0002B6038BD1426002038B5074C0546084603
:104B00001146002222601A46FDF7BEFA431C02D16C
:104B1000236803B12B6038BD1426002082B001B990
:104B200001A93AB143B113780B601278101C18BF79
:104B3000012003E0104601E06FF0010002B0704771
:104B40007047704738B5074C0546084611460022A5
:104B500022601A46FDF79CFA431C02D1236803B178
:104B60002B6038BD1426002049B1FF2A85BF8A2357
:104B700003600A704FF0FF3098BF0120704708466D
:104B800070470000024B58221A604FF0FF30704708
:104B900014260020044A05491368002B08BF0B4661
:104BA0001844106018467047102600201826002070
:104BB000F8B500BFF8BC08BC9E467047F8B500BF0A
:084BC000F8BC08BC9E467047DA
:104BC8006D61696E000000007469646C6500000026
:104BD80000000100020001000300010002000100C2
:104BE80004000100020001000300010002000100AE
:104BF800050001000200010003000100020001009D
:104C0800040001000200010003000100020001008D
:104C1800060001000200010003000100020001007B
:104C2800040001000200010003000100020001006D
:104C3800050001000200010003000100020001005C
:104C4800040001000200010003000100020001004D
:104C5800070001000200010003000100020001003A
:104C6800040001000200010003000100020001002D
:104C7800050001000200010003000100020001001C
:104C8800040001000200010003000100020001000D
:104C980006000100020001000300010002000100FB
:104CA80004000100020001000300010002000100ED
:104CB80005000100020001000300010002000100DC
:104CC80004000100020001000300010002000100CD
:104CD80068656170000000004F4B21212100000031
:104CE8006C656431000000006C65643200000000EF
:104CF80058000020494E4600696E66004E414E003D
:104D08006E616E0030003031323334353637383921
:104D18004142434445460030313233343536373822
:104D28003961626364656600496E66696E697479A3
:104D3800004E614E0000000000000000000000006E
:104D4800000000000000000000000000000000005B
:104D5800000000000000000000000000000000004B
:104D6800000000000000000000000000000000003B
:104D7800000000000000000000000000000000002B
:104D8800000000000000000000000000000000001B
:104D98000000000000000000000000000000F03FDC
:104DA80000000000000024400000000000005940FE
:104DB8000000000000408F40000000000088C34051
:104DC80000000000006AF8400000000080842E41C6
:104DD80000000000D01263410000000084D7974112
:104DE8000000000065CDCD41000000205FA0024218
:104DF800000000E876483742000000A2941A6D428D
:104E0800000040E59C30A2420000901EC4BCD6427F
:104E180000003426F56B0C430080E03779C341432A
:104E280000A0D8855734764300C84E676DC1AB43A0
:104E3800003D9160E458E143408CB5781DAF1544BE
:104E480050EFE2D6E41A4B4492D54D06CFF0804499
:104E5800F64AE1C7022DB544B49DD9794378EA44AE
:104E68000080E03779C34143176E05B5B5B893465E
:104E7800F5F93FE9034F384D321D30F94877825A2A
:104E88003CBF737FDD4F1575050000001900000059
:104E98007D000000232D302B2000686C4C006566D7
:104EA80067454647004300504F534958002E0000BD
:104EB80020202020202020202028282828282020C2
:104EC80020202020202020202020202020202020DA
:104ED8008810101010101010101010101010101052
:104EE8000404040404040404040410101010101032
:104EF800104141414141410101010101010101010B
:104F0800010101010101010101010110101010103E
:104F180010424242424242020202020202020202DB
:104F28000202020202020202020202101010102003
:104F38000000000000000000000000000000000069
:104F48000000000000000000000000000000000059
:104F58000000000000000000000000000000000049
:104F68000000000000000000000000000000000039
:104F78000000000000000000000000000000000029
:104F88000000000000000000000000000000000019
:104F98000000000000000000000000000000000009
:104FA80000000000000000000000000000000000F9
:044FB8007D0C000864
:044FBC00810C00085C
:044FC000790C000860
:044FC40035010008AB
:044FC80011010008CB
:104FCC000100000004000020040000207800000014
:104FDC00020000001400002014000020200000003B
:104FEC0005000000240000202400002030000000F8
:104FFC000A00000034000020340000202C000000C7
:10500C00020406080000000001020304010203046C
:10501C000607080900A24A0400000000404D0008E1
:10502C00604D0008804D00080000000000000000EA
:10503C000000000000000000000000000000000064
:10504C000000000000000000000000000000000054
:10505C000000000000000000000000000000000044
:10506C000000000000000000000000000000000034
:10507C000000000000000000580000204300000069
:10508C000000000000000000000000000000000014
:10509C0000000000000000000000000043000000C1
:1050AC0000000000000000000000000000000000F4
:1050BC0000000000000000000000000043000000A1
:1050CC0000000000000000000000000000000000D4
:1050DC000000000000000000000000004300000081
:1050EC0000000000000000000000000000000000B4
:1050FC000000000000000000000000004300000061
:10510C000000000000000000000000000000000093
:10511C000000000000000000000000004300000040
:10512C000000000000000000000000000000000073
:10513C000000000000000000000000004300000020
:10514C000000000000000000000000000000000053
:10515C00000000000000000000000000694B000887
:10516C001D4B000800000000B74E0008B54E0008AB
:10517C00A14E0008A14E0008A14E0008A14E000847
:10518C00A14E0008A14E0008A14E0008A14E000837
:10519C00A14E0008FFFFFFFFFFFFFFFFFFFFFFFF18
:1051AC00FFFF00000100415343494900000000008B
:1051BC0000000000000000000000000000000000E3
:1051CC00000000000000415343494900000000006A
:1051DC0000000000000000000000000000000000C3
:0851EC000000000000000000BB
:04000005080020B916
:00000001FF
